{
  "transactions": [
    {
      "hash": "0x48525df505feb4529a2fec1592241ad354bf1a6a0e0847a6fe22e0796b6ec881",
      "transactionType": "CREATE",
      "contractName": "Aggregator",
      "contractAddress": "0xfeab9a221f6bcdb4c160cd81954ee4405edf0e35",
      "function": null,
      "arguments": [
        "0xd49df845D77Dd02DE442197BE0D4ccde0A076738",
        "0xaa6b8aD37f435Dc7e095ba6a20b6b2e7E0e285a1",
        "0xC81536da58b4b2e4ff433FE511bF0e035576eC15"
      ],
      "transaction": {
        "from": "0x95ed40013cb3990013af947a635d1a3e31057426",
        "gas": "0x1f62d9",
        "value": "0x0",
        "input": "0x608060405234801562000010575f80fd5b5060405162001b8d38038062001b8d8339810160408190526200003391620001cc565b33806200005a57604051631e4fbdf760e01b81525f60048201526024015b60405180910390fd5b620000658162000161565b5060017f9b779b17422d0df92223018b32b4d1fa46e071723d6817e2486d003becc55f00556001600160a01b038316620000d55760405162461bcd60e51b815260206004820152601060248201526f496e76616c696420726567697374727960801b604482015260640162000051565b6001600160a01b0381166200011e5760405162461bcd60e51b815260206004820152600e60248201526d496e76616c696420636f6e66696760901b604482015260640162000051565b600180546001600160a01b039485166001600160a01b03199182161790915560028054938516938216939093179092556003805491909316911617905562000213565b5f80546001600160a01b038381166001600160a01b0319831681178455604051919092169283917f8be0079c531659141344cd1fd0a4f28419497f9722a3daafe3b4186f6b6457e09190a35050565b80516001600160a01b0381168114620001c7575f80fd5b919050565b5f805f60608486031215620001df575f80fd5b620001ea84620001b0565b9250620001fa60208501620001b0565b91506200020a60408501620001b0565b90509250925092565b61196c80620002215f395ff3fe608060405234801561000f575f80fd5b50600436106100fb575f3560e01c80638da5cb5b11610093578063d52195d511610063578063d52195d514610291578063e3640735146102a4578063f2fde38b146102b7578063f3b3347e146102ca575f80fd5b80638da5cb5b1461022757806393a2295d14610237578063b37a00491461024a578063cb8ae86c1461025d575f80fd5b80636ca276e8116100ce5780636ca276e8146101d7578063715018a6146101f757806375619ab51461020157806379502c5514610214575f80fd5b806302b3bfbb146100ff5780630d1cfcae1461015d5780632f764644146101885780633e07d751146101ba575b5f80fd5b61011261010d36600461142b565b6102dd565b6040805197885260208801969096529315159486019490945260ff9091166060850152608084015260a08301919091526001600160a01b031660c082015260e0015b60405180910390f35b600154610170906001600160a01b031681565b6040516001600160a01b039091168152602001610154565b6101aa61019636600461146d565b60066020525f908152604090205460ff1681565b6040519015158152602001610154565b6101c9678ac7230489e8000081565b604051908152602001610154565b6101ea6101e53660046114c9565b610352565b6040516101549190611511565b6101ff6104f4565b005b6101ff61020f3660046115bb565b610507565b600354610170906001600160a01b031681565b5f546001600160a01b0316610170565b6101c96102453660046115db565b610531565b600254610170906001600160a01b031681565b61017061026b36600461161a565b80516020818301810180516004825292820191909301209152546001600160a01b031681565b6101c961029f3660046115db565b61055d565b6101ff6102b2366004611654565b61081e565b6101ff6102c53660046115bb565b611190565b6101ff6102d83660046116be565b6111cd565b81516020818401810180516005825292820191850191909120919052805482908110610307575f80fd5b5f91825260209091206006909102018054600182015460028301546003840154600485015460059095015493965091945060ff8082169461010090920416926001600160a01b031687565b60605f6005858560405161036792919061170e565b908152602001604051809103902090505f83828054905010610389578361038c565b81545b90505f8167ffffffffffffffff8111156103a8576103a861138e565b60405190808252806020026020018201604052801561040d57816020015b6040805160e0810182525f8082526020808301829052928201819052606082018190526080820181905260a0820181905260c082015282525f199092019101816103c65790505b5090505f5b828110156104e95783548490829061042b908690611731565b6104359190611744565b8154811061044557610445611757565b5f9182526020918290206040805160e081018252600690930290910180548352600181015493830193909352600283015460ff808216151592840192909252610100900416606082015260038201546080820152600482015460a08201526005909101546001600160a01b031660c082015282518390839081106104cb576104cb611757565b602002602001018190525080806104e19061176b565b915050610412565b509695505050505050565b6104fc6112a3565b6105055f6112cf565b565b61050f6112a3565b600280546001600160a01b0319166001600160a01b0392909216919091179055565b5f6005838360405161054492919061170e565b9081526040519081900360200190205490505b92915050565b5f806005848460405161057192919061170e565b9081526040519081900360200190208054909150806105ce5760405162461bcd60e51b81526020600482015260146024820152734e6f207570646174657320617661696c61626c6560601b60448201526064015b60405180910390fd5b5f805f5b838110156107b9575f8582815481106105ed576105ed611757565b5f91825260208083206040805160e0810182526006949094029091018054845260018082015493850193909352600281015460ff8082161515868501526101009091041660608501526003810154608085015260048082015460a08601526005909101546001600160a01b0390811660c086018190529354925163e5e666b160e01b815291820193909352929450169063e5e666b190602401602060405180830381865afa1580156106a1573d5f803e3d5ffd5b505050506040513d601f19601f820116820180604052508101906106c59190611783565b90505f60035f9054906101000a90046001600160a01b03166001600160a01b03166332d9c0ce6040518163ffffffff1660e01b8152600401602060405180830381865afa158015610718573d5f803e3d5ffd5b505050506040513d601f19601f8201168201806040525081019061073c9190611783565b90508082101561074a578091505b5f612710846060015160ff16848660200151610766919061179a565b610770919061179a565b61077a91906117b1565b845190915061078a90829061179a565b6107949088611744565b96506107a08187611744565b95505050505080806107b19061176b565b9150506105d2565b50805f036108095760405162461bcd60e51b815260206004820152601a60248201527f4e6f2076616c6964207570646174657320666f7220564357415000000000000060448201526064016105c5565b61081381836117b1565b979650505050505050565b61082661131e565b336001600160a01b0385161461088a5760405162461bcd60e51b815260206004820152602360248201527f43616c6c6572206d757374206265207468652072656769737465726564206167604482015262195b9d60ea1b60648201526084016105c5565b600154604051630a50339160e21b81526001600160a01b0390911690632940ce44906108be908790879087906004016117d0565b602060405180830381865afa1580156108d9573d5f803e3d5ffd5b505050506040513d601f19601f820116820180604052508101906108fd919061181c565b6109405760405162461bcd60e51b81526020600482015260146024820152731059d95b9d081b9bdd081c9959da5cdd195c995960621b60448201526064016105c5565b5f8160200135116109885760405162461bcd60e51b81526020600482015260126024820152710566f6c756d65206d757374206265203e20360741b60448201526064016105c5565b678ac7230489e80000816020013511156109d65760405162461bcd60e51b815260206004820152600f60248201526e0acded8eadaca40e8dede40d0d2ced608b1b60448201526064016105c5565b5f6109e76080830160608401611847565b60ff1611610a2e5760405162461bcd60e51b815260206004820152601460248201527304c65766572616765206d757374206265203e20360641b60448201526064016105c5565b4281608001351115610a755760405162461bcd60e51b815260206004820152601060248201526f04675747572652074696d657374616d760841b60448201526064016105c5565b60a08101355f9081526006602052604090205460ff1615610acc5760405162461bcd60e51b8152602060048201526011602482015270105b1c9958591e481c1c9bd8d95cdcd959607a1b60448201526064016105c5565b5f6001600160a01b031660048484604051610ae892919061170e565b908152604051908190036020019020546001600160a01b031603610b3f5760405162461bcd60e51b815260206004820152600e60248201526d11995959081b9bdd08199bdd5b9960921b60448201526064016105c5565b60a08101355f908152600660205260408120805460ff19166001179055610b6b36839003830183611860565b6001600160a01b03861660c0820152604051909150600590610b90908690869061170e565b9081526040805191829003602090810183208054600181810183555f9283528383208751600690930201918255868401519082015585840151600282018054606089015160ff166101000261ff00199315159390931661ffff1990911617919091179055608086015160038083019190915560a087015160048084019190915560c0880151600590930180546001600160a01b039485166001600160a01b031990911617905590546306a46fa760e41b8752945192959490911693636a46fa709382820193909290918290030181865afa158015610c70573d5f803e3d5ffd5b505050506040513d601f19601f82011682018060405250810190610c949190611783565b90508060058686604051610ca992919061170e565b908152604051908190036020019020541115610e95575f5b600160058787604051610cd592919061170e565b90815260405190819003602001902054610cef9190611731565b811015610e185760058686604051610d0892919061170e565b908152604051908190036020019020610d22826001611744565b81548110610d3257610d32611757565b905f5260205f20906006020160058787604051610d5092919061170e565b90815260200160405180910390208281548110610d6f57610d6f611757565b5f918252602090912082546006909202019081556001808301549082015560028083018054918301805460ff938416151560ff1982168117835592546101009081900490941690930261ff001990921661ffff19909316929092171790556003808301549082015560048083015490820155600591820154910180546001600160a01b0319166001600160a01b0390921691909117905580610e108161176b565b915050610cc1565b5060058585604051610e2b92919061170e565b9081526020016040518091039020805480610e4857610e486118f6565b5f8281526020812060065f19909301928302018181556001810182905560028101805461ffff1916905560038101829055600481019190915560050180546001600160a01b031916905590555b60015460405163feabe7bf60e01b81526001600160a01b0388811660048301529091169063feabe7bf906024015f604051808303815f87803b158015610ed9575f80fd5b505af1158015610eeb573d5f803e3d5ffd5b505050505f610efa868661055d565b905060048686604051610f0e92919061170e565b90815260405190819003602001812054636273a25160e01b8252600482018390524260248301526001600160a01b031690636273a251906044015f604051808303815f87803b158015610f5f575f80fd5b505af1158015610f71573d5f803e3d5ffd5b50506002546001600160a01b03161591506110759050576002546040516001600160a01b038981166024830152602087013560448301525f92169060640160408051601f198184030181529181526020820180516001600160e01b03166348cff27f60e01b17905251610fe4919061190a565b5f604051808303815f865af19150503d805f811461101d576040519150601f19603f3d011682016040523d82523d5f602084013e611022565b606091505b50509050806110735760405162461bcd60e51b815260206004820152601760248201527f4469737472696275746f722063616c6c206661696c656400000000000000000060448201526064016105c5565b505b858560405161108592919061170e565b6040805191829003822086358352602080880135908401526080808801358484015260a08801356060850152915190926001600160a01b038b16927fa497fbb1d4e9f1b0b222d00edcac5a6cb5a96385abf437a7d5bda16ff0a8e82c92918290030190a385856040516110f992919061170e565b60405180910390207f7ef7f833d43bb516e267595b38b132a56879620249ce3a563c8149695438540f826005898960405161113592919061170e565b90815260405190819003602001812054611156928252602082015260400190565b60405180910390a250505061118a60017f9b779b17422d0df92223018b32b4d1fa46e071723d6817e2486d003becc55f0055565b50505050565b6111986112a3565b6001600160a01b0381166111c157604051631e4fbdf760e01b81525f60048201526024016105c5565b6111ca816112cf565b50565b6111d56112a3565b6001600160a01b0381166112205760405162461bcd60e51b8152602060048201526012602482015271125b9d985b1a59081c1c9a58d9481999595960721b60448201526064016105c5565b806004848460405161123392919061170e565b90815260405190819003602001812080546001600160a01b039384166001600160a01b03199091161790559082169061126f908590859061170e565b604051908190038120907fdf04234d4adad453c202a56aae343d791761210eb89d2d72fd2ff7102d8d3186905f90a3505050565b5f546001600160a01b031633146105055760405163118cdaa760e01b81523360048201526024016105c5565b5f80546001600160a01b038381166001600160a01b0319831681178455604051919092169283917f8be0079c531659141344cd1fd0a4f28419497f9722a3daafe3b4186f6b6457e09190a35050565b61132661134c565b60027f9b779b17422d0df92223018b32b4d1fa46e071723d6817e2486d003becc55f0055565b7f9b779b17422d0df92223018b32b4d1fa46e071723d6817e2486d003becc55f005460020361050557604051633ee5aeb560e01b815260040160405180910390fd5b634e487b7160e01b5f52604160045260245ffd5b5f82601f8301126113b1575f80fd5b813567ffffffffffffffff808211156113cc576113cc61138e565b604051601f8301601f19908116603f011681019082821181831017156113f4576113f461138e565b8160405283815286602085880101111561140c575f80fd5b836020870160208301375f602085830101528094505050505092915050565b5f806040838503121561143c575f80fd5b823567ffffffffffffffff811115611452575f80fd5b61145e858286016113a2565b95602094909401359450505050565b5f6020828403121561147d575f80fd5b5035919050565b5f8083601f840112611494575f80fd5b50813567ffffffffffffffff8111156114ab575f80fd5b6020830191508360208285010111156114c2575f80fd5b9250929050565b5f805f604084860312156114db575f80fd5b833567ffffffffffffffff8111156114f1575f80fd5b6114fd86828701611484565b909790965060209590950135949350505050565b602080825282518282018190525f919060409081850190868401855b828110156115935781518051855286810151878601528581015115158686015260608082015160ff16908601526080808201519086015260a0808201519086015260c0908101516001600160a01b03169085015260e0909301929085019060010161152d565b5091979650505050505050565b80356001600160a01b03811681146115b6575f80fd5b919050565b5f602082840312156115cb575f80fd5b6115d4826115a0565b9392505050565b5f80602083850312156115ec575f80fd5b823567ffffffffffffffff811115611602575f80fd5b61160e85828601611484565b90969095509350505050565b5f6020828403121561162a575f80fd5b813567ffffffffffffffff811115611640575f80fd5b61164c848285016113a2565b949350505050565b5f805f80848603610120811215611669575f80fd5b611672866115a0565b9450602086013567ffffffffffffffff81111561168d575f80fd5b61169988828901611484565b90955093505060e0603f19820112156116b0575f80fd5b509295919450926040019150565b5f805f604084860312156116d0575f80fd5b833567ffffffffffffffff8111156116e6575f80fd5b6116f286828701611484565b90945092506117059050602085016115a0565b90509250925092565b818382375f9101908152919050565b634e487b7160e01b5f52601160045260245ffd5b818103818111156105575761055761171d565b808201808211156105575761055761171d565b634e487b7160e01b5f52603260045260245ffd5b5f6001820161177c5761177c61171d565b5060010190565b5f60208284031215611793575f80fd5b5051919050565b80820281158282048414176105575761055761171d565b5f826117cb57634e487b7160e01b5f52601260045260245ffd5b500490565b6001600160a01b03841681526040602082018190528101829052818360608301375f818301606090810191909152601f909201601f1916010192915050565b80151581146111ca575f80fd5b5f6020828403121561182c575f80fd5b81516115d48161180f565b803560ff811681146115b6575f80fd5b5f60208284031215611857575f80fd5b6115d482611837565b5f60e08284031215611870575f80fd5b60405160e0810181811067ffffffffffffffff821117156118935761189361138e565b8060405250823581526020830135602082015260408301356118b48161180f565b60408201526118c560608401611837565b60608201526080830135608082015260a083013560a08201526118ea60c084016115a0565b60c08201529392505050565b634e487b7160e01b5f52603160045260245ffd5b5f82515f5b81811015611929576020818601810151858301520161190f565b505f92019182525091905056fea2646970667358221220cbf3bc710aecb513686c7e3e38e76dd78f3296922791027a38526daa82e7819164736f6c63430008140033000000000000000000000000d49df845d77dd02de442197be0d4ccde0a076738000000000000000000000000aa6b8ad37f435dc7e095ba6a20b6b2e7e0e285a1000000000000000000000000c81536da58b4b2e4ff433fe511bf0e035576ec15",
        "nonce": "0x4a",
        "chainId": "0xaa02"
      },
      "additionalContracts": [],
      "isFixedGasLimit": false
    },
    {
      "hash": "0x7aecf6d4e4bfec6a1b3776617fdd260f648c5f13e97fa2f1997a854ae92227be",
      "transactionType": "CALL",
      "contractName": "Aggregator",
      "contractAddress": "0xfeab9a221f6bcdb4c160cd81954ee4405edf0e35",
      "function": "setPriceFeed(string,address)",
      "arguments": [
        "DOGE",
        "0x30490c9239FDc6ff8FEEF84FF6f7B657Ec6882F8"
      ],
      "transaction": {
        "from": "0x95ed40013cb3990013af947a635d1a3e31057426",
        "to": "0xfeab9a221f6bcdb4c160cd81954ee4405edf0e35",
        "gas": "0x106d8",
        "value": "0x0",
        "input": "0xf3b3347e000000000000000000000000000000000000000000000000000000000000004000000000000000000000000030490c9239fdc6ff8feef84ff6f7b657ec6882f80000000000000000000000000000000000000000000000000000000000000004444f474500000000000000000000000000000000000000000000000000000000",
        "nonce": "0x4b",
        "chainId": "0xaa02"
      },
      "additionalContracts": [],
      "isFixedGasLimit": false
    },
    {
      "hash": "0x2072674e03c12524c1c8bea91ed00d3dea410d74dee8f19422eacc8320ad37b5",
      "transactionType": "CALL",
      "contractName": "Aggregator",
      "contractAddress": "0xfeab9a221f6bcdb4c160cd81954ee4405edf0e35",
      "function": "setPriceFeed(string,address)",
      "arguments": [
        "PEPE",
        "0x5DbD29ca81385606888112288bbAe95f0Eb9f170"
      ],
      "transaction": {
        "from": "0x95ed40013cb3990013af947a635d1a3e31057426",
        "to": "0xfeab9a221f6bcdb4c160cd81954ee4405edf0e35",
        "gas": "0x106d8",
        "value": "0x0",
        "input": "0xf3b3347e00000000000000000000000000000000000000000000000000000000000000400000000000000000000000005dbd29ca81385606888112288bbae95f0eb9f17000000000000000000000000000000000000000000000000000000000000000045045504500000000000000000000000000000000000000000000000000000000",
        "nonce": "0x4c",
        "chainId": "0xaa02"
      },
      "additionalContracts": [],
      "isFixedGasLimit": false
    },
    {
      "hash": "0x9d8188b31038903143f0e38f7dd289efeb5091c9fa2c7d498a268619e10d1ad1",
      "transactionType": "CALL",
      "contractName": "Aggregator",
      "contractAddress": "0xfeab9a221f6bcdb4c160cd81954ee4405edf0e35",
      "function": "setPriceFeed(string,address)",
      "arguments": [
        "SHIB",
        "0xa35F2923f8C6a8E9D2F655AB4cfb373864E6cC89"
      ],
      "transaction": {
        "from": "0x95ed40013cb3990013af947a635d1a3e31057426",
        "to": "0xfeab9a221f6bcdb4c160cd81954ee4405edf0e35",
        "gas": "0x106d8",
        "value": "0x0",
        "input": "0xf3b3347e0000000000000000000000000000000000000000000000000000000000000040000000000000000000000000a35f2923f8c6a8e9d2f655ab4cfb373864e6cc8900000000000000000000000000000000000000000000000000000000000000045348494200000000000000000000000000000000000000000000000000000000",
        "nonce": "0x4d",
        "chainId": "0xaa02"
      },
      "additionalContracts": [],
      "isFixedGasLimit": false
    },
    {
      "hash": "0xf60164a2906b96a17bd825bec49ba6eb9e6ff1eac1f0e47609990b39ed34b642",
      "transactionType": "CALL",
      "contractName": "Aggregator",
      "contractAddress": "0xfeab9a221f6bcdb4c160cd81954ee4405edf0e35",
      "function": "setPriceFeed(string,address)",
      "arguments": [
        "FLOKI",
        "0xF34772793a37Cab10E13B7fb686f93445e0f4339"
      ],
      "transaction": {
        "from": "0x95ed40013cb3990013af947a635d1a3e31057426",
        "to": "0xfeab9a221f6bcdb4c160cd81954ee4405edf0e35",
        "gas": "0x106e8",
        "value": "0x0",
        "input": "0xf3b3347e0000000000000000000000000000000000000000000000000000000000000040000000000000000000000000f34772793a37cab10e13b7fb686f93445e0f43390000000000000000000000000000000000000000000000000000000000000005464c4f4b49000000000000000000000000000000000000000000000000000000",
        "nonce": "0x4e",
        "chainId": "0xaa02"
      },
      "additionalContracts": [],
      "isFixedGasLimit": false
    },
    {
      "hash": "0x04af822178a8063def153c397e8d2763d1484cc765ba94f19dd1c08a0bb78d09",
      "transactionType": "CALL",
      "contractName": "Aggregator",
      "contractAddress": "0xfeab9a221f6bcdb4c160cd81954ee4405edf0e35",
      "function": "setPriceFeed(string,address)",
      "arguments": [
        "WIF",
        "0xf11B4128624461839165F46cC3eF30eA84fb4DBC"
      ],
      "transaction": {
        "from": "0x95ed40013cb3990013af947a635d1a3e31057426",
        "to": "0xfeab9a221f6bcdb4c160cd81954ee4405edf0e35",
        "gas": "0x106c8",
        "value": "0x0",
        "input": "0xf3b3347e0000000000000000000000000000000000000000000000000000000000000040000000000000000000000000f11b4128624461839165f46cc3ef30ea84fb4dbc00000000000000000000000000000000000000000000000000000000000000035749460000000000000000000000000000000000000000000000000000000000",
        "nonce": "0x4f",
        "chainId": "0xaa02"
      },
      "additionalContracts": [],
      "isFixedGasLimit": false
    },
    {
      "hash": "0x97e9e18cdcf5ad66052f266f45830b8369188d4075ae1bc58dfa05146e954341",
      "transactionType": "CALL",
      "contractName": "Aggregator",
      "contractAddress": "0xfeab9a221f6bcdb4c160cd81954ee4405edf0e35",
      "function": "setPriceFeed(string,address)",
      "arguments": [
        "BONK",
        "0x1e44CFA2C04F9bbe1C612673BC808C214bA04941"
      ],
      "transaction": {
        "from": "0x95ed40013cb3990013af947a635d1a3e31057426",
        "to": "0xfeab9a221f6bcdb4c160cd81954ee4405edf0e35",
        "gas": "0x106d8",
        "value": "0x0",
        "input": "0xf3b3347e00000000000000000000000000000000000000000000000000000000000000400000000000000000000000001e44cfa2c04f9bbe1c612673bc808c214ba049410000000000000000000000000000000000000000000000000000000000000004424f4e4b00000000000000000000000000000000000000000000000000000000",
        "nonce": "0x50",
        "chainId": "0xaa02"
      },
      "additionalContracts": [],
      "isFixedGasLimit": false
    },
    {
      "hash": "0x980d69455c9df7eff0469200e4ad2f2b79384884b6328dc071b6ed47355b3a9d",
      "transactionType": "CALL",
      "contractName": "Aggregator",
      "contractAddress": "0xfeab9a221f6bcdb4c160cd81954ee4405edf0e35",
      "function": "setPriceFeed(string,address)",
      "arguments": [
        "BTC",
        "0xBB906be3676b1d6872cdcA58E336Aea089c698b0"
      ],
      "transaction": {
        "from": "0x95ed40013cb3990013af947a635d1a3e31057426",
        "to": "0xfeab9a221f6bcdb4c160cd81954ee4405edf0e35",
        "gas": "0x106c8",
        "value": "0x0",
        "input": "0xf3b3347e0000000000000000000000000000000000000000000000000000000000000040000000000000000000000000bb906be3676b1d6872cdca58e336aea089c698b000000000000000000000000000000000000000000000000000000000000000034254430000000000000000000000000000000000000000000000000000000000",
        "nonce": "0x51",
        "chainId": "0xaa02"
      },
      "additionalContracts": [],
      "isFixedGasLimit": false
    },
    {
      "hash": "0x683f78788c44d98e5006a338f05fb073f00347adb5060dd807d5ec25e196c145",
      "transactionType": "CALL",
      "contractName": null,
      "contractAddress": "0xd49df845d77dd02de442197be0d4ccde0a076738",
      "function": "setAggregator(address)",
      "arguments": [
        "0xFeAB9a221f6bcDb4c160cD81954eE4405EdF0e35"
      ],
      "transaction": {
        "from": "0x95ed40013cb3990013af947a635d1a3e31057426",
        "to": "0xd49df845d77dd02de442197be0d4ccde0a076738",
        "gas": "0xacab",
        "value": "0x0",
        "input": "0xf9120af6000000000000000000000000feab9a221f6bcdb4c160cd81954ee4405edf0e35",
        "nonce": "0x52",
        "chainId": "0xaa02"
      },
      "additionalContracts": [],
      "isFixedGasLimit": false
    },
    {
      "hash": "0x825357ae4e36d09fbb21f051f9c2accc1fae466ae613536684dae2c1c71bcbf7",
      "transactionType": "CALL",
      "contractName": null,
      "contractAddress": "0xaa6b8ad37f435dc7e095ba6a20b6b2e7e0e285a1",
      "function": "setAggregator(address)",
      "arguments": [
        "0xFeAB9a221f6bcDb4c160cD81954eE4405EdF0e35"
      ],
      "transaction": {
        "from": "0x95ed40013cb3990013af947a635d1a3e31057426",
        "to": "0xaa6b8ad37f435dc7e095ba6a20b6b2e7e0e285a1",
        "gas": "0x9d0e",
        "value": "0x0",
        "input": "0xf9120af6000000000000000000000000feab9a221f6bcdb4c160cd81954ee4405edf0e35",
        "nonce": "0x53",
        "chainId": "0xaa02"
      },
      "additionalContracts": [],
      "isFixedGasLimit": false
    },
    {
      "hash": "0x177a59beaf601c840ee33466e1efb6abb6ab31c4ee26699a065cf0d142f9bf89",
      "transactionType": "CALL",
      "contractName": null,
      "contractAddress": "0x30490c9239fdc6ff8feef84ff6f7b657ec6882f8",
      "function": "setAggregator(address)",
      "arguments": [
        "0xFeAB9a221f6bcDb4c160cD81954eE4405EdF0e35"
      ],
      "transaction": {
        "from": "0x95ed40013cb3990013af947a635d1a3e31057426",
        "to": "0x30490c9239fdc6ff8feef84ff6f7b657ec6882f8",
        "gas": "0xa4ea",
        "value": "0x0",
        "input": "0xf9120af6000000000000000000000000feab9a221f6bcdb4c160cd81954ee4405edf0e35",
        "nonce": "0x54",
        "chainId": "0xaa02"
      },
      "additionalContracts": [],
      "isFixedGasLimit": false
    },
    {
      "hash": "0x412e9a1f1b8671f5ccb8a9c0aa1b11e780221c3aaec658eb1c6ad9d76b9ebaab",
      "transactionType": "CALL",
      "contractName": null,
      "contractAddress": "0x5dbd29ca81385606888112288bbae95f0eb9f170",
      "function": "setAggregator(address)",
      "arguments": [
        "0xFeAB9a221f6bcDb4c160cD81954eE4405EdF0e35"
      ],
      "transaction": {
        "from": "0x95ed40013cb3990013af947a635d1a3e31057426",
        "to": "0x5dbd29ca81385606888112288bbae95f0eb9f170",
        "gas": "0xa4ea",
        "value": "0x0",
        "input": "0xf9120af6000000000000000000000000feab9a221f6bcdb4c160cd81954ee4405edf0e35",
        "nonce": "0x55",
        "chainId": "0xaa02"
      },
      "additionalContracts": [],
      "isFixedGasLimit": false
    },
    {
      "hash": "0xf52821fae84b7b54aeb6e8e465c5f5309bdb7e6753a950a111f9dd220fa64448",
      "transactionType": "CALL",
      "contractName": null,
      "contractAddress": "0xa35f2923f8c6a8e9d2f655ab4cfb373864e6cc89",
      "function": "setAggregator(address)",
      "arguments": [
        "0xFeAB9a221f6bcDb4c160cD81954eE4405EdF0e35"
      ],
      "transaction": {
        "from": "0x95ed40013cb3990013af947a635d1a3e31057426",
        "to": "0xa35f2923f8c6a8e9d2f655ab4cfb373864e6cc89",
        "gas": "0xa4ea",
        "value": "0x0",
        "input": "0xf9120af6000000000000000000000000feab9a221f6bcdb4c160cd81954ee4405edf0e35",
        "nonce": "0x56",
        "chainId": "0xaa02"
      },
      "additionalContracts": [],
      "isFixedGasLimit": false
    },
    {
      "hash": "0x1434dba5b74a21725c82db484649d9d48672089723f68a0360ff6372d5b4cd7c",
      "transactionType": "CALL",
      "contractName": null,
      "contractAddress": "0xf34772793a37cab10e13b7fb686f93445e0f4339",
      "function": "setAggregator(address)",
      "arguments": [
        "0xFeAB9a221f6bcDb4c160cD81954eE4405EdF0e35"
      ],
      "transaction": {
        "from": "0x95ed40013cb3990013af947a635d1a3e31057426",
        "to": "0xf34772793a37cab10e13b7fb686f93445e0f4339",
        "gas": "0xa4ea",
        "value": "0x0",
        "input": "0xf9120af6000000000000000000000000feab9a221f6bcdb4c160cd81954ee4405edf0e35",
        "nonce": "0x57",
        "chainId": "0xaa02"
      },
      "additionalContracts": [],
      "isFixedGasLimit": false
    },
    {
      "hash": "0x2cf48607730cb2ea830a0fe1fed2ae783090624d504f695983e3d91e86a120ca",
      "transactionType": "CALL",
      "contractName": null,
      "contractAddress": "0xf11b4128624461839165f46cc3ef30ea84fb4dbc",
      "function": "setAggregator(address)",
      "arguments": [
        "0xFeAB9a221f6bcDb4c160cD81954eE4405EdF0e35"
      ],
      "transaction": {
        "from": "0x95ed40013cb3990013af947a635d1a3e31057426",
        "to": "0xf11b4128624461839165f46cc3ef30ea84fb4dbc",
        "gas": "0xa4ea",
        "value": "0x0",
        "input": "0xf9120af6000000000000000000000000feab9a221f6bcdb4c160cd81954ee4405edf0e35",
        "nonce": "0x58",
        "chainId": "0xaa02"
      },
      "additionalContracts": [],
      "isFixedGasLimit": false
    },
    {
      "hash": "0x787c1cdb8689acf3674b97ca26d185124169187245f6034c6f4c38aad93eb37d",
      "transactionType": "CALL",
      "contractName": null,
      "contractAddress": "0x1e44cfa2c04f9bbe1c612673bc808c214ba04941",
      "function": "setAggregator(address)",
      "arguments": [
        "0xFeAB9a221f6bcDb4c160cD81954eE4405EdF0e35"
      ],
      "transaction": {
        "from": "0x95ed40013cb3990013af947a635d1a3e31057426",
        "to": "0x1e44cfa2c04f9bbe1c612673bc808c214ba04941",
        "gas": "0xa4ea",
        "value": "0x0",
        "input": "0xf9120af6000000000000000000000000feab9a221f6bcdb4c160cd81954ee4405edf0e35",
        "nonce": "0x59",
        "chainId": "0xaa02"
      },
      "additionalContracts": [],
      "isFixedGasLimit": false
    },
    {
      "hash": "0xe2802c3c7db2fe2c302ebf3ccd0af80dc16bb0b8b6d099d70350770a899e1ee0",
      "transactionType": "CALL",
      "contractName": null,
      "contractAddress": "0xbb906be3676b1d6872cdca58e336aea089c698b0",
      "function": "setAggregator(address)",
      "arguments": [
        "0xFeAB9a221f6bcDb4c160cD81954eE4405EdF0e35"
      ],
      "transaction": {
        "from": "0x95ed40013cb3990013af947a635d1a3e31057426",
        "to": "0xbb906be3676b1d6872cdca58e336aea089c698b0",
        "gas": "0xa4ea",
        "value": "0x0",
        "input": "0xf9120af6000000000000000000000000feab9a221f6bcdb4c160cd81954ee4405edf0e35",
        "nonce": "0x5a",
        "chainId": "0xaa02"
      },
      "additionalContracts": [],
      "isFixedGasLimit": false
    }
  ],
  "receipts": [
    {
      "status": "0x1",
      "cumulativeGasUsed": "0x1b0d7d",
      "logs": [
        {
          "address": "0xfeab9a221f6bcdb4c160cd81954ee4405edf0e35",
          "topics": [
            "0x8be0079c531659141344cd1fd0a4f28419497f9722a3daafe3b4186f6b6457e0",
            "0x0000000000000000000000000000000000000000000000000000000000000000",
            "0x00000000000000000000000095ed40013cb3990013af947a635d1a3e31057426"
          ],
          "data": "0x",
          "blockHash": "0xa583f862ef6665c6700aa75b0fdb40142a3074e76557b61459fd05321f4b1561",
          "blockNumber": "0x2b1085",
          "transactionHash": "0x48525df505feb4529a2fec1592241ad354bf1a6a0e0847a6fe22e0796b6ec881",
          "transactionIndex": "0x1",
          "logIndex": "0x2",
          "removed": false
        }
      ],
      "logsBloom": "0x000000000000000000000000000000000000000000000000048000000000000000000000000000000000000000000000000000000000000000000000000000000000000000000000000000000000000000010000000000000000000000000000000000000a0000000000000000000800000000801000000000000000000000400000000000000000000000000000000000000000002000000000000000000000000000000000000000000000000000000000000000000000000000000000000000000000000000000000000000000000000000000000000000000000000020000000000000000000000000000000000000000000000000000000000000000000",
      "type": "0x2",
      "transactionHash": "0x48525df505feb4529a2fec1592241ad354bf1a6a0e0847a6fe22e0796b6ec881",
      "transactionIndex": "0x1",
      "blockHash": "0xa583f862ef6665c6700aa75b0fdb40142a3074e76557b61459fd05321f4b1561",
      "blockNumber": "0x2b1085",
      "gasUsed": "0x1824a7",
      "effectiveGasPrice": "0x15d7a926200",
      "from": "0x95ed40013cb3990013af947a635d1a3e31057426",
      "to": null,
      "contractAddress": "0xfeab9a221f6bcdb4c160cd81954ee4405edf0e35"
    },
    {
      "status": "0x1",
      "cumulativeGasUsed": "0x1bcbc9",
      "logs": [
        {
          "address": "0xfeab9a221f6bcdb4c160cd81954ee4405edf0e35",
          "topics": [
            "0xdf04234d4adad453c202a56aae343d791761210eb89d2d72fd2ff7102d8d3186",
            "0x9a3f52b1b31ae58da40209f38379e78c3a0756495a0f585d0b3c84a9e9718f9d",
            "0x00000000000000000000000030490c9239fdc6ff8feef84ff6f7b657ec6882f8"
          ],
          "data": "0x",
          "blockHash": "0xa583f862ef6665c6700aa75b0fdb40142a3074e76557b61459fd05321f4b1561",
          "blockNumber": "0x2b1085",
          "transactionHash": "0x7aecf6d4e4bfec6a1b3776617fdd260f648c5f13e97fa2f1997a854ae92227be",
          "transactionIndex": "0x2",
          "logIndex": "0x3",
          "removed": false
        }
      ],
      "logsBloom": "0x00000000000000000000000000000000000000000000040000000000000000000000000000000000000000000000000000800000004000000000000000000000000000000000000000000000000000000000000000000000000000000000000000000000020000000000000000000000000000801000000000000000000000000000000000000000000000000000000000000000000000000000000000000000000040000001040000000000000000000010000000000000000000000000800000000000000000000000000000000000000000000000000000000000000000000000000000004000000000000000000000000000000000000000000000000000",
      "type": "0x2",
      "transactionHash": "0x7aecf6d4e4bfec6a1b3776617fdd260f648c5f13e97fa2f1997a854ae92227be",
      "transactionIndex": "0x2",
      "blockHash": "0xa583f862ef6665c6700aa75b0fdb40142a3074e76557b61459fd05321f4b1561",
      "blockNumber": "0x2b1085",
      "gasUsed": "0xbe4c",
      "effectiveGasPrice": "0x15d7a926200",
      "from": "0x95ed40013cb3990013af947a635d1a3e31057426",
      "to": "0xfeab9a221f6bcdb4c160cd81954ee4405edf0e35",
      "contractAddress": null
    },
    {
      "status": "0x1",
      "cumulativeGasUsed": "0x1c8a15",
      "logs": [
        {
          "address": "0xfeab9a221f6bcdb4c160cd81954ee4405edf0e35",
          "topics": [
            "0xdf04234d4adad453c202a56aae343d791761210eb89d2d72fd2ff7102d8d3186",
            "0x608e17bb6814e7eb8d564b13416322f3d8a2dc5e36dde75519945008d7848749",
            "0x0000000000000000000000005dbd29ca81385606888112288bbae95f0eb9f170"
          ],
          "data": "0x",
          "blockHash": "0xa583f862ef6665c6700aa75b0fdb40142a3074e76557b61459fd05321f4b1561",
          "blockNumber": "0x2b1085",
          "transactionHash": "0x2072674e03c12524c1c8bea91ed00d3dea410d74dee8f19422eacc8320ad37b5",
          "transactionIndex": "0x3",
          "logIndex": "0x4",
          "removed": false
        }
      ],
      "logsBloom": "0x00000000000000000000000000000000000000000000000000000000000000000000000000000000000000000000000000800000004000000000000000000000000000040000000000000000000000000000000000000000000000000000000000000000020000000000000000000000000000801000000000000010000000000000000000000000000000000010000000000000000000000000000000000000000000000000020000000000000000000000000000000020000000000000000000000000000000000000000000000000000000000000000000020000000000000000000000004000000000000000000000000000000000000000000000000000",
      "type": "0x2",
      "transactionHash": "0x2072674e03c12524c1c8bea91ed00d3dea410d74dee8f19422eacc8320ad37b5",
      "transactionIndex": "0x3",
      "blockHash": "0xa583f862ef6665c6700aa75b0fdb40142a3074e76557b61459fd05321f4b1561",
      "blockNumber": "0x2b1085",
      "gasUsed": "0xbe4c",
      "effectiveGasPrice": "0x15d7a926200",
      "from": "0x95ed40013cb3990013af947a635d1a3e31057426",
      "to": "0xfeab9a221f6bcdb4c160cd81954ee4405edf0e35",
      "contractAddress": null
    },
    {
      "status": "0x1",
      "cumulativeGasUsed": "0x1d4861",
      "logs": [
        {
          "address": "0xfeab9a221f6bcdb4c160cd81954ee4405edf0e35",
          "topics": [
            "0xdf04234d4adad453c202a56aae343d791761210eb89d2d72fd2ff7102d8d3186",
            "0xefa585451ff82e7559b7e4aa3c7d26b394fd121301bbf6f1da4ef6d29210466e",
            "0x000000000000000000000000a35f2923f8c6a8e9d2f655ab4cfb373864e6cc89"
          ],
          "data": "0x",
          "blockHash": "0xa583f862ef6665c6700aa75b0fdb40142a3074e76557b61459fd05321f4b1561",
          "blockNumber": "0x2b1085",
          "transactionHash": "0x9d8188b31038903143f0e38f7dd289efeb5091c9fa2c7d498a268619e10d1ad1",
          "transactionIndex": "0x4",
          "logIndex": "0x5",
          "removed": false
        }
      ],
      "logsBloom": "0x00000000000000000000000000000000000000000000000000000000000000000000000008000000000000000000000000800000004000000000000000000000000000000000000000000000000000000000000000080000000000000000000000000000020000000000000000000000000010801000000000000000000000000000000000000000000000000000000000000000000000000000000000000000000000000000000000000000000000000000000000000000000000000000000000000000000000000000000000000000800000000000000000000000000000800200000000004000000000000000000000000000000000000000000000000000",
      "type": "0x2",
      "transactionHash": "0x9d8188b31038903143f0e38f7dd289efeb5091c9fa2c7d498a268619e10d1ad1",
      "transactionIndex": "0x4",
      "blockHash": "0xa583f862ef6665c6700aa75b0fdb40142a3074e76557b61459fd05321f4b1561",
      "blockNumber": "0x2b1085",
      "gasUsed": "0xbe4c",
      "effectiveGasPrice": "0x15d7a926200",
      "from": "0x95ed40013cb3990013af947a635d1a3e31057426",
      "to": "0xfeab9a221f6bcdb4c160cd81954ee4405edf0e35",
      "contractAddress": null
    },
    {
      "status": "0x1",
      "cumulativeGasUsed": "0x1e06b9",
      "logs": [
        {
          "address": "0xfeab9a221f6bcdb4c160cd81954ee4405edf0e35",
          "topics": [
            "0xdf04234d4adad453c202a56aae343d791761210eb89d2d72fd2ff7102d8d3186",
            "0x4d2685df44ed8d92cd381798ca9d3877ed9fca9a24cbfcf0e5985c253410b371",
            "0x000000000000000000000000f34772793a37cab10e13b7fb686f93445e0f4339"
          ],
          "data": "0x",
          "blockHash": "0xa583f862ef6665c6700aa75b0fdb40142a3074e76557b61459fd05321f4b1561",
          "blockNumber": "0x2b1085",
          "transactionHash": "0xf60164a2906b96a17bd825bec49ba6eb9e6ff1eac1f0e47609990b39ed34b642",
          "transactionIndex": "0x5",
          "logIndex": "0x6",
          "removed": false
        }
      ],
      "logsBloom": "0x00000000000000000000000100000000000000000000000000000000000000000000000000000000000000000000000000820000004000000000000000000000000000000000000000000000000000000000000000000000000000000000000000000000020000000000000002000000000000801000000000000000000000000000000000010000000000000000000000000000000000000000000000000000000000000000000000000000000000000000000000000000000001000000000000000000000000000000000000000000000000000000000000000000000000000000000000004000000000000000000400000000000000000000000000000000",
      "type": "0x2",
      "transactionHash": "0xf60164a2906b96a17bd825bec49ba6eb9e6ff1eac1f0e47609990b39ed34b642",
      "transactionIndex": "0x5",
      "blockHash": "0xa583f862ef6665c6700aa75b0fdb40142a3074e76557b61459fd05321f4b1561",
      "blockNumber": "0x2b1085",
      "gasUsed": "0xbe58",
      "effectiveGasPrice": "0x15d7a926200",
      "from": "0x95ed40013cb3990013af947a635d1a3e31057426",
      "to": "0xfeab9a221f6bcdb4c160cd81954ee4405edf0e35",
      "contractAddress": null
    },
    {
      "status": "0x1",
      "cumulativeGasUsed": "0x1ec4f9",
      "logs": [
        {
          "address": "0xfeab9a221f6bcdb4c160cd81954ee4405edf0e35",
          "topics": [
            "0xdf04234d4adad453c202a56aae343d791761210eb89d2d72fd2ff7102d8d3186",
            "0xabad9a062c9f315a9feea094e0ec8d4620ba3e5953a36728cb12e20baddf0a07",
            "0x000000000000000000000000f11b4128624461839165f46cc3ef30ea84fb4dbc"
          ],
          "data": "0x",
          "blockHash": "0xa583f862ef6665c6700aa75b0fdb40142a3074e76557b61459fd05321f4b1561",
          "blockNumber": "0x2b1085",
          "transactionHash": "0x04af822178a8063def153c397e8d2763d1484cc765ba94f19dd1c08a0bb78d09",
          "transactionIndex": "0x6",
          "logIndex": "0x7",
          "removed": false
        }
      ],
      "logsBloom": "0x00000000000000000000000000000000000000000000000000000000000000000000000000000000000000000000000000800000004000000000000000000000000000000000000000000000000000000000000000000000000000000000000008000000020000000000000000000000000008801000000000000000000000000000000000000000000000000000000000000000000000000000000000000000000000000000000000000000000004000001000000000000000000000000000000000000000200000000000000000000000000000000000000000000080000000000000000004000000000000000000000000000000000000000000000000000",
      "type": "0x2",
      "transactionHash": "0x04af822178a8063def153c397e8d2763d1484cc765ba94f19dd1c08a0bb78d09",
      "transactionIndex": "0x6",
      "blockHash": "0xa583f862ef6665c6700aa75b0fdb40142a3074e76557b61459fd05321f4b1561",
      "blockNumber": "0x2b1085",
      "gasUsed": "0xbe40",
      "effectiveGasPrice": "0x15d7a926200",
      "from": "0x95ed40013cb3990013af947a635d1a3e31057426",
      "to": "0xfeab9a221f6bcdb4c160cd81954ee4405edf0e35",
      "contractAddress": null
    },
    {
      "status": "0x1",
      "cumulativeGasUsed": "0x1f8345",
      "logs": [
        {
          "address": "0xfeab9a221f6bcdb4c160cd81954ee4405edf0e35",
          "topics": [
            "0xdf04234d4adad453c202a56aae343d791761210eb89d2d72fd2ff7102d8d3186",
            "0x33a9943bc13f82050177e083c742d665a37b94763b617af88e4f7d84f1d209ff",
            "0x0000000000000000000000001e44cfa2c04f9bbe1c612673bc808c214ba04941"
          ],
          "data": "0x",
          "blockHash": "0xa583f862ef6665c6700aa75b0fdb40142a3074e76557b61459fd05321f4b1561",
          "blockNumber": "0x2b1085",
          "transactionHash": "0x97e9e18cdcf5ad66052f266f45830b8369188d4075ae1bc58dfa05146e954341",
          "transactionIndex": "0x7",
          "logIndex": "0x8",
          "removed": false
        }
      ],
      "logsBloom": "0x00000000000004000000000000000000000000000000000000000000000000000000000000000000000000000000400000800000004000000000000040000000000000000000000000000000000000000000000000000000000000000000000000000000020000000040000000000000000000801000000000000000000000000000000000000000000000000000000000000004000000000000000000000000000000000000000000000000000000000000000000000000000000000000000000000000000000000000000000000000000000000000000000000000000000000000000000004000000000000000000000000000000000000000000000010000",
      "type": "0x2",
      "transactionHash": "0x97e9e18cdcf5ad66052f266f45830b8369188d4075ae1bc58dfa05146e954341",
      "transactionIndex": "0x7",
      "blockHash": "0xa583f862ef6665c6700aa75b0fdb40142a3074e76557b61459fd05321f4b1561",
      "blockNumber": "0x2b1085",
      "gasUsed": "0xbe4c",
      "effectiveGasPrice": "0x15d7a926200",
      "from": "0x95ed40013cb3990013af947a635d1a3e31057426",
      "to": "0xfeab9a221f6bcdb4c160cd81954ee4405edf0e35",
      "contractAddress": null
    },
    {
      "status": "0x1",
      "cumulativeGasUsed": "0x204185",
      "logs": [
        {
          "address": "0xfeab9a221f6bcdb4c160cd81954ee4405edf0e35",
          "topics": [
            "0xdf04234d4adad453c202a56aae343d791761210eb89d2d72fd2ff7102d8d3186",
            "0xe98e2830be1a7e4156d656a7505e65d08c67660dc618072422e9c78053c261e9",
            "0x000000000000000000000000bb906be3676b1d6872cdca58e336aea089c698b0"
          ],
          "data": "0x",
          "blockHash": "0xa583f862ef6665c6700aa75b0fdb40142a3074e76557b61459fd05321f4b1561",
          "blockNumber": "0x2b1085",
          "transactionHash": "0x980d69455c9df7eff0469200e4ad2f2b79384884b6328dc071b6ed47355b3a9d",
          "transactionIndex": "0x8",
          "logIndex": "0x9",
          "removed": false
        }
      ],
      "logsBloom": "0x00000000000000000000000000000000000000000000000000000000000000000000000000000000002000000000000000800000004000000000000000000000000000000000000000000000000000000000000000000000000000000000000000000000020000000000000000000000000000801000000000000000000000000000000000000001000000000000000000000000000000000000000000000000000000000000000000000000000000000000000000000000000000000000000000000000000000000000000000000000000000000000000000000040000000000000000000004000000100000000000000000000000000000000000000400000",
      "type": "0x2",
      "transactionHash": "0x980d69455c9df7eff0469200e4ad2f2b79384884b6328dc071b6ed47355b3a9d",
      "transactionIndex": "0x8",
      "blockHash": "0xa583f862ef6665c6700aa75b0fdb40142a3074e76557b61459fd05321f4b1561",
      "blockNumber": "0x2b1085",
      "gasUsed": "0xbe40",
      "effectiveGasPrice": "0x15d7a926200",
      "from": "0x95ed40013cb3990013af947a635d1a3e31057426",
      "to": "0xfeab9a221f6bcdb4c160cd81954ee4405edf0e35",
      "contractAddress": null
    },
    {
      "status": "0x1",
      "cumulativeGasUsed": "0x20b796",
      "logs": [
        {
          "address": "0xd49df845d77dd02de442197be0d4ccde0a076738",
          "topics": [
            "0x94b241e14651a9658c51a45c82167e4f25ac3d3e7f8a2beae9d10b1ba07a94a0",
            "0x000000000000000000000000feab9a221f6bcdb4c160cd81954ee4405edf0e35"
          ],
          "data": "0x",
          "blockHash": "0xa583f862ef6665c6700aa75b0fdb40142a3074e76557b61459fd05321f4b1561",
          "blockNumber": "0x2b1085",
          "transactionHash": "0x683f78788c44d98e5006a338f05fb073f00347adb5060dd807d5ec25e196c145",
          "transactionIndex": "0x9",
          "logIndex": "0xa",
          "removed": false
        }
      ],
      "logsBloom": "0x00000000000040000000000000000000000000000010000000000000000000000000000008000000100000000000000000000000000000000000000000000000000000000000000000000000000000000000000000000000000000000000000010000000000000000000000000000000000000000000000000000000000000000000000004000000000000000000000000000000000000000000000000000000000000000000000000000000000000000000000000000000000000000000000000000000000000020000000000000000000000000008000000000000000000000000000000000000000000080000000000000000000000000000000000000000",
      "type": "0x2",
      "transactionHash": "0x683f78788c44d98e5006a338f05fb073f00347adb5060dd807d5ec25e196c145",
      "transactionIndex": "0x9",
      "blockHash": "0xa583f862ef6665c6700aa75b0fdb40142a3074e76557b61459fd05321f4b1561",
      "blockNumber": "0x2b1085",
      "gasUsed": "0x7611",
      "effectiveGasPrice": "0x15d7a926200",
      "from": "0x95ed40013cb3990013af947a635d1a3e31057426",
      "to": "0xd49df845d77dd02de442197be0d4ccde0a076738",
      "contractAddress": null
    },
    {
      "status": "0x1",
      "cumulativeGasUsed": "0x21294b",
      "logs": [],
      "logsBloom": "0x00000000000000000000000000000000000000000000000000000000000000000000000000000000000000000000000000000000000000000000000000000000000000000000000000000000000000000000000000000000000000000000000000000000000000000000000000000000000000000000000000000000000000000000000000000000000000000000000000000000000000000000000000000000000000000000000000000000000000000000000000000000000000000000000000000000000000000000000000000000000000000000000000000000000000000000000000000000000000000000000000000000000000000000000000000000",
      "type": "0x2",
      "transactionHash": "0x825357ae4e36d09fbb21f051f9c2accc1fae466ae613536684dae2c1c71bcbf7",
      "transactionIndex": "0xa",
      "blockHash": "0xa583f862ef6665c6700aa75b0fdb40142a3074e76557b61459fd05321f4b1561",
      "blockNumber": "0x2b1085",
      "gasUsed": "0x71b5",
      "effectiveGasPrice": "0x15d7a926200",
      "from": "0x95ed40013cb3990013af947a635d1a3e31057426",
      "to": "0xaa6b8ad37f435dc7e095ba6a20b6b2e7e0e285a1",
      "contractAddress": null
    },
    {
      "status": "0x1",
      "cumulativeGasUsed": "0x21a0b1",
      "logs": [
        {
          "address": "0x30490c9239fdc6ff8feef84ff6f7b657ec6882f8",
          "topics": [
            "0x89baabef7dfd0683c0ac16fd2a8431c51b49fbe654c3f7b5ef19763e2ccd88f2",
            "0x000000000000000000000000d164fd1b456b067fc52c2c9445e7ab980d411563",
            "0x000000000000000000000000feab9a221f6bcdb4c160cd81954ee4405edf0e35"
          ],
          "data": "0x",
          "blockHash": "0xa583f862ef6665c6700aa75b0fdb40142a3074e76557b61459fd05321f4b1561",
          "blockNumber": "0x2b1085",
          "transactionHash": "0x177a59beaf601c840ee33466e1efb6abb6ab31c4ee26699a065cf0d142f9bf89",
          "transactionIndex": "0xb",
          "logIndex": "0xb",
          "removed": false
        }
      ],
      "logsBloom": "0x00000000000000000000000000000000000000000010000000000000000000000000000000000000100000000000000000000000000000000000000000400000000000000000000000000000000000000000000000000000000000000000000000000000110000000000000000000000000000000400000000000000020000000000000040008000000000000000000000000000000008000000000000000000000000000000000000000000000000000000000000000000000000000000000000000000000000000000000000000000000000000000004000000000000000000000000000000000000000080000000000000000000000000000000000000000",
      "type": "0x2",
      "transactionHash": "0x177a59beaf601c840ee33466e1efb6abb6ab31c4ee26699a065cf0d142f9bf89",
      "transactionIndex": "0xb",
      "blockHash": "0xa583f862ef6665c6700aa75b0fdb40142a3074e76557b61459fd05321f4b1561",
      "blockNumber": "0x2b1085",
      "gasUsed": "0x7766",
      "effectiveGasPrice": "0x15d7a926200",
      "from": "0x95ed40013cb3990013af947a635d1a3e31057426",
      "to": "0x30490c9239fdc6ff8feef84ff6f7b657ec6882f8",
      "contractAddress": null
    },
    {
      "status": "0x1",
      "cumulativeGasUsed": "0x221817",
      "logs": [
        {
          "address": "0x5dbd29ca81385606888112288bbae95f0eb9f170",
          "topics": [
            "0x89baabef7dfd0683c0ac16fd2a8431c51b49fbe654c3f7b5ef19763e2ccd88f2",
            "0x000000000000000000000000d164fd1b456b067fc52c2c9445e7ab980d411563",
            "0x000000000000000000000000feab9a221f6bcdb4c160cd81954ee4405edf0e35"
          ],
          "data": "0x",
          "blockHash": "0xa583f862ef6665c6700aa75b0fdb40142a3074e76557b61459fd05321f4b1561",
          "blockNumber": "0x2b1085",
          "transactionHash": "0x412e9a1f1b8671f5ccb8a9c0aa1b11e780221c3aaec658eb1c6ad9d76b9ebaab",
          "transactionIndex": "0xc",
          "logIndex": "0xc",
          "removed": false
        }
      ],
      "logsBloom": "0x00000000000000000000000000000000000000000010000000000000000000000000000000000000100000000000000000000000000000000000000000400000000000000000000000000000000000000000000000000000000000000000000000000000110080000000000000000000000000000400000000000000020000000000000040000000000000000000000200000000000000000000000000000000002000000000000000000000000000000000000000000000000000000000000000000000000000000000000000000000000000000000000000000000000000000000000000000000000000080000000000000000000000000000000000000000",
      "type": "0x2",
      "transactionHash": "0x412e9a1f1b8671f5ccb8a9c0aa1b11e780221c3aaec658eb1c6ad9d76b9ebaab",
      "transactionIndex": "0xc",
      "blockHash": "0xa583f862ef6665c6700aa75b0fdb40142a3074e76557b61459fd05321f4b1561",
      "blockNumber": "0x2b1085",
      "gasUsed": "0x7766",
      "effectiveGasPrice": "0x15d7a926200",
      "from": "0x95ed40013cb3990013af947a635d1a3e31057426",
      "to": "0x5dbd29ca81385606888112288bbae95f0eb9f170",
      "contractAddress": null
    },
    {
      "status": "0x1",
      "cumulativeGasUsed": "0x228f7d",
      "logs": [
        {
          "address": "0xa35f2923f8c6a8e9d2f655ab4cfb373864e6cc89",
          "topics": [
            "0x89baabef7dfd0683c0ac16fd2a8431c51b49fbe654c3f7b5ef19763e2ccd88f2",
            "0x000000000000000000000000d164fd1b456b067fc52c2c9445e7ab980d411563",
            "0x000000000000000000000000feab9a221f6bcdb4c160cd81954ee4405edf0e35"
          ],
          "data": "0x",
          "blockHash": "0xa583f862ef6665c6700aa75b0fdb40142a3074e76557b61459fd05321f4b1561",
          "blockNumber": "0x2b1085",
          "transactionHash": "0xf52821fae84b7b54aeb6e8e465c5f5309bdb7e6753a950a111f9dd220fa64448",
          "transactionIndex": "0xd",
          "logIndex": "0xd",
          "removed": false
        }
      ],
      "logsBloom": "0x00000000000000000000000000000000000000008010000000000000000000000000000000000000100000000000000000000000000000000000000000400000000000000000000004000000000000000000000000000000000000000000000000000000110000000000000000000000000000000400000000000000020000000000020040000000000000000000000000000000000000000000000000000000000000000000000000000000000000000000000000000000000000000000000000000000000000000000000000000000000000000000000000000000000000000000000000000000000000080000000000000000000000000000000000000000",
      "type": "0x2",
      "transactionHash": "0xf52821fae84b7b54aeb6e8e465c5f5309bdb7e6753a950a111f9dd220fa64448",
      "transactionIndex": "0xd",
      "blockHash": "0xa583f862ef6665c6700aa75b0fdb40142a3074e76557b61459fd05321f4b1561",
      "blockNumber": "0x2b1085",
      "gasUsed": "0x7766",
      "effectiveGasPrice": "0x15d7a926200",
      "from": "0x95ed40013cb3990013af947a635d1a3e31057426",
      "to": "0xa35f2923f8c6a8e9d2f655ab4cfb373864e6cc89",
      "contractAddress": null
    },
    {
      "status": "0x1",
      "cumulativeGasUsed": "0x2306e3",
      "logs": [
        {
          "address": "0xf34772793a37cab10e13b7fb686f93445e0f4339",
          "topics": [
            "0x89baabef7dfd0683c0ac16fd2a8431c51b49fbe654c3f7b5ef19763e2ccd88f2",
            "0x000000000000000000000000d164fd1b456b067fc52c2c9445e7ab980d411563",
            "0x000000000000000000000000feab9a221f6bcdb4c160cd81954ee4405edf0e35"
          ],
          "data": "0x",
          "blockHash": "0xa583f862ef6665c6700aa75b0fdb40142a3074e76557b61459fd05321f4b1561",
          "blockNumber": "0x2b1085",
          "transactionHash": "0x1434dba5b74a21725c82db484649d9d48672089723f68a0360ff6372d5b4cd7c",
          "transactionIndex": "0xe",
          "logIndex": "0xe",
          "removed": false
        }
      ],
      "logsBloom": "0x00000000000000000000000000000000000000000010000000000000000000004000000000000000100000000000000000000000000000000000000000400200000000000000000000000000000000000000000000000000000000000000000000000000110000000000000000000000000000000400000000000000020000000000000040000000000000000000000000000000000000000000000000000000000000000000000000000000000000000000000000000000000000000000000000000000000000000000000000000000000000000000000000000000000000000000000000000000000000080008000000000000000000000000000000000000",
      "type": "0x2",
      "transactionHash": "0x1434dba5b74a21725c82db484649d9d48672089723f68a0360ff6372d5b4cd7c",
      "transactionIndex": "0xe",
      "blockHash": "0xa583f862ef6665c6700aa75b0fdb40142a3074e76557b61459fd05321f4b1561",
      "blockNumber": "0x2b1085",
      "gasUsed": "0x7766",
      "effectiveGasPrice": "0x15d7a926200",
      "from": "0x95ed40013cb3990013af947a635d1a3e31057426",
      "to": "0xf34772793a37cab10e13b7fb686f93445e0f4339",
      "contractAddress": null
    },
    {
      "status": "0x1",
      "cumulativeGasUsed": "0x237e49",
      "logs": [
        {
          "address": "0xf11b4128624461839165f46cc3ef30ea84fb4dbc",
          "topics": [
            "0x89baabef7dfd0683c0ac16fd2a8431c51b49fbe654c3f7b5ef19763e2ccd88f2",
            "0x000000000000000000000000d164fd1b456b067fc52c2c9445e7ab980d411563",
            "0x000000000000000000000000feab9a221f6bcdb4c160cd81954ee4405edf0e35"
          ],
          "data": "0x",
          "blockHash": "0xa583f862ef6665c6700aa75b0fdb40142a3074e76557b61459fd05321f4b1561",
          "blockNumber": "0x2b1085",
          "transactionHash": "0x2cf48607730cb2ea830a0fe1fed2ae783090624d504f695983e3d91e86a120ca",
          "transactionIndex": "0xf",
          "logIndex": "0xf",
          "removed": false
        }
      ],
      "logsBloom": "0x00000000000000000000000000000000000000000010000004000000000000000000000000000000100000000000000000000000000000000000000000400000000000000000000000000000000000000000000000000000000020000000000000000000110000000000000000000000000000000400000000000000020000000000000040000000000000000000000000000000000000000000000000000000000000000000000000000000000000000000000000000000000000000000000000000000000000000000000000000000000000000000000000000000000000000000000000000000000000080000000000000000000080000000000000000000",
      "type": "0x2",
      "transactionHash": "0x2cf48607730cb2ea830a0fe1fed2ae783090624d504f695983e3d91e86a120ca",
      "transactionIndex": "0xf",
      "blockHash": "0xa583f862ef6665c6700aa75b0fdb40142a3074e76557b61459fd05321f4b1561",
      "blockNumber": "0x2b1085",
      "gasUsed": "0x7766",
      "effectiveGasPrice": "0x15d7a926200",
      "from": "0x95ed40013cb3990013af947a635d1a3e31057426",
      "to": "0xf11b4128624461839165f46cc3ef30ea84fb4dbc",
      "contractAddress": null
    },
    {
      "status": "0x1",
      "cumulativeGasUsed": "0x23f5af",
      "logs": [
        {
          "address": "0x1e44cfa2c04f9bbe1c612673bc808c214ba04941",
          "topics": [
            "0x89baabef7dfd0683c0ac16fd2a8431c51b49fbe654c3f7b5ef19763e2ccd88f2",
            "0x000000000000000000000000d164fd1b456b067fc52c2c9445e7ab980d411563",
            "0x000000000000000000000000feab9a221f6bcdb4c160cd81954ee4405edf0e35"
          ],
          "data": "0x",
          "blockHash": "0xa583f862ef6665c6700aa75b0fdb40142a3074e76557b61459fd05321f4b1561",
          "blockNumber": "0x2b1085",
          "transactionHash": "0x787c1cdb8689acf3674b97ca26d185124169187245f6034c6f4c38aad93eb37d",
          "transactionIndex": "0x10",
          "logIndex": "0x10",
          "removed": false
        }
      ],
      "logsBloom": "0x00000000000000000000000000000000000000000010000000000000000000000000000000000000100000000000000000000000000000000000000000400000000000000000000000000000000000000000000000000000000000000000000000000000110000000000000000000000000000000400000000000000020000000000000040000000000000000000000000000000000000000000000000000010000000000010000000000000000000000000000000000000000000000000000000000000000000000000000000000000000000000080000000000000000000000000000000000000000000080000000000000000000000000000000000000000",
      "type": "0x2",
      "transactionHash": "0x787c1cdb8689acf3674b97ca26d185124169187245f6034c6f4c38aad93eb37d",
      "transactionIndex": "0x10",
      "blockHash": "0xa583f862ef6665c6700aa75b0fdb40142a3074e76557b61459fd05321f4b1561",
      "blockNumber": "0x2b1085",
      "gasUsed": "0x7766",
      "effectiveGasPrice": "0x15d7a926200",
      "from": "0x95ed40013cb3990013af947a635d1a3e31057426",
      "to": "0x1e44cfa2c04f9bbe1c612673bc808c214ba04941",
      "contractAddress": null
    },
    {
      "status": "0x1",
      "cumulativeGasUsed": "0x246d15",
      "logs": [
        {
          "address": "0xbb906be3676b1d6872cdca58e336aea089c698b0",
          "topics": [
            "0x89baabef7dfd0683c0ac16fd2a8431c51b49fbe654c3f7b5ef19763e2ccd88f2",
            "0x000000000000000000000000d164fd1b456b067fc52c2c9445e7ab980d411563",
            "0x000000000000000000000000feab9a221f6bcdb4c160cd81954ee4405edf0e35"
          ],
          "data": "0x",
          "blockHash": "0xa583f862ef6665c6700aa75b0fdb40142a3074e76557b61459fd05321f4b1561",
          "blockNumber": "0x2b1085",
          "transactionHash": "0xe2802c3c7db2fe2c302ebf3ccd0af80dc16bb0b8b6d099d70350770a899e1ee0",
          "transactionIndex": "0x11",
          "logIndex": "0x11",
          "removed": false
        }
      ],
      "logsBloom": "0x00000000000000000000000000000000000000000010000000000000000000000000000000000000100000000000000000000000000000000000000000400000000000000000000000000000000000200000000000000000000000000000000000000000110000000000000000000000000000000400000000000000020000000000000040000000000000000000000000000000000000000000008000000000000000000000000000000000000000000000000000000000000000000000000000000000000000000000000000000000000000000000000000000000000080000000000000000000000000080000000000000000000000000000000000000000",
      "type": "0x2",
      "transactionHash": "0xe2802c3c7db2fe2c302ebf3ccd0af80dc16bb0b8b6d099d70350770a899e1ee0",
      "transactionIndex": "0x11",
      "blockHash": "0xa583f862ef6665c6700aa75b0fdb40142a3074e76557b61459fd05321f4b1561",
      "blockNumber": "0x2b1085",
      "gasUsed": "0x7766",
      "effectiveGasPrice": "0x15d7a926200",
      "from": "0x95ed40013cb3990013af947a635d1a3e31057426",
      "to": "0xbb906be3676b1d6872cdca58e336aea089c698b0",
      "contractAddress": null
    }
  ],
  "libraries": [],
  "pending": [],
  "returns": {},
  "timestamp": 1764997906778,
  "chain": 43522,
  "commit": "51976fb"
}