{
  "transactions": [
    {
      "hash": "0xe453f1f17d66439741c86adcea06717d87d704c5d39ef89c60d6de9737e06f60",
      "transactionType": "CALL",
      "contractName": null,
      "contractAddress": "0xe7f1725e7734ce288f8367e1bb143e90bb3f0512",
      "function": "registerAgent(address,string)",
      "arguments": [
        "0xf39Fd6e51aad88F6F4ce6aB8827279cffFb92266",
        "DOGE"
      ],
      "transaction": {
        "from": "0xf39fd6e51aad88f6f4ce6ab8827279cfffb92266",
        "to": "0xe7f1725e7734ce288f8367e1bb143e90bb3f0512",
        "gas": "0x217ee",
        "value": "0x0",
        "input": "0x22b833d8000000000000000000000000f39fd6e51aad88f6f4ce6ab8827279cfffb9226600000000000000000000000000000000000000000000000000000000000000400000000000000000000000000000000000000000000000000000000000000004444f474500000000000000000000000000000000000000000000000000000000",
        "nonce": "0x1e",
        "chainId": "0x7a69"
      },
      "additionalContracts": [],
      "isFixedGasLimit": false
    },
    {
      "hash": "0xc9f39577d705753cd27a03e539a8a7e8003d2402ffda5ce2ae6df126dd7f9dea",
      "transactionType": "CALL",
      "contractName": null,
      "contractAddress": "0xdc64a140aa3e981100a9beca4e685f962f0cf6c9",
      "function": "submitUpdate(address,string,(uint256,uint256,bool,uint8,uint256,bytes32,address))",
      "arguments": [
        "0xf39Fd6e51aad88F6F4ce6aB8827279cffFb92266",
        "DOGE",
        "(8500000, 100000000000, true, 2, 1764936188, 0x85148decf1ac2719f1e91d60d2704ffe1dd4c05dd914061b66b5b8532d9f4458, 0xf39Fd6e51aad88F6F4ce6aB8827279cffFb92266)"
      ],
      "transaction": {
        "from": "0xf39fd6e51aad88f6f4ce6ab8827279cfffb92266",
        "to": "0xdc64a140aa3e981100a9beca4e685f962f0cf6c9",
        "gas": "0x9e549",
        "value": "0x0",
        "input": "0xe3640735000000000000000000000000f39fd6e51aad88f6f4ce6ab8827279cfffb922660000000000000000000000000000000000000000000000000000000000000120000000000000000000000000000000000000000000000000000000000081b320000000000000000000000000000000000000000000000000000000174876e80000000000000000000000000000000000000000000000000000000000000000010000000000000000000000000000000000000000000000000000000000000002000000000000000000000000000000000000000000000000000000006932c9fc85148decf1ac2719f1e91d60d2704ffe1dd4c05dd914061b66b5b8532d9f4458000000000000000000000000f39fd6e51aad88f6f4ce6ab8827279cfffb922660000000000000000000000000000000000000000000000000000000000000004444f474500000000000000000000000000000000000000000000000000000000",
        "nonce": "0x1f",
        "chainId": "0x7a69"
      },
      "additionalContracts": [],
      "isFixedGasLimit": false
    }
  ],
  "receipts": [
    {
      "status": "0x1",
      "cumulativeGasUsed": "0x16e73",
      "logs": [
        {
          "address": "0xe7f1725e7734ce288f8367e1bb143e90bb3f0512",
          "topics": [
            "0x023c5efe572c42192271951adb0e77f97d7fc84bc761d026189ac08617346824",
            "0x000000000000000000000000f39fd6e51aad88f6f4ce6ab8827279cfffb92266",
            "0x9a3f52b1b31ae58da40209f38379e78c3a0756495a0f585d0b3c84a9e9718f9d"
          ],
          "data": "0x000000000000000000000000000000000000000000000000000000006932c9fd",
          "blockHash": "0x6eeb5a8f7f0993df5d4f63a669b61db770f191e90543aa5f73f2807d9604db53",
          "blockNumber": "0x10",
          "blockTimestamp": "0x6932c9fd",
          "transactionHash": "0xe453f1f17d66439741c86adcea06717d87d704c5d39ef89c60d6de9737e06f60",
          "transactionIndex": "0x0",
          "logIndex": "0x0",
          "removed": false
        }
      ],
      "logsBloom": "0x00000000000000000000000000000000000000000000040000000000000040000000000000000000000000000000000010000000000000000000000000000000000000000000000000000000000000000000000000000000000000000000000000000000000000000000000100000000000000000000000000000000000000000000000000000000000000000000000000000000000000000000000000000000000100000001000000000000000000000010000000000000000000000000000200000000000000200000000000001000000000002000000000000000000000000000000000000000000000000000000000000000000000800000000000000000",
      "type": "0x2",
      "transactionHash": "0xe453f1f17d66439741c86adcea06717d87d704c5d39ef89c60d6de9737e06f60",
      "transactionIndex": "0x0",
      "blockHash": "0x6eeb5a8f7f0993df5d4f63a669b61db770f191e90543aa5f73f2807d9604db53",
      "blockNumber": "0x10",
      "gasUsed": "0x16e73",
      "effectiveGasPrice": "0x8e00548",
      "blobGasPrice": "0x1",
      "from": "0xf39fd6e51aad88f6f4ce6ab8827279cfffb92266",
      "to": "0xe7f1725e7734ce288f8367e1bb143e90bb3f0512",
      "contractAddress": null
    },
    {
      "status": "0x1",
      "cumulativeGasUsed": "0x6c42a",
      "logs": [
        {
          "address": "0xe7f1725e7734ce288f8367e1bb143e90bb3f0512",
          "topics": [
            "0x7e1e2bbb910c7ff21f0b32e7c6d3a7d4cb1257a3197dea19b1b6c21e9cd5d8cc",
            "0x000000000000000000000000f39fd6e51aad88f6f4ce6ab8827279cfffb92266"
          ],
          "data": "0x0000000000000000000000000000000000000000000000000000000000000001",
          "blockHash": "0x730c67f91d944d295a8740bf3f8b16e2a392143cf3637974b7b7edcc55b438a8",
          "blockNumber": "0x11",
          "blockTimestamp": "0x6932c9fd",
          "transactionHash": "0xc9f39577d705753cd27a03e539a8a7e8003d2402ffda5ce2ae6df126dd7f9dea",
          "transactionIndex": "0x0",
          "logIndex": "0x0",
          "removed": false
        },
        {
          "address": "0x2279b7a0a67db372996a5fab50d91eaa73d2ebe6",
          "topics": [
            "0x7d8cee5d1217e47a14a662098e84a7758580aaf78f430c07c543249234e867bf",
            "0x0000000000000000000000000000000000000000000000000000000000000001"
          ],
          "data": "0x000000000000000000000000000000000000000000000000000000000081b320000000000000000000000000000000000000000000000000000000006932c9fd",
          "blockHash": "0x730c67f91d944d295a8740bf3f8b16e2a392143cf3637974b7b7edcc55b438a8",
          "blockNumber": "0x11",
          "blockTimestamp": "0x6932c9fd",
          "transactionHash": "0xc9f39577d705753cd27a03e539a8a7e8003d2402ffda5ce2ae6df126dd7f9dea",
          "transactionIndex": "0x0",
          "logIndex": "0x1",
          "removed": false
        },
        {
          "address": "0xcf7ed3acca5a467e9e704c703e8d87f634fb0fc9",
          "topics": [
            "0x3370b5ef195f8e20c1a618f8f3748c32fe720dfcafcdfaa9617ca2f1c028ea6c",
            "0x000000000000000000000000f39fd6e51aad88f6f4ce6ab8827279cfffb92266",
            "0xc5d2460186f7233c927e7db2dcc703c0e500b653ca82273b7bfad8045d85a470"
          ],
          "data": "0x000000000000000000000000000000000000000000000000000000174876e8000000000000000000000000000000000000000000000000000000000000000001",
          "blockHash": "0x730c67f91d944d295a8740bf3f8b16e2a392143cf3637974b7b7edcc55b438a8",
          "blockNumber": "0x11",
          "blockTimestamp": "0x6932c9fd",
          "transactionHash": "0xc9f39577d705753cd27a03e539a8a7e8003d2402ffda5ce2ae6df126dd7f9dea",
          "transactionIndex": "0x0",
          "logIndex": "0x2",
          "removed": false
        },
        {
          "address": "0xdc64a140aa3e981100a9beca4e685f962f0cf6c9",
          "topics": [
            "0xa497fbb1d4e9f1b0b222d00edcac5a6cb5a96385abf437a7d5bda16ff0a8e82c",
            "0x000000000000000000000000f39fd6e51aad88f6f4ce6ab8827279cfffb92266",
            "0x9a3f52b1b31ae58da40209f38379e78c3a0756495a0f585d0b3c84a9e9718f9d"
          ],
          "data": "0x000000000000000000000000000000000000000000000000000000000081b320000000000000000000000000000000000000000000000000000000174876e800000000000000000000000000000000000000000000000000000000006932c9fc85148decf1ac2719f1e91d60d2704ffe1dd4c05dd914061b66b5b8532d9f4458",
          "blockHash": "0x730c67f91d944d295a8740bf3f8b16e2a392143cf3637974b7b7edcc55b438a8",
          "blockNumber": "0x11",
          "blockTimestamp": "0x6932c9fd",
          "transactionHash": "0xc9f39577d705753cd27a03e539a8a7e8003d2402ffda5ce2ae6df126dd7f9dea",
          "transactionIndex": "0x0",
          "logIndex": "0x3",
          "removed": false
        },
        {
          "address": "0xdc64a140aa3e981100a9beca4e685f962f0cf6c9",
          "topics": [
            "0x7ef7f833d43bb516e267595b38b132a56879620249ce3a563c8149695438540f",
            "0x9a3f52b1b31ae58da40209f38379e78c3a0756495a0f585d0b3c84a9e9718f9d"
          ],
          "data": "0x000000000000000000000000000000000000000000000000000000000081b3200000000000000000000000000000000000000000000000000000000000000001",
          "blockHash": "0x730c67f91d944d295a8740bf3f8b16e2a392143cf3637974b7b7edcc55b438a8",
          "blockNumber": "0x11",
          "blockTimestamp": "0x6932c9fd",
          "transactionHash": "0xc9f39577d705753cd27a03e539a8a7e8003d2402ffda5ce2ae6df126dd7f9dea",
          "transactionIndex": "0x0",
          "logIndex": "0x4",
          "removed": false
        }
      ],
      "logsBloom": "0x00000000000000000000000000010000000000200000040000000000000000008000000000000000000000000000080010000000000000000000000000040011000000000000000000000000000000000000000000440000000000800000000000000000000000000000010100000000000000000000000000000080000000000000080008000000000000000100000000000000080040004000800000000000000000000001000000002000000040000010000000000000000000000000008000000040000000200000000000001000000200002020000000000000000040000000000000000400000000000000000000000001000000800100000000000000",
      "type": "0x2",
      "transactionHash": "0xc9f39577d705753cd27a03e539a8a7e8003d2402ffda5ce2ae6df126dd7f9dea",
      "transactionIndex": "0x0",
      "blockHash": "0x730c67f91d944d295a8740bf3f8b16e2a392143cf3637974b7b7edcc55b438a8",
      "blockNumber": "0x11",
      "gasUsed": "0x6c42a",
      "effectiveGasPrice": "0x7c5cb53",
      "blobGasPrice": "0x1",
      "from": "0xf39fd6e51aad88f6f4ce6ab8827279cfffb92266",
      "to": "0xdc64a140aa3e981100a9beca4e685f962f0cf6c9",
      "contractAddress": null
    }
  ],
  "libraries": [],
  "pending": [],
  "returns": {},
  "timestamp": 1764936189642,
  "chain": 31337,
  "commit": "b7c555a"
}