{
  "transactions": [
    {
      "hash": "0x27e567508b9c9ccc1543714aca7b7d3b9161255a01401569dec1e6780b6431c5",
      "transactionType": "CALL",
      "contractName": null,
      "contractAddress": "0xb90b78b0ae7f8210200ededc73f9034bd7a644ef",
      "function": "registerAgent(address,string)",
      "arguments": [
        "0xf39Fd6e51aad88F6F4ce6aB8827279cffFb92266",
        "DOGE"
      ],
      "transaction": {
        "from": "0xf39fd6e51aad88f6f4ce6ab8827279cfffb92266",
        "to": "0xb90b78b0ae7f8210200ededc73f9034bd7a644ef",
        "gas": "0x217ee",
        "value": "0x0",
        "input": "0x22b833d8000000000000000000000000f39fd6e51aad88f6f4ce6ab8827279cfffb9226600000000000000000000000000000000000000000000000000000000000000400000000000000000000000000000000000000000000000000000000000000004444f474500000000000000000000000000000000000000000000000000000000",
        "nonce": "0x21",
        "chainId": "0xaa02"
      },
      "additionalContracts": [],
      "isFixedGasLimit": false
    },
    {
      "hash": "0x2c32e1198a54c8eeeb6536b72f057cd84d01f5cbcd46f8e67ae078f12fe8759f",
      "transactionType": "CALL",
      "contractName": null,
      "contractAddress": "0xc8e8e0f33d0cd24ee2cf2536fe2e34c6f0d83cd4",
      "function": "submitUpdate(address,string,(uint256,uint256,bool,uint8,uint256,bytes32,address))",
      "arguments": [
        "0xf39Fd6e51aad88F6F4ce6aB8827279cffFb92266",
        "DOGE",
        "(8500000, 100000000000, true, 2, 1764940133, 0x85148decf1ac2719f1e91d60d2704ffe1dd4c05dd914061b66b5b8532d9f4458, 0xf39Fd6e51aad88F6F4ce6aB8827279cffFb92266)"
      ],
      "transaction": {
        "from": "0xf39fd6e51aad88f6f4ce6ab8827279cfffb92266",
        "to": "0xc8e8e0f33d0cd24ee2cf2536fe2e34c6f0d83cd4",
        "gas": "0x958bc",
        "value": "0x0",
        "input": "0xe3640735000000000000000000000000f39fd6e51aad88f6f4ce6ab8827279cfffb922660000000000000000000000000000000000000000000000000000000000000120000000000000000000000000000000000000000000000000000000000081b320000000000000000000000000000000000000000000000000000000174876e80000000000000000000000000000000000000000000000000000000000000000010000000000000000000000000000000000000000000000000000000000000002000000000000000000000000000000000000000000000000000000006932d96585148decf1ac2719f1e91d60d2704ffe1dd4c05dd914061b66b5b8532d9f4458000000000000000000000000f39fd6e51aad88f6f4ce6ab8827279cfffb922660000000000000000000000000000000000000000000000000000000000000004444f474500000000000000000000000000000000000000000000000000000000",
        "nonce": "0x22",
        "chainId": "0xaa02"
      },
      "additionalContracts": [],
      "isFixedGasLimit": false
    }
  ],
  "receipts": [
    {
      "status": "0x1",
      "cumulativeGasUsed": "0x16e73",
      "logs": [
        {
          "address": "0xb90b78b0ae7f8210200ededc73f9034bd7a644ef",
          "topics": [
            "0x023c5efe572c42192271951adb0e77f97d7fc84bc761d026189ac08617346824",
            "0x000000000000000000000000f39fd6e51aad88f6f4ce6ab8827279cfffb92266",
            "0x9a3f52b1b31ae58da40209f38379e78c3a0756495a0f585d0b3c84a9e9718f9d"
          ],
          "data": "0x000000000000000000000000000000000000000000000000000000006932d973",
          "blockHash": "0xa43dd4ffcfa0a57d398876f9b091df93eac7ec052322a5ea6cf27c63fc948e07",
          "blockNumber": "0x2af04a",
          "transactionHash": "0x27e567508b9c9ccc1543714aca7b7d3b9161255a01401569dec1e6780b6431c5",
          "transactionIndex": "0x0",
          "logIndex": "0x0",
          "removed": false
        }
      ],
      "logsBloom": "0x00000000000000000000000000000000000008000000040000000000000040000000000000000000000000000000000000000000000000000080000000000000000000000000000000000000000000000000000000000000000000000000000000000000000000000000000100000000000000000000000000000000000000000000000000000000000000000000000000000000000000000000000000000000000100000001000000000000000000000010000000000000000000000000000200000000000000200000000000000000000000002000000000000000000000000000000000000000000000000000000000000000000000000000000020000000",
      "type": "0x2",
      "transactionHash": "0x27e567508b9c9ccc1543714aca7b7d3b9161255a01401569dec1e6780b6431c5",
      "transactionIndex": "0x0",
      "blockHash": "0xa43dd4ffcfa0a57d398876f9b091df93eac7ec052322a5ea6cf27c63fc948e07",
      "blockNumber": "0x2af04a",
      "gasUsed": "0x16e73",
      "effectiveGasPrice": "0x15db62d2c00",
      "from": "0xf39fd6e51aad88f6f4ce6ab8827279cfffb92266",
      "to": "0xb90b78b0ae7f8210200ededc73f9034bd7a644ef",
      "contractAddress": null
    },
    {
      "status": "0x1",
      "cumulativeGasUsed": "0x832c0",
      "logs": [
        {
          "address": "0xb90b78b0ae7f8210200ededc73f9034bd7a644ef",
          "topics": [
            "0x7e1e2bbb910c7ff21f0b32e7c6d3a7d4cb1257a3197dea19b1b6c21e9cd5d8cc",
            "0x000000000000000000000000f39fd6e51aad88f6f4ce6ab8827279cfffb92266"
          ],
          "data": "0x0000000000000000000000000000000000000000000000000000000000000001",
          "blockHash": "0xa43dd4ffcfa0a57d398876f9b091df93eac7ec052322a5ea6cf27c63fc948e07",
          "blockNumber": "0x2af04a",
          "transactionHash": "0x2c32e1198a54c8eeeb6536b72f057cd84d01f5cbcd46f8e67ae078f12fe8759f",
          "transactionIndex": "0x1",
          "logIndex": "0x1",
          "removed": false
        },
        {
          "address": "0x30490c9239fdc6ff8feef84ff6f7b657ec6882f8",
          "topics": [
            "0x7d8cee5d1217e47a14a662098e84a7758580aaf78f430c07c543249234e867bf",
            "0x0000000000000000000000000000000000000000000000000000000000000001"
          ],
          "data": "0x000000000000000000000000000000000000000000000000000000000081b320000000000000000000000000000000000000000000000000000000006932d973",
          "blockHash": "0xa43dd4ffcfa0a57d398876f9b091df93eac7ec052322a5ea6cf27c63fc948e07",
          "blockNumber": "0x2af04a",
          "transactionHash": "0x2c32e1198a54c8eeeb6536b72f057cd84d01f5cbcd46f8e67ae078f12fe8759f",
          "transactionIndex": "0x1",
          "logIndex": "0x2",
          "removed": false
        },
        {
          "address": "0xa189b63f2cc3a9ae5c41d49a0a31b7a3cb069975",
          "topics": [
            "0x3370b5ef195f8e20c1a618f8f3748c32fe720dfcafcdfaa9617ca2f1c028ea6c",
            "0x000000000000000000000000f39fd6e51aad88f6f4ce6ab8827279cfffb92266",
            "0xc5d2460186f7233c927e7db2dcc703c0e500b653ca82273b7bfad8045d85a470"
          ],
          "data": "0x000000000000000000000000000000000000000000000000000000174876e8000000000000000000000000000000000000000000000000000000000000000001",
          "blockHash": "0xa43dd4ffcfa0a57d398876f9b091df93eac7ec052322a5ea6cf27c63fc948e07",
          "blockNumber": "0x2af04a",
          "transactionHash": "0x2c32e1198a54c8eeeb6536b72f057cd84d01f5cbcd46f8e67ae078f12fe8759f",
          "transactionIndex": "0x1",
          "logIndex": "0x3",
          "removed": false
        },
        {
          "address": "0xc8e8e0f33d0cd24ee2cf2536fe2e34c6f0d83cd4",
          "topics": [
            "0xa497fbb1d4e9f1b0b222d00edcac5a6cb5a96385abf437a7d5bda16ff0a8e82c",
            "0x000000000000000000000000f39fd6e51aad88f6f4ce6ab8827279cfffb92266",
            "0x9a3f52b1b31ae58da40209f38379e78c3a0756495a0f585d0b3c84a9e9718f9d"
          ],
          "data": "0x000000000000000000000000000000000000000000000000000000000081b320000000000000000000000000000000000000000000000000000000174876e800000000000000000000000000000000000000000000000000000000006932d96585148decf1ac2719f1e91d60d2704ffe1dd4c05dd914061b66b5b8532d9f4458",
          "blockHash": "0xa43dd4ffcfa0a57d398876f9b091df93eac7ec052322a5ea6cf27c63fc948e07",
          "blockNumber": "0x2af04a",
          "transactionHash": "0x2c32e1198a54c8eeeb6536b72f057cd84d01f5cbcd46f8e67ae078f12fe8759f",
          "transactionIndex": "0x1",
          "logIndex": "0x4",
          "removed": false
        },
        {
          "address": "0xc8e8e0f33d0cd24ee2cf2536fe2e34c6f0d83cd4",
          "topics": [
            "0x7ef7f833d43bb516e267595b38b132a56879620249ce3a563c8149695438540f",
            "0x9a3f52b1b31ae58da40209f38379e78c3a0756495a0f585d0b3c84a9e9718f9d"
          ],
          "data": "0x000000000000000000000000000000000000000000000000000000000081b3200000000000000000000000000000000000000000000000000000000000000001",
          "blockHash": "0xa43dd4ffcfa0a57d398876f9b091df93eac7ec052322a5ea6cf27c63fc948e07",
          "blockNumber": "0x2af04a",
          "transactionHash": "0x2c32e1198a54c8eeeb6536b72f057cd84d01f5cbcd46f8e67ae078f12fe8759f",
          "transactionIndex": "0x1",
          "logIndex": "0x5",
          "removed": false
        }
      ],
      "logsBloom": "0x20000000000000000000000000010000000008200000040000000010000000008000000000020000000000000000000000000000000000000080000000040010000000000000000000000000000000000000000000440000000000800000010000000000000100000000010100000000000000000000000000000080000000000000080000008000000000000100010000000000080008004000800000000000000000000001000000002000000000000010000000000000000000000000000000000040000000200000000000000000000200002000004000000000000040000000000000000400000000000000000000000000000000000000000020000000",
      "type": "0x2",
      "transactionHash": "0x2c32e1198a54c8eeeb6536b72f057cd84d01f5cbcd46f8e67ae078f12fe8759f",
      "transactionIndex": "0x1",
      "blockHash": "0xa43dd4ffcfa0a57d398876f9b091df93eac7ec052322a5ea6cf27c63fc948e07",
      "blockNumber": "0x2af04a",
      "gasUsed": "0x6c44d",
      "effectiveGasPrice": "0x15db62d2c00",
      "from": "0xf39fd6e51aad88f6f4ce6ab8827279cfffb92266",
      "to": "0xc8e8e0f33d0cd24ee2cf2536fe2e34c6f0d83cd4",
      "contractAddress": null
    }
  ],
  "libraries": [],
  "pending": [],
  "returns": {},
  "timestamp": 1764940144171,
  "chain": 43522,
  "commit": "65014fa"
}