{
  "transactions": [
    {
      "hash": "0x8e119cabcc5306fdf33ea30e0aa0e0b77db50dfda05843378c7d09c7508580b5",
      "transactionType": "CALL",
      "contractName": null,
      "contractAddress": "0xc81536da58b4b2e4ff433fe511bf0e035576ec15",
      "function": "setFeedMultiplier(string,uint256)",
      "arguments": [
        "DOGE",
        "10000"
      ],
      "transaction": {
        "from": "0x95ed40013cb3990013af947a635d1a3e31057426",
        "to": "0xc81536da58b4b2e4ff433fe511bf0e035576ec15",
        "gas": "0x98c6",
        "value": "0x0",
        "input": "0x82d2eabd000000000000000000000000000000000000000000000000000000000000004000000000000000000000000000000000000000000000000000000000000027100000000000000000000000000000000000000000000000000000000000000004444f474500000000000000000000000000000000000000000000000000000000",
        "nonce": "0x33",
        "chainId": "0xaa02"
      },
      "additionalContracts": [],
      "isFixedGasLimit": false
    },
    {
      "hash": "0xa47c8d8ec768526752f7e95d7cb8704595b209a41ce33a6f7e9b1890f44d3ec3",
      "transactionType": "CALL",
      "contractName": null,
      "contractAddress": "0xc81536da58b4b2e4ff433fe511bf0e035576ec15",
      "function": "setFeedMultiplier(string,uint256)",
      "arguments": [
        "PEPE",
        "12000"
      ],
      "transaction": {
        "from": "0x95ed40013cb3990013af947a635d1a3e31057426",
        "to": "0xc81536da58b4b2e4ff433fe511bf0e035576ec15",
        "gas": "0xa7e2",
        "value": "0x0",
        "input": "0x82d2eabd00000000000000000000000000000000000000000000000000000000000000400000000000000000000000000000000000000000000000000000000000002ee000000000000000000000000000000000000000000000000000000000000000045045504500000000000000000000000000000000000000000000000000000000",
        "nonce": "0x34",
        "chainId": "0xaa02"
      },
      "additionalContracts": [],
      "isFixedGasLimit": false
    },
    {
      "hash": "0x2cea279ec11dcf7585b0b57fe32f6f934be5c427223138efd92509f1388e88fb",
      "transactionType": "CALL",
      "contractName": null,
      "contractAddress": "0xc81536da58b4b2e4ff433fe511bf0e035576ec15",
      "function": "setFeedMultiplier(string,uint256)",
      "arguments": [
        "SHIB",
        "10000"
      ],
      "transaction": {
        "from": "0x95ed40013cb3990013af947a635d1a3e31057426",
        "to": "0xc81536da58b4b2e4ff433fe511bf0e035576ec15",
        "gas": "0x98c6",
        "value": "0x0",
        "input": "0x82d2eabd0000000000000000000000000000000000000000000000000000000000000040000000000000000000000000000000000000000000000000000000000000271000000000000000000000000000000000000000000000000000000000000000045348494200000000000000000000000000000000000000000000000000000000",
        "nonce": "0x35",
        "chainId": "0xaa02"
      },
      "additionalContracts": [],
      "isFixedGasLimit": false
    },
    {
      "hash": "0x96e9fa9f1391ea6dd62a930ccb0b6e0914545f65278a1d77938163e4a5ba1d0e",
      "transactionType": "CALL",
      "contractName": null,
      "contractAddress": "0xc81536da58b4b2e4ff433fe511bf0e035576ec15",
      "function": "setFeedMultiplier(string,uint256)",
      "arguments": [
        "FLOKI",
        "11000"
      ],
      "transaction": {
        "from": "0x95ed40013cb3990013af947a635d1a3e31057426",
        "to": "0xc81536da58b4b2e4ff433fe511bf0e035576ec15",
        "gas": "0xa7f2",
        "value": "0x0",
        "input": "0x82d2eabd00000000000000000000000000000000000000000000000000000000000000400000000000000000000000000000000000000000000000000000000000002af80000000000000000000000000000000000000000000000000000000000000005464c4f4b49000000000000000000000000000000000000000000000000000000",
        "nonce": "0x36",
        "chainId": "0xaa02"
      },
      "additionalContracts": [],
      "isFixedGasLimit": false
    },
    {
      "hash": "0x0305b9b693bb9e732af51f7b9e28052a96cd86a6d99aa6387c2a1eefa0dd4626",
      "transactionType": "CALL",
      "contractName": null,
      "contractAddress": "0xc81536da58b4b2e4ff433fe511bf0e035576ec15",
      "function": "setFeedMultiplier(string,uint256)",
      "arguments": [
        "WIF",
        "13000"
      ],
      "transaction": {
        "from": "0x95ed40013cb3990013af947a635d1a3e31057426",
        "to": "0xc81536da58b4b2e4ff433fe511bf0e035576ec15",
        "gas": "0xa7d2",
        "value": "0x0",
        "input": "0x82d2eabd000000000000000000000000000000000000000000000000000000000000004000000000000000000000000000000000000000000000000000000000000032c800000000000000000000000000000000000000000000000000000000000000035749460000000000000000000000000000000000000000000000000000000000",
        "nonce": "0x37",
        "chainId": "0xaa02"
      },
      "additionalContracts": [],
      "isFixedGasLimit": false
    },
    {
      "hash": "0x7f24869d6f2a9704a81df6a2226a5289bdad39839691ffe39bf59f951bfd4d18",
      "transactionType": "CALL",
      "contractName": null,
      "contractAddress": "0xc81536da58b4b2e4ff433fe511bf0e035576ec15",
      "function": "setFeedMultiplier(string,uint256)",
      "arguments": [
        "BONK",
        "12000"
      ],
      "transaction": {
        "from": "0x95ed40013cb3990013af947a635d1a3e31057426",
        "to": "0xc81536da58b4b2e4ff433fe511bf0e035576ec15",
        "gas": "0xa7e2",
        "value": "0x0",
        "input": "0x82d2eabd00000000000000000000000000000000000000000000000000000000000000400000000000000000000000000000000000000000000000000000000000002ee00000000000000000000000000000000000000000000000000000000000000004424f4e4b00000000000000000000000000000000000000000000000000000000",
        "nonce": "0x38",
        "chainId": "0xaa02"
      },
      "additionalContracts": [],
      "isFixedGasLimit": false
    },
    {
      "hash": "0xb604bf8d0cb338acb5a02214d3a2e26d0e68cdab2a21482e2cb1aa8d29219105",
      "transactionType": "CALL",
      "contractName": null,
      "contractAddress": "0xc81536da58b4b2e4ff433fe511bf0e035576ec15",
      "function": "setFeedMultiplier(string,uint256)",
      "arguments": [
        "BTC",
        "8000"
      ],
      "transaction": {
        "from": "0x95ed40013cb3990013af947a635d1a3e31057426",
        "to": "0xc81536da58b4b2e4ff433fe511bf0e035576ec15",
        "gas": "0xa7d2",
        "value": "0x0",
        "input": "0x82d2eabd00000000000000000000000000000000000000000000000000000000000000400000000000000000000000000000000000000000000000000000000000001f4000000000000000000000000000000000000000000000000000000000000000034254430000000000000000000000000000000000000000000000000000000000",
        "nonce": "0x39",
        "chainId": "0xaa02"
      },
      "additionalContracts": [],
      "isFixedGasLimit": false
    },
    {
      "hash": "0x7a95394bb029d931b8719231200d04fe4c461be7d02d4bf377c0659a19e44636",
      "transactionType": "CALL",
      "contractName": null,
      "contractAddress": "0xd49df845d77dd02de442197be0d4ccde0a076738",
      "function": "registerAgent(address,string)",
      "arguments": [
        "0x15b757fC9be7E880f7Ae44B1d3576dB512436446",
        "DOGE"
      ],
      "transaction": {
        "from": "0x95ed40013cb3990013af947a635d1a3e31057426",
        "to": "0xd49df845d77dd02de442197be0d4ccde0a076738",
        "gas": "0x205c9",
        "value": "0x0",
        "input": "0x22b833d800000000000000000000000015b757fc9be7e880f7ae44b1d3576db51243644600000000000000000000000000000000000000000000000000000000000000400000000000000000000000000000000000000000000000000000000000000004444f474500000000000000000000000000000000000000000000000000000000",
        "nonce": "0x3a",
        "chainId": "0xaa02"
      },
      "additionalContracts": [],
      "isFixedGasLimit": false
    },
    {
      "hash": "0x510da3d3dd3912cbde7dd99f05f625721929ea5e4a60eef5a4bb0fe7dba94c42",
      "transactionType": "CALL",
      "contractName": null,
      "contractAddress": "0xd49df845d77dd02de442197be0d4ccde0a076738",
      "function": "registerAgent(address,string)",
      "arguments": [
        "0x2017d5735EC9d91d52d362CA2CE8A3DE78Ed1Fa7",
        "PEPE"
      ],
      "transaction": {
        "from": "0x95ed40013cb3990013af947a635d1a3e31057426",
        "to": "0xd49df845d77dd02de442197be0d4ccde0a076738",
        "gas": "0x205c9",
        "value": "0x0",
        "input": "0x22b833d80000000000000000000000002017d5735ec9d91d52d362ca2ce8a3de78ed1fa7000000000000000000000000000000000000000000000000000000000000004000000000000000000000000000000000000000000000000000000000000000045045504500000000000000000000000000000000000000000000000000000000",
        "nonce": "0x3b",
        "chainId": "0xaa02"
      },
      "additionalContracts": [],
      "isFixedGasLimit": false
    },
    {
      "hash": "0x37d31086cbea5b39df889dd8f7c9363790be65c9cc93e1da4e5c8a89c020a798",
      "transactionType": "CALL",
      "contractName": null,
      "contractAddress": "0xd49df845d77dd02de442197be0d4ccde0a076738",
      "function": "registerAgent(address,string)",
      "arguments": [
        "0x26f484bb52c719d6aA19Db1405dE422F4397D4B8",
        "PEPE"
      ],
      "transaction": {
        "from": "0x95ed40013cb3990013af947a635d1a3e31057426",
        "to": "0xd49df845d77dd02de442197be0d4ccde0a076738",
        "gas": "0x205c9",
        "value": "0x0",
        "input": "0x22b833d800000000000000000000000026f484bb52c719d6aa19db1405de422f4397d4b8000000000000000000000000000000000000000000000000000000000000004000000000000000000000000000000000000000000000000000000000000000045045504500000000000000000000000000000000000000000000000000000000",
        "nonce": "0x3c",
        "chainId": "0xaa02"
      },
      "additionalContracts": [],
      "isFixedGasLimit": false
    },
    {
      "hash": "0xc4a10aa158f09485f015fcdf3c6c916f17cf2b1620f028253045c5ffb63d2aa6",
      "transactionType": "CALL",
      "contractName": null,
      "contractAddress": "0xd49df845d77dd02de442197be0d4ccde0a076738",
      "function": "registerAgent(address,string)",
      "arguments": [
        "0x552cca657358546189558b779e7430cbAea993a0",
        "SHIB"
      ],
      "transaction": {
        "from": "0x95ed40013cb3990013af947a635d1a3e31057426",
        "to": "0xd49df845d77dd02de442197be0d4ccde0a076738",
        "gas": "0x205c9",
        "value": "0x0",
        "input": "0x22b833d8000000000000000000000000552cca657358546189558b779e7430cbaea993a0000000000000000000000000000000000000000000000000000000000000004000000000000000000000000000000000000000000000000000000000000000045348494200000000000000000000000000000000000000000000000000000000",
        "nonce": "0x3d",
        "chainId": "0xaa02"
      },
      "additionalContracts": [],
      "isFixedGasLimit": false
    },
    {
      "hash": "0x864ce99629724a36b520a64b42161e5ef8a67401cfa88a267831cd71f27cf8be",
      "transactionType": "CALL",
      "contractName": null,
      "contractAddress": "0xd49df845d77dd02de442197be0d4ccde0a076738",
      "function": "registerAgent(address,string)",
      "arguments": [
        "0x692C4Ba6c8f239E2ED1c885D903E907342bd306e",
        "FLOKI"
      ],
      "transaction": {
        "from": "0x95ed40013cb3990013af947a635d1a3e31057426",
        "to": "0xd49df845d77dd02de442197be0d4ccde0a076738",
        "gas": "0x22450",
        "value": "0x0",
        "input": "0x22b833d8000000000000000000000000692c4ba6c8f239e2ed1c885d903e907342bd306e00000000000000000000000000000000000000000000000000000000000000400000000000000000000000000000000000000000000000000000000000000005464c4f4b49000000000000000000000000000000000000000000000000000000",
        "nonce": "0x3e",
        "chainId": "0xaa02"
      },
      "additionalContracts": [],
      "isFixedGasLimit": false
    },
    {
      "hash": "0x3203b967d040aea2dd6631d2991268d6823653a3fd128fda30bd9fa2a5f3340f",
      "transactionType": "CALL",
      "contractName": null,
      "contractAddress": "0xd49df845d77dd02de442197be0d4ccde0a076738",
      "function": "registerAgent(address,string)",
      "arguments": [
        "0xc625D1dc9f50a2647628F7003D02100d897bfa7a",
        "WIF"
      ],
      "transaction": {
        "from": "0x95ed40013cb3990013af947a635d1a3e31057426",
        "to": "0xd49df845d77dd02de442197be0d4ccde0a076738",
        "gas": "0x205a8",
        "value": "0x0",
        "input": "0x22b833d8000000000000000000000000c625d1dc9f50a2647628f7003d02100d897bfa7a000000000000000000000000000000000000000000000000000000000000004000000000000000000000000000000000000000000000000000000000000000035749460000000000000000000000000000000000000000000000000000000000",
        "nonce": "0x3f",
        "chainId": "0xaa02"
      },
      "additionalContracts": [],
      "isFixedGasLimit": false
    },
    {
      "hash": "0xd1d5a28337da1a7026ed37af2b9fbffa38f4c304dc3bc35db8bff6f94b6a7686",
      "transactionType": "CALL",
      "contractName": null,
      "contractAddress": "0xd49df845d77dd02de442197be0d4ccde0a076738",
      "function": "registerAgent(address,string)",
      "arguments": [
        "0xB4D732A215F3A3822cD9541508451B5B3fb1afBa",
        "BONK"
      ],
      "transaction": {
        "from": "0x95ed40013cb3990013af947a635d1a3e31057426",
        "to": "0xd49df845d77dd02de442197be0d4ccde0a076738",
        "gas": "0x205c9",
        "value": "0x0",
        "input": "0x22b833d8000000000000000000000000b4d732a215f3a3822cd9541508451b5b3fb1afba00000000000000000000000000000000000000000000000000000000000000400000000000000000000000000000000000000000000000000000000000000004424f4e4b00000000000000000000000000000000000000000000000000000000",
        "nonce": "0x40",
        "chainId": "0xaa02"
      },
      "additionalContracts": [],
      "isFixedGasLimit": false
    },
    {
      "hash": "0xc5228b92bf3c76165744420cb36107934ad21894da536df95302ae976539365c",
      "transactionType": "CALL",
      "contractName": null,
      "contractAddress": "0xd49df845d77dd02de442197be0d4ccde0a076738",
      "function": "registerAgent(address,string)",
      "arguments": [
        "0xB97574780e9f8453b67bAefe68627510e5513213",
        "BTC"
      ],
      "transaction": {
        "from": "0x95ed40013cb3990013af947a635d1a3e31057426",
        "to": "0xd49df845d77dd02de442197be0d4ccde0a076738",
        "gas": "0x2242d",
        "value": "0x0",
        "input": "0x22b833d8000000000000000000000000b97574780e9f8453b67baefe68627510e5513213000000000000000000000000000000000000000000000000000000000000004000000000000000000000000000000000000000000000000000000000000000034254430000000000000000000000000000000000000000000000000000000000",
        "nonce": "0x41",
        "chainId": "0xaa02"
      },
      "additionalContracts": [],
      "isFixedGasLimit": false
    },
    {
      "hash": "0x010f6dc68593bc694052af34bec8745810f44c47075125c0ac9ceea3c8d9dfb6",
      "transactionType": "CALL",
      "contractName": null,
      "contractAddress": "0xd164fd1b456b067fc52c2c9445e7ab980d411563",
      "function": "submitUpdate(address,string,(uint256,uint256,bool,uint8,uint256,bytes32,address))",
      "arguments": [
        "0x15b757fC9be7E880f7Ae44B1d3576dB512436446",
        "DOGE",
        "(8500000, 12500000000000, true, 2, 1764997085, 0xb1ffc592a94d702698a9d8329313315002d24ef04733637c330a5767d2b47457, 0x15b757fC9be7E880f7Ae44B1d3576dB512436446)"
      ],
      "transaction": {
        "from": "0x95ed40013cb3990013af947a635d1a3e31057426",
        "to": "0xd164fd1b456b067fc52c2c9445e7ab980d411563",
        "gas": "0x8fbf1",
        "value": "0x0",
        "input": "0xe364073500000000000000000000000015b757fc9be7e880f7ae44b1d3576db5124364460000000000000000000000000000000000000000000000000000000000000120000000000000000000000000000000000000000000000000000000000081b32000000000000000000000000000000000000000000000000000000b5e620f480000000000000000000000000000000000000000000000000000000000000000010000000000000000000000000000000000000000000000000000000000000002000000000000000000000000000000000000000000000000000000006933b7ddb1ffc592a94d702698a9d8329313315002d24ef04733637c330a5767d2b4745700000000000000000000000015b757fc9be7e880f7ae44b1d3576db5124364460000000000000000000000000000000000000000000000000000000000000004444f474500000000000000000000000000000000000000000000000000000000",
        "nonce": "0x42",
        "chainId": "0xaa02"
      },
      "additionalContracts": [],
      "isFixedGasLimit": false
    },
    {
      "hash": "0x0e8996f3f7ee74a4b92656eb2ceb7c19b1cdcb1accc1e3aef91fbe0e47cf492d",
      "transactionType": "CALL",
      "contractName": null,
      "contractAddress": "0xd164fd1b456b067fc52c2c9445e7ab980d411563",
      "function": "submitUpdate(address,string,(uint256,uint256,bool,uint8,uint256,bytes32,address))",
      "arguments": [
        "0x2017d5735EC9d91d52d362CA2CE8A3DE78Ed1Fa7",
        "PEPE",
        "(1200, 4450000000000, true, 2, 1764997085, 0xee5c7aabab38ece50068fc141f09100d6c3d671331841dc0fc289d4b537c9817, 0x2017d5735EC9d91d52d362CA2CE8A3DE78Ed1Fa7)"
      ],
      "transaction": {
        "from": "0x95ed40013cb3990013af947a635d1a3e31057426",
        "to": "0xd164fd1b456b067fc52c2c9445e7ab980d411563",
        "gas": "0x8fbd1",
        "value": "0x0",
        "input": "0xe36407350000000000000000000000002017d5735ec9d91d52d362ca2ce8a3de78ed1fa7000000000000000000000000000000000000000000000000000000000000012000000000000000000000000000000000000000000000000000000000000004b00000000000000000000000000000000000000000000000000000040c18ab540000000000000000000000000000000000000000000000000000000000000000010000000000000000000000000000000000000000000000000000000000000002000000000000000000000000000000000000000000000000000000006933b7ddee5c7aabab38ece50068fc141f09100d6c3d671331841dc0fc289d4b537c98170000000000000000000000002017d5735ec9d91d52d362ca2ce8a3de78ed1fa700000000000000000000000000000000000000000000000000000000000000045045504500000000000000000000000000000000000000000000000000000000",
        "nonce": "0x43",
        "chainId": "0xaa02"
      },
      "additionalContracts": [],
      "isFixedGasLimit": false
    },
    {
      "hash": "0x1e2a7af026a22511768aa6ed492a0794fc828ff6c0c8396018ab7dfc9c043de3",
      "transactionType": "CALL",
      "contractName": null,
      "contractAddress": "0xd164fd1b456b067fc52c2c9445e7ab980d411563",
      "function": "submitUpdate(address,string,(uint256,uint256,bool,uint8,uint256,bytes32,address))",
      "arguments": [
        "0x26f484bb52c719d6aA19Db1405dE422F4397D4B8",
        "PEPE",
        "(1250, 4450000000000, true, 2, 1764997085, 0xbe4db84e622f53408589ffb0f00abcacfbfaf040c215f149c4c5a2801e5f5961, 0x26f484bb52c719d6aA19Db1405dE422F4397D4B8)"
      ],
      "transaction": {
        "from": "0x95ed40013cb3990013af947a635d1a3e31057426",
        "to": "0xd164fd1b456b067fc52c2c9445e7ab980d411563",
        "gas": "0x93268",
        "value": "0x0",
        "input": "0xe364073500000000000000000000000026f484bb52c719d6aa19db1405de422f4397d4b8000000000000000000000000000000000000000000000000000000000000012000000000000000000000000000000000000000000000000000000000000004e20000000000000000000000000000000000000000000000000000040c18ab540000000000000000000000000000000000000000000000000000000000000000010000000000000000000000000000000000000000000000000000000000000002000000000000000000000000000000000000000000000000000000006933b7ddbe4db84e622f53408589ffb0f00abcacfbfaf040c215f149c4c5a2801e5f596100000000000000000000000026f484bb52c719d6aa19db1405de422f4397d4b800000000000000000000000000000000000000000000000000000000000000045045504500000000000000000000000000000000000000000000000000000000",
        "nonce": "0x44",
        "chainId": "0xaa02"
      },
      "additionalContracts": [],
      "isFixedGasLimit": false
    },
    {
      "hash": "0xc96790edb3d77734eb45c18a2034dbfcf7e1dd16d6d624edec6c99814c438d62",
      "transactionType": "CALL",
      "contractName": null,
      "contractAddress": "0xd164fd1b456b067fc52c2c9445e7ab980d411563",
      "function": "submitUpdate(address,string,(uint256,uint256,bool,uint8,uint256,bytes32,address))",
      "arguments": [
        "0x552cca657358546189558b779e7430cbAea993a0",
        "SHIB",
        "(780, 6700000000000, true, 2, 1764997085, 0xdc768bec91159d184f1d52abbe9e700c764b572f44239cbd02b46156f568d66c, 0x552cca657358546189558b779e7430cbAea993a0)"
      ],
      "transaction": {
        "from": "0x95ed40013cb3990013af947a635d1a3e31057426",
        "to": "0xd164fd1b456b067fc52c2c9445e7ab980d411563",
        "gas": "0x9832b",
        "value": "0x0",
        "input": "0xe3640735000000000000000000000000552cca657358546189558b779e7430cbaea993a00000000000000000000000000000000000000000000000000000000000000120000000000000000000000000000000000000000000000000000000000000030c00000000000000000000000000000000000000000000000000000617f71eb80000000000000000000000000000000000000000000000000000000000000000010000000000000000000000000000000000000000000000000000000000000002000000000000000000000000000000000000000000000000000000006933b7dddc768bec91159d184f1d52abbe9e700c764b572f44239cbd02b46156f568d66c000000000000000000000000552cca657358546189558b779e7430cbaea993a000000000000000000000000000000000000000000000000000000000000000045348494200000000000000000000000000000000000000000000000000000000",
        "nonce": "0x45",
        "chainId": "0xaa02"
      },
      "additionalContracts": [],
      "isFixedGasLimit": false
    },
    {
      "hash": "0x97d49764ac9b5e8e4bd72ecc7b2b30809d36d35d0830bd898bf4bdefd12da4ac",
      "transactionType": "CALL",
      "contractName": null,
      "contractAddress": "0xd164fd1b456b067fc52c2c9445e7ab980d411563",
      "function": "submitUpdate(address,string,(uint256,uint256,bool,uint8,uint256,bytes32,address))",
      "arguments": [
        "0x692C4Ba6c8f239E2ED1c885D903E907342bd306e",
        "FLOKI",
        "(16000, 15600000000000, true, 2, 1764997085, 0xb2574b908de5e5c971fcfa93b71c3f96d39bd5c557e6d43c711425dea508906b, 0x692C4Ba6c8f239E2ED1c885D903E907342bd306e)"
      ],
      "transaction": {
        "from": "0x95ed40013cb3990013af947a635d1a3e31057426",
        "to": "0xd164fd1b456b067fc52c2c9445e7ab980d411563",
        "gas": "0x8fbf1",
        "value": "0x0",
        "input": "0xe3640735000000000000000000000000692c4ba6c8f239e2ed1c885d903e907342bd306e00000000000000000000000000000000000000000000000000000000000001200000000000000000000000000000000000000000000000000000000000003e8000000000000000000000000000000000000000000000000000000e302875600000000000000000000000000000000000000000000000000000000000000000010000000000000000000000000000000000000000000000000000000000000002000000000000000000000000000000000000000000000000000000006933b7ddb2574b908de5e5c971fcfa93b71c3f96d39bd5c557e6d43c711425dea508906b000000000000000000000000692c4ba6c8f239e2ed1c885d903e907342bd306e0000000000000000000000000000000000000000000000000000000000000005464c4f4b49000000000000000000000000000000000000000000000000000000",
        "nonce": "0x46",
        "chainId": "0xaa02"
      },
      "additionalContracts": [],
      "isFixedGasLimit": false
    },
    {
      "hash": "0x11019a5f899c94ec49a075d347d414f52447a9a06743d570e089e26392e41ae9",
      "transactionType": "CALL",
      "contractName": null,
      "contractAddress": "0xd164fd1b456b067fc52c2c9445e7ab980d411563",
      "function": "submitUpdate(address,string,(uint256,uint256,bool,uint8,uint256,bytes32,address))",
      "arguments": [
        "0xc625D1dc9f50a2647628F7003D02100d897bfa7a",
        "WIF",
        "(42000000, 9800000000000, true, 2, 1764997085, 0x821215f0f18cb718f9e38e78dbdb9d8b990238d6c49126581f344d22220a3514, 0xc625D1dc9f50a2647628F7003D02100d897bfa7a)"
      ],
      "transaction": {
        "from": "0x95ed40013cb3990013af947a635d1a3e31057426",
        "to": "0xd164fd1b456b067fc52c2c9445e7ab980d411563",
        "gas": "0x8fbd1",
        "value": "0x0",
        "input": "0xe3640735000000000000000000000000c625d1dc9f50a2647628f7003d02100d897bfa7a0000000000000000000000000000000000000000000000000000000000000120000000000000000000000000000000000000000000000000000000000280de80000000000000000000000000000000000000000000000000000008e9bd84d00000000000000000000000000000000000000000000000000000000000000000010000000000000000000000000000000000000000000000000000000000000002000000000000000000000000000000000000000000000000000000006933b7dd821215f0f18cb718f9e38e78dbdb9d8b990238d6c49126581f344d22220a3514000000000000000000000000c625d1dc9f50a2647628f7003d02100d897bfa7a00000000000000000000000000000000000000000000000000000000000000035749460000000000000000000000000000000000000000000000000000000000",
        "nonce": "0x47",
        "chainId": "0xaa02"
      },
      "additionalContracts": [],
      "isFixedGasLimit": false
    },
    {
      "hash": "0x4b1e65bf2eea8b2dad374f18c02fb21499110b1d6ca313c2a666d1ad19c26fa4",
      "transactionType": "CALL",
      "contractName": null,
      "contractAddress": "0xd164fd1b456b067fc52c2c9445e7ab980d411563",
      "function": "submitUpdate(address,string,(uint256,uint256,bool,uint8,uint256,bytes32,address))",
      "arguments": [
        "0xB4D732A215F3A3822cD9541508451B5B3fb1afBa",
        "BONK",
        "(350, 11200000000000, true, 2, 1764997085, 0x5e5b949a7190b07a75596b75f6c8e184c9544bb840d34806337e3ebc2eee9310, 0xB4D732A215F3A3822cD9541508451B5B3fb1afBa)"
      ],
      "transaction": {
        "from": "0x95ed40013cb3990013af947a635d1a3e31057426",
        "to": "0xd164fd1b456b067fc52c2c9445e7ab980d411563",
        "gas": "0x9832b",
        "value": "0x0",
        "input": "0xe3640735000000000000000000000000b4d732a215f3a3822cd9541508451b5b3fb1afba0000000000000000000000000000000000000000000000000000000000000120000000000000000000000000000000000000000000000000000000000000015e00000000000000000000000000000000000000000000000000000a2fb405800000000000000000000000000000000000000000000000000000000000000000010000000000000000000000000000000000000000000000000000000000000002000000000000000000000000000000000000000000000000000000006933b7dd5e5b949a7190b07a75596b75f6c8e184c9544bb840d34806337e3ebc2eee9310000000000000000000000000b4d732a215f3a3822cd9541508451b5b3fb1afba0000000000000000000000000000000000000000000000000000000000000004424f4e4b00000000000000000000000000000000000000000000000000000000",
        "nonce": "0x48",
        "chainId": "0xaa02"
      },
      "additionalContracts": [],
      "isFixedGasLimit": false
    },
    {
      "hash": "0xea5a8aad2383d7f445487a47996bc1330a081663c7e9f59ceeba405302a8ee54",
      "transactionType": "CALL",
      "contractName": null,
      "contractAddress": "0xd164fd1b456b067fc52c2c9445e7ab980d411563",
      "function": "submitUpdate(address,string,(uint256,uint256,bool,uint8,uint256,bytes32,address))",
      "arguments": [
        "0xB97574780e9f8453b67bAefe68627510e5513213",
        "BTC",
        "(4325000000000, 58000000000000, true, 2, 1764997085, 0x1b0b7a37a242d8e2dc322538f2e8df5d49dfb48d0a843c7e18d5ffe884f806ea, 0xB97574780e9f8453b67bAefe68627510e5513213)"
      ],
      "transaction": {
        "from": "0x95ed40013cb3990013af947a635d1a3e31057426",
        "to": "0xd164fd1b456b067fc52c2c9445e7ab980d411563",
        "gas": "0x9834e",
        "value": "0x0",
        "input": "0xe3640735000000000000000000000000b97574780e9f8453b67baefe68627510e55132130000000000000000000000000000000000000000000000000000000000000120000000000000000000000000000000000000000000000000000003eefe16b200000000000000000000000000000000000000000000000000000034c02d65a00000000000000000000000000000000000000000000000000000000000000000010000000000000000000000000000000000000000000000000000000000000002000000000000000000000000000000000000000000000000000000006933b7dd1b0b7a37a242d8e2dc322538f2e8df5d49dfb48d0a843c7e18d5ffe884f806ea000000000000000000000000b97574780e9f8453b67baefe68627510e551321300000000000000000000000000000000000000000000000000000000000000034254430000000000000000000000000000000000000000000000000000000000",
        "nonce": "0x49",
        "chainId": "0xaa02"
      },
      "additionalContracts": [],
      "isFixedGasLimit": false
    }
  ],
  "receipts": [
    {
      "status": "0x1",
      "cumulativeGasUsed": "0x6e9c",
      "logs": [
        {
          "address": "0xc81536da58b4b2e4ff433fe511bf0e035576ec15",
          "topics": [
            "0x37b581fd307314ace40be831f608bfb3992995ca7a1b02145e6a58d01bb3f9cf",
            "0x9a3f52b1b31ae58da40209f38379e78c3a0756495a0f585d0b3c84a9e9718f9d"
          ],
          "data": "0x0000000000000000000000000000000000000000000000000000000000002710",
          "blockHash": "0xfb12cb773759efd3a54343f793ae4aa3788161980b06ba7d76588c8ff6d6ac74",
          "blockNumber": "0x2b1014",
          "transactionHash": "0x8e119cabcc5306fdf33ea30e0aa0e0b77db50dfda05843378c7d09c7508580b5",
          "transactionIndex": "0x0",
          "logIndex": "0x0",
          "removed": false
        }
      ],
      "logsBloom": "0x00000000000000000000000000000000004000000000040000000000000000000000000000000000000000002000000000000000000000040000000000800000000000000000000000000000000000000000000000000000000000000000000000000000000000000000200000000000000000000000000000000000000000000000000000000000000000000000000000000000000000000000000000000000000000000001000000000000000000000010000000000000000000000000000000000000000000000000000000000000000000000000000000000000000000000000000000000000000000000000000000000000008000000000000000000000",
      "type": "0x2",
      "transactionHash": "0x8e119cabcc5306fdf33ea30e0aa0e0b77db50dfda05843378c7d09c7508580b5",
      "transactionIndex": "0x0",
      "blockHash": "0xfb12cb773759efd3a54343f793ae4aa3788161980b06ba7d76588c8ff6d6ac74",
      "blockNumber": "0x2b1014",
      "gasUsed": "0x6e9c",
      "effectiveGasPrice": "0x15d7a926200",
      "from": "0x95ed40013cb3990013af947a635d1a3e31057426",
      "to": "0xc81536da58b4b2e4ff433fe511bf0e035576ec15",
      "contractAddress": null
    },
    {
      "status": "0x1",
      "cumulativeGasUsed": "0xe828",
      "logs": [
        {
          "address": "0xc81536da58b4b2e4ff433fe511bf0e035576ec15",
          "topics": [
            "0x37b581fd307314ace40be831f608bfb3992995ca7a1b02145e6a58d01bb3f9cf",
            "0x608e17bb6814e7eb8d564b13416322f3d8a2dc5e36dde75519945008d7848749"
          ],
          "data": "0x0000000000000000000000000000000000000000000000000000000000002ee0",
          "blockHash": "0xfb12cb773759efd3a54343f793ae4aa3788161980b06ba7d76588c8ff6d6ac74",
          "blockNumber": "0x2b1014",
          "transactionHash": "0xa47c8d8ec768526752f7e95d7cb8704595b209a41ce33a6f7e9b1890f44d3ec3",
          "transactionIndex": "0x1",
          "logIndex": "0x1",
          "removed": false
        }
      ],
      "logsBloom": "0x00000000000000000000000000000000004000000000000000000000000000000000000000000000000000002000000000000000000000040000000000800000000000040000000000000000000000000000000000000000000000000000000000000000000000000000200000000000000000000000000000000000000000000000000000000000000000000000000000000000000000000000000000000000000000000000000000000000000000000000000000000020000000000000000000000000000000000000000000000000000000000000000000020000000000000000000000000000000000000000000000000000008000000000000000000000",
      "type": "0x2",
      "transactionHash": "0xa47c8d8ec768526752f7e95d7cb8704595b209a41ce33a6f7e9b1890f44d3ec3",
      "transactionIndex": "0x1",
      "blockHash": "0xfb12cb773759efd3a54343f793ae4aa3788161980b06ba7d76588c8ff6d6ac74",
      "blockNumber": "0x2b1014",
      "gasUsed": "0x798c",
      "effectiveGasPrice": "0x15d7a926200",
      "from": "0x95ed40013cb3990013af947a635d1a3e31057426",
      "to": "0xc81536da58b4b2e4ff433fe511bf0e035576ec15",
      "contractAddress": null
    },
    {
      "status": "0x1",
      "cumulativeGasUsed": "0x156c4",
      "logs": [
        {
          "address": "0xc81536da58b4b2e4ff433fe511bf0e035576ec15",
          "topics": [
            "0x37b581fd307314ace40be831f608bfb3992995ca7a1b02145e6a58d01bb3f9cf",
            "0xefa585451ff82e7559b7e4aa3c7d26b394fd121301bbf6f1da4ef6d29210466e"
          ],
          "data": "0x0000000000000000000000000000000000000000000000000000000000002710",
          "blockHash": "0xfb12cb773759efd3a54343f793ae4aa3788161980b06ba7d76588c8ff6d6ac74",
          "blockNumber": "0x2b1014",
          "transactionHash": "0x2cea279ec11dcf7585b0b57fe32f6f934be5c427223138efd92509f1388e88fb",
          "transactionIndex": "0x2",
          "logIndex": "0x2",
          "removed": false
        }
      ],
      "logsBloom": "0x00000000000000000000000000000000004000000000000000000000000000000000000000000000000000002000000000000000000000040000000000800000000000000000000000000000000000000000000000080000000000000000000000000000000000000000200000000000000000000000000000000000000000000000000000000000000000000000000000000000000000000000000000000000000000000000000000000000000000000000000000000000000000000000000000000000000000000000000000000000000000000000000000000000000000800200000000000000000000000000000000000000008000000000000000000000",
      "type": "0x2",
      "transactionHash": "0x2cea279ec11dcf7585b0b57fe32f6f934be5c427223138efd92509f1388e88fb",
      "transactionIndex": "0x2",
      "blockHash": "0xfb12cb773759efd3a54343f793ae4aa3788161980b06ba7d76588c8ff6d6ac74",
      "blockNumber": "0x2b1014",
      "gasUsed": "0x6e9c",
      "effectiveGasPrice": "0x15d7a926200",
      "from": "0x95ed40013cb3990013af947a635d1a3e31057426",
      "to": "0xc81536da58b4b2e4ff433fe511bf0e035576ec15",
      "contractAddress": null
    },
    {
      "status": "0x1",
      "cumulativeGasUsed": "0x1d05c",
      "logs": [
        {
          "address": "0xc81536da58b4b2e4ff433fe511bf0e035576ec15",
          "topics": [
            "0x37b581fd307314ace40be831f608bfb3992995ca7a1b02145e6a58d01bb3f9cf",
            "0x4d2685df44ed8d92cd381798ca9d3877ed9fca9a24cbfcf0e5985c253410b371"
          ],
          "data": "0x0000000000000000000000000000000000000000000000000000000000002af8",
          "blockHash": "0xfb12cb773759efd3a54343f793ae4aa3788161980b06ba7d76588c8ff6d6ac74",
          "blockNumber": "0x2b1014",
          "transactionHash": "0x96e9fa9f1391ea6dd62a930ccb0b6e0914545f65278a1d77938163e4a5ba1d0e",
          "transactionIndex": "0x3",
          "logIndex": "0x3",
          "removed": false
        }
      ],
      "logsBloom": "0x00000000000000000000000000000000004000000000000000000000000000000000000000000000000000002000000000020000000000040000000000800000000000000000000000000000000000000000000000000000000000000000000000000000000000000000200000000000000000000000000000000000000000000000000000010000000000000000000000000000000000000000000000000000000000000000000000000000000000000000000000000000000000000000000000000000000000000000000000000000000000000000000000000000000000000000000000000000000000000000000400000000008000000000000000000000",
      "type": "0x2",
      "transactionHash": "0x96e9fa9f1391ea6dd62a930ccb0b6e0914545f65278a1d77938163e4a5ba1d0e",
      "transactionIndex": "0x3",
      "blockHash": "0xfb12cb773759efd3a54343f793ae4aa3788161980b06ba7d76588c8ff6d6ac74",
      "blockNumber": "0x2b1014",
      "gasUsed": "0x7998",
      "effectiveGasPrice": "0x15d7a926200",
      "from": "0x95ed40013cb3990013af947a635d1a3e31057426",
      "to": "0xc81536da58b4b2e4ff433fe511bf0e035576ec15",
      "contractAddress": null
    },
    {
      "status": "0x1",
      "cumulativeGasUsed": "0x249dc",
      "logs": [
        {
          "address": "0xc81536da58b4b2e4ff433fe511bf0e035576ec15",
          "topics": [
            "0x37b581fd307314ace40be831f608bfb3992995ca7a1b02145e6a58d01bb3f9cf",
            "0xabad9a062c9f315a9feea094e0ec8d4620ba3e5953a36728cb12e20baddf0a07"
          ],
          "data": "0x00000000000000000000000000000000000000000000000000000000000032c8",
          "blockHash": "0xfb12cb773759efd3a54343f793ae4aa3788161980b06ba7d76588c8ff6d6ac74",
          "blockNumber": "0x2b1014",
          "transactionHash": "0x0305b9b693bb9e732af51f7b9e28052a96cd86a6d99aa6387c2a1eefa0dd4626",
          "transactionIndex": "0x4",
          "logIndex": "0x4",
          "removed": false
        }
      ],
      "logsBloom": "0x00000000000000000000000000000000004000000000000000000000000000000000000000000000000000002000000000000000000000040000000000800000000000000000000000000000000000000000000000000000000000000000000000000000000000000000200000000000000000000000000000000000000000000000000000000000000000000000000000000000000000000000000000000000000000000000000000000000000004000001000000000000000000000000000000000000000200000000000000000000000000000000000000000000000000000000000000000000000000000000000000000000008000000000000000000000",
      "type": "0x2",
      "transactionHash": "0x0305b9b693bb9e732af51f7b9e28052a96cd86a6d99aa6387c2a1eefa0dd4626",
      "transactionIndex": "0x4",
      "blockHash": "0xfb12cb773759efd3a54343f793ae4aa3788161980b06ba7d76588c8ff6d6ac74",
      "blockNumber": "0x2b1014",
      "gasUsed": "0x7980",
      "effectiveGasPrice": "0x15d7a926200",
      "from": "0x95ed40013cb3990013af947a635d1a3e31057426",
      "to": "0xc81536da58b4b2e4ff433fe511bf0e035576ec15",
      "contractAddress": null
    },
    {
      "status": "0x1",
      "cumulativeGasUsed": "0x2c368",
      "logs": [
        {
          "address": "0xc81536da58b4b2e4ff433fe511bf0e035576ec15",
          "topics": [
            "0x37b581fd307314ace40be831f608bfb3992995ca7a1b02145e6a58d01bb3f9cf",
            "0x33a9943bc13f82050177e083c742d665a37b94763b617af88e4f7d84f1d209ff"
          ],
          "data": "0x0000000000000000000000000000000000000000000000000000000000002ee0",
          "blockHash": "0xfb12cb773759efd3a54343f793ae4aa3788161980b06ba7d76588c8ff6d6ac74",
          "blockNumber": "0x2b1014",
          "transactionHash": "0x7f24869d6f2a9704a81df6a2226a5289bdad39839691ffe39bf59f951bfd4d18",
          "transactionIndex": "0x5",
          "logIndex": "0x5",
          "removed": false
        }
      ],
      "logsBloom": "0x00000000000000000000000000000000004000000000000000000000000000000000000000000000000000002000400000000000000000040000000040800000000000000000000000000000000000000000000000000000000000000000000000000000000000000040200000000000000000000000000000000000000000000000000000000000000000000000000000000000000000000000000000000000000000000000000000000000000000000000000000000000000000000000000000000000000000000000000000000000000000000000000000000000000000000000000000000000000000000000000000000000008000000000000000000000",
      "type": "0x2",
      "transactionHash": "0x7f24869d6f2a9704a81df6a2226a5289bdad39839691ffe39bf59f951bfd4d18",
      "transactionIndex": "0x5",
      "blockHash": "0xfb12cb773759efd3a54343f793ae4aa3788161980b06ba7d76588c8ff6d6ac74",
      "blockNumber": "0x2b1014",
      "gasUsed": "0x798c",
      "effectiveGasPrice": "0x15d7a926200",
      "from": "0x95ed40013cb3990013af947a635d1a3e31057426",
      "to": "0xc81536da58b4b2e4ff433fe511bf0e035576ec15",
      "contractAddress": null
    },
    {
      "status": "0x1",
      "cumulativeGasUsed": "0x33ce8",
      "logs": [
        {
          "address": "0xc81536da58b4b2e4ff433fe511bf0e035576ec15",
          "topics": [
            "0x37b581fd307314ace40be831f608bfb3992995ca7a1b02145e6a58d01bb3f9cf",
            "0xe98e2830be1a7e4156d656a7505e65d08c67660dc618072422e9c78053c261e9"
          ],
          "data": "0x0000000000000000000000000000000000000000000000000000000000001f40",
          "blockHash": "0xfb12cb773759efd3a54343f793ae4aa3788161980b06ba7d76588c8ff6d6ac74",
          "blockNumber": "0x2b1014",
          "transactionHash": "0xb604bf8d0cb338acb5a02214d3a2e26d0e68cdab2a21482e2cb1aa8d29219105",
          "transactionIndex": "0x6",
          "logIndex": "0x6",
          "removed": false
        }
      ],
      "logsBloom": "0x00000000000000000000000000000000004000000000000000000000000000000000000000000000002000002000000000000000000000040000000000800000000000000000000000000000000000000000000000000000000000000000000000000000000000000000200000000000000000000000000000000000000000000000000000000000000000000000000000000000000000000000000000000000000000000000000000000000000000000000000000000000000000000000000000000000000000000000000000000000000000000000000000000000000000000000000000000000000100000000000000000000008000000000000000400000",
      "type": "0x2",
      "transactionHash": "0xb604bf8d0cb338acb5a02214d3a2e26d0e68cdab2a21482e2cb1aa8d29219105",
      "transactionIndex": "0x6",
      "blockHash": "0xfb12cb773759efd3a54343f793ae4aa3788161980b06ba7d76588c8ff6d6ac74",
      "blockNumber": "0x2b1014",
      "gasUsed": "0x7980",
      "effectiveGasPrice": "0x15d7a926200",
      "from": "0x95ed40013cb3990013af947a635d1a3e31057426",
      "to": "0xc81536da58b4b2e4ff433fe511bf0e035576ec15",
      "contractAddress": null
    },
    {
      "status": "0x1",
      "cumulativeGasUsed": "0x4b3c7",
      "logs": [
        {
          "address": "0xd49df845d77dd02de442197be0d4ccde0a076738",
          "topics": [
            "0x023c5efe572c42192271951adb0e77f97d7fc84bc761d026189ac08617346824",
            "0x00000000000000000000000015b757fc9be7e880f7ae44b1d3576db512436446",
            "0x9a3f52b1b31ae58da40209f38379e78c3a0756495a0f585d0b3c84a9e9718f9d"
          ],
          "data": "0x000000000000000000000000000000000000000000000000000000006933b7f9",
          "blockHash": "0xfb12cb773759efd3a54343f793ae4aa3788161980b06ba7d76588c8ff6d6ac74",
          "blockNumber": "0x2b1014",
          "transactionHash": "0x7a95394bb029d931b8719231200d04fe4c461be7d02d4bf377c0659a19e44636",
          "transactionIndex": "0x7",
          "logIndex": "0x7",
          "removed": false
        }
      ],
      "logsBloom": "0x00000000000000000000000000000000000000000000040000000000000040000000000000000000000000000000000000000000000000000000000000000000000000000000000000000000000000000000000000000000000000000000001010000000000000000000000000000000000000000000000000000000000000000000000004000000000000000000000000000000000000000000000000000000000100000101000000000000000000000010000001000000000000000000000200000000000000000000000000000000000000000008000000000000000000000000000000000000000000000000000000000000000000000000000000000000",
      "type": "0x2",
      "transactionHash": "0x7a95394bb029d931b8719231200d04fe4c461be7d02d4bf377c0659a19e44636",
      "transactionIndex": "0x7",
      "blockHash": "0xfb12cb773759efd3a54343f793ae4aa3788161980b06ba7d76588c8ff6d6ac74",
      "blockNumber": "0x2b1014",
      "gasUsed": "0x176df",
      "effectiveGasPrice": "0x15d7a926200",
      "from": "0x95ed40013cb3990013af947a635d1a3e31057426",
      "to": "0xd49df845d77dd02de442197be0d4ccde0a076738",
      "contractAddress": null
    },
    {
      "status": "0x1",
      "cumulativeGasUsed": "0x62aa6",
      "logs": [
        {
          "address": "0xd49df845d77dd02de442197be0d4ccde0a076738",
          "topics": [
            "0x023c5efe572c42192271951adb0e77f97d7fc84bc761d026189ac08617346824",
            "0x0000000000000000000000002017d5735ec9d91d52d362ca2ce8a3de78ed1fa7",
            "0x608e17bb6814e7eb8d564b13416322f3d8a2dc5e36dde75519945008d7848749"
          ],
          "data": "0x000000000000000000000000000000000000000000000000000000006933b7f9",
          "blockHash": "0xfb12cb773759efd3a54343f793ae4aa3788161980b06ba7d76588c8ff6d6ac74",
          "blockNumber": "0x2b1014",
          "transactionHash": "0x510da3d3dd3912cbde7dd99f05f625721929ea5e4a60eef5a4bb0fe7dba94c42",
          "transactionIndex": "0x8",
          "logIndex": "0x8",
          "removed": false
        }
      ],
      "logsBloom": "0x00000000000000000000000000000080000000000000000000000000000040000000000000000000000000000000000100000000000000000000000000000000000000040000000000000000000000000000000000000000000000000000000010000000000000000000000000000000000000000000000000000000000000000000000004000000000000000000000000000000000000000000000000000000000100000000000000080000000000000000000000000020000000000000000200000000000000000000000000000000000000000008000000020000000000000000000000000000000000000000000000000000000000000000000000000000",
      "type": "0x2",
      "transactionHash": "0x510da3d3dd3912cbde7dd99f05f625721929ea5e4a60eef5a4bb0fe7dba94c42",
      "transactionIndex": "0x8",
      "blockHash": "0xfb12cb773759efd3a54343f793ae4aa3788161980b06ba7d76588c8ff6d6ac74",
      "blockNumber": "0x2b1014",
      "gasUsed": "0x176df",
      "effectiveGasPrice": "0x15d7a926200",
      "from": "0x95ed40013cb3990013af947a635d1a3e31057426",
      "to": "0xd49df845d77dd02de442197be0d4ccde0a076738",
      "contractAddress": null
    },
    {
      "status": "0x1",
      "cumulativeGasUsed": "0x7a185",
      "logs": [
        {
          "address": "0xd49df845d77dd02de442197be0d4ccde0a076738",
          "topics": [
            "0x023c5efe572c42192271951adb0e77f97d7fc84bc761d026189ac08617346824",
            "0x00000000000000000000000026f484bb52c719d6aa19db1405de422f4397d4b8",
            "0x608e17bb6814e7eb8d564b13416322f3d8a2dc5e36dde75519945008d7848749"
          ],
          "data": "0x000000000000000000000000000000000000000000000000000000006933b7f9",
          "blockHash": "0xfb12cb773759efd3a54343f793ae4aa3788161980b06ba7d76588c8ff6d6ac74",
          "blockNumber": "0x2b1014",
          "transactionHash": "0x37d31086cbea5b39df889dd8f7c9363790be65c9cc93e1da4e5c8a89c020a798",
          "transactionIndex": "0x9",
          "logIndex": "0x9",
          "removed": false
        }
      ],
      "logsBloom": "0x00000000000000000000000000000000000000000000000000000000000040000000000000000000000000000000000000000000000000000000000000000000000000040000000000000000000000000000000000000000000000000000000010000000000000000000000000000000000000000000000000000000000000000000000004000000000000000000000000000000000000000004000000000000000100000000000000000000000000000000000000000020000000000000000200000000000000200000000000000000000000000008000000020000000000000000000000000000000000000000000000000000000002000000000000000000",
      "type": "0x2",
      "transactionHash": "0x37d31086cbea5b39df889dd8f7c9363790be65c9cc93e1da4e5c8a89c020a798",
      "transactionIndex": "0x9",
      "blockHash": "0xfb12cb773759efd3a54343f793ae4aa3788161980b06ba7d76588c8ff6d6ac74",
      "blockNumber": "0x2b1014",
      "gasUsed": "0x176df",
      "effectiveGasPrice": "0x15d7a926200",
      "from": "0x95ed40013cb3990013af947a635d1a3e31057426",
      "to": "0xd49df845d77dd02de442197be0d4ccde0a076738",
      "contractAddress": null
    },
    {
      "status": "0x1",
      "cumulativeGasUsed": "0x91864",
      "logs": [
        {
          "address": "0xd49df845d77dd02de442197be0d4ccde0a076738",
          "topics": [
            "0x023c5efe572c42192271951adb0e77f97d7fc84bc761d026189ac08617346824",
            "0x000000000000000000000000552cca657358546189558b779e7430cbaea993a0",
            "0xefa585451ff82e7559b7e4aa3c7d26b394fd121301bbf6f1da4ef6d29210466e"
          ],
          "data": "0x000000000000000000000000000000000000000000000000000000006933b7f9",
          "blockHash": "0xfb12cb773759efd3a54343f793ae4aa3788161980b06ba7d76588c8ff6d6ac74",
          "blockNumber": "0x2b1014",
          "transactionHash": "0xc4a10aa158f09485f015fcdf3c6c916f17cf2b1620f028253045c5ffb63d2aa6",
          "transactionIndex": "0xa",
          "logIndex": "0xa",
          "removed": false
        }
      ],
      "logsBloom": "0x00000000000000000000000000000000000000000000000000000000000040000000000000000000000000000000000000000000000000000000000000000000000000000000000000000000000000000000000000080000000000000000000010000000000000000000000040000000000000000000000000000000000000000000040004000000000000000000000000000000000000000000000000000000000100000000000000000000000000000000000000000000000000000000000200000000000000000000000000000000000000000008000000000000000000800208000000000000000000000000000000000000000000000000000000000000",
      "type": "0x2",
      "transactionHash": "0xc4a10aa158f09485f015fcdf3c6c916f17cf2b1620f028253045c5ffb63d2aa6",
      "transactionIndex": "0xa",
      "blockHash": "0xfb12cb773759efd3a54343f793ae4aa3788161980b06ba7d76588c8ff6d6ac74",
      "blockNumber": "0x2b1014",
      "gasUsed": "0x176df",
      "effectiveGasPrice": "0x15d7a926200",
      "from": "0x95ed40013cb3990013af947a635d1a3e31057426",
      "to": "0xd49df845d77dd02de442197be0d4ccde0a076738",
      "contractAddress": null
    },
    {
      "status": "0x1",
      "cumulativeGasUsed": "0xa8f4f",
      "logs": [
        {
          "address": "0xd49df845d77dd02de442197be0d4ccde0a076738",
          "topics": [
            "0x023c5efe572c42192271951adb0e77f97d7fc84bc761d026189ac08617346824",
            "0x000000000000000000000000692c4ba6c8f239e2ed1c885d903e907342bd306e",
            "0x4d2685df44ed8d92cd381798ca9d3877ed9fca9a24cbfcf0e5985c253410b371"
          ],
          "data": "0x000000000000000000000000000000000000000000000000000000006933b7f9",
          "blockHash": "0xfb12cb773759efd3a54343f793ae4aa3788161980b06ba7d76588c8ff6d6ac74",
          "blockNumber": "0x2b1014",
          "transactionHash": "0x864ce99629724a36b520a64b42161e5ef8a67401cfa88a267831cd71f27cf8be",
          "transactionIndex": "0xb",
          "logIndex": "0xb",
          "removed": false
        }
      ],
      "logsBloom": "0x00000000000000000000000000000000000000000000000000000000000040000000000000000000000000010000000000020000000000000000000000000000000000000000000000004000000000000000000000000000000000000000000010000000000000000000000000000000000000000000000000000000000000000000000004010000000000000000000000000000000000000000000000000000000100000000000000000000000000000000000000000000000000000000000200000000000000000000000000000000000000000008000000000080000000000000000000000000000000000000000400000000000000000000000000000000",
      "type": "0x2",
      "transactionHash": "0x864ce99629724a36b520a64b42161e5ef8a67401cfa88a267831cd71f27cf8be",
      "transactionIndex": "0xb",
      "blockHash": "0xfb12cb773759efd3a54343f793ae4aa3788161980b06ba7d76588c8ff6d6ac74",
      "blockNumber": "0x2b1014",
      "gasUsed": "0x176eb",
      "effectiveGasPrice": "0x15d7a926200",
      "from": "0x95ed40013cb3990013af947a635d1a3e31057426",
      "to": "0xd49df845d77dd02de442197be0d4ccde0a076738",
      "contractAddress": null
    },
    {
      "status": "0x1",
      "cumulativeGasUsed": "0xc0616",
      "logs": [
        {
          "address": "0xd49df845d77dd02de442197be0d4ccde0a076738",
          "topics": [
            "0x023c5efe572c42192271951adb0e77f97d7fc84bc761d026189ac08617346824",
            "0x000000000000000000000000c625d1dc9f50a2647628f7003d02100d897bfa7a",
            "0xabad9a062c9f315a9feea094e0ec8d4620ba3e5953a36728cb12e20baddf0a07"
          ],
          "data": "0x000000000000000000000000000000000000000000000000000000006933b7f9",
          "blockHash": "0xfb12cb773759efd3a54343f793ae4aa3788161980b06ba7d76588c8ff6d6ac74",
          "blockNumber": "0x2b1014",
          "transactionHash": "0x3203b967d040aea2dd6631d2991268d6823653a3fd128fda30bd9fa2a5f3340f",
          "transactionIndex": "0xc",
          "logIndex": "0xc",
          "removed": false
        }
      ],
      "logsBloom": "0x00000000000000000000000000000000000000000000000000000000000040000000000000000000000000000000000000000000000000000000000000000000000000000000000000000000000000000000000000000000000000000000000010000000800000000000000000000000000000000000000000000002000000000000000004000000000000000000000000000000000000000000000000000000000100000000000000000000000004000001000000000000000000000000000200000000000200000000000000000000000000000008000000000000000000000000000000000040000000000000000000000000000000000000000000000000",
      "type": "0x2",
      "transactionHash": "0x3203b967d040aea2dd6631d2991268d6823653a3fd128fda30bd9fa2a5f3340f",
      "transactionIndex": "0xc",
      "blockHash": "0xfb12cb773759efd3a54343f793ae4aa3788161980b06ba7d76588c8ff6d6ac74",
      "blockNumber": "0x2b1014",
      "gasUsed": "0x176c7",
      "effectiveGasPrice": "0x15d7a926200",
      "from": "0x95ed40013cb3990013af947a635d1a3e31057426",
      "to": "0xd49df845d77dd02de442197be0d4ccde0a076738",
      "contractAddress": null
    },
    {
      "status": "0x1",
      "cumulativeGasUsed": "0xd7cf5",
      "logs": [
        {
          "address": "0xd49df845d77dd02de442197be0d4ccde0a076738",
          "topics": [
            "0x023c5efe572c42192271951adb0e77f97d7fc84bc761d026189ac08617346824",
            "0x000000000000000000000000b4d732a215f3a3822cd9541508451b5b3fb1afba",
            "0x33a9943bc13f82050177e083c742d665a37b94763b617af88e4f7d84f1d209ff"
          ],
          "data": "0x000000000000000000000000000000000000000000000000000000006933b7f9",
          "blockHash": "0xfb12cb773759efd3a54343f793ae4aa3788161980b06ba7d76588c8ff6d6ac74",
          "blockNumber": "0x2b1014",
          "transactionHash": "0xd1d5a28337da1a7026ed37af2b9fbffa38f4c304dc3bc35db8bff6f94b6a7686",
          "transactionIndex": "0xd",
          "logIndex": "0xd",
          "removed": false
        }
      ],
      "logsBloom": "0x00000000000000000000000000000000000000000000000000000000000040000000000000000000000000020000400000000000000000000000000040000000000000000000000000000000000000000000000000000000000000000000000010000000000000000040000000000000000000000000400000000000000000000000000004000000000000000000000000000000000000000000000000000000000100000000000000000000000000000000000000000000000000000000000208000000000000000000000000000000000000000008000000000000000000000000000000000000000000000000000000000000000000000000000000000000",
      "type": "0x2",
      "transactionHash": "0xd1d5a28337da1a7026ed37af2b9fbffa38f4c304dc3bc35db8bff6f94b6a7686",
      "transactionIndex": "0xd",
      "blockHash": "0xfb12cb773759efd3a54343f793ae4aa3788161980b06ba7d76588c8ff6d6ac74",
      "blockNumber": "0x2b1014",
      "gasUsed": "0x176df",
      "effectiveGasPrice": "0x15d7a926200",
      "from": "0x95ed40013cb3990013af947a635d1a3e31057426",
      "to": "0xd49df845d77dd02de442197be0d4ccde0a076738",
      "contractAddress": null
    },
    {
      "status": "0x1",
      "cumulativeGasUsed": "0xef3c8",
      "logs": [
        {
          "address": "0xd49df845d77dd02de442197be0d4ccde0a076738",
          "topics": [
            "0x023c5efe572c42192271951adb0e77f97d7fc84bc761d026189ac08617346824",
            "0x000000000000000000000000b97574780e9f8453b67baefe68627510e5513213",
            "0xe98e2830be1a7e4156d656a7505e65d08c67660dc618072422e9c78053c261e9"
          ],
          "data": "0x000000000000000000000000000000000000000000000000000000006933b7f9",
          "blockHash": "0xfb12cb773759efd3a54343f793ae4aa3788161980b06ba7d76588c8ff6d6ac74",
          "blockNumber": "0x2b1014",
          "transactionHash": "0xc5228b92bf3c76165744420cb36107934ad21894da536df95302ae976539365c",
          "transactionIndex": "0xe",
          "logIndex": "0xe",
          "removed": false
        }
      ],
      "logsBloom": "0x00000000000000000000000000000000000000000000000000000000000040000000000000000000002000000000000000000000000000000000000000000000000000000000000000000000000000000000000000000000000000000000000010000000000000000000000000000000000000000000000000000000000000000000000004000400000000000000000000000000000000000000000000800000000100000000000000000000000000000000000000000000000000000000000200000000000000000000000000080000000000000008000000000000000000000000000000000000000100000000000000000000000000000000000000400000",
      "type": "0x2",
      "transactionHash": "0xc5228b92bf3c76165744420cb36107934ad21894da536df95302ae976539365c",
      "transactionIndex": "0xe",
      "blockHash": "0xfb12cb773759efd3a54343f793ae4aa3788161980b06ba7d76588c8ff6d6ac74",
      "blockNumber": "0x2b1014",
      "gasUsed": "0x176d3",
      "effectiveGasPrice": "0x15d7a926200",
      "from": "0x95ed40013cb3990013af947a635d1a3e31057426",
      "to": "0xd49df845d77dd02de442197be0d4ccde0a076738",
      "contractAddress": null
    },
    {
      "status": "0x1",
      "cumulativeGasUsed": "0x1574e7",
      "logs": [
        {
          "address": "0xd49df845d77dd02de442197be0d4ccde0a076738",
          "topics": [
            "0x7e1e2bbb910c7ff21f0b32e7c6d3a7d4cb1257a3197dea19b1b6c21e9cd5d8cc",
            "0x00000000000000000000000015b757fc9be7e880f7ae44b1d3576db512436446"
          ],
          "data": "0x0000000000000000000000000000000000000000000000000000000000000001",
          "blockHash": "0xfb12cb773759efd3a54343f793ae4aa3788161980b06ba7d76588c8ff6d6ac74",
          "blockNumber": "0x2b1014",
          "transactionHash": "0x010f6dc68593bc694052af34bec8745810f44c47075125c0ac9ceea3c8d9dfb6",
          "transactionIndex": "0xf",
          "logIndex": "0xf",
          "removed": false
        },
        {
          "address": "0x30490c9239fdc6ff8feef84ff6f7b657ec6882f8",
          "topics": [
            "0x7d8cee5d1217e47a14a662098e84a7758580aaf78f430c07c543249234e867bf",
            "0x0000000000000000000000000000000000000000000000000000000000000002"
          ],
          "data": "0x000000000000000000000000000000000000000000000000000000000081b320000000000000000000000000000000000000000000000000000000006933b7f9",
          "blockHash": "0xfb12cb773759efd3a54343f793ae4aa3788161980b06ba7d76588c8ff6d6ac74",
          "blockNumber": "0x2b1014",
          "transactionHash": "0x010f6dc68593bc694052af34bec8745810f44c47075125c0ac9ceea3c8d9dfb6",
          "transactionIndex": "0xf",
          "logIndex": "0x10",
          "removed": false
        },
        {
          "address": "0xaa6b8ad37f435dc7e095ba6a20b6b2e7e0e285a1",
          "topics": [
            "0x3370b5ef195f8e20c1a618f8f3748c32fe720dfcafcdfaa9617ca2f1c028ea6c",
            "0x00000000000000000000000015b757fc9be7e880f7ae44b1d3576db512436446",
            "0xc5d2460186f7233c927e7db2dcc703c0e500b653ca82273b7bfad8045d85a470"
          ],
          "data": "0x00000000000000000000000000000000000000000000000000000b5e620f48000000000000000000000000000000000000000000000000000000000000000001",
          "blockHash": "0xfb12cb773759efd3a54343f793ae4aa3788161980b06ba7d76588c8ff6d6ac74",
          "blockNumber": "0x2b1014",
          "transactionHash": "0x010f6dc68593bc694052af34bec8745810f44c47075125c0ac9ceea3c8d9dfb6",
          "transactionIndex": "0xf",
          "logIndex": "0x11",
          "removed": false
        },
        {
          "address": "0xd164fd1b456b067fc52c2c9445e7ab980d411563",
          "topics": [
            "0xa497fbb1d4e9f1b0b222d00edcac5a6cb5a96385abf437a7d5bda16ff0a8e82c",
            "0x00000000000000000000000015b757fc9be7e880f7ae44b1d3576db512436446",
            "0x9a3f52b1b31ae58da40209f38379e78c3a0756495a0f585d0b3c84a9e9718f9d"
          ],
          "data": "0x000000000000000000000000000000000000000000000000000000000081b32000000000000000000000000000000000000000000000000000000b5e620f4800000000000000000000000000000000000000000000000000000000006933b7ddb1ffc592a94d702698a9d8329313315002d24ef04733637c330a5767d2b47457",
          "blockHash": "0xfb12cb773759efd3a54343f793ae4aa3788161980b06ba7d76588c8ff6d6ac74",
          "blockNumber": "0x2b1014",
          "transactionHash": "0x010f6dc68593bc694052af34bec8745810f44c47075125c0ac9ceea3c8d9dfb6",
          "transactionIndex": "0xf",
          "logIndex": "0x12",
          "removed": false
        },
        {
          "address": "0xd164fd1b456b067fc52c2c9445e7ab980d411563",
          "topics": [
            "0x7ef7f833d43bb516e267595b38b132a56879620249ce3a563c8149695438540f",
            "0x9a3f52b1b31ae58da40209f38379e78c3a0756495a0f585d0b3c84a9e9718f9d"
          ],
          "data": "0x000000000000000000000000000000000000000000000000000000000081b3200000000000000000000000000000000000000000000000000000000000000001",
          "blockHash": "0xfb12cb773759efd3a54343f793ae4aa3788161980b06ba7d76588c8ff6d6ac74",
          "blockNumber": "0x2b1014",
          "transactionHash": "0x010f6dc68593bc694052af34bec8745810f44c47075125c0ac9ceea3c8d9dfb6",
          "transactionIndex": "0xf",
          "logIndex": "0x13",
          "removed": false
        }
      ],
      "logsBloom": "0x04000000000000000000000000010010000000200000040000000000000000008000000000000000000000000100000000000000000000000000000000000010000000000000000000000000000000000000000000400000000004800000001010000000000000000000010000000000000000000000000000000080000000000000080004008000000000200100000000004000080008004000800000000000000000000101000000002100000000000010000001000000000000000000000000000040000000200000000000000000000200000008004000000000000000000000000000001400000000000000000000000000008000000000000000000000",
      "type": "0x2",
      "transactionHash": "0x010f6dc68593bc694052af34bec8745810f44c47075125c0ac9ceea3c8d9dfb6",
      "transactionIndex": "0xf",
      "blockHash": "0xfb12cb773759efd3a54343f793ae4aa3788161980b06ba7d76588c8ff6d6ac74",
      "blockNumber": "0x2b1014",
      "gasUsed": "0x6811f",
      "effectiveGasPrice": "0x15d7a926200",
      "from": "0x95ed40013cb3990013af947a635d1a3e31057426",
      "to": "0xd164fd1b456b067fc52c2c9445e7ab980d411563",
      "contractAddress": null
    },
    {
      "status": "0x1",
      "cumulativeGasUsed": "0x1bf5ee",
      "logs": [
        {
          "address": "0xd49df845d77dd02de442197be0d4ccde0a076738",
          "topics": [
            "0x7e1e2bbb910c7ff21f0b32e7c6d3a7d4cb1257a3197dea19b1b6c21e9cd5d8cc",
            "0x0000000000000000000000002017d5735ec9d91d52d362ca2ce8a3de78ed1fa7"
          ],
          "data": "0x0000000000000000000000000000000000000000000000000000000000000001",
          "blockHash": "0xfb12cb773759efd3a54343f793ae4aa3788161980b06ba7d76588c8ff6d6ac74",
          "blockNumber": "0x2b1014",
          "transactionHash": "0x0e8996f3f7ee74a4b92656eb2ceb7c19b1cdcb1accc1e3aef91fbe0e47cf492d",
          "transactionIndex": "0x10",
          "logIndex": "0x14",
          "removed": false
        },
        {
          "address": "0x5dbd29ca81385606888112288bbae95f0eb9f170",
          "topics": [
            "0x7d8cee5d1217e47a14a662098e84a7758580aaf78f430c07c543249234e867bf",
            "0x0000000000000000000000000000000000000000000000000000000000000001"
          ],
          "data": "0x00000000000000000000000000000000000000000000000000000000000004b0000000000000000000000000000000000000000000000000000000006933b7f9",
          "blockHash": "0xfb12cb773759efd3a54343f793ae4aa3788161980b06ba7d76588c8ff6d6ac74",
          "blockNumber": "0x2b1014",
          "transactionHash": "0x0e8996f3f7ee74a4b92656eb2ceb7c19b1cdcb1accc1e3aef91fbe0e47cf492d",
          "transactionIndex": "0x10",
          "logIndex": "0x15",
          "removed": false
        },
        {
          "address": "0xaa6b8ad37f435dc7e095ba6a20b6b2e7e0e285a1",
          "topics": [
            "0x3370b5ef195f8e20c1a618f8f3748c32fe720dfcafcdfaa9617ca2f1c028ea6c",
            "0x0000000000000000000000002017d5735ec9d91d52d362ca2ce8a3de78ed1fa7",
            "0xc5d2460186f7233c927e7db2dcc703c0e500b653ca82273b7bfad8045d85a470"
          ],
          "data": "0x0000000000000000000000000000000000000000000000000000040c18ab54000000000000000000000000000000000000000000000000000000000000000001",
          "blockHash": "0xfb12cb773759efd3a54343f793ae4aa3788161980b06ba7d76588c8ff6d6ac74",
          "blockNumber": "0x2b1014",
          "transactionHash": "0x0e8996f3f7ee74a4b92656eb2ceb7c19b1cdcb1accc1e3aef91fbe0e47cf492d",
          "transactionIndex": "0x10",
          "logIndex": "0x16",
          "removed": false
        },
        {
          "address": "0xd164fd1b456b067fc52c2c9445e7ab980d411563",
          "topics": [
            "0xa497fbb1d4e9f1b0b222d00edcac5a6cb5a96385abf437a7d5bda16ff0a8e82c",
            "0x0000000000000000000000002017d5735ec9d91d52d362ca2ce8a3de78ed1fa7",
            "0x608e17bb6814e7eb8d564b13416322f3d8a2dc5e36dde75519945008d7848749"
          ],
          "data": "0x00000000000000000000000000000000000000000000000000000000000004b00000000000000000000000000000000000000000000000000000040c18ab5400000000000000000000000000000000000000000000000000000000006933b7ddee5c7aabab38ece50068fc141f09100d6c3d671331841dc0fc289d4b537c9817",
          "blockHash": "0xfb12cb773759efd3a54343f793ae4aa3788161980b06ba7d76588c8ff6d6ac74",
          "blockNumber": "0x2b1014",
          "transactionHash": "0x0e8996f3f7ee74a4b92656eb2ceb7c19b1cdcb1accc1e3aef91fbe0e47cf492d",
          "transactionIndex": "0x10",
          "logIndex": "0x17",
          "removed": false
        },
        {
          "address": "0xd164fd1b456b067fc52c2c9445e7ab980d411563",
          "topics": [
            "0x7ef7f833d43bb516e267595b38b132a56879620249ce3a563c8149695438540f",
            "0x608e17bb6814e7eb8d564b13416322f3d8a2dc5e36dde75519945008d7848749"
          ],
          "data": "0x00000000000000000000000000000000000000000000000000000000000004b00000000000000000000000000000000000000000000000000000000000000001",
          "blockHash": "0xfb12cb773759efd3a54343f793ae4aa3788161980b06ba7d76588c8ff6d6ac74",
          "blockNumber": "0x2b1014",
          "transactionHash": "0x0e8996f3f7ee74a4b92656eb2ceb7c19b1cdcb1accc1e3aef91fbe0e47cf492d",
          "transactionIndex": "0x10",
          "logIndex": "0x18",
          "removed": false
        }
      ],
      "logsBloom": "0x00000000000000000000000000010090000000200000000000000000000000008000000000000000000000000100000100000000000000000000000000040010000000040000000000000000000000000000000000440000000004800000000010000000000080000000010000000000000000000000000000000080000000000000080004000000000000200100000200004000080000004000800000000000002000000000000000082000000000000000000000000020000000000000000000000040000000200000000000000000000200000008000000020000000040000000000000001400000000000000000000000000000000000000000000000000",
      "type": "0x2",
      "transactionHash": "0x0e8996f3f7ee74a4b92656eb2ceb7c19b1cdcb1accc1e3aef91fbe0e47cf492d",
      "transactionIndex": "0x10",
      "blockHash": "0xfb12cb773759efd3a54343f793ae4aa3788161980b06ba7d76588c8ff6d6ac74",
      "blockNumber": "0x2b1014",
      "gasUsed": "0x68107",
      "effectiveGasPrice": "0x15d7a926200",
      "from": "0x95ed40013cb3990013af947a635d1a3e31057426",
      "to": "0xd164fd1b456b067fc52c2c9445e7ab980d411563",
      "contractAddress": null
    },
    {
      "status": "0x1",
      "cumulativeGasUsed": "0x223fc8",
      "logs": [
        {
          "address": "0xd49df845d77dd02de442197be0d4ccde0a076738",
          "topics": [
            "0x7e1e2bbb910c7ff21f0b32e7c6d3a7d4cb1257a3197dea19b1b6c21e9cd5d8cc",
            "0x00000000000000000000000026f484bb52c719d6aa19db1405de422f4397d4b8"
          ],
          "data": "0x0000000000000000000000000000000000000000000000000000000000000001",
          "blockHash": "0xfb12cb773759efd3a54343f793ae4aa3788161980b06ba7d76588c8ff6d6ac74",
          "blockNumber": "0x2b1014",
          "transactionHash": "0x1e2a7af026a22511768aa6ed492a0794fc828ff6c0c8396018ab7dfc9c043de3",
          "transactionIndex": "0x11",
          "logIndex": "0x19",
          "removed": false
        },
        {
          "address": "0x5dbd29ca81385606888112288bbae95f0eb9f170",
          "topics": [
            "0x7d8cee5d1217e47a14a662098e84a7758580aaf78f430c07c543249234e867bf",
            "0x0000000000000000000000000000000000000000000000000000000000000002"
          ],
          "data": "0x00000000000000000000000000000000000000000000000000000000000004c9000000000000000000000000000000000000000000000000000000006933b7f9",
          "blockHash": "0xfb12cb773759efd3a54343f793ae4aa3788161980b06ba7d76588c8ff6d6ac74",
          "blockNumber": "0x2b1014",
          "transactionHash": "0x1e2a7af026a22511768aa6ed492a0794fc828ff6c0c8396018ab7dfc9c043de3",
          "transactionIndex": "0x11",
          "logIndex": "0x1a",
          "removed": false
        },
        {
          "address": "0xaa6b8ad37f435dc7e095ba6a20b6b2e7e0e285a1",
          "topics": [
            "0x3370b5ef195f8e20c1a618f8f3748c32fe720dfcafcdfaa9617ca2f1c028ea6c",
            "0x00000000000000000000000026f484bb52c719d6aa19db1405de422f4397d4b8",
            "0xc5d2460186f7233c927e7db2dcc703c0e500b653ca82273b7bfad8045d85a470"
          ],
          "data": "0x0000000000000000000000000000000000000000000000000000040c18ab54000000000000000000000000000000000000000000000000000000000000000001",
          "blockHash": "0xfb12cb773759efd3a54343f793ae4aa3788161980b06ba7d76588c8ff6d6ac74",
          "blockNumber": "0x2b1014",
          "transactionHash": "0x1e2a7af026a22511768aa6ed492a0794fc828ff6c0c8396018ab7dfc9c043de3",
          "transactionIndex": "0x11",
          "logIndex": "0x1b",
          "removed": false
        },
        {
          "address": "0xd164fd1b456b067fc52c2c9445e7ab980d411563",
          "topics": [
            "0xa497fbb1d4e9f1b0b222d00edcac5a6cb5a96385abf437a7d5bda16ff0a8e82c",
            "0x00000000000000000000000026f484bb52c719d6aa19db1405de422f4397d4b8",
            "0x608e17bb6814e7eb8d564b13416322f3d8a2dc5e36dde75519945008d7848749"
          ],
          "data": "0x00000000000000000000000000000000000000000000000000000000000004e20000000000000000000000000000000000000000000000000000040c18ab5400000000000000000000000000000000000000000000000000000000006933b7ddbe4db84e622f53408589ffb0f00abcacfbfaf040c215f149c4c5a2801e5f5961",
          "blockHash": "0xfb12cb773759efd3a54343f793ae4aa3788161980b06ba7d76588c8ff6d6ac74",
          "blockNumber": "0x2b1014",
          "transactionHash": "0x1e2a7af026a22511768aa6ed492a0794fc828ff6c0c8396018ab7dfc9c043de3",
          "transactionIndex": "0x11",
          "logIndex": "0x1c",
          "removed": false
        },
        {
          "address": "0xd164fd1b456b067fc52c2c9445e7ab980d411563",
          "topics": [
            "0x7ef7f833d43bb516e267595b38b132a56879620249ce3a563c8149695438540f",
            "0x608e17bb6814e7eb8d564b13416322f3d8a2dc5e36dde75519945008d7848749"
          ],
          "data": "0x00000000000000000000000000000000000000000000000000000000000004c90000000000000000000000000000000000000000000000000000000000000002",
          "blockHash": "0xfb12cb773759efd3a54343f793ae4aa3788161980b06ba7d76588c8ff6d6ac74",
          "blockNumber": "0x2b1014",
          "transactionHash": "0x1e2a7af026a22511768aa6ed492a0794fc828ff6c0c8396018ab7dfc9c043de3",
          "transactionIndex": "0x11",
          "logIndex": "0x1d",
          "removed": false
        }
      ],
      "logsBloom": "0x04000000000000000000000000010010000000200000000000000000000000008000000000000000000000000100000000000000000000000000000000000010000000040000000000000000000000000000000000400000000004800000000010000000000080000000010000000000000000000000000000000080000000000000080004000000000000200100000200004000080000004004800000000000002000000000000000002100000000000000000000000020000000000000000000000040000000200000000000000000000200000008000000020000000000000000000000001400000000000000000000000000008002000000000000000000",
      "type": "0x2",
      "transactionHash": "0x1e2a7af026a22511768aa6ed492a0794fc828ff6c0c8396018ab7dfc9c043de3",
      "transactionIndex": "0x11",
      "blockHash": "0xfb12cb773759efd3a54343f793ae4aa3788161980b06ba7d76588c8ff6d6ac74",
      "blockNumber": "0x2b1014",
      "gasUsed": "0x649da",
      "effectiveGasPrice": "0x15d7a926200",
      "from": "0x95ed40013cb3990013af947a635d1a3e31057426",
      "to": "0xd164fd1b456b067fc52c2c9445e7ab980d411563",
      "contractAddress": null
    },
    {
      "status": "0x1",
      "cumulativeGasUsed": "0x28c0db",
      "logs": [
        {
          "address": "0xd49df845d77dd02de442197be0d4ccde0a076738",
          "topics": [
            "0x7e1e2bbb910c7ff21f0b32e7c6d3a7d4cb1257a3197dea19b1b6c21e9cd5d8cc",
            "0x000000000000000000000000552cca657358546189558b779e7430cbaea993a0"
          ],
          "data": "0x0000000000000000000000000000000000000000000000000000000000000001",
          "blockHash": "0xfb12cb773759efd3a54343f793ae4aa3788161980b06ba7d76588c8ff6d6ac74",
          "blockNumber": "0x2b1014",
          "transactionHash": "0xc96790edb3d77734eb45c18a2034dbfcf7e1dd16d6d624edec6c99814c438d62",
          "transactionIndex": "0x12",
          "logIndex": "0x1e",
          "removed": false
        },
        {
          "address": "0xa35f2923f8c6a8e9d2f655ab4cfb373864e6cc89",
          "topics": [
            "0x7d8cee5d1217e47a14a662098e84a7758580aaf78f430c07c543249234e867bf",
            "0x0000000000000000000000000000000000000000000000000000000000000001"
          ],
          "data": "0x000000000000000000000000000000000000000000000000000000000000030c000000000000000000000000000000000000000000000000000000006933b7f9",
          "blockHash": "0xfb12cb773759efd3a54343f793ae4aa3788161980b06ba7d76588c8ff6d6ac74",
          "blockNumber": "0x2b1014",
          "transactionHash": "0xc96790edb3d77734eb45c18a2034dbfcf7e1dd16d6d624edec6c99814c438d62",
          "transactionIndex": "0x12",
          "logIndex": "0x1f",
          "removed": false
        },
        {
          "address": "0xaa6b8ad37f435dc7e095ba6a20b6b2e7e0e285a1",
          "topics": [
            "0x3370b5ef195f8e20c1a618f8f3748c32fe720dfcafcdfaa9617ca2f1c028ea6c",
            "0x000000000000000000000000552cca657358546189558b779e7430cbaea993a0",
            "0xc5d2460186f7233c927e7db2dcc703c0e500b653ca82273b7bfad8045d85a470"
          ],
          "data": "0x00000000000000000000000000000000000000000000000000000617f71eb8000000000000000000000000000000000000000000000000000000000000000001",
          "blockHash": "0xfb12cb773759efd3a54343f793ae4aa3788161980b06ba7d76588c8ff6d6ac74",
          "blockNumber": "0x2b1014",
          "transactionHash": "0xc96790edb3d77734eb45c18a2034dbfcf7e1dd16d6d624edec6c99814c438d62",
          "transactionIndex": "0x12",
          "logIndex": "0x20",
          "removed": false
        },
        {
          "address": "0xd164fd1b456b067fc52c2c9445e7ab980d411563",
          "topics": [
            "0xa497fbb1d4e9f1b0b222d00edcac5a6cb5a96385abf437a7d5bda16ff0a8e82c",
            "0x000000000000000000000000552cca657358546189558b779e7430cbaea993a0",
            "0xefa585451ff82e7559b7e4aa3c7d26b394fd121301bbf6f1da4ef6d29210466e"
          ],
          "data": "0x000000000000000000000000000000000000000000000000000000000000030c00000000000000000000000000000000000000000000000000000617f71eb800000000000000000000000000000000000000000000000000000000006933b7dddc768bec91159d184f1d52abbe9e700c764b572f44239cbd02b46156f568d66c",
          "blockHash": "0xfb12cb773759efd3a54343f793ae4aa3788161980b06ba7d76588c8ff6d6ac74",
          "blockNumber": "0x2b1014",
          "transactionHash": "0xc96790edb3d77734eb45c18a2034dbfcf7e1dd16d6d624edec6c99814c438d62",
          "transactionIndex": "0x12",
          "logIndex": "0x21",
          "removed": false
        },
        {
          "address": "0xd164fd1b456b067fc52c2c9445e7ab980d411563",
          "topics": [
            "0x7ef7f833d43bb516e267595b38b132a56879620249ce3a563c8149695438540f",
            "0xefa585451ff82e7559b7e4aa3c7d26b394fd121301bbf6f1da4ef6d29210466e"
          ],
          "data": "0x000000000000000000000000000000000000000000000000000000000000030c0000000000000000000000000000000000000000000000000000000000000001",
          "blockHash": "0xfb12cb773759efd3a54343f793ae4aa3788161980b06ba7d76588c8ff6d6ac74",
          "blockNumber": "0x2b1014",
          "transactionHash": "0xc96790edb3d77734eb45c18a2034dbfcf7e1dd16d6d624edec6c99814c438d62",
          "transactionIndex": "0x12",
          "logIndex": "0x22",
          "removed": false
        }
      ],
      "logsBloom": "0x000000000000000000000000000100100000002080000000000000000000000080000000000000000000000001000000000000000000000000000000000400100000000000000000040000000000000000000000004c00000000048000000000100000000000000000000100400000000000000000000000000000800000000000000e0004000000000000200100000000004000080000004000800000000000000000000000000000002000000000000000000000000000000000000000000000000040000000200000000000000000000200000008000000000000000040800208000000001400000000000000000000000000000000000000000000000000",
      "type": "0x2",
      "transactionHash": "0xc96790edb3d77734eb45c18a2034dbfcf7e1dd16d6d624edec6c99814c438d62",
      "transactionIndex": "0x12",
      "blockHash": "0xfb12cb773759efd3a54343f793ae4aa3788161980b06ba7d76588c8ff6d6ac74",
      "blockNumber": "0x2b1014",
      "gasUsed": "0x68113",
      "effectiveGasPrice": "0x15d7a926200",
      "from": "0x95ed40013cb3990013af947a635d1a3e31057426",
      "to": "0xd164fd1b456b067fc52c2c9445e7ab980d411563",
      "contractAddress": null
    },
    {
      "status": "0x1",
      "cumulativeGasUsed": "0x2f41fa",
      "logs": [
        {
          "address": "0xd49df845d77dd02de442197be0d4ccde0a076738",
          "topics": [
            "0x7e1e2bbb910c7ff21f0b32e7c6d3a7d4cb1257a3197dea19b1b6c21e9cd5d8cc",
            "0x000000000000000000000000692c4ba6c8f239e2ed1c885d903e907342bd306e"
          ],
          "data": "0x0000000000000000000000000000000000000000000000000000000000000001",
          "blockHash": "0xfb12cb773759efd3a54343f793ae4aa3788161980b06ba7d76588c8ff6d6ac74",
          "blockNumber": "0x2b1014",
          "transactionHash": "0x97d49764ac9b5e8e4bd72ecc7b2b30809d36d35d0830bd898bf4bdefd12da4ac",
          "transactionIndex": "0x13",
          "logIndex": "0x23",
          "removed": false
        },
        {
          "address": "0xf34772793a37cab10e13b7fb686f93445e0f4339",
          "topics": [
            "0x7d8cee5d1217e47a14a662098e84a7758580aaf78f430c07c543249234e867bf",
            "0x0000000000000000000000000000000000000000000000000000000000000001"
          ],
          "data": "0x0000000000000000000000000000000000000000000000000000000000003e80000000000000000000000000000000000000000000000000000000006933b7f9",
          "blockHash": "0xfb12cb773759efd3a54343f793ae4aa3788161980b06ba7d76588c8ff6d6ac74",
          "blockNumber": "0x2b1014",
          "transactionHash": "0x97d49764ac9b5e8e4bd72ecc7b2b30809d36d35d0830bd898bf4bdefd12da4ac",
          "transactionIndex": "0x13",
          "logIndex": "0x24",
          "removed": false
        },
        {
          "address": "0xaa6b8ad37f435dc7e095ba6a20b6b2e7e0e285a1",
          "topics": [
            "0x3370b5ef195f8e20c1a618f8f3748c32fe720dfcafcdfaa9617ca2f1c028ea6c",
            "0x000000000000000000000000692c4ba6c8f239e2ed1c885d903e907342bd306e",
            "0xc5d2460186f7233c927e7db2dcc703c0e500b653ca82273b7bfad8045d85a470"
          ],
          "data": "0x00000000000000000000000000000000000000000000000000000e30287560000000000000000000000000000000000000000000000000000000000000000001",
          "blockHash": "0xfb12cb773759efd3a54343f793ae4aa3788161980b06ba7d76588c8ff6d6ac74",
          "blockNumber": "0x2b1014",
          "transactionHash": "0x97d49764ac9b5e8e4bd72ecc7b2b30809d36d35d0830bd898bf4bdefd12da4ac",
          "transactionIndex": "0x13",
          "logIndex": "0x25",
          "removed": false
        },
        {
          "address": "0xd164fd1b456b067fc52c2c9445e7ab980d411563",
          "topics": [
            "0xa497fbb1d4e9f1b0b222d00edcac5a6cb5a96385abf437a7d5bda16ff0a8e82c",
            "0x000000000000000000000000692c4ba6c8f239e2ed1c885d903e907342bd306e",
            "0x4d2685df44ed8d92cd381798ca9d3877ed9fca9a24cbfcf0e5985c253410b371"
          ],
          "data": "0x0000000000000000000000000000000000000000000000000000000000003e8000000000000000000000000000000000000000000000000000000e3028756000000000000000000000000000000000000000000000000000000000006933b7ddb2574b908de5e5c971fcfa93b71c3f96d39bd5c557e6d43c711425dea508906b",
          "blockHash": "0xfb12cb773759efd3a54343f793ae4aa3788161980b06ba7d76588c8ff6d6ac74",
          "blockNumber": "0x2b1014",
          "transactionHash": "0x97d49764ac9b5e8e4bd72ecc7b2b30809d36d35d0830bd898bf4bdefd12da4ac",
          "transactionIndex": "0x13",
          "logIndex": "0x26",
          "removed": false
        },
        {
          "address": "0xd164fd1b456b067fc52c2c9445e7ab980d411563",
          "topics": [
            "0x7ef7f833d43bb516e267595b38b132a56879620249ce3a563c8149695438540f",
            "0x4d2685df44ed8d92cd381798ca9d3877ed9fca9a24cbfcf0e5985c253410b371"
          ],
          "data": "0x0000000000000000000000000000000000000000000000000000000000003e800000000000000000000000000000000000000000000000000000000000000001",
          "blockHash": "0xfb12cb773759efd3a54343f793ae4aa3788161980b06ba7d76588c8ff6d6ac74",
          "blockNumber": "0x2b1014",
          "transactionHash": "0x97d49764ac9b5e8e4bd72ecc7b2b30809d36d35d0830bd898bf4bdefd12da4ac",
          "transactionIndex": "0x13",
          "logIndex": "0x27",
          "removed": false
        }
      ],
      "logsBloom": "0x0000000000000000000000000001001000000020000000000000000000000000c000000000000000000000010100000000020000000000000000000000040210000000000000000000004000000000000000000000440000000004800000000010000000000000000000010000000000000000000000000000000080000000000000080004010000000000200100000000004000080000004000800000000000000000000000000000002000000000000000000000000000000000000000000000000040000000200000000000000000000200000008000000000080000040000000000000001400000000000008000400000000000000000000000000000000",
      "type": "0x2",
      "transactionHash": "0x97d49764ac9b5e8e4bd72ecc7b2b30809d36d35d0830bd898bf4bdefd12da4ac",
      "transactionIndex": "0x13",
      "blockHash": "0xfb12cb773759efd3a54343f793ae4aa3788161980b06ba7d76588c8ff6d6ac74",
      "blockNumber": "0x2b1014",
      "gasUsed": "0x6811f",
      "effectiveGasPrice": "0x15d7a926200",
      "from": "0x95ed40013cb3990013af947a635d1a3e31057426",
      "to": "0xd164fd1b456b067fc52c2c9445e7ab980d411563",
      "contractAddress": null
    },
    {
      "status": "0x1",
      "cumulativeGasUsed": "0x35c301",
      "logs": [
        {
          "address": "0xd49df845d77dd02de442197be0d4ccde0a076738",
          "topics": [
            "0x7e1e2bbb910c7ff21f0b32e7c6d3a7d4cb1257a3197dea19b1b6c21e9cd5d8cc",
            "0x000000000000000000000000c625d1dc9f50a2647628f7003d02100d897bfa7a"
          ],
          "data": "0x0000000000000000000000000000000000000000000000000000000000000001",
          "blockHash": "0xfb12cb773759efd3a54343f793ae4aa3788161980b06ba7d76588c8ff6d6ac74",
          "blockNumber": "0x2b1014",
          "transactionHash": "0x11019a5f899c94ec49a075d347d414f52447a9a06743d570e089e26392e41ae9",
          "transactionIndex": "0x14",
          "logIndex": "0x28",
          "removed": false
        },
        {
          "address": "0xf11b4128624461839165f46cc3ef30ea84fb4dbc",
          "topics": [
            "0x7d8cee5d1217e47a14a662098e84a7758580aaf78f430c07c543249234e867bf",
            "0x0000000000000000000000000000000000000000000000000000000000000001"
          ],
          "data": "0x000000000000000000000000000000000000000000000000000000000280de80000000000000000000000000000000000000000000000000000000006933b7f9",
          "blockHash": "0xfb12cb773759efd3a54343f793ae4aa3788161980b06ba7d76588c8ff6d6ac74",
          "blockNumber": "0x2b1014",
          "transactionHash": "0x11019a5f899c94ec49a075d347d414f52447a9a06743d570e089e26392e41ae9",
          "transactionIndex": "0x14",
          "logIndex": "0x29",
          "removed": false
        },
        {
          "address": "0xaa6b8ad37f435dc7e095ba6a20b6b2e7e0e285a1",
          "topics": [
            "0x3370b5ef195f8e20c1a618f8f3748c32fe720dfcafcdfaa9617ca2f1c028ea6c",
            "0x000000000000000000000000c625d1dc9f50a2647628f7003d02100d897bfa7a",
            "0xc5d2460186f7233c927e7db2dcc703c0e500b653ca82273b7bfad8045d85a470"
          ],
          "data": "0x000000000000000000000000000000000000000000000000000008e9bd84d0000000000000000000000000000000000000000000000000000000000000000001",
          "blockHash": "0xfb12cb773759efd3a54343f793ae4aa3788161980b06ba7d76588c8ff6d6ac74",
          "blockNumber": "0x2b1014",
          "transactionHash": "0x11019a5f899c94ec49a075d347d414f52447a9a06743d570e089e26392e41ae9",
          "transactionIndex": "0x14",
          "logIndex": "0x2a",
          "removed": false
        },
        {
          "address": "0xd164fd1b456b067fc52c2c9445e7ab980d411563",
          "topics": [
            "0xa497fbb1d4e9f1b0b222d00edcac5a6cb5a96385abf437a7d5bda16ff0a8e82c",
            "0x000000000000000000000000c625d1dc9f50a2647628f7003d02100d897bfa7a",
            "0xabad9a062c9f315a9feea094e0ec8d4620ba3e5953a36728cb12e20baddf0a07"
          ],
          "data": "0x000000000000000000000000000000000000000000000000000000000280de80000000000000000000000000000000000000000000000000000008e9bd84d000000000000000000000000000000000000000000000000000000000006933b7dd821215f0f18cb718f9e38e78dbdb9d8b990238d6c49126581f344d22220a3514",
          "blockHash": "0xfb12cb773759efd3a54343f793ae4aa3788161980b06ba7d76588c8ff6d6ac74",
          "blockNumber": "0x2b1014",
          "transactionHash": "0x11019a5f899c94ec49a075d347d414f52447a9a06743d570e089e26392e41ae9",
          "transactionIndex": "0x14",
          "logIndex": "0x2b",
          "removed": false
        },
        {
          "address": "0xd164fd1b456b067fc52c2c9445e7ab980d411563",
          "topics": [
            "0x7ef7f833d43bb516e267595b38b132a56879620249ce3a563c8149695438540f",
            "0xabad9a062c9f315a9feea094e0ec8d4620ba3e5953a36728cb12e20baddf0a07"
          ],
          "data": "0x000000000000000000000000000000000000000000000000000000000280de800000000000000000000000000000000000000000000000000000000000000001",
          "blockHash": "0xfb12cb773759efd3a54343f793ae4aa3788161980b06ba7d76588c8ff6d6ac74",
          "blockNumber": "0x2b1014",
          "transactionHash": "0x11019a5f899c94ec49a075d347d414f52447a9a06743d570e089e26392e41ae9",
          "transactionIndex": "0x14",
          "logIndex": "0x2c",
          "removed": false
        }
      ],
      "logsBloom": "0x00000000000000000000000000010010000000200000000004000000000000008000000000000000000000000100000000000000000000000000000000040010000000000000000000000000000000000000000000440000000024800000000010000000800000000000010000000000000000000000000000000082000000000000080004000000000000200100000000004000080000004000800000000000000000000000000000002000000004000001000000000000000000000000000000000040000200200000000000000000000200000008000000000000000040000000000000001440000000000000000000000000000080000000000000000000",
      "type": "0x2",
      "transactionHash": "0x11019a5f899c94ec49a075d347d414f52447a9a06743d570e089e26392e41ae9",
      "transactionIndex": "0x14",
      "blockHash": "0xfb12cb773759efd3a54343f793ae4aa3788161980b06ba7d76588c8ff6d6ac74",
      "blockNumber": "0x2b1014",
      "gasUsed": "0x68107",
      "effectiveGasPrice": "0x15d7a926200",
      "from": "0x95ed40013cb3990013af947a635d1a3e31057426",
      "to": "0xd164fd1b456b067fc52c2c9445e7ab980d411563",
      "contractAddress": null
    },
    {
      "status": "0x1",
      "cumulativeGasUsed": "0x3c4414",
      "logs": [
        {
          "address": "0xd49df845d77dd02de442197be0d4ccde0a076738",
          "topics": [
            "0x7e1e2bbb910c7ff21f0b32e7c6d3a7d4cb1257a3197dea19b1b6c21e9cd5d8cc",
            "0x000000000000000000000000b4d732a215f3a3822cd9541508451b5b3fb1afba"
          ],
          "data": "0x0000000000000000000000000000000000000000000000000000000000000001",
          "blockHash": "0xfb12cb773759efd3a54343f793ae4aa3788161980b06ba7d76588c8ff6d6ac74",
          "blockNumber": "0x2b1014",
          "transactionHash": "0x4b1e65bf2eea8b2dad374f18c02fb21499110b1d6ca313c2a666d1ad19c26fa4",
          "transactionIndex": "0x15",
          "logIndex": "0x2d",
          "removed": false
        },
        {
          "address": "0x1e44cfa2c04f9bbe1c612673bc808c214ba04941",
          "topics": [
            "0x7d8cee5d1217e47a14a662098e84a7758580aaf78f430c07c543249234e867bf",
            "0x0000000000000000000000000000000000000000000000000000000000000001"
          ],
          "data": "0x000000000000000000000000000000000000000000000000000000000000015e000000000000000000000000000000000000000000000000000000006933b7f9",
          "blockHash": "0xfb12cb773759efd3a54343f793ae4aa3788161980b06ba7d76588c8ff6d6ac74",
          "blockNumber": "0x2b1014",
          "transactionHash": "0x4b1e65bf2eea8b2dad374f18c02fb21499110b1d6ca313c2a666d1ad19c26fa4",
          "transactionIndex": "0x15",
          "logIndex": "0x2e",
          "removed": false
        },
        {
          "address": "0xaa6b8ad37f435dc7e095ba6a20b6b2e7e0e285a1",
          "topics": [
            "0x3370b5ef195f8e20c1a618f8f3748c32fe720dfcafcdfaa9617ca2f1c028ea6c",
            "0x000000000000000000000000b4d732a215f3a3822cd9541508451b5b3fb1afba",
            "0xc5d2460186f7233c927e7db2dcc703c0e500b653ca82273b7bfad8045d85a470"
          ],
          "data": "0x00000000000000000000000000000000000000000000000000000a2fb40580000000000000000000000000000000000000000000000000000000000000000001",
          "blockHash": "0xfb12cb773759efd3a54343f793ae4aa3788161980b06ba7d76588c8ff6d6ac74",
          "blockNumber": "0x2b1014",
          "transactionHash": "0x4b1e65bf2eea8b2dad374f18c02fb21499110b1d6ca313c2a666d1ad19c26fa4",
          "transactionIndex": "0x15",
          "logIndex": "0x2f",
          "removed": false
        },
        {
          "address": "0xd164fd1b456b067fc52c2c9445e7ab980d411563",
          "topics": [
            "0xa497fbb1d4e9f1b0b222d00edcac5a6cb5a96385abf437a7d5bda16ff0a8e82c",
            "0x000000000000000000000000b4d732a215f3a3822cd9541508451b5b3fb1afba",
            "0x33a9943bc13f82050177e083c742d665a37b94763b617af88e4f7d84f1d209ff"
          ],
          "data": "0x000000000000000000000000000000000000000000000000000000000000015e00000000000000000000000000000000000000000000000000000a2fb4058000000000000000000000000000000000000000000000000000000000006933b7dd5e5b949a7190b07a75596b75f6c8e184c9544bb840d34806337e3ebc2eee9310",
          "blockHash": "0xfb12cb773759efd3a54343f793ae4aa3788161980b06ba7d76588c8ff6d6ac74",
          "blockNumber": "0x2b1014",
          "transactionHash": "0x4b1e65bf2eea8b2dad374f18c02fb21499110b1d6ca313c2a666d1ad19c26fa4",
          "transactionIndex": "0x15",
          "logIndex": "0x30",
          "removed": false
        },
        {
          "address": "0xd164fd1b456b067fc52c2c9445e7ab980d411563",
          "topics": [
            "0x7ef7f833d43bb516e267595b38b132a56879620249ce3a563c8149695438540f",
            "0x33a9943bc13f82050177e083c742d665a37b94763b617af88e4f7d84f1d209ff"
          ],
          "data": "0x000000000000000000000000000000000000000000000000000000000000015e0000000000000000000000000000000000000000000000000000000000000001",
          "blockHash": "0xfb12cb773759efd3a54343f793ae4aa3788161980b06ba7d76588c8ff6d6ac74",
          "blockNumber": "0x2b1014",
          "transactionHash": "0x4b1e65bf2eea8b2dad374f18c02fb21499110b1d6ca313c2a666d1ad19c26fa4",
          "transactionIndex": "0x15",
          "logIndex": "0x31",
          "removed": false
        }
      ],
      "logsBloom": "0x00000000000000000000000000010010000000200000000000000000000000008000000000000000000000020100400000000000000000000000000040040010000000000000000000000000000000000000000000440000000004800000000010000000000000000040010000000000000000000000400000000080000000000000080004000000000000200100000000004000080000004000800000000010000000000010000000002000000000000000000000000000000000000000000008000040000000200000000000000000000200000088000000000000000040000000000000001400000000000000000000000000000000000000000000000000",
      "type": "0x2",
      "transactionHash": "0x4b1e65bf2eea8b2dad374f18c02fb21499110b1d6ca313c2a666d1ad19c26fa4",
      "transactionIndex": "0x15",
      "blockHash": "0xfb12cb773759efd3a54343f793ae4aa3788161980b06ba7d76588c8ff6d6ac74",
      "blockNumber": "0x2b1014",
      "gasUsed": "0x68113",
      "effectiveGasPrice": "0x15d7a926200",
      "from": "0x95ed40013cb3990013af947a635d1a3e31057426",
      "to": "0xd164fd1b456b067fc52c2c9445e7ab980d411563",
      "contractAddress": null
    },
    {
      "status": "0x1",
      "cumulativeGasUsed": "0x42c53f",
      "logs": [
        {
          "address": "0xd49df845d77dd02de442197be0d4ccde0a076738",
          "topics": [
            "0x7e1e2bbb910c7ff21f0b32e7c6d3a7d4cb1257a3197dea19b1b6c21e9cd5d8cc",
            "0x000000000000000000000000b97574780e9f8453b67baefe68627510e5513213"
          ],
          "data": "0x0000000000000000000000000000000000000000000000000000000000000001",
          "blockHash": "0xfb12cb773759efd3a54343f793ae4aa3788161980b06ba7d76588c8ff6d6ac74",
          "blockNumber": "0x2b1014",
          "transactionHash": "0xea5a8aad2383d7f445487a47996bc1330a081663c7e9f59ceeba405302a8ee54",
          "transactionIndex": "0x16",
          "logIndex": "0x32",
          "removed": false
        },
        {
          "address": "0xbb906be3676b1d6872cdca58e336aea089c698b0",
          "topics": [
            "0x7d8cee5d1217e47a14a662098e84a7758580aaf78f430c07c543249234e867bf",
            "0x0000000000000000000000000000000000000000000000000000000000000001"
          ],
          "data": "0x000000000000000000000000000000000000000000000000000003eefe16b200000000000000000000000000000000000000000000000000000000006933b7f9",
          "blockHash": "0xfb12cb773759efd3a54343f793ae4aa3788161980b06ba7d76588c8ff6d6ac74",
          "blockNumber": "0x2b1014",
          "transactionHash": "0xea5a8aad2383d7f445487a47996bc1330a081663c7e9f59ceeba405302a8ee54",
          "transactionIndex": "0x16",
          "logIndex": "0x33",
          "removed": false
        },
        {
          "address": "0xaa6b8ad37f435dc7e095ba6a20b6b2e7e0e285a1",
          "topics": [
            "0x3370b5ef195f8e20c1a618f8f3748c32fe720dfcafcdfaa9617ca2f1c028ea6c",
            "0x000000000000000000000000b97574780e9f8453b67baefe68627510e5513213",
            "0xc5d2460186f7233c927e7db2dcc703c0e500b653ca82273b7bfad8045d85a470"
          ],
          "data": "0x000000000000000000000000000000000000000000000000000034c02d65a0000000000000000000000000000000000000000000000000000000000000000001",
          "blockHash": "0xfb12cb773759efd3a54343f793ae4aa3788161980b06ba7d76588c8ff6d6ac74",
          "blockNumber": "0x2b1014",
          "transactionHash": "0xea5a8aad2383d7f445487a47996bc1330a081663c7e9f59ceeba405302a8ee54",
          "transactionIndex": "0x16",
          "logIndex": "0x34",
          "removed": false
        },
        {
          "address": "0xd164fd1b456b067fc52c2c9445e7ab980d411563",
          "topics": [
            "0xa497fbb1d4e9f1b0b222d00edcac5a6cb5a96385abf437a7d5bda16ff0a8e82c",
            "0x000000000000000000000000b97574780e9f8453b67baefe68627510e5513213",
            "0xe98e2830be1a7e4156d656a7505e65d08c67660dc618072422e9c78053c261e9"
          ],
          "data": "0x000000000000000000000000000000000000000000000000000003eefe16b200000000000000000000000000000000000000000000000000000034c02d65a000000000000000000000000000000000000000000000000000000000006933b7dd1b0b7a37a242d8e2dc322538f2e8df5d49dfb48d0a843c7e18d5ffe884f806ea",
          "blockHash": "0xfb12cb773759efd3a54343f793ae4aa3788161980b06ba7d76588c8ff6d6ac74",
          "blockNumber": "0x2b1014",
          "transactionHash": "0xea5a8aad2383d7f445487a47996bc1330a081663c7e9f59ceeba405302a8ee54",
          "transactionIndex": "0x16",
          "logIndex": "0x35",
          "removed": false
        },
        {
          "address": "0xd164fd1b456b067fc52c2c9445e7ab980d411563",
          "topics": [
            "0x7ef7f833d43bb516e267595b38b132a56879620249ce3a563c8149695438540f",
            "0xe98e2830be1a7e4156d656a7505e65d08c67660dc618072422e9c78053c261e9"
          ],
          "data": "0x000000000000000000000000000000000000000000000000000003eefe16b2000000000000000000000000000000000000000000000000000000000000000001",
          "blockHash": "0xfb12cb773759efd3a54343f793ae4aa3788161980b06ba7d76588c8ff6d6ac74",
          "blockNumber": "0x2b1014",
          "transactionHash": "0xea5a8aad2383d7f445487a47996bc1330a081663c7e9f59ceeba405302a8ee54",
          "transactionIndex": "0x16",
          "logIndex": "0x36",
          "removed": false
        }
      ],
      "logsBloom": "0x000000000000000000000000000100100000002000000000000000000000000080000000000000000020000001000000000000000000000000000000000400100000000000000000000000000000002000000000004400000000048000000000100000000000000000000100000000000000000000000000000000800000000000000800040004000000002001000000000040000800000040008080008000000000000000000000000020000000000000000000000000000000000000000000000000400000002000000000000800000002000000080000000000000000c0000000000000001400000100000000000000000000000000000000000000400000",
      "type": "0x2",
      "transactionHash": "0xea5a8aad2383d7f445487a47996bc1330a081663c7e9f59ceeba405302a8ee54",
      "transactionIndex": "0x16",
      "blockHash": "0xfb12cb773759efd3a54343f793ae4aa3788161980b06ba7d76588c8ff6d6ac74",
      "blockNumber": "0x2b1014",
      "gasUsed": "0x6812b",
      "effectiveGasPrice": "0x15d7a926200",
      "from": "0x95ed40013cb3990013af947a635d1a3e31057426",
      "to": "0xd164fd1b456b067fc52c2c9445e7ab980d411563",
      "contractAddress": null
    }
  ],
  "libraries": [],
  "pending": [],
  "returns": {},
  "timestamp": 1764997115370,
  "chain": 43522,
  "commit": "51976fb"
}