{
  "transactions": [
    {
      "hash": "0x9cb75db6b978b7e80c0371a53fa736de59febaf3be06586845664645e1edad62",
      "transactionType": "CALL",
      "contractName": null,
      "contractAddress": "0xc81536da58b4b2e4ff433fe511bf0e035576ec15",
      "function": "setFeedMultiplier(string,uint256)",
      "arguments": [
        "DOGE",
        "10000"
      ],
      "transaction": {
        "from": "0x95ed40013cb3990013af947a635d1a3e31057426",
        "to": "0xc81536da58b4b2e4ff433fe511bf0e035576ec15",
        "gas": "0x98c6",
        "value": "0x0",
        "input": "0x82d2eabd000000000000000000000000000000000000000000000000000000000000004000000000000000000000000000000000000000000000000000000000000027100000000000000000000000000000000000000000000000000000000000000004444f474500000000000000000000000000000000000000000000000000000000",
        "nonce": "0x5b",
        "chainId": "0xaa02"
      },
      "additionalContracts": [],
      "isFixedGasLimit": false
    },
    {
      "hash": "0x888d48890463d5587f1711e77773a64156be9b9750d0806aa61f54597bd159a0",
      "transactionType": "CALL",
      "contractName": null,
      "contractAddress": "0xc81536da58b4b2e4ff433fe511bf0e035576ec15",
      "function": "setFeedMultiplier(string,uint256)",
      "arguments": [
        "PEPE",
        "12000"
      ],
      "transaction": {
        "from": "0x95ed40013cb3990013af947a635d1a3e31057426",
        "to": "0xc81536da58b4b2e4ff433fe511bf0e035576ec15",
        "gas": "0x98c6",
        "value": "0x0",
        "input": "0x82d2eabd00000000000000000000000000000000000000000000000000000000000000400000000000000000000000000000000000000000000000000000000000002ee000000000000000000000000000000000000000000000000000000000000000045045504500000000000000000000000000000000000000000000000000000000",
        "nonce": "0x5c",
        "chainId": "0xaa02"
      },
      "additionalContracts": [],
      "isFixedGasLimit": false
    },
    {
      "hash": "0xa09f968f4eb839f26024ec2bf9d608c3543ea7588741590680619974c4dfc340",
      "transactionType": "CALL",
      "contractName": null,
      "contractAddress": "0xc81536da58b4b2e4ff433fe511bf0e035576ec15",
      "function": "setFeedMultiplier(string,uint256)",
      "arguments": [
        "SHIB",
        "10000"
      ],
      "transaction": {
        "from": "0x95ed40013cb3990013af947a635d1a3e31057426",
        "to": "0xc81536da58b4b2e4ff433fe511bf0e035576ec15",
        "gas": "0x98c6",
        "value": "0x0",
        "input": "0x82d2eabd0000000000000000000000000000000000000000000000000000000000000040000000000000000000000000000000000000000000000000000000000000271000000000000000000000000000000000000000000000000000000000000000045348494200000000000000000000000000000000000000000000000000000000",
        "nonce": "0x5d",
        "chainId": "0xaa02"
      },
      "additionalContracts": [],
      "isFixedGasLimit": false
    },
    {
      "hash": "0xcb7073f6254795e77cb9e977279058c51458225acadfc40b7fba0d6cda811410",
      "transactionType": "CALL",
      "contractName": null,
      "contractAddress": "0xc81536da58b4b2e4ff433fe511bf0e035576ec15",
      "function": "setFeedMultiplier(string,uint256)",
      "arguments": [
        "FLOKI",
        "11000"
      ],
      "transaction": {
        "from": "0x95ed40013cb3990013af947a635d1a3e31057426",
        "to": "0xc81536da58b4b2e4ff433fe511bf0e035576ec15",
        "gas": "0x98d7",
        "value": "0x0",
        "input": "0x82d2eabd00000000000000000000000000000000000000000000000000000000000000400000000000000000000000000000000000000000000000000000000000002af80000000000000000000000000000000000000000000000000000000000000005464c4f4b49000000000000000000000000000000000000000000000000000000",
        "nonce": "0x5e",
        "chainId": "0xaa02"
      },
      "additionalContracts": [],
      "isFixedGasLimit": false
    },
    {
      "hash": "0x5503c873ae43a67e6d1ea19f407ff804bc37a65586046ef4931b3c3a693f7069",
      "transactionType": "CALL",
      "contractName": null,
      "contractAddress": "0xc81536da58b4b2e4ff433fe511bf0e035576ec15",
      "function": "setFeedMultiplier(string,uint256)",
      "arguments": [
        "WIF",
        "13000"
      ],
      "transaction": {
        "from": "0x95ed40013cb3990013af947a635d1a3e31057426",
        "to": "0xc81536da58b4b2e4ff433fe511bf0e035576ec15",
        "gas": "0x98b6",
        "value": "0x0",
        "input": "0x82d2eabd000000000000000000000000000000000000000000000000000000000000004000000000000000000000000000000000000000000000000000000000000032c800000000000000000000000000000000000000000000000000000000000000035749460000000000000000000000000000000000000000000000000000000000",
        "nonce": "0x5f",
        "chainId": "0xaa02"
      },
      "additionalContracts": [],
      "isFixedGasLimit": false
    },
    {
      "hash": "0xbad55027d1785e35f405c722f8d9e47fd86efa2976615ccda9bb35811a71736c",
      "transactionType": "CALL",
      "contractName": null,
      "contractAddress": "0xc81536da58b4b2e4ff433fe511bf0e035576ec15",
      "function": "setFeedMultiplier(string,uint256)",
      "arguments": [
        "BONK",
        "12000"
      ],
      "transaction": {
        "from": "0x95ed40013cb3990013af947a635d1a3e31057426",
        "to": "0xc81536da58b4b2e4ff433fe511bf0e035576ec15",
        "gas": "0x98c6",
        "value": "0x0",
        "input": "0x82d2eabd00000000000000000000000000000000000000000000000000000000000000400000000000000000000000000000000000000000000000000000000000002ee00000000000000000000000000000000000000000000000000000000000000004424f4e4b00000000000000000000000000000000000000000000000000000000",
        "nonce": "0x60",
        "chainId": "0xaa02"
      },
      "additionalContracts": [],
      "isFixedGasLimit": false
    },
    {
      "hash": "0x86e80a340e172e5c50982eadf6d571796c3f6d5fa16230ba99f083d737838559",
      "transactionType": "CALL",
      "contractName": null,
      "contractAddress": "0xc81536da58b4b2e4ff433fe511bf0e035576ec15",
      "function": "setFeedMultiplier(string,uint256)",
      "arguments": [
        "BTC",
        "8000"
      ],
      "transaction": {
        "from": "0x95ed40013cb3990013af947a635d1a3e31057426",
        "to": "0xc81536da58b4b2e4ff433fe511bf0e035576ec15",
        "gas": "0x98b6",
        "value": "0x0",
        "input": "0x82d2eabd00000000000000000000000000000000000000000000000000000000000000400000000000000000000000000000000000000000000000000000000000001f4000000000000000000000000000000000000000000000000000000000000000034254430000000000000000000000000000000000000000000000000000000000",
        "nonce": "0x61",
        "chainId": "0xaa02"
      },
      "additionalContracts": [],
      "isFixedGasLimit": false
    },
    {
      "hash": "0x3c1327e64638758c8486387f25d0f96362d2289195e182b7d65657de84821993",
      "transactionType": "CALL",
      "contractName": null,
      "contractAddress": "0xd49df845d77dd02de442197be0d4ccde0a076738",
      "function": "registerAgent(address,string)",
      "arguments": [
        "0x95ed40013Cb3990013Af947a635D1A3E31057426",
        "DOGE"
      ],
      "transaction": {
        "from": "0x95ed40013cb3990013af947a635d1a3e31057426",
        "to": "0xd49df845d77dd02de442197be0d4ccde0a076738",
        "gas": "0x2242d",
        "value": "0x0",
        "input": "0x22b833d800000000000000000000000095ed40013cb3990013af947a635d1a3e3105742600000000000000000000000000000000000000000000000000000000000000400000000000000000000000000000000000000000000000000000000000000004444f474500000000000000000000000000000000000000000000000000000000",
        "nonce": "0x62",
        "chainId": "0xaa02"
      },
      "additionalContracts": [],
      "isFixedGasLimit": false
    },
    {
      "hash": "0x77f2c7adc490e00fc8328dc2d17f1a40f46acb1c4454b062ea7ae5a77dad01c4",
      "transactionType": "CALL",
      "contractName": null,
      "contractAddress": "0xd49df845d77dd02de442197be0d4ccde0a076738",
      "function": "registerAgent(address,string)",
      "arguments": [
        "0x95ed40013Cb3990013Af947a635D1A3E31057426",
        "PEPE"
      ],
      "transaction": {
        "from": "0x95ed40013cb3990013af947a635d1a3e31057426",
        "to": "0xd49df845d77dd02de442197be0d4ccde0a076738",
        "gas": "0x11657",
        "value": "0x0",
        "input": "0x22b833d800000000000000000000000095ed40013cb3990013af947a635d1a3e31057426000000000000000000000000000000000000000000000000000000000000004000000000000000000000000000000000000000000000000000000000000000045045504500000000000000000000000000000000000000000000000000000000",
        "nonce": "0x63",
        "chainId": "0xaa02"
      },
      "additionalContracts": [],
      "isFixedGasLimit": false
    },
    {
      "hash": "0xdedb60c56fe5562afecf49e832c23ccd00d084e489f8c9134dba2cef27122ffb",
      "transactionType": "CALL",
      "contractName": null,
      "contractAddress": "0xd49df845d77dd02de442197be0d4ccde0a076738",
      "function": "registerAgent(address,string)",
      "arguments": [
        "0x95ed40013Cb3990013Af947a635D1A3E31057426",
        "SHIB"
      ],
      "transaction": {
        "from": "0x95ed40013cb3990013af947a635d1a3e31057426",
        "to": "0xd49df845d77dd02de442197be0d4ccde0a076738",
        "gas": "0x11657",
        "value": "0x0",
        "input": "0x22b833d800000000000000000000000095ed40013cb3990013af947a635d1a3e31057426000000000000000000000000000000000000000000000000000000000000004000000000000000000000000000000000000000000000000000000000000000045348494200000000000000000000000000000000000000000000000000000000",
        "nonce": "0x64",
        "chainId": "0xaa02"
      },
      "additionalContracts": [],
      "isFixedGasLimit": false
    },
    {
      "hash": "0xb9a182056eac173d4553d8796ccc8cc44ff60fe2a5d47cff55fdb62139468c4a",
      "transactionType": "CALL",
      "contractName": null,
      "contractAddress": "0xd49df845d77dd02de442197be0d4ccde0a076738",
      "function": "registerAgent(address,string)",
      "arguments": [
        "0x95ed40013Cb3990013Af947a635D1A3E31057426",
        "FLOKI"
      ],
      "transaction": {
        "from": "0x95ed40013cb3990013af947a635d1a3e31057426",
        "to": "0xd49df845d77dd02de442197be0d4ccde0a076738",
        "gas": "0x11668",
        "value": "0x0",
        "input": "0x22b833d800000000000000000000000095ed40013cb3990013af947a635d1a3e3105742600000000000000000000000000000000000000000000000000000000000000400000000000000000000000000000000000000000000000000000000000000005464c4f4b49000000000000000000000000000000000000000000000000000000",
        "nonce": "0x65",
        "chainId": "0xaa02"
      },
      "additionalContracts": [],
      "isFixedGasLimit": false
    },
    {
      "hash": "0xc322c162b354d1b2bcac2f0fb4a708abdbe709d7ae3ac421549a081f8018b8c4",
      "transactionType": "CALL",
      "contractName": null,
      "contractAddress": "0xd49df845d77dd02de442197be0d4ccde0a076738",
      "function": "registerAgent(address,string)",
      "arguments": [
        "0x95ed40013Cb3990013Af947a635D1A3E31057426",
        "WIF"
      ],
      "transaction": {
        "from": "0x95ed40013cb3990013af947a635d1a3e31057426",
        "to": "0xd49df845d77dd02de442197be0d4ccde0a076738",
        "gas": "0x11646",
        "value": "0x0",
        "input": "0x22b833d800000000000000000000000095ed40013cb3990013af947a635d1a3e31057426000000000000000000000000000000000000000000000000000000000000004000000000000000000000000000000000000000000000000000000000000000035749460000000000000000000000000000000000000000000000000000000000",
        "nonce": "0x66",
        "chainId": "0xaa02"
      },
      "additionalContracts": [],
      "isFixedGasLimit": false
    },
    {
      "hash": "0xae4ba0382a1598e4d1466c7eb2dc8e334876abcf24d04b488023aa48dd9aac3f",
      "transactionType": "CALL",
      "contractName": null,
      "contractAddress": "0xd49df845d77dd02de442197be0d4ccde0a076738",
      "function": "registerAgent(address,string)",
      "arguments": [
        "0x95ed40013Cb3990013Af947a635D1A3E31057426",
        "BONK"
      ],
      "transaction": {
        "from": "0x95ed40013cb3990013af947a635d1a3e31057426",
        "to": "0xd49df845d77dd02de442197be0d4ccde0a076738",
        "gas": "0x11657",
        "value": "0x0",
        "input": "0x22b833d800000000000000000000000095ed40013cb3990013af947a635d1a3e3105742600000000000000000000000000000000000000000000000000000000000000400000000000000000000000000000000000000000000000000000000000000004424f4e4b00000000000000000000000000000000000000000000000000000000",
        "nonce": "0x67",
        "chainId": "0xaa02"
      },
      "additionalContracts": [],
      "isFixedGasLimit": false
    },
    {
      "hash": "0xc3b5b082faa0f91cdd315a251db0eaeb4f4d934acecd1b48a776668045752f8a",
      "transactionType": "CALL",
      "contractName": null,
      "contractAddress": "0xd49df845d77dd02de442197be0d4ccde0a076738",
      "function": "registerAgent(address,string)",
      "arguments": [
        "0x95ed40013Cb3990013Af947a635D1A3E31057426",
        "BTC"
      ],
      "transaction": {
        "from": "0x95ed40013cb3990013af947a635d1a3e31057426",
        "to": "0xd49df845d77dd02de442197be0d4ccde0a076738",
        "gas": "0x11646",
        "value": "0x0",
        "input": "0x22b833d800000000000000000000000095ed40013cb3990013af947a635d1a3e31057426000000000000000000000000000000000000000000000000000000000000004000000000000000000000000000000000000000000000000000000000000000034254430000000000000000000000000000000000000000000000000000000000",
        "nonce": "0x68",
        "chainId": "0xaa02"
      },
      "additionalContracts": [],
      "isFixedGasLimit": false
    },
    {
      "hash": "0x1d54108ebf93a52e53566df307a91d1ce7cb2e2a1deba436dd0e60af137a12e3",
      "transactionType": "CALL",
      "contractName": null,
      "contractAddress": "0xfeab9a221f6bcdb4c160cd81954ee4405edf0e35",
      "function": "submitUpdate(address,string,(uint256,uint256,bool,uint8,uint256,bytes32,address))",
      "arguments": [
        "0x95ed40013Cb3990013Af947a635D1A3E31057426",
        "DOGE",
        "(8500000, 12500000000000, true, 2, 1764997981, 0x715426a0d8385a71b9c25bf1d814c0838f56b3c09590a1b321b203cd84b72fc8, 0x95ed40013Cb3990013Af947a635D1A3E31057426)"
      ],
      "transaction": {
        "from": "0x95ed40013cb3990013af947a635d1a3e31057426",
        "to": "0xfeab9a221f6bcdb4c160cd81954ee4405edf0e35",
        "gas": "0x921a3",
        "value": "0x0",
        "input": "0xe364073500000000000000000000000095ed40013cb3990013af947a635d1a3e310574260000000000000000000000000000000000000000000000000000000000000120000000000000000000000000000000000000000000000000000000000081b32000000000000000000000000000000000000000000000000000000b5e620f480000000000000000000000000000000000000000000000000000000000000000010000000000000000000000000000000000000000000000000000000000000002000000000000000000000000000000000000000000000000000000006933bb5d715426a0d8385a71b9c25bf1d814c0838f56b3c09590a1b321b203cd84b72fc800000000000000000000000095ed40013cb3990013af947a635d1a3e310574260000000000000000000000000000000000000000000000000000000000000004444f474500000000000000000000000000000000000000000000000000000000",
        "nonce": "0x69",
        "chainId": "0xaa02"
      },
      "additionalContracts": [],
      "isFixedGasLimit": false
    },
    {
      "hash": "0x0369dd7f078c4307c21c867e09d17f487a6f9e2cc1149c21c300027b901983d5",
      "transactionType": "CALL",
      "contractName": null,
      "contractAddress": "0xfeab9a221f6bcdb4c160cd81954ee4405edf0e35",
      "function": "submitUpdate(address,string,(uint256,uint256,bool,uint8,uint256,bytes32,address))",
      "arguments": [
        "0x95ed40013Cb3990013Af947a635D1A3E31057426",
        "PEPE",
        "(1200, 8900000000000, true, 2, 1764997981, 0x49143dd373293c26027c516bdcc4dde85f61b5847f1b5f389b6870703604a912, 0x95ed40013Cb3990013Af947a635D1A3E31057426)"
      ],
      "transaction": {
        "from": "0x95ed40013cb3990013af947a635d1a3e31057426",
        "to": "0xfeab9a221f6bcdb4c160cd81954ee4405edf0e35",
        "gas": "0x7e72d",
        "value": "0x0",
        "input": "0xe364073500000000000000000000000095ed40013cb3990013af947a635d1a3e31057426000000000000000000000000000000000000000000000000000000000000012000000000000000000000000000000000000000000000000000000000000004b0000000000000000000000000000000000000000000000000000008183156a80000000000000000000000000000000000000000000000000000000000000000010000000000000000000000000000000000000000000000000000000000000002000000000000000000000000000000000000000000000000000000006933bb5d49143dd373293c26027c516bdcc4dde85f61b5847f1b5f389b6870703604a91200000000000000000000000095ed40013cb3990013af947a635d1a3e3105742600000000000000000000000000000000000000000000000000000000000000045045504500000000000000000000000000000000000000000000000000000000",
        "nonce": "0x6a",
        "chainId": "0xaa02"
      },
      "additionalContracts": [],
      "isFixedGasLimit": false
    },
    {
      "hash": "0xe8d9e50211b22cf8bd032936d7a3cc81afe643badd63182a4f6e2692ff5c3cdd",
      "transactionType": "CALL",
      "contractName": null,
      "contractAddress": "0xfeab9a221f6bcdb4c160cd81954ee4405edf0e35",
      "function": "submitUpdate(address,string,(uint256,uint256,bool,uint8,uint256,bytes32,address))",
      "arguments": [
        "0x95ed40013Cb3990013Af947a635D1A3E31057426",
        "SHIB",
        "(780, 6700000000000, true, 2, 1764997981, 0x448ce0a36836404bb3e8d4e81d8a235851efdbc26f034170c9391e182c7421cc, 0x95ed40013Cb3990013Af947a635D1A3E31057426)"
      ],
      "transaction": {
        "from": "0x95ed40013cb3990013af947a635d1a3e31057426",
        "to": "0xfeab9a221f6bcdb4c160cd81954ee4405edf0e35",
        "gas": "0x7e72d",
        "value": "0x0",
        "input": "0xe364073500000000000000000000000095ed40013cb3990013af947a635d1a3e310574260000000000000000000000000000000000000000000000000000000000000120000000000000000000000000000000000000000000000000000000000000030c00000000000000000000000000000000000000000000000000000617f71eb80000000000000000000000000000000000000000000000000000000000000000010000000000000000000000000000000000000000000000000000000000000002000000000000000000000000000000000000000000000000000000006933bb5d448ce0a36836404bb3e8d4e81d8a235851efdbc26f034170c9391e182c7421cc00000000000000000000000095ed40013cb3990013af947a635d1a3e3105742600000000000000000000000000000000000000000000000000000000000000045348494200000000000000000000000000000000000000000000000000000000",
        "nonce": "0x6b",
        "chainId": "0xaa02"
      },
      "additionalContracts": [],
      "isFixedGasLimit": false
    },
    {
      "hash": "0xa9079e6a0021775030f65bd4380670d9d3b7807402001b75e802c13313380301",
      "transactionType": "CALL",
      "contractName": null,
      "contractAddress": "0xfeab9a221f6bcdb4c160cd81954ee4405edf0e35",
      "function": "submitUpdate(address,string,(uint256,uint256,bool,uint8,uint256,bytes32,address))",
      "arguments": [
        "0x95ed40013Cb3990013Af947a635D1A3E31057426",
        "FLOKI",
        "(16000, 15600000000000, true, 2, 1764997981, 0x4c29084bb40d07b103b8e0c9cebd38d025973a7c6be04db9449f2eeed6c028a8, 0x95ed40013Cb3990013Af947a635D1A3E31057426)"
      ],
      "transaction": {
        "from": "0x95ed40013cb3990013af947a635d1a3e31057426",
        "to": "0xfeab9a221f6bcdb4c160cd81954ee4405edf0e35",
        "gas": "0x85e42",
        "value": "0x0",
        "input": "0xe364073500000000000000000000000095ed40013cb3990013af947a635d1a3e3105742600000000000000000000000000000000000000000000000000000000000001200000000000000000000000000000000000000000000000000000000000003e8000000000000000000000000000000000000000000000000000000e302875600000000000000000000000000000000000000000000000000000000000000000010000000000000000000000000000000000000000000000000000000000000002000000000000000000000000000000000000000000000000000000006933bb5d4c29084bb40d07b103b8e0c9cebd38d025973a7c6be04db9449f2eeed6c028a800000000000000000000000095ed40013cb3990013af947a635d1a3e310574260000000000000000000000000000000000000000000000000000000000000005464c4f4b49000000000000000000000000000000000000000000000000000000",
        "nonce": "0x6c",
        "chainId": "0xaa02"
      },
      "additionalContracts": [],
      "isFixedGasLimit": false
    },
    {
      "hash": "0x0172b576a22ae991cc357179c92fcece6ba9bcc6f4f5940ff61ac6d08311634b",
      "transactionType": "CALL",
      "contractName": null,
      "contractAddress": "0xfeab9a221f6bcdb4c160cd81954ee4405edf0e35",
      "function": "submitUpdate(address,string,(uint256,uint256,bool,uint8,uint256,bytes32,address))",
      "arguments": [
        "0x95ed40013Cb3990013Af947a635D1A3E31057426",
        "WIF",
        "(42000000, 9800000000000, true, 2, 1764997981, 0x5264b636091dccc3ad2e8856d8d3c8fefa205e4980697f119ba62efd44a63c6e, 0x95ed40013Cb3990013Af947a635D1A3E31057426)"
      ],
      "transaction": {
        "from": "0x95ed40013cb3990013af947a635d1a3e31057426",
        "to": "0xfeab9a221f6bcdb4c160cd81954ee4405edf0e35",
        "gas": "0x85e42",
        "value": "0x0",
        "input": "0xe364073500000000000000000000000095ed40013cb3990013af947a635d1a3e310574260000000000000000000000000000000000000000000000000000000000000120000000000000000000000000000000000000000000000000000000000280de80000000000000000000000000000000000000000000000000000008e9bd84d00000000000000000000000000000000000000000000000000000000000000000010000000000000000000000000000000000000000000000000000000000000002000000000000000000000000000000000000000000000000000000006933bb5d5264b636091dccc3ad2e8856d8d3c8fefa205e4980697f119ba62efd44a63c6e00000000000000000000000095ed40013cb3990013af947a635d1a3e3105742600000000000000000000000000000000000000000000000000000000000000035749460000000000000000000000000000000000000000000000000000000000",
        "nonce": "0x6d",
        "chainId": "0xaa02"
      },
      "additionalContracts": [],
      "isFixedGasLimit": false
    },
    {
      "hash": "0x27f288b69b9315aa7c3da173ab728c23be7f94e794693e008bc1a5806cdd30b9",
      "transactionType": "CALL",
      "contractName": null,
      "contractAddress": "0xfeab9a221f6bcdb4c160cd81954ee4405edf0e35",
      "function": "submitUpdate(address,string,(uint256,uint256,bool,uint8,uint256,bytes32,address))",
      "arguments": [
        "0x95ed40013Cb3990013Af947a635D1A3E31057426",
        "BONK",
        "(350, 11200000000000, true, 2, 1764997981, 0xc3c84c69e343260b6b8ab879e4339bc88fe0c3f6d0ff8584c3722a9f6a3437c6, 0x95ed40013Cb3990013Af947a635D1A3E31057426)"
      ],
      "transaction": {
        "from": "0x95ed40013cb3990013af947a635d1a3e31057426",
        "to": "0xfeab9a221f6bcdb4c160cd81954ee4405edf0e35",
        "gas": "0x7e72d",
        "value": "0x0",
        "input": "0xe364073500000000000000000000000095ed40013cb3990013af947a635d1a3e310574260000000000000000000000000000000000000000000000000000000000000120000000000000000000000000000000000000000000000000000000000000015e00000000000000000000000000000000000000000000000000000a2fb405800000000000000000000000000000000000000000000000000000000000000000010000000000000000000000000000000000000000000000000000000000000002000000000000000000000000000000000000000000000000000000006933bb5dc3c84c69e343260b6b8ab879e4339bc88fe0c3f6d0ff8584c3722a9f6a3437c600000000000000000000000095ed40013cb3990013af947a635d1a3e310574260000000000000000000000000000000000000000000000000000000000000004424f4e4b00000000000000000000000000000000000000000000000000000000",
        "nonce": "0x6e",
        "chainId": "0xaa02"
      },
      "additionalContracts": [],
      "isFixedGasLimit": false
    },
    {
      "hash": "0x45d8803cbd3ecd08706858fb1d29c46a29ca98ddc0601a50f120f868aaa0fbf4",
      "transactionType": "CALL",
      "contractName": null,
      "contractAddress": "0xfeab9a221f6bcdb4c160cd81954ee4405edf0e35",
      "function": "submitUpdate(address,string,(uint256,uint256,bool,uint8,uint256,bytes32,address))",
      "arguments": [
        "0x95ed40013Cb3990013Af947a635D1A3E31057426",
        "BTC",
        "(4325000000000, 58000000000000, true, 2, 1764997981, 0x866d7d97c93444ff3e1c3ed55263933be601254cdb1e6c98d6c4c411f1d35456, 0x95ed40013Cb3990013Af947a635D1A3E31057426)"
      ],
      "transaction": {
        "from": "0x95ed40013cb3990013af947a635d1a3e31057426",
        "to": "0xfeab9a221f6bcdb4c160cd81954ee4405edf0e35",
        "gas": "0x7e74e",
        "value": "0x0",
        "input": "0xe364073500000000000000000000000095ed40013cb3990013af947a635d1a3e310574260000000000000000000000000000000000000000000000000000000000000120000000000000000000000000000000000000000000000000000003eefe16b200000000000000000000000000000000000000000000000000000034c02d65a00000000000000000000000000000000000000000000000000000000000000000010000000000000000000000000000000000000000000000000000000000000002000000000000000000000000000000000000000000000000000000006933bb5d866d7d97c93444ff3e1c3ed55263933be601254cdb1e6c98d6c4c411f1d3545600000000000000000000000095ed40013cb3990013af947a635d1a3e3105742600000000000000000000000000000000000000000000000000000000000000034254430000000000000000000000000000000000000000000000000000000000",
        "nonce": "0x6f",
        "chainId": "0xaa02"
      },
      "additionalContracts": [],
      "isFixedGasLimit": false
    }
  ],
  "receipts": [
    {
      "status": "0x1",
      "cumulativeGasUsed": "0x6e9c",
      "logs": [
        {
          "address": "0xc81536da58b4b2e4ff433fe511bf0e035576ec15",
          "topics": [
            "0x37b581fd307314ace40be831f608bfb3992995ca7a1b02145e6a58d01bb3f9cf",
            "0x9a3f52b1b31ae58da40209f38379e78c3a0756495a0f585d0b3c84a9e9718f9d"
          ],
          "data": "0x0000000000000000000000000000000000000000000000000000000000002710",
          "blockHash": "0xe1a7cdfe8d6f308d0b78a7b7def0f027046d4bbae7971ff0235fcbe86b80d30d",
          "blockNumber": "0x2b1093",
          "transactionHash": "0x9cb75db6b978b7e80c0371a53fa736de59febaf3be06586845664645e1edad62",
          "transactionIndex": "0x0",
          "logIndex": "0x0",
          "removed": false
        }
      ],
      "logsBloom": "0x00000000000000000000000000000000004000000000040000000000000000000000000000000000000000002000000000000000000000040000000000800000000000000000000000000000000000000000000000000000000000000000000000000000000000000000200000000000000000000000000000000000000000000000000000000000000000000000000000000000000000000000000000000000000000000001000000000000000000000010000000000000000000000000000000000000000000000000000000000000000000000000000000000000000000000000000000000000000000000000000000000000008000000000000000000000",
      "type": "0x2",
      "transactionHash": "0x9cb75db6b978b7e80c0371a53fa736de59febaf3be06586845664645e1edad62",
      "transactionIndex": "0x0",
      "blockHash": "0xe1a7cdfe8d6f308d0b78a7b7def0f027046d4bbae7971ff0235fcbe86b80d30d",
      "blockNumber": "0x2b1093",
      "gasUsed": "0x6e9c",
      "effectiveGasPrice": "0x15d7a926200",
      "from": "0x95ed40013cb3990013af947a635d1a3e31057426",
      "to": "0xc81536da58b4b2e4ff433fe511bf0e035576ec15",
      "contractAddress": null
    },
    {
      "status": "0x1",
      "cumulativeGasUsed": "0xdd38",
      "logs": [
        {
          "address": "0xc81536da58b4b2e4ff433fe511bf0e035576ec15",
          "topics": [
            "0x37b581fd307314ace40be831f608bfb3992995ca7a1b02145e6a58d01bb3f9cf",
            "0x608e17bb6814e7eb8d564b13416322f3d8a2dc5e36dde75519945008d7848749"
          ],
          "data": "0x0000000000000000000000000000000000000000000000000000000000002ee0",
          "blockHash": "0xe1a7cdfe8d6f308d0b78a7b7def0f027046d4bbae7971ff0235fcbe86b80d30d",
          "blockNumber": "0x2b1093",
          "transactionHash": "0x888d48890463d5587f1711e77773a64156be9b9750d0806aa61f54597bd159a0",
          "transactionIndex": "0x1",
          "logIndex": "0x1",
          "removed": false
        }
      ],
      "logsBloom": "0x00000000000000000000000000000000004000000000000000000000000000000000000000000000000000002000000000000000000000040000000000800000000000040000000000000000000000000000000000000000000000000000000000000000000000000000200000000000000000000000000000000000000000000000000000000000000000000000000000000000000000000000000000000000000000000000000000000000000000000000000000000020000000000000000000000000000000000000000000000000000000000000000000020000000000000000000000000000000000000000000000000000008000000000000000000000",
      "type": "0x2",
      "transactionHash": "0x888d48890463d5587f1711e77773a64156be9b9750d0806aa61f54597bd159a0",
      "transactionIndex": "0x1",
      "blockHash": "0xe1a7cdfe8d6f308d0b78a7b7def0f027046d4bbae7971ff0235fcbe86b80d30d",
      "blockNumber": "0x2b1093",
      "gasUsed": "0x6e9c",
      "effectiveGasPrice": "0x15d7a926200",
      "from": "0x95ed40013cb3990013af947a635d1a3e31057426",
      "to": "0xc81536da58b4b2e4ff433fe511bf0e035576ec15",
      "contractAddress": null
    },
    {
      "status": "0x1",
      "cumulativeGasUsed": "0x14bd4",
      "logs": [
        {
          "address": "0xc81536da58b4b2e4ff433fe511bf0e035576ec15",
          "topics": [
            "0x37b581fd307314ace40be831f608bfb3992995ca7a1b02145e6a58d01bb3f9cf",
            "0xefa585451ff82e7559b7e4aa3c7d26b394fd121301bbf6f1da4ef6d29210466e"
          ],
          "data": "0x0000000000000000000000000000000000000000000000000000000000002710",
          "blockHash": "0xe1a7cdfe8d6f308d0b78a7b7def0f027046d4bbae7971ff0235fcbe86b80d30d",
          "blockNumber": "0x2b1093",
          "transactionHash": "0xa09f968f4eb839f26024ec2bf9d608c3543ea7588741590680619974c4dfc340",
          "transactionIndex": "0x2",
          "logIndex": "0x2",
          "removed": false
        }
      ],
      "logsBloom": "0x00000000000000000000000000000000004000000000000000000000000000000000000000000000000000002000000000000000000000040000000000800000000000000000000000000000000000000000000000080000000000000000000000000000000000000000200000000000000000000000000000000000000000000000000000000000000000000000000000000000000000000000000000000000000000000000000000000000000000000000000000000000000000000000000000000000000000000000000000000000000000000000000000000000000000800200000000000000000000000000000000000000008000000000000000000000",
      "type": "0x2",
      "transactionHash": "0xa09f968f4eb839f26024ec2bf9d608c3543ea7588741590680619974c4dfc340",
      "transactionIndex": "0x2",
      "blockHash": "0xe1a7cdfe8d6f308d0b78a7b7def0f027046d4bbae7971ff0235fcbe86b80d30d",
      "blockNumber": "0x2b1093",
      "gasUsed": "0x6e9c",
      "effectiveGasPrice": "0x15d7a926200",
      "from": "0x95ed40013cb3990013af947a635d1a3e31057426",
      "to": "0xc81536da58b4b2e4ff433fe511bf0e035576ec15",
      "contractAddress": null
    },
    {
      "status": "0x1",
      "cumulativeGasUsed": "0x1ba7c",
      "logs": [
        {
          "address": "0xc81536da58b4b2e4ff433fe511bf0e035576ec15",
          "topics": [
            "0x37b581fd307314ace40be831f608bfb3992995ca7a1b02145e6a58d01bb3f9cf",
            "0x4d2685df44ed8d92cd381798ca9d3877ed9fca9a24cbfcf0e5985c253410b371"
          ],
          "data": "0x0000000000000000000000000000000000000000000000000000000000002af8",
          "blockHash": "0xe1a7cdfe8d6f308d0b78a7b7def0f027046d4bbae7971ff0235fcbe86b80d30d",
          "blockNumber": "0x2b1093",
          "transactionHash": "0xcb7073f6254795e77cb9e977279058c51458225acadfc40b7fba0d6cda811410",
          "transactionIndex": "0x3",
          "logIndex": "0x3",
          "removed": false
        }
      ],
      "logsBloom": "0x00000000000000000000000000000000004000000000000000000000000000000000000000000000000000002000000000020000000000040000000000800000000000000000000000000000000000000000000000000000000000000000000000000000000000000000200000000000000000000000000000000000000000000000000000010000000000000000000000000000000000000000000000000000000000000000000000000000000000000000000000000000000000000000000000000000000000000000000000000000000000000000000000000000000000000000000000000000000000000000000400000000008000000000000000000000",
      "type": "0x2",
      "transactionHash": "0xcb7073f6254795e77cb9e977279058c51458225acadfc40b7fba0d6cda811410",
      "transactionIndex": "0x3",
      "blockHash": "0xe1a7cdfe8d6f308d0b78a7b7def0f027046d4bbae7971ff0235fcbe86b80d30d",
      "blockNumber": "0x2b1093",
      "gasUsed": "0x6ea8",
      "effectiveGasPrice": "0x15d7a926200",
      "from": "0x95ed40013cb3990013af947a635d1a3e31057426",
      "to": "0xc81536da58b4b2e4ff433fe511bf0e035576ec15",
      "contractAddress": null
    },
    {
      "status": "0x1",
      "cumulativeGasUsed": "0x2290c",
      "logs": [
        {
          "address": "0xc81536da58b4b2e4ff433fe511bf0e035576ec15",
          "topics": [
            "0x37b581fd307314ace40be831f608bfb3992995ca7a1b02145e6a58d01bb3f9cf",
            "0xabad9a062c9f315a9feea094e0ec8d4620ba3e5953a36728cb12e20baddf0a07"
          ],
          "data": "0x00000000000000000000000000000000000000000000000000000000000032c8",
          "blockHash": "0xe1a7cdfe8d6f308d0b78a7b7def0f027046d4bbae7971ff0235fcbe86b80d30d",
          "blockNumber": "0x2b1093",
          "transactionHash": "0x5503c873ae43a67e6d1ea19f407ff804bc37a65586046ef4931b3c3a693f7069",
          "transactionIndex": "0x4",
          "logIndex": "0x4",
          "removed": false
        }
      ],
      "logsBloom": "0x00000000000000000000000000000000004000000000000000000000000000000000000000000000000000002000000000000000000000040000000000800000000000000000000000000000000000000000000000000000000000000000000000000000000000000000200000000000000000000000000000000000000000000000000000000000000000000000000000000000000000000000000000000000000000000000000000000000000004000001000000000000000000000000000000000000000200000000000000000000000000000000000000000000000000000000000000000000000000000000000000000000008000000000000000000000",
      "type": "0x2",
      "transactionHash": "0x5503c873ae43a67e6d1ea19f407ff804bc37a65586046ef4931b3c3a693f7069",
      "transactionIndex": "0x4",
      "blockHash": "0xe1a7cdfe8d6f308d0b78a7b7def0f027046d4bbae7971ff0235fcbe86b80d30d",
      "blockNumber": "0x2b1093",
      "gasUsed": "0x6e90",
      "effectiveGasPrice": "0x15d7a926200",
      "from": "0x95ed40013cb3990013af947a635d1a3e31057426",
      "to": "0xc81536da58b4b2e4ff433fe511bf0e035576ec15",
      "contractAddress": null
    },
    {
      "status": "0x1",
      "cumulativeGasUsed": "0x79e72",
      "logs": [
        {
          "address": "0xc81536da58b4b2e4ff433fe511bf0e035576ec15",
          "topics": [
            "0x37b581fd307314ace40be831f608bfb3992995ca7a1b02145e6a58d01bb3f9cf",
            "0x33a9943bc13f82050177e083c742d665a37b94763b617af88e4f7d84f1d209ff"
          ],
          "data": "0x0000000000000000000000000000000000000000000000000000000000002ee0",
          "blockHash": "0xe1a7cdfe8d6f308d0b78a7b7def0f027046d4bbae7971ff0235fcbe86b80d30d",
          "blockNumber": "0x2b1093",
          "transactionHash": "0xbad55027d1785e35f405c722f8d9e47fd86efa2976615ccda9bb35811a71736c",
          "transactionIndex": "0x6",
          "logIndex": "0x7",
          "removed": false
        }
      ],
      "logsBloom": "0x00000000000000000000000000000000004000000000000000000000000000000000000000000000000000002000400000000000000000040000000040800000000000000000000000000000000000000000000000000000000000000000000000000000000000000040200000000000000000000000000000000000000000000000000000000000000000000000000000000000000000000000000000000000000000000000000000000000000000000000000000000000000000000000000000000000000000000000000000000000000000000000000000000000000000000000000000000000000000000000000000000000008000000000000000000000",
      "type": "0x2",
      "transactionHash": "0xbad55027d1785e35f405c722f8d9e47fd86efa2976615ccda9bb35811a71736c",
      "transactionIndex": "0x6",
      "blockHash": "0xe1a7cdfe8d6f308d0b78a7b7def0f027046d4bbae7971ff0235fcbe86b80d30d",
      "blockNumber": "0x2b1093",
      "gasUsed": "0x6e9c",
      "effectiveGasPrice": "0x15d7a926200",
      "from": "0x95ed40013cb3990013af947a635d1a3e31057426",
      "to": "0xc81536da58b4b2e4ff433fe511bf0e035576ec15",
      "contractAddress": null
    },
    {
      "status": "0x1",
      "cumulativeGasUsed": "0x80d02",
      "logs": [
        {
          "address": "0xc81536da58b4b2e4ff433fe511bf0e035576ec15",
          "topics": [
            "0x37b581fd307314ace40be831f608bfb3992995ca7a1b02145e6a58d01bb3f9cf",
            "0xe98e2830be1a7e4156d656a7505e65d08c67660dc618072422e9c78053c261e9"
          ],
          "data": "0x0000000000000000000000000000000000000000000000000000000000001f40",
          "blockHash": "0xe1a7cdfe8d6f308d0b78a7b7def0f027046d4bbae7971ff0235fcbe86b80d30d",
          "blockNumber": "0x2b1093",
          "transactionHash": "0x86e80a340e172e5c50982eadf6d571796c3f6d5fa16230ba99f083d737838559",
          "transactionIndex": "0x7",
          "logIndex": "0x8",
          "removed": false
        }
      ],
      "logsBloom": "0x00000000000000000000000000000000004000000000000000000000000000000000000000000000002000002000000000000000000000040000000000800000000000000000000000000000000000000000000000000000000000000000000000000000000000000000200000000000000000000000000000000000000000000000000000000000000000000000000000000000000000000000000000000000000000000000000000000000000000000000000000000000000000000000000000000000000000000000000000000000000000000000000000000000000000000000000000000000000100000000000000000000008000000000000000400000",
      "type": "0x2",
      "transactionHash": "0x86e80a340e172e5c50982eadf6d571796c3f6d5fa16230ba99f083d737838559",
      "transactionIndex": "0x7",
      "blockHash": "0xe1a7cdfe8d6f308d0b78a7b7def0f027046d4bbae7971ff0235fcbe86b80d30d",
      "blockNumber": "0x2b1093",
      "gasUsed": "0x6e90",
      "effectiveGasPrice": "0x15d7a926200",
      "from": "0x95ed40013cb3990013af947a635d1a3e31057426",
      "to": "0xc81536da58b4b2e4ff433fe511bf0e035576ec15",
      "contractAddress": null
    },
    {
      "status": "0x1",
      "cumulativeGasUsed": "0x983d5",
      "logs": [
        {
          "address": "0xd49df845d77dd02de442197be0d4ccde0a076738",
          "topics": [
            "0x023c5efe572c42192271951adb0e77f97d7fc84bc761d026189ac08617346824",
            "0x00000000000000000000000095ed40013cb3990013af947a635d1a3e31057426",
            "0x9a3f52b1b31ae58da40209f38379e78c3a0756495a0f585d0b3c84a9e9718f9d"
          ],
          "data": "0x000000000000000000000000000000000000000000000000000000006933bb72",
          "blockHash": "0xe1a7cdfe8d6f308d0b78a7b7def0f027046d4bbae7971ff0235fcbe86b80d30d",
          "blockNumber": "0x2b1093",
          "transactionHash": "0x3c1327e64638758c8486387f25d0f96362d2289195e182b7d65657de84821993",
          "transactionIndex": "0x8",
          "logIndex": "0x9",
          "removed": false
        }
      ],
      "logsBloom": "0x00000000000000000000000000000000000000000000040004000000000040000000000000000000000000000000000000000000000000000000000000000000000000000000000000000000000000000000000000000000000000000000000010000000080000000000000000000000000000000000000000000000000000000000000004000000000000000000000000000000002000000000000000000000000100000001000000000000000000000010000000000000000000000000000200000000000000000000000000000000000000000008000000000000000000000000000000000000000000000000000000000000000000000000000000000000",
      "type": "0x2",
      "transactionHash": "0x3c1327e64638758c8486387f25d0f96362d2289195e182b7d65657de84821993",
      "transactionIndex": "0x8",
      "blockHash": "0xe1a7cdfe8d6f308d0b78a7b7def0f027046d4bbae7971ff0235fcbe86b80d30d",
      "blockNumber": "0x2b1093",
      "gasUsed": "0x176d3",
      "effectiveGasPrice": "0x15d7a926200",
      "from": "0x95ed40013cb3990013af947a635d1a3e31057426",
      "to": "0xd49df845d77dd02de442197be0d4ccde0a076738",
      "contractAddress": null
    },
    {
      "status": "0x1",
      "cumulativeGasUsed": "0xa4d59",
      "logs": [
        {
          "address": "0xd49df845d77dd02de442197be0d4ccde0a076738",
          "topics": [
            "0x023c5efe572c42192271951adb0e77f97d7fc84bc761d026189ac08617346824",
            "0x00000000000000000000000095ed40013cb3990013af947a635d1a3e31057426",
            "0x608e17bb6814e7eb8d564b13416322f3d8a2dc5e36dde75519945008d7848749"
          ],
          "data": "0x000000000000000000000000000000000000000000000000000000006933bb72",
          "blockHash": "0xe1a7cdfe8d6f308d0b78a7b7def0f027046d4bbae7971ff0235fcbe86b80d30d",
          "blockNumber": "0x2b1093",
          "transactionHash": "0x77f2c7adc490e00fc8328dc2d17f1a40f46acb1c4454b062ea7ae5a77dad01c4",
          "transactionIndex": "0x9",
          "logIndex": "0xa",
          "removed": false
        }
      ],
      "logsBloom": "0x00000000000000000000000000000000000000000000000004000000000040000000000000000000000000000000000000000000000000000000000000000000000000040000000000000000000000000000000000000000000000000000000010000000080000000000000000000000000000000000000000000000000000000000000004000000000000000000000000000000002000000000000000000000000100000000000000000000000000000000000000000020000000000000000200000000000000000000000000000000000000000008000000020000000000000000000000000000000000000000000000000000000000000000000000000000",
      "type": "0x2",
      "transactionHash": "0x77f2c7adc490e00fc8328dc2d17f1a40f46acb1c4454b062ea7ae5a77dad01c4",
      "transactionIndex": "0x9",
      "blockHash": "0xe1a7cdfe8d6f308d0b78a7b7def0f027046d4bbae7971ff0235fcbe86b80d30d",
      "blockNumber": "0x2b1093",
      "gasUsed": "0xc984",
      "effectiveGasPrice": "0x15d7a926200",
      "from": "0x95ed40013cb3990013af947a635d1a3e31057426",
      "to": "0xd49df845d77dd02de442197be0d4ccde0a076738",
      "contractAddress": null
    },
    {
      "status": "0x1",
      "cumulativeGasUsed": "0xb16dd",
      "logs": [
        {
          "address": "0xd49df845d77dd02de442197be0d4ccde0a076738",
          "topics": [
            "0x023c5efe572c42192271951adb0e77f97d7fc84bc761d026189ac08617346824",
            "0x00000000000000000000000095ed40013cb3990013af947a635d1a3e31057426",
            "0xefa585451ff82e7559b7e4aa3c7d26b394fd121301bbf6f1da4ef6d29210466e"
          ],
          "data": "0x000000000000000000000000000000000000000000000000000000006933bb72",
          "blockHash": "0xe1a7cdfe8d6f308d0b78a7b7def0f027046d4bbae7971ff0235fcbe86b80d30d",
          "blockNumber": "0x2b1093",
          "transactionHash": "0xdedb60c56fe5562afecf49e832c23ccd00d084e489f8c9134dba2cef27122ffb",
          "transactionIndex": "0xa",
          "logIndex": "0xb",
          "removed": false
        }
      ],
      "logsBloom": "0x00000000000000000000000000000000000000000000000004000000000040000000000000000000000000000000000000000000000000000000000000000000000000000000000000000000000000000000000000080000000000000000000010000000080000000000000000000000000000000000000000000000000000000000000004000000000000000000000000000000002000000000000000000000000100000000000000000000000000000000000000000000000000000000000200000000000000000000000000000000000000000008000000000000000000800200000000000000000000000000000000000000000000000000000000000000",
      "type": "0x2",
      "transactionHash": "0xdedb60c56fe5562afecf49e832c23ccd00d084e489f8c9134dba2cef27122ffb",
      "transactionIndex": "0xa",
      "blockHash": "0xe1a7cdfe8d6f308d0b78a7b7def0f027046d4bbae7971ff0235fcbe86b80d30d",
      "blockNumber": "0x2b1093",
      "gasUsed": "0xc984",
      "effectiveGasPrice": "0x15d7a926200",
      "from": "0x95ed40013cb3990013af947a635d1a3e31057426",
      "to": "0xd49df845d77dd02de442197be0d4ccde0a076738",
      "contractAddress": null
    },
    {
      "status": "0x1",
      "cumulativeGasUsed": "0xbe06d",
      "logs": [
        {
          "address": "0xd49df845d77dd02de442197be0d4ccde0a076738",
          "topics": [
            "0x023c5efe572c42192271951adb0e77f97d7fc84bc761d026189ac08617346824",
            "0x00000000000000000000000095ed40013cb3990013af947a635d1a3e31057426",
            "0x4d2685df44ed8d92cd381798ca9d3877ed9fca9a24cbfcf0e5985c253410b371"
          ],
          "data": "0x000000000000000000000000000000000000000000000000000000006933bb72",
          "blockHash": "0xe1a7cdfe8d6f308d0b78a7b7def0f027046d4bbae7971ff0235fcbe86b80d30d",
          "blockNumber": "0x2b1093",
          "transactionHash": "0xb9a182056eac173d4553d8796ccc8cc44ff60fe2a5d47cff55fdb62139468c4a",
          "transactionIndex": "0xb",
          "logIndex": "0xc",
          "removed": false
        }
      ],
      "logsBloom": "0x00000000000000000000000000000000000000000000000004000000000040000000000000000000000000000000000000020000000000000000000000000000000000000000000000000000000000000000000000000000000000000000000010000000080000000000000000000000000000000000000000000000000000000000000004010000000000000000000000000000002000000000000000000000000100000000000000000000000000000000000000000000000000000000000200000000000000000000000000000000000000000008000000000000000000000000000000000000000000000000000400000000000000000000000000000000",
      "type": "0x2",
      "transactionHash": "0xb9a182056eac173d4553d8796ccc8cc44ff60fe2a5d47cff55fdb62139468c4a",
      "transactionIndex": "0xb",
      "blockHash": "0xe1a7cdfe8d6f308d0b78a7b7def0f027046d4bbae7971ff0235fcbe86b80d30d",
      "blockNumber": "0x2b1093",
      "gasUsed": "0xc990",
      "effectiveGasPrice": "0x15d7a926200",
      "from": "0x95ed40013cb3990013af947a635d1a3e31057426",
      "to": "0xd49df845d77dd02de442197be0d4ccde0a076738",
      "contractAddress": null
    },
    {
      "status": "0x1",
      "cumulativeGasUsed": "0xca9e5",
      "logs": [
        {
          "address": "0xd49df845d77dd02de442197be0d4ccde0a076738",
          "topics": [
            "0x023c5efe572c42192271951adb0e77f97d7fc84bc761d026189ac08617346824",
            "0x00000000000000000000000095ed40013cb3990013af947a635d1a3e31057426",
            "0xabad9a062c9f315a9feea094e0ec8d4620ba3e5953a36728cb12e20baddf0a07"
          ],
          "data": "0x000000000000000000000000000000000000000000000000000000006933bb72",
          "blockHash": "0xe1a7cdfe8d6f308d0b78a7b7def0f027046d4bbae7971ff0235fcbe86b80d30d",
          "blockNumber": "0x2b1093",
          "transactionHash": "0xc322c162b354d1b2bcac2f0fb4a708abdbe709d7ae3ac421549a081f8018b8c4",
          "transactionIndex": "0xc",
          "logIndex": "0xd",
          "removed": false
        }
      ],
      "logsBloom": "0x00000000000000000000000000000000000000000000000004000000000040000000000000000000000000000000000000000000000000000000000000000000000000000000000000000000000000000000000000000000000000000000000010000000080000000000000000000000000000000000000000000000000000000000000004000000000000000000000000000000002000000000000000000000000100000000000000000000000004000001000000000000000000000000000200000000000200000000000000000000000000000008000000000000000000000000000000000000000000000000000000000000000000000000000000000000",
      "type": "0x2",
      "transactionHash": "0xc322c162b354d1b2bcac2f0fb4a708abdbe709d7ae3ac421549a081f8018b8c4",
      "transactionIndex": "0xc",
      "blockHash": "0xe1a7cdfe8d6f308d0b78a7b7def0f027046d4bbae7971ff0235fcbe86b80d30d",
      "blockNumber": "0x2b1093",
      "gasUsed": "0xc978",
      "effectiveGasPrice": "0x15d7a926200",
      "from": "0x95ed40013cb3990013af947a635d1a3e31057426",
      "to": "0xd49df845d77dd02de442197be0d4ccde0a076738",
      "contractAddress": null
    },
    {
      "status": "0x1",
      "cumulativeGasUsed": "0xd7369",
      "logs": [
        {
          "address": "0xd49df845d77dd02de442197be0d4ccde0a076738",
          "topics": [
            "0x023c5efe572c42192271951adb0e77f97d7fc84bc761d026189ac08617346824",
            "0x00000000000000000000000095ed40013cb3990013af947a635d1a3e31057426",
            "0x33a9943bc13f82050177e083c742d665a37b94763b617af88e4f7d84f1d209ff"
          ],
          "data": "0x000000000000000000000000000000000000000000000000000000006933bb72",
          "blockHash": "0xe1a7cdfe8d6f308d0b78a7b7def0f027046d4bbae7971ff0235fcbe86b80d30d",
          "blockNumber": "0x2b1093",
          "transactionHash": "0xae4ba0382a1598e4d1466c7eb2dc8e334876abcf24d04b488023aa48dd9aac3f",
          "transactionIndex": "0xd",
          "logIndex": "0xe",
          "removed": false
        }
      ],
      "logsBloom": "0x00000000000000000000000000000000000000000000000004000000000040000000000000000000000000000000400000000000000000000000000040000000000000000000000000000000000000000000000000000000000000000000000010000000080000000040000000000000000000000000000000000000000000000000000004000000000000000000000000000000002000000000000000000000000100000000000000000000000000000000000000000000000000000000000200000000000000000000000000000000000000000008000000000000000000000000000000000000000000000000000000000000000000000000000000000000",
      "type": "0x2",
      "transactionHash": "0xae4ba0382a1598e4d1466c7eb2dc8e334876abcf24d04b488023aa48dd9aac3f",
      "transactionIndex": "0xd",
      "blockHash": "0xe1a7cdfe8d6f308d0b78a7b7def0f027046d4bbae7971ff0235fcbe86b80d30d",
      "blockNumber": "0x2b1093",
      "gasUsed": "0xc984",
      "effectiveGasPrice": "0x15d7a926200",
      "from": "0x95ed40013cb3990013af947a635d1a3e31057426",
      "to": "0xd49df845d77dd02de442197be0d4ccde0a076738",
      "contractAddress": null
    },
    {
      "status": "0x1",
      "cumulativeGasUsed": "0xe3ce1",
      "logs": [
        {
          "address": "0xd49df845d77dd02de442197be0d4ccde0a076738",
          "topics": [
            "0x023c5efe572c42192271951adb0e77f97d7fc84bc761d026189ac08617346824",
            "0x00000000000000000000000095ed40013cb3990013af947a635d1a3e31057426",
            "0xe98e2830be1a7e4156d656a7505e65d08c67660dc618072422e9c78053c261e9"
          ],
          "data": "0x000000000000000000000000000000000000000000000000000000006933bb72",
          "blockHash": "0xe1a7cdfe8d6f308d0b78a7b7def0f027046d4bbae7971ff0235fcbe86b80d30d",
          "blockNumber": "0x2b1093",
          "transactionHash": "0xc3b5b082faa0f91cdd315a251db0eaeb4f4d934acecd1b48a776668045752f8a",
          "transactionIndex": "0xe",
          "logIndex": "0xf",
          "removed": false
        }
      ],
      "logsBloom": "0x00000000000000000000000000000000000000000000000004000000000040000000000000000000002000000000000000000000000000000000000000000000000000000000000000000000000000000000000000000000000000000000000010000000080000000000000000000000000000000000000000000000000000000000000004000000000000000000000000000000002000000000000000000000000100000000000000000000000000000000000000000000000000000000000200000000000000000000000000000000000000000008000000000000000000000000000000000000000100000000000000000000000000000000000000400000",
      "type": "0x2",
      "transactionHash": "0xc3b5b082faa0f91cdd315a251db0eaeb4f4d934acecd1b48a776668045752f8a",
      "transactionIndex": "0xe",
      "blockHash": "0xe1a7cdfe8d6f308d0b78a7b7def0f027046d4bbae7971ff0235fcbe86b80d30d",
      "blockNumber": "0x2b1093",
      "gasUsed": "0xc978",
      "effectiveGasPrice": "0x15d7a926200",
      "from": "0x95ed40013cb3990013af947a635d1a3e31057426",
      "to": "0xd49df845d77dd02de442197be0d4ccde0a076738",
      "contractAddress": null
    },
    {
      "status": "0x1",
      "cumulativeGasUsed": "0x147b44",
      "logs": [
        {
          "address": "0xd49df845d77dd02de442197be0d4ccde0a076738",
          "topics": [
            "0x7e1e2bbb910c7ff21f0b32e7c6d3a7d4cb1257a3197dea19b1b6c21e9cd5d8cc",
            "0x00000000000000000000000095ed40013cb3990013af947a635d1a3e31057426"
          ],
          "data": "0x0000000000000000000000000000000000000000000000000000000000000001",
          "blockHash": "0xe1a7cdfe8d6f308d0b78a7b7def0f027046d4bbae7971ff0235fcbe86b80d30d",
          "blockNumber": "0x2b1093",
          "transactionHash": "0x1d54108ebf93a52e53566df307a91d1ce7cb2e2a1deba436dd0e60af137a12e3",
          "transactionIndex": "0xf",
          "logIndex": "0x10",
          "removed": false
        },
        {
          "address": "0x30490c9239fdc6ff8feef84ff6f7b657ec6882f8",
          "topics": [
            "0x7d8cee5d1217e47a14a662098e84a7758580aaf78f430c07c543249234e867bf",
            "0x0000000000000000000000000000000000000000000000000000000000000003"
          ],
          "data": "0x000000000000000000000000000000000000000000000000000000000081b320000000000000000000000000000000000000000000000000000000006933bb72",
          "blockHash": "0xe1a7cdfe8d6f308d0b78a7b7def0f027046d4bbae7971ff0235fcbe86b80d30d",
          "blockNumber": "0x2b1093",
          "transactionHash": "0x1d54108ebf93a52e53566df307a91d1ce7cb2e2a1deba436dd0e60af137a12e3",
          "transactionIndex": "0xf",
          "logIndex": "0x11",
          "removed": false
        },
        {
          "address": "0xaa6b8ad37f435dc7e095ba6a20b6b2e7e0e285a1",
          "topics": [
            "0x3370b5ef195f8e20c1a618f8f3748c32fe720dfcafcdfaa9617ca2f1c028ea6c",
            "0x00000000000000000000000095ed40013cb3990013af947a635d1a3e31057426",
            "0xc5d2460186f7233c927e7db2dcc703c0e500b653ca82273b7bfad8045d85a470"
          ],
          "data": "0x00000000000000000000000000000000000000000000000000000b5e620f48000000000000000000000000000000000000000000000000000000000000000001",
          "blockHash": "0xe1a7cdfe8d6f308d0b78a7b7def0f027046d4bbae7971ff0235fcbe86b80d30d",
          "blockNumber": "0x2b1093",
          "transactionHash": "0x1d54108ebf93a52e53566df307a91d1ce7cb2e2a1deba436dd0e60af137a12e3",
          "transactionIndex": "0xf",
          "logIndex": "0x12",
          "removed": false
        },
        {
          "address": "0xfeab9a221f6bcdb4c160cd81954ee4405edf0e35",
          "topics": [
            "0xa497fbb1d4e9f1b0b222d00edcac5a6cb5a96385abf437a7d5bda16ff0a8e82c",
            "0x00000000000000000000000095ed40013cb3990013af947a635d1a3e31057426",
            "0x9a3f52b1b31ae58da40209f38379e78c3a0756495a0f585d0b3c84a9e9718f9d"
          ],
          "data": "0x000000000000000000000000000000000000000000000000000000000081b32000000000000000000000000000000000000000000000000000000b5e620f4800000000000000000000000000000000000000000000000000000000006933bb5d715426a0d8385a71b9c25bf1d814c0838f56b3c09590a1b321b203cd84b72fc8",
          "blockHash": "0xe1a7cdfe8d6f308d0b78a7b7def0f027046d4bbae7971ff0235fcbe86b80d30d",
          "blockNumber": "0x2b1093",
          "transactionHash": "0x1d54108ebf93a52e53566df307a91d1ce7cb2e2a1deba436dd0e60af137a12e3",
          "transactionIndex": "0xf",
          "logIndex": "0x13",
          "removed": false
        },
        {
          "address": "0xfeab9a221f6bcdb4c160cd81954ee4405edf0e35",
          "topics": [
            "0x7ef7f833d43bb516e267595b38b132a56879620249ce3a563c8149695438540f",
            "0x9a3f52b1b31ae58da40209f38379e78c3a0756495a0f585d0b3c84a9e9718f9d"
          ],
          "data": "0x000000000000000000000000000000000000000000000000000000000081b3200000000000000000000000000000000000000000000000000000000000000001",
          "blockHash": "0xe1a7cdfe8d6f308d0b78a7b7def0f027046d4bbae7971ff0235fcbe86b80d30d",
          "blockNumber": "0x2b1093",
          "transactionHash": "0x1d54108ebf93a52e53566df307a91d1ce7cb2e2a1deba436dd0e60af137a12e3",
          "transactionIndex": "0xf",
          "logIndex": "0x14",
          "removed": false
        }
      ],
      "logsBloom": "0x000000000000000000000000000100000000002000000400040000000000000080000000000000000000000001000000000000000200000000000000000000100000000000000000000000000000000000000000004000000000048000000000100000000a0000000000010000000000000000801000000000000080000000000000080004008000000000200100000000000000082008004000800000000000000000000001000000002000000000000010000000800000000000000000400000000040000000200000000000000000000200000008004000000000000000000000000000000400000000000000000000000000000000000000000000000000",
      "type": "0x2",
      "transactionHash": "0x1d54108ebf93a52e53566df307a91d1ce7cb2e2a1deba436dd0e60af137a12e3",
      "transactionIndex": "0xf",
      "blockHash": "0xe1a7cdfe8d6f308d0b78a7b7def0f027046d4bbae7971ff0235fcbe86b80d30d",
      "blockNumber": "0x2b1093",
      "gasUsed": "0x63e63",
      "effectiveGasPrice": "0x15d7a926200",
      "from": "0x95ed40013cb3990013af947a635d1a3e31057426",
      "to": "0xfeab9a221f6bcdb4c160cd81954ee4405edf0e35",
      "contractAddress": null
    },
    {
      "status": "0x1",
      "cumulativeGasUsed": "0x1a3403",
      "logs": [
        {
          "address": "0xd49df845d77dd02de442197be0d4ccde0a076738",
          "topics": [
            "0x7e1e2bbb910c7ff21f0b32e7c6d3a7d4cb1257a3197dea19b1b6c21e9cd5d8cc",
            "0x00000000000000000000000095ed40013cb3990013af947a635d1a3e31057426"
          ],
          "data": "0x0000000000000000000000000000000000000000000000000000000000000002",
          "blockHash": "0xe1a7cdfe8d6f308d0b78a7b7def0f027046d4bbae7971ff0235fcbe86b80d30d",
          "blockNumber": "0x2b1093",
          "transactionHash": "0x0369dd7f078c4307c21c867e09d17f487a6f9e2cc1149c21c300027b901983d5",
          "transactionIndex": "0x10",
          "logIndex": "0x15",
          "removed": false
        },
        {
          "address": "0x5dbd29ca81385606888112288bbae95f0eb9f170",
          "topics": [
            "0x7d8cee5d1217e47a14a662098e84a7758580aaf78f430c07c543249234e867bf",
            "0x0000000000000000000000000000000000000000000000000000000000000003"
          ],
          "data": "0x00000000000000000000000000000000000000000000000000000000000004b0000000000000000000000000000000000000000000000000000000006933bb72",
          "blockHash": "0xe1a7cdfe8d6f308d0b78a7b7def0f027046d4bbae7971ff0235fcbe86b80d30d",
          "blockNumber": "0x2b1093",
          "transactionHash": "0x0369dd7f078c4307c21c867e09d17f487a6f9e2cc1149c21c300027b901983d5",
          "transactionIndex": "0x10",
          "logIndex": "0x16",
          "removed": false
        },
        {
          "address": "0xaa6b8ad37f435dc7e095ba6a20b6b2e7e0e285a1",
          "topics": [
            "0x3370b5ef195f8e20c1a618f8f3748c32fe720dfcafcdfaa9617ca2f1c028ea6c",
            "0x00000000000000000000000095ed40013cb3990013af947a635d1a3e31057426",
            "0xc5d2460186f7233c927e7db2dcc703c0e500b653ca82273b7bfad8045d85a470"
          ],
          "data": "0x000000000000000000000000000000000000000000000000000008183156a8000000000000000000000000000000000000000000000000000000000000000001",
          "blockHash": "0xe1a7cdfe8d6f308d0b78a7b7def0f027046d4bbae7971ff0235fcbe86b80d30d",
          "blockNumber": "0x2b1093",
          "transactionHash": "0x0369dd7f078c4307c21c867e09d17f487a6f9e2cc1149c21c300027b901983d5",
          "transactionIndex": "0x10",
          "logIndex": "0x17",
          "removed": false
        },
        {
          "address": "0xfeab9a221f6bcdb4c160cd81954ee4405edf0e35",
          "topics": [
            "0xa497fbb1d4e9f1b0b222d00edcac5a6cb5a96385abf437a7d5bda16ff0a8e82c",
            "0x00000000000000000000000095ed40013cb3990013af947a635d1a3e31057426",
            "0x608e17bb6814e7eb8d564b13416322f3d8a2dc5e36dde75519945008d7848749"
          ],
          "data": "0x00000000000000000000000000000000000000000000000000000000000004b0000000000000000000000000000000000000000000000000000008183156a800000000000000000000000000000000000000000000000000000000006933bb5d49143dd373293c26027c516bdcc4dde85f61b5847f1b5f389b6870703604a912",
          "blockHash": "0xe1a7cdfe8d6f308d0b78a7b7def0f027046d4bbae7971ff0235fcbe86b80d30d",
          "blockNumber": "0x2b1093",
          "transactionHash": "0x0369dd7f078c4307c21c867e09d17f487a6f9e2cc1149c21c300027b901983d5",
          "transactionIndex": "0x10",
          "logIndex": "0x18",
          "removed": false
        },
        {
          "address": "0xfeab9a221f6bcdb4c160cd81954ee4405edf0e35",
          "topics": [
            "0x7ef7f833d43bb516e267595b38b132a56879620249ce3a563c8149695438540f",
            "0x608e17bb6814e7eb8d564b13416322f3d8a2dc5e36dde75519945008d7848749"
          ],
          "data": "0x00000000000000000000000000000000000000000000000000000000000004b00000000000000000000000000000000000000000000000000000000000000001",
          "blockHash": "0xe1a7cdfe8d6f308d0b78a7b7def0f027046d4bbae7971ff0235fcbe86b80d30d",
          "blockNumber": "0x2b1093",
          "transactionHash": "0x0369dd7f078c4307c21c867e09d17f487a6f9e2cc1149c21c300027b901983d5",
          "transactionIndex": "0x10",
          "logIndex": "0x19",
          "removed": false
        }
      ],
      "logsBloom": "0x000000000000000000000000000100000000002000000000040000000000000080000000000000000000000001000000000000000200000000000000000000100000000400000000000000000000000000000000004000000000048000000000100000000a0080000000010000000000000000801000000000000080000000000000080004000000000000200100000200000000082000004000800000000000002000000000000000002000000000000000000000800020000000000000400000000040000000200000000000000000000200000008000000020000000000000000000000000400000000000000000000000000000000000000000000000000",
      "type": "0x2",
      "transactionHash": "0x0369dd7f078c4307c21c867e09d17f487a6f9e2cc1149c21c300027b901983d5",
      "transactionIndex": "0x10",
      "blockHash": "0xe1a7cdfe8d6f308d0b78a7b7def0f027046d4bbae7971ff0235fcbe86b80d30d",
      "blockNumber": "0x2b1093",
      "gasUsed": "0x5b8bf",
      "effectiveGasPrice": "0x15d7a926200",
      "from": "0x95ed40013cb3990013af947a635d1a3e31057426",
      "to": "0xfeab9a221f6bcdb4c160cd81954ee4405edf0e35",
      "contractAddress": null
    },
    {
      "status": "0x1",
      "cumulativeGasUsed": "0x1fecc2",
      "logs": [
        {
          "address": "0xd49df845d77dd02de442197be0d4ccde0a076738",
          "topics": [
            "0x7e1e2bbb910c7ff21f0b32e7c6d3a7d4cb1257a3197dea19b1b6c21e9cd5d8cc",
            "0x00000000000000000000000095ed40013cb3990013af947a635d1a3e31057426"
          ],
          "data": "0x0000000000000000000000000000000000000000000000000000000000000003",
          "blockHash": "0xe1a7cdfe8d6f308d0b78a7b7def0f027046d4bbae7971ff0235fcbe86b80d30d",
          "blockNumber": "0x2b1093",
          "transactionHash": "0xe8d9e50211b22cf8bd032936d7a3cc81afe643badd63182a4f6e2692ff5c3cdd",
          "transactionIndex": "0x11",
          "logIndex": "0x1a",
          "removed": false
        },
        {
          "address": "0xa35f2923f8c6a8e9d2f655ab4cfb373864e6cc89",
          "topics": [
            "0x7d8cee5d1217e47a14a662098e84a7758580aaf78f430c07c543249234e867bf",
            "0x0000000000000000000000000000000000000000000000000000000000000002"
          ],
          "data": "0x000000000000000000000000000000000000000000000000000000000000030c000000000000000000000000000000000000000000000000000000006933bb72",
          "blockHash": "0xe1a7cdfe8d6f308d0b78a7b7def0f027046d4bbae7971ff0235fcbe86b80d30d",
          "blockNumber": "0x2b1093",
          "transactionHash": "0xe8d9e50211b22cf8bd032936d7a3cc81afe643badd63182a4f6e2692ff5c3cdd",
          "transactionIndex": "0x11",
          "logIndex": "0x1b",
          "removed": false
        },
        {
          "address": "0xaa6b8ad37f435dc7e095ba6a20b6b2e7e0e285a1",
          "topics": [
            "0x3370b5ef195f8e20c1a618f8f3748c32fe720dfcafcdfaa9617ca2f1c028ea6c",
            "0x00000000000000000000000095ed40013cb3990013af947a635d1a3e31057426",
            "0xc5d2460186f7233c927e7db2dcc703c0e500b653ca82273b7bfad8045d85a470"
          ],
          "data": "0x00000000000000000000000000000000000000000000000000000617f71eb8000000000000000000000000000000000000000000000000000000000000000001",
          "blockHash": "0xe1a7cdfe8d6f308d0b78a7b7def0f027046d4bbae7971ff0235fcbe86b80d30d",
          "blockNumber": "0x2b1093",
          "transactionHash": "0xe8d9e50211b22cf8bd032936d7a3cc81afe643badd63182a4f6e2692ff5c3cdd",
          "transactionIndex": "0x11",
          "logIndex": "0x1c",
          "removed": false
        },
        {
          "address": "0xfeab9a221f6bcdb4c160cd81954ee4405edf0e35",
          "topics": [
            "0xa497fbb1d4e9f1b0b222d00edcac5a6cb5a96385abf437a7d5bda16ff0a8e82c",
            "0x00000000000000000000000095ed40013cb3990013af947a635d1a3e31057426",
            "0xefa585451ff82e7559b7e4aa3c7d26b394fd121301bbf6f1da4ef6d29210466e"
          ],
          "data": "0x000000000000000000000000000000000000000000000000000000000000030c00000000000000000000000000000000000000000000000000000617f71eb800000000000000000000000000000000000000000000000000000000006933bb5d448ce0a36836404bb3e8d4e81d8a235851efdbc26f034170c9391e182c7421cc",
          "blockHash": "0xe1a7cdfe8d6f308d0b78a7b7def0f027046d4bbae7971ff0235fcbe86b80d30d",
          "blockNumber": "0x2b1093",
          "transactionHash": "0xe8d9e50211b22cf8bd032936d7a3cc81afe643badd63182a4f6e2692ff5c3cdd",
          "transactionIndex": "0x11",
          "logIndex": "0x1d",
          "removed": false
        },
        {
          "address": "0xfeab9a221f6bcdb4c160cd81954ee4405edf0e35",
          "topics": [
            "0x7ef7f833d43bb516e267595b38b132a56879620249ce3a563c8149695438540f",
            "0xefa585451ff82e7559b7e4aa3c7d26b394fd121301bbf6f1da4ef6d29210466e"
          ],
          "data": "0x000000000000000000000000000000000000000000000000000000000000030c0000000000000000000000000000000000000000000000000000000000000001",
          "blockHash": "0xe1a7cdfe8d6f308d0b78a7b7def0f027046d4bbae7971ff0235fcbe86b80d30d",
          "blockNumber": "0x2b1093",
          "transactionHash": "0xe8d9e50211b22cf8bd032936d7a3cc81afe643badd63182a4f6e2692ff5c3cdd",
          "transactionIndex": "0x11",
          "logIndex": "0x1e",
          "removed": false
        }
      ],
      "logsBloom": "0x040000000000000000000000000100000000002080000000040000000000000080000000000000000000000001000000000000000000000000000000000000100000000000000000040000000000000000000000004800000000048000000000100000000a00000000000100000000000000008010000000000000800000000000000a0004000000000000200100000000000000082000004000800000000000000000000000000000002100000000000000000000000000000000000000000000000040000000200000000000000000000200000008000000000000000000800200000000000400000000000000000000000000008000000000000000000000",
      "type": "0x2",
      "transactionHash": "0xe8d9e50211b22cf8bd032936d7a3cc81afe643badd63182a4f6e2692ff5c3cdd",
      "transactionIndex": "0x11",
      "blockHash": "0xe1a7cdfe8d6f308d0b78a7b7def0f027046d4bbae7971ff0235fcbe86b80d30d",
      "blockNumber": "0x2b1093",
      "gasUsed": "0x5b8bf",
      "effectiveGasPrice": "0x15d7a926200",
      "from": "0x95ed40013cb3990013af947a635d1a3e31057426",
      "to": "0xfeab9a221f6bcdb4c160cd81954ee4405edf0e35",
      "contractAddress": null
    },
    {
      "status": "0x1",
      "cumulativeGasUsed": "0x25a58d",
      "logs": [
        {
          "address": "0xd49df845d77dd02de442197be0d4ccde0a076738",
          "topics": [
            "0x7e1e2bbb910c7ff21f0b32e7c6d3a7d4cb1257a3197dea19b1b6c21e9cd5d8cc",
            "0x00000000000000000000000095ed40013cb3990013af947a635d1a3e31057426"
          ],
          "data": "0x0000000000000000000000000000000000000000000000000000000000000004",
          "blockHash": "0xe1a7cdfe8d6f308d0b78a7b7def0f027046d4bbae7971ff0235fcbe86b80d30d",
          "blockNumber": "0x2b1093",
          "transactionHash": "0xa9079e6a0021775030f65bd4380670d9d3b7807402001b75e802c13313380301",
          "transactionIndex": "0x12",
          "logIndex": "0x1f",
          "removed": false
        },
        {
          "address": "0xf34772793a37cab10e13b7fb686f93445e0f4339",
          "topics": [
            "0x7d8cee5d1217e47a14a662098e84a7758580aaf78f430c07c543249234e867bf",
            "0x0000000000000000000000000000000000000000000000000000000000000002"
          ],
          "data": "0x0000000000000000000000000000000000000000000000000000000000003e80000000000000000000000000000000000000000000000000000000006933bb72",
          "blockHash": "0xe1a7cdfe8d6f308d0b78a7b7def0f027046d4bbae7971ff0235fcbe86b80d30d",
          "blockNumber": "0x2b1093",
          "transactionHash": "0xa9079e6a0021775030f65bd4380670d9d3b7807402001b75e802c13313380301",
          "transactionIndex": "0x12",
          "logIndex": "0x20",
          "removed": false
        },
        {
          "address": "0xaa6b8ad37f435dc7e095ba6a20b6b2e7e0e285a1",
          "topics": [
            "0x3370b5ef195f8e20c1a618f8f3748c32fe720dfcafcdfaa9617ca2f1c028ea6c",
            "0x00000000000000000000000095ed40013cb3990013af947a635d1a3e31057426",
            "0xc5d2460186f7233c927e7db2dcc703c0e500b653ca82273b7bfad8045d85a470"
          ],
          "data": "0x00000000000000000000000000000000000000000000000000000e30287560000000000000000000000000000000000000000000000000000000000000000001",
          "blockHash": "0xe1a7cdfe8d6f308d0b78a7b7def0f027046d4bbae7971ff0235fcbe86b80d30d",
          "blockNumber": "0x2b1093",
          "transactionHash": "0xa9079e6a0021775030f65bd4380670d9d3b7807402001b75e802c13313380301",
          "transactionIndex": "0x12",
          "logIndex": "0x21",
          "removed": false
        },
        {
          "address": "0xfeab9a221f6bcdb4c160cd81954ee4405edf0e35",
          "topics": [
            "0xa497fbb1d4e9f1b0b222d00edcac5a6cb5a96385abf437a7d5bda16ff0a8e82c",
            "0x00000000000000000000000095ed40013cb3990013af947a635d1a3e31057426",
            "0x4d2685df44ed8d92cd381798ca9d3877ed9fca9a24cbfcf0e5985c253410b371"
          ],
          "data": "0x0000000000000000000000000000000000000000000000000000000000003e8000000000000000000000000000000000000000000000000000000e3028756000000000000000000000000000000000000000000000000000000000006933bb5d4c29084bb40d07b103b8e0c9cebd38d025973a7c6be04db9449f2eeed6c028a8",
          "blockHash": "0xe1a7cdfe8d6f308d0b78a7b7def0f027046d4bbae7971ff0235fcbe86b80d30d",
          "blockNumber": "0x2b1093",
          "transactionHash": "0xa9079e6a0021775030f65bd4380670d9d3b7807402001b75e802c13313380301",
          "transactionIndex": "0x12",
          "logIndex": "0x22",
          "removed": false
        },
        {
          "address": "0xfeab9a221f6bcdb4c160cd81954ee4405edf0e35",
          "topics": [
            "0x7ef7f833d43bb516e267595b38b132a56879620249ce3a563c8149695438540f",
            "0x4d2685df44ed8d92cd381798ca9d3877ed9fca9a24cbfcf0e5985c253410b371"
          ],
          "data": "0x0000000000000000000000000000000000000000000000000000000000003e800000000000000000000000000000000000000000000000000000000000000001",
          "blockHash": "0xe1a7cdfe8d6f308d0b78a7b7def0f027046d4bbae7971ff0235fcbe86b80d30d",
          "blockNumber": "0x2b1093",
          "transactionHash": "0xa9079e6a0021775030f65bd4380670d9d3b7807402001b75e802c13313380301",
          "transactionIndex": "0x12",
          "logIndex": "0x23",
          "removed": false
        }
      ],
      "logsBloom": "0x0400000000000000000000000001000000000020000000000400000000000000c0000000000000000000000001000000000200000000000000000000000002100000000000000000000000000000000000000000004000000000048000000000100000000a0000000000010000000000000000801000000000000080000000000000080004010000000000200100000000000000082000004000800000000000000000000000000000002100000000000000000000000000000000000000000000000040000000200000000000000000000200000008000000000000000000000000000000000400000000000008000400000000008000000000000000000000",
      "type": "0x2",
      "transactionHash": "0xa9079e6a0021775030f65bd4380670d9d3b7807402001b75e802c13313380301",
      "transactionIndex": "0x12",
      "blockHash": "0xe1a7cdfe8d6f308d0b78a7b7def0f027046d4bbae7971ff0235fcbe86b80d30d",
      "blockNumber": "0x2b1093",
      "gasUsed": "0x5b8cb",
      "effectiveGasPrice": "0x15d7a926200",
      "from": "0x95ed40013cb3990013af947a635d1a3e31057426",
      "to": "0xfeab9a221f6bcdb4c160cd81954ee4405edf0e35",
      "contractAddress": null
    },
    {
      "status": "0x1",
      "cumulativeGasUsed": "0x2b5e58",
      "logs": [
        {
          "address": "0xd49df845d77dd02de442197be0d4ccde0a076738",
          "topics": [
            "0x7e1e2bbb910c7ff21f0b32e7c6d3a7d4cb1257a3197dea19b1b6c21e9cd5d8cc",
            "0x00000000000000000000000095ed40013cb3990013af947a635d1a3e31057426"
          ],
          "data": "0x0000000000000000000000000000000000000000000000000000000000000005",
          "blockHash": "0xe1a7cdfe8d6f308d0b78a7b7def0f027046d4bbae7971ff0235fcbe86b80d30d",
          "blockNumber": "0x2b1093",
          "transactionHash": "0x0172b576a22ae991cc357179c92fcece6ba9bcc6f4f5940ff61ac6d08311634b",
          "transactionIndex": "0x13",
          "logIndex": "0x24",
          "removed": false
        },
        {
          "address": "0xf11b4128624461839165f46cc3ef30ea84fb4dbc",
          "topics": [
            "0x7d8cee5d1217e47a14a662098e84a7758580aaf78f430c07c543249234e867bf",
            "0x0000000000000000000000000000000000000000000000000000000000000002"
          ],
          "data": "0x000000000000000000000000000000000000000000000000000000000280de80000000000000000000000000000000000000000000000000000000006933bb72",
          "blockHash": "0xe1a7cdfe8d6f308d0b78a7b7def0f027046d4bbae7971ff0235fcbe86b80d30d",
          "blockNumber": "0x2b1093",
          "transactionHash": "0x0172b576a22ae991cc357179c92fcece6ba9bcc6f4f5940ff61ac6d08311634b",
          "transactionIndex": "0x13",
          "logIndex": "0x25",
          "removed": false
        },
        {
          "address": "0xaa6b8ad37f435dc7e095ba6a20b6b2e7e0e285a1",
          "topics": [
            "0x3370b5ef195f8e20c1a618f8f3748c32fe720dfcafcdfaa9617ca2f1c028ea6c",
            "0x00000000000000000000000095ed40013cb3990013af947a635d1a3e31057426",
            "0xc5d2460186f7233c927e7db2dcc703c0e500b653ca82273b7bfad8045d85a470"
          ],
          "data": "0x000000000000000000000000000000000000000000000000000008e9bd84d0000000000000000000000000000000000000000000000000000000000000000001",
          "blockHash": "0xe1a7cdfe8d6f308d0b78a7b7def0f027046d4bbae7971ff0235fcbe86b80d30d",
          "blockNumber": "0x2b1093",
          "transactionHash": "0x0172b576a22ae991cc357179c92fcece6ba9bcc6f4f5940ff61ac6d08311634b",
          "transactionIndex": "0x13",
          "logIndex": "0x26",
          "removed": false
        },
        {
          "address": "0xfeab9a221f6bcdb4c160cd81954ee4405edf0e35",
          "topics": [
            "0xa497fbb1d4e9f1b0b222d00edcac5a6cb5a96385abf437a7d5bda16ff0a8e82c",
            "0x00000000000000000000000095ed40013cb3990013af947a635d1a3e31057426",
            "0xabad9a062c9f315a9feea094e0ec8d4620ba3e5953a36728cb12e20baddf0a07"
          ],
          "data": "0x000000000000000000000000000000000000000000000000000000000280de80000000000000000000000000000000000000000000000000000008e9bd84d000000000000000000000000000000000000000000000000000000000006933bb5d5264b636091dccc3ad2e8856d8d3c8fefa205e4980697f119ba62efd44a63c6e",
          "blockHash": "0xe1a7cdfe8d6f308d0b78a7b7def0f027046d4bbae7971ff0235fcbe86b80d30d",
          "blockNumber": "0x2b1093",
          "transactionHash": "0x0172b576a22ae991cc357179c92fcece6ba9bcc6f4f5940ff61ac6d08311634b",
          "transactionIndex": "0x13",
          "logIndex": "0x27",
          "removed": false
        },
        {
          "address": "0xfeab9a221f6bcdb4c160cd81954ee4405edf0e35",
          "topics": [
            "0x7ef7f833d43bb516e267595b38b132a56879620249ce3a563c8149695438540f",
            "0xabad9a062c9f315a9feea094e0ec8d4620ba3e5953a36728cb12e20baddf0a07"
          ],
          "data": "0x000000000000000000000000000000000000000000000000000000000280de800000000000000000000000000000000000000000000000000000000000000001",
          "blockHash": "0xe1a7cdfe8d6f308d0b78a7b7def0f027046d4bbae7971ff0235fcbe86b80d30d",
          "blockNumber": "0x2b1093",
          "transactionHash": "0x0172b576a22ae991cc357179c92fcece6ba9bcc6f4f5940ff61ac6d08311634b",
          "transactionIndex": "0x13",
          "logIndex": "0x28",
          "removed": false
        }
      ],
      "logsBloom": "0x040000000000000000000000000100000000002000000000040000000000000080000000000000000000000001000000000000000000000000000000000000100000000000000000000000000000000000000000004000000000248000000000100000000a0000000000010000000000000000801000000000000080000000000000080004000000000000200100000000000000082000004000800000000000000000000000000000002100000004000001000000000000000000000000000000000040000200200000000000000000000200000008000000000000000000000000000000000400000000000000000000000000008080000000000000000000",
      "type": "0x2",
      "transactionHash": "0x0172b576a22ae991cc357179c92fcece6ba9bcc6f4f5940ff61ac6d08311634b",
      "transactionIndex": "0x13",
      "blockHash": "0xe1a7cdfe8d6f308d0b78a7b7def0f027046d4bbae7971ff0235fcbe86b80d30d",
      "blockNumber": "0x2b1093",
      "gasUsed": "0x5b8cb",
      "effectiveGasPrice": "0x15d7a926200",
      "from": "0x95ed40013cb3990013af947a635d1a3e31057426",
      "to": "0xfeab9a221f6bcdb4c160cd81954ee4405edf0e35",
      "contractAddress": null
    },
    {
      "status": "0x1",
      "cumulativeGasUsed": "0x311717",
      "logs": [
        {
          "address": "0xd49df845d77dd02de442197be0d4ccde0a076738",
          "topics": [
            "0x7e1e2bbb910c7ff21f0b32e7c6d3a7d4cb1257a3197dea19b1b6c21e9cd5d8cc",
            "0x00000000000000000000000095ed40013cb3990013af947a635d1a3e31057426"
          ],
          "data": "0x0000000000000000000000000000000000000000000000000000000000000006",
          "blockHash": "0xe1a7cdfe8d6f308d0b78a7b7def0f027046d4bbae7971ff0235fcbe86b80d30d",
          "blockNumber": "0x2b1093",
          "transactionHash": "0x27f288b69b9315aa7c3da173ab728c23be7f94e794693e008bc1a5806cdd30b9",
          "transactionIndex": "0x14",
          "logIndex": "0x29",
          "removed": false
        },
        {
          "address": "0x1e44cfa2c04f9bbe1c612673bc808c214ba04941",
          "topics": [
            "0x7d8cee5d1217e47a14a662098e84a7758580aaf78f430c07c543249234e867bf",
            "0x0000000000000000000000000000000000000000000000000000000000000002"
          ],
          "data": "0x000000000000000000000000000000000000000000000000000000000000015e000000000000000000000000000000000000000000000000000000006933bb72",
          "blockHash": "0xe1a7cdfe8d6f308d0b78a7b7def0f027046d4bbae7971ff0235fcbe86b80d30d",
          "blockNumber": "0x2b1093",
          "transactionHash": "0x27f288b69b9315aa7c3da173ab728c23be7f94e794693e008bc1a5806cdd30b9",
          "transactionIndex": "0x14",
          "logIndex": "0x2a",
          "removed": false
        },
        {
          "address": "0xaa6b8ad37f435dc7e095ba6a20b6b2e7e0e285a1",
          "topics": [
            "0x3370b5ef195f8e20c1a618f8f3748c32fe720dfcafcdfaa9617ca2f1c028ea6c",
            "0x00000000000000000000000095ed40013cb3990013af947a635d1a3e31057426",
            "0xc5d2460186f7233c927e7db2dcc703c0e500b653ca82273b7bfad8045d85a470"
          ],
          "data": "0x00000000000000000000000000000000000000000000000000000a2fb40580000000000000000000000000000000000000000000000000000000000000000001",
          "blockHash": "0xe1a7cdfe8d6f308d0b78a7b7def0f027046d4bbae7971ff0235fcbe86b80d30d",
          "blockNumber": "0x2b1093",
          "transactionHash": "0x27f288b69b9315aa7c3da173ab728c23be7f94e794693e008bc1a5806cdd30b9",
          "transactionIndex": "0x14",
          "logIndex": "0x2b",
          "removed": false
        },
        {
          "address": "0xfeab9a221f6bcdb4c160cd81954ee4405edf0e35",
          "topics": [
            "0xa497fbb1d4e9f1b0b222d00edcac5a6cb5a96385abf437a7d5bda16ff0a8e82c",
            "0x00000000000000000000000095ed40013cb3990013af947a635d1a3e31057426",
            "0x33a9943bc13f82050177e083c742d665a37b94763b617af88e4f7d84f1d209ff"
          ],
          "data": "0x000000000000000000000000000000000000000000000000000000000000015e00000000000000000000000000000000000000000000000000000a2fb4058000000000000000000000000000000000000000000000000000000000006933bb5dc3c84c69e343260b6b8ab879e4339bc88fe0c3f6d0ff8584c3722a9f6a3437c6",
          "blockHash": "0xe1a7cdfe8d6f308d0b78a7b7def0f027046d4bbae7971ff0235fcbe86b80d30d",
          "blockNumber": "0x2b1093",
          "transactionHash": "0x27f288b69b9315aa7c3da173ab728c23be7f94e794693e008bc1a5806cdd30b9",
          "transactionIndex": "0x14",
          "logIndex": "0x2c",
          "removed": false
        },
        {
          "address": "0xfeab9a221f6bcdb4c160cd81954ee4405edf0e35",
          "topics": [
            "0x7ef7f833d43bb516e267595b38b132a56879620249ce3a563c8149695438540f",
            "0x33a9943bc13f82050177e083c742d665a37b94763b617af88e4f7d84f1d209ff"
          ],
          "data": "0x000000000000000000000000000000000000000000000000000000000000015e0000000000000000000000000000000000000000000000000000000000000001",
          "blockHash": "0xe1a7cdfe8d6f308d0b78a7b7def0f027046d4bbae7971ff0235fcbe86b80d30d",
          "blockNumber": "0x2b1093",
          "transactionHash": "0x27f288b69b9315aa7c3da173ab728c23be7f94e794693e008bc1a5806cdd30b9",
          "transactionIndex": "0x14",
          "logIndex": "0x2d",
          "removed": false
        }
      ],
      "logsBloom": "0x040000000000000000000000000100000000002000000000040000000000000080000000000000000000000001004000000000000000000000000000400000100000000000000000000000000000000000000000004000000000048000000000100000000a0000000040010000000000000000801000000000000080000000000000080004000000000000200100000000000000082000004000800000000010000000000010000000002100000000000000000000000000000000000000000000000040000000200000000000000000000200000088000000000000000000000000000000000400000000000000000000000000008000000000000000000000",
      "type": "0x2",
      "transactionHash": "0x27f288b69b9315aa7c3da173ab728c23be7f94e794693e008bc1a5806cdd30b9",
      "transactionIndex": "0x14",
      "blockHash": "0xe1a7cdfe8d6f308d0b78a7b7def0f027046d4bbae7971ff0235fcbe86b80d30d",
      "blockNumber": "0x2b1093",
      "gasUsed": "0x5b8bf",
      "effectiveGasPrice": "0x15d7a926200",
      "from": "0x95ed40013cb3990013af947a635d1a3e31057426",
      "to": "0xfeab9a221f6bcdb4c160cd81954ee4405edf0e35",
      "contractAddress": null
    },
    {
      "status": "0x1",
      "cumulativeGasUsed": "0x36cfee",
      "logs": [
        {
          "address": "0xd49df845d77dd02de442197be0d4ccde0a076738",
          "topics": [
            "0x7e1e2bbb910c7ff21f0b32e7c6d3a7d4cb1257a3197dea19b1b6c21e9cd5d8cc",
            "0x00000000000000000000000095ed40013cb3990013af947a635d1a3e31057426"
          ],
          "data": "0x0000000000000000000000000000000000000000000000000000000000000007",
          "blockHash": "0xe1a7cdfe8d6f308d0b78a7b7def0f027046d4bbae7971ff0235fcbe86b80d30d",
          "blockNumber": "0x2b1093",
          "transactionHash": "0x45d8803cbd3ecd08706858fb1d29c46a29ca98ddc0601a50f120f868aaa0fbf4",
          "transactionIndex": "0x15",
          "logIndex": "0x2e",
          "removed": false
        },
        {
          "address": "0xbb906be3676b1d6872cdca58e336aea089c698b0",
          "topics": [
            "0x7d8cee5d1217e47a14a662098e84a7758580aaf78f430c07c543249234e867bf",
            "0x0000000000000000000000000000000000000000000000000000000000000002"
          ],
          "data": "0x000000000000000000000000000000000000000000000000000003eefe16b200000000000000000000000000000000000000000000000000000000006933bb72",
          "blockHash": "0xe1a7cdfe8d6f308d0b78a7b7def0f027046d4bbae7971ff0235fcbe86b80d30d",
          "blockNumber": "0x2b1093",
          "transactionHash": "0x45d8803cbd3ecd08706858fb1d29c46a29ca98ddc0601a50f120f868aaa0fbf4",
          "transactionIndex": "0x15",
          "logIndex": "0x2f",
          "removed": false
        },
        {
          "address": "0xaa6b8ad37f435dc7e095ba6a20b6b2e7e0e285a1",
          "topics": [
            "0x3370b5ef195f8e20c1a618f8f3748c32fe720dfcafcdfaa9617ca2f1c028ea6c",
            "0x00000000000000000000000095ed40013cb3990013af947a635d1a3e31057426",
            "0xc5d2460186f7233c927e7db2dcc703c0e500b653ca82273b7bfad8045d85a470"
          ],
          "data": "0x000000000000000000000000000000000000000000000000000034c02d65a0000000000000000000000000000000000000000000000000000000000000000001",
          "blockHash": "0xe1a7cdfe8d6f308d0b78a7b7def0f027046d4bbae7971ff0235fcbe86b80d30d",
          "blockNumber": "0x2b1093",
          "transactionHash": "0x45d8803cbd3ecd08706858fb1d29c46a29ca98ddc0601a50f120f868aaa0fbf4",
          "transactionIndex": "0x15",
          "logIndex": "0x30",
          "removed": false
        },
        {
          "address": "0xfeab9a221f6bcdb4c160cd81954ee4405edf0e35",
          "topics": [
            "0xa497fbb1d4e9f1b0b222d00edcac5a6cb5a96385abf437a7d5bda16ff0a8e82c",
            "0x00000000000000000000000095ed40013cb3990013af947a635d1a3e31057426",
            "0xe98e2830be1a7e4156d656a7505e65d08c67660dc618072422e9c78053c261e9"
          ],
          "data": "0x000000000000000000000000000000000000000000000000000003eefe16b200000000000000000000000000000000000000000000000000000034c02d65a000000000000000000000000000000000000000000000000000000000006933bb5d866d7d97c93444ff3e1c3ed55263933be601254cdb1e6c98d6c4c411f1d35456",
          "blockHash": "0xe1a7cdfe8d6f308d0b78a7b7def0f027046d4bbae7971ff0235fcbe86b80d30d",
          "blockNumber": "0x2b1093",
          "transactionHash": "0x45d8803cbd3ecd08706858fb1d29c46a29ca98ddc0601a50f120f868aaa0fbf4",
          "transactionIndex": "0x15",
          "logIndex": "0x31",
          "removed": false
        },
        {
          "address": "0xfeab9a221f6bcdb4c160cd81954ee4405edf0e35",
          "topics": [
            "0x7ef7f833d43bb516e267595b38b132a56879620249ce3a563c8149695438540f",
            "0xe98e2830be1a7e4156d656a7505e65d08c67660dc618072422e9c78053c261e9"
          ],
          "data": "0x000000000000000000000000000000000000000000000000000003eefe16b2000000000000000000000000000000000000000000000000000000000000000001",
          "blockHash": "0xe1a7cdfe8d6f308d0b78a7b7def0f027046d4bbae7971ff0235fcbe86b80d30d",
          "blockNumber": "0x2b1093",
          "transactionHash": "0x45d8803cbd3ecd08706858fb1d29c46a29ca98ddc0601a50f120f868aaa0fbf4",
          "transactionIndex": "0x15",
          "logIndex": "0x32",
          "removed": false
        }
      ],
      "logsBloom": "0x040000000000000000000000000100000000002000000000040000000000000080000000000000000020000001000000000000000000000000000000000000100000000000000000000000000000002000000000004000000000048000000000100000000a0000000000010000000000000000801000000000000080000000000000080004000000000000200100000000000000082000004000808000000000000000000000000000002100000000000000000000000000000000000000000000000040000000200000000000000000000200000008000000000000000080000000000000000400000100000000000000000000008000000000000000400000",
      "type": "0x2",
      "transactionHash": "0x45d8803cbd3ecd08706858fb1d29c46a29ca98ddc0601a50f120f868aaa0fbf4",
      "transactionIndex": "0x15",
      "blockHash": "0xe1a7cdfe8d6f308d0b78a7b7def0f027046d4bbae7971ff0235fcbe86b80d30d",
      "blockNumber": "0x2b1093",
      "gasUsed": "0x5b8d7",
      "effectiveGasPrice": "0x15d7a926200",
      "from": "0x95ed40013cb3990013af947a635d1a3e31057426",
      "to": "0xfeab9a221f6bcdb4c160cd81954ee4405edf0e35",
      "contractAddress": null
    }
  ],
  "libraries": [],
  "pending": [],
  "returns": {},
  "timestamp": 1764998004886,
  "chain": 43522,
  "commit": "51976fb"
}