{
  "transactions": [
    {
      "hash": "0x378a041587b10759c1947035a08da1521cbd97956759fd5395f39db35a741967",
      "transactionType": "CREATE",
      "contractName": "AgentRegistry",
      "contractAddress": "0x695ec0e49e2e69df5ea1ce6c061a6dcc55978641",
      "function": null,
      "arguments": null,
      "transaction": {
        "from": "0x95ed40013cb3990013af947a635d1a3e31057426",
        "gas": "0x165f91",
        "value": "0x0",
        "input": "0x60806040526001600a55348015610014575f80fd5b50338061003a57604051631e4fbdf760e01b81525f600482015260240160405180910390fd5b61004381610049565b50610098565b5f80546001600160a01b038381166001600160a01b0319831681178455604051919092169283917f8be0079c531659141344cd1fd0a4f28419497f9722a3daafe3b4186f6b6457e09190a35050565b61128b806100a55f395ff3fe608060405234801561000f575f80fd5b50600436106101d1575f3560e01c8063a638f0d0116100fe578063e5e666b11161009e578063f1372c931161006e578063f1372c931461044f578063f2fde38b14610462578063f9120af614610475578063feabe7bf14610488575f80fd5b8063e5e666b1146103f7578063e8d630df1461040a578063e9784b0a1461041d578063ea0d685f14610430575f80fd5b8063bfe10928116100d9578063bfe10928146103ab578063c1bf1dcf146103be578063cfdfdd48146103d1578063d5db72eb146103e4575f80fd5b8063a638f0d014610320578063b32f20131461035e578063b5695b381461037d575f80fd5b80635b74b152116101745780637d54f2a5116101445780637d54f2a5146102c757806389aeca76146102e65780638da5cb5b14610308578063958efd7a14610318575f80fd5b80635b74b15214610283578063715018a6146102a357806375619ab5146102ab57806376671808146102be575f80fd5b8063245a7bfc116101af578063245a7bfc1461020e5780632940ce4414610239578063464037ab1461025c578063595249ab1461027b575f80fd5b80631b4b0ead146101d557806320c8d7d8146101f157806322b833d8146101f9575b5f80fd5b6101de61138881565b6040519081526020015b60405180910390f35b6101de606481565b61020c610207366004610f50565b61049b565b005b600154610221906001600160a01b031681565b6040516001600160a01b0390911681526020016101e8565b61024c610247366004610f50565b6106c5565b60405190151581526020016101e8565b6101de61026a366004610f9f565b60096020525f908152604090205481565b6101de600a81565b610296610291366004610fbf565b610708565b6040516101e89190610ffe565b61020c610784565b61020c6102b9366004610f9f565b610797565b6101de600a5481565b6101de6102d5366004610f9f565b60066020525f908152604090205481565b61024c6102f4366004610f9f565b60036020525f908152604090205460ff1681565b5f546001600160a01b0316610221565b61020c610834565b61024c61032e3660046110e7565b600460209081525f9283526040909220815180830184018051928152908401929093019190912091525460ff1681565b6101de61036c366004610f9f565b60086020525f908152604090205481565b61039061038b366004610f9f565b610897565b604080519384526020840192909252908201526060016101e8565b600254610221906001600160a01b031681565b61020c6103cc366004611132565b6108f2565b6101de6103df366004610fbf565b6109a2565b61024c6103f2366004610f9f565b6109cd565b6101de610405366004610f9f565b610a02565b61020c61041836600461116b565b610ae9565b61022161042b366004611193565b610beb565b6101de61043e366004610f9f565b60076020525f908152604090205481565b61020c61045d36600461116b565b610c30565b61020c610470366004610f9f565b610cd9565b61020c610483366004610f9f565b610d16565b61020c610496366004610f9f565b610db2565b5f546001600160a01b03163314806104c15750335f9081526003602052604090205460ff165b6105125760405162461bcd60e51b815260206004820152601860248201527f4e6f7420617574686f72697a656420726567697374726172000000000000000060448201526064015b60405180910390fd5b6001600160a01b0383165f9081526004602052604090819020905161053a90849084906111d5565b9081526040519081900360200190205460ff161561058f5760405162461bcd60e51b8152602060048201526012602482015271105b1c9958591e481c9959da5cdd195c995960721b6044820152606401610509565b6001600160a01b0383165f90815260046020526040908190209051600191906105bb90859085906111d5565b908152604051908190036020018120805492151560ff19909316929092179091556005906105ec90849084906111d5565b908152604080516020928190038301902080546001810182555f9182528382200180546001600160a01b0319166001600160a01b038816908117909155815260069092528120549003610665576001600160a01b0383165f9081526006602090815260408083206113889055600a546009909252909120555b81816040516106759291906111d5565b6040518091039020836001600160a01b03167f023c5efe572c42192271951adb0e77f97d7fc84bc761d026189ac08617346824426040516106b891815260200190565b60405180910390a3505050565b6001600160a01b0383165f9081526004602052604080822090516106ec90859085906111d5565b9081526040519081900360200190205460ff1690509392505050565b60606005838360405161071c9291906111d5565b908152604080519182900360209081018320805480830285018301909352828452919083018282801561077657602002820191905f5260205f20905b81546001600160a01b03168152600190910190602001808311610758575b505050505090505b92915050565b61078c610e75565b6107955f610ea1565b565b61079f610e75565b6001600160a01b0381166107eb5760405162461bcd60e51b815260206004820152601360248201527224b73b30b634b2103234b9ba3934b13aba37b960691b6044820152606401610509565b600280546001600160a01b0319166001600160a01b0383169081179091556040517f86719c518c7d99ac94b3d405d462ea876ba5cd0a978461dc9a7c9862a9485886905f90a250565b6002546001600160a01b031633146108815760405162461bcd60e51b815260206004820152601060248201526f27b7363c903234b9ba3934b13aba37b960811b6044820152606401610509565b600a8054905f610890836111f8565b9190505550565b6001600160a01b0381165f9081526007602090815260408083205460069092528220549091826108c7575f6108ea565b6001600160a01b0384165f908152600860205260409020546108ea908490611210565b929491935050565b6108fa610e75565b6001600160a01b0382166109445760405162461bcd60e51b815260206004820152601160248201527024b73b30b634b2103932b3b4b9ba3930b960791b6044820152606401610509565b6001600160a01b0382165f81815260036020908152604091829020805460ff191685151590811790915591519182527faa29e9c7319872059973646686bcb05675a1351529119ca980b4ad90e73d7264910160405180910390a25050565b5f600583836040516109b59291906111d5565b90815260405190819003602001902054905092915050565b5f80546001600160a01b038381169116148061077e5750506001600160a01b03165f9081526003602052604090205460ff1690565b6001600160a01b0381165f90815260066020526040812054808203610a2b575061138892915050565b6001600160a01b0383165f90815260096020526040812054600a5411610a51575f610a76565b6001600160a01b0384165f90815260096020526040902054600a54610a76919061122f565b9050805f03610a86575092915050565b5f80610a93836001611242565b90505b6001811115610abe57610aaa606483611242565b9150610ab7600282611210565b9050610a96565b5f610ac98386611242565b90506127108111610ada5780610ade565b6127105b979650505050505050565b610af1610e75565b6001600160a01b0382165f9081526007602090815260408083205460089092528220805491928492610b24908490611242565b90915550506001600160a01b0383165f9081526006602052604081205490600a831015610b545750611388610b90565b6001600160a01b0385165f90815260086020526040812054610b77908590611210565b90506127108111610b885780610b8c565b6127105b9150505b6001600160a01b0385165f8181526006602090815260409182902084905581518581529081018490527f35a172ee9b7bba49ce50c0ba9b35893a8948f2d53ca31ce2890a07a54e1f548a910160405180910390a25050505050565b81516020818401810180516005825292820191850191909120919052805482908110610c15575f80fd5b5f918252602090912001546001600160a01b03169150829050565b610c38610e75565b612710811115610c7b5760405162461bcd60e51b815260206004820152600e60248201526d0a6c6dee4ca40e8dede40d0d2ced60931b6044820152606401610509565b6001600160a01b0382165f81815260066020908152604091829020805490859055825181815291820185905292917f35a172ee9b7bba49ce50c0ba9b35893a8948f2d53ca31ce2890a07a54e1f548a910160405180910390a2505050565b610ce1610e75565b6001600160a01b038116610d0a57604051631e4fbdf760e01b81525f6004820152602401610509565b610d1381610ea1565b50565b610d1e610e75565b6001600160a01b038116610d695760405162461bcd60e51b815260206004820152601260248201527124b73b30b634b21030b3b3b932b3b0ba37b960711b6044820152606401610509565b600180546001600160a01b0319166001600160a01b0383169081179091556040517f94b241e14651a9658c51a45c82167e4f25ac3d3e7f8a2beae9d10b1ba07a94a0905f90a250565b6001546001600160a01b03163314610dfe5760405162461bcd60e51b815260206004820152600f60248201526e27b7363c9030b3b3b932b3b0ba37b960891b6044820152606401610509565b6001600160a01b0381165f908152600760205260408120805491610e21836111f8565b90915550506001600160a01b0381165f818152600760209081526040918290205491519182527f7e1e2bbb910c7ff21f0b32e7c6d3a7d4cb1257a3197dea19b1b6c21e9cd5d8cc910160405180910390a250565b5f546001600160a01b031633146107955760405163118cdaa760e01b8152336004820152602401610509565b5f80546001600160a01b038381166001600160a01b0319831681178455604051919092169283917f8be0079c531659141344cd1fd0a4f28419497f9722a3daafe3b4186f6b6457e09190a35050565b80356001600160a01b0381168114610f06575f80fd5b919050565b5f8083601f840112610f1b575f80fd5b50813567ffffffffffffffff811115610f32575f80fd5b602083019150836020828501011115610f49575f80fd5b9250929050565b5f805f60408486031215610f62575f80fd5b610f6b84610ef0565b9250602084013567ffffffffffffffff811115610f86575f80fd5b610f9286828701610f0b565b9497909650939450505050565b5f60208284031215610faf575f80fd5b610fb882610ef0565b9392505050565b5f8060208385031215610fd0575f80fd5b823567ffffffffffffffff811115610fe6575f80fd5b610ff285828601610f0b565b90969095509350505050565b602080825282518282018190525f9190848201906040850190845b8181101561103e5783516001600160a01b031683529284019291840191600101611019565b50909695505050505050565b634e487b7160e01b5f52604160045260245ffd5b5f82601f83011261106d575f80fd5b813567ffffffffffffffff808211156110885761108861104a565b604051601f8301601f19908116603f011681019082821181831017156110b0576110b061104a565b816040528381528660208588010111156110c8575f80fd5b836020870160208301375f602085830101528094505050505092915050565b5f80604083850312156110f8575f80fd5b61110183610ef0565b9150602083013567ffffffffffffffff81111561111c575f80fd5b6111288582860161105e565b9150509250929050565b5f8060408385031215611143575f80fd5b61114c83610ef0565b915060208301358015158114611160575f80fd5b809150509250929050565b5f806040838503121561117c575f80fd5b61118583610ef0565b946020939093013593505050565b5f80604083850312156111a4575f80fd5b823567ffffffffffffffff8111156111ba575f80fd5b6111c68582860161105e565b95602094909401359450505050565b818382375f9101908152919050565b634e487b7160e01b5f52601160045260245ffd5b5f60018201611209576112096111e4565b5060010190565b5f8261122a57634e487b7160e01b5f52601260045260245ffd5b500490565b8181038181111561077e5761077e6111e4565b8082018082111561077e5761077e6111e456fea26469706673582212201db66282cb5ac95130c186197327840e6bd4a150b0ad3f40bfb912811d93dbf064736f6c63430008140033",
        "nonce": "0x70",
        "chainId": "0xaa02"
      },
      "additionalContracts": [],
      "isFixedGasLimit": false
    },
    {
      "hash": "0x0e3f9f8f011929d59c3b7d105d543ebcd29e577483ab3efe0501a9aee16798b6",
      "transactionType": "CREATE",
      "contractName": "MTokenDistributor",
      "contractAddress": "0x8a8d38a9322d8d836415d8e8c8fc8fe8358d8a85",
      "function": null,
      "arguments": [
        "0x695ec0e49E2e69dF5Ea1Ce6C061A6DcC55978641",
        "0x07Aa8b1f50176A6783f5C710c0802f8871000920",
        "0xC81536da58b4b2e4ff433FE511bF0e035576eC15"
      ],
      "transaction": {
        "from": "0x95ed40013cb3990013af947a635d1a3e31057426",
        "gas": "0x1863fd",
        "value": "0x0",
        "input": "0x608060405234801562000010575f80fd5b50604051620014ab380380620014ab83398101604081905262000033916200021c565b33806200005a57604051631e4fbdf760e01b81525f60048201526024015b60405180910390fd5b6200006581620001b1565b5060017f9b779b17422d0df92223018b32b4d1fa46e071723d6817e2486d003becc55f00556001600160a01b038316620000d45760405162461bcd60e51b815260206004820152600f60248201526e24b73b30b634b21026903a37b5b2b760891b604482015260640162000051565b6001600160a01b0382166200011f5760405162461bcd60e51b815260206004820152601060248201526f496e76616c696420726567697374727960801b604482015260640162000051565b6001600160a01b038116620001685760405162461bcd60e51b815260206004820152600e60248201526d496e76616c696420636f6e66696760901b604482015260640162000051565b600180546001600160a01b038086166001600160a01b03199283161783556002805486831690841617905560038054918516919092161790556005554260065550505062000263565b5f80546001600160a01b038381166001600160a01b0319831681178455604051919092169283917f8be0079c531659141344cd1fd0a4f28419497f9722a3daafe3b4186f6b6457e09190a35050565b80516001600160a01b038116811462000217575f80fd5b919050565b5f805f606084860312156200022f575f80fd5b6200023a8462000200565b92506200024a6020850162000200565b91506200025a6040850162000200565b90509250925092565b61123a80620002715f395ff3fe608060405234801561000f575f80fd5b5060043610610187575f3560e01c8063715018a6116100d9578063a14bcf6d11610093578063d0bb0fbe1161006e578063d0bb0fbe1461038c578063f2fde38b146103b7578063f60ca641146103ca578063f9120af6146103d3575f80fd5b8063a14bcf6d1461033c578063afcb002e14610366578063c3b6f93914610379575f80fd5b8063715018a6146102e057806376671808146102e857806379203dc4146102f157806379502c55146102fa5780638da5cb5b1461030d5780639b9318c41461031d575f80fd5b80631852e8d91161014457806347c3c6b41161011f57806347c3c6b41461028857806348cff27f1461029b578063533f852e146102ae5780635beed98f146102c1575f80fd5b80631852e8d91461025a578063245a7bfc1461026d5780633aab0a6214610280575f80fd5b8063027a896e1461018b57806306f46166146101be5780630962ef79146101d45780630d1cfcae146101e95780630d25320c14610214578063120aa8771461021d575b5f80fd5b61019e610199366004610f45565b6103e6565b604080519384526020840192909252908201526060015b60405180910390f35b6101c661047b565b6040519081526020016101b5565b6101e76101e2366004610f5e565b61051e565b005b6002546101fc906001600160a01b031681565b6040516001600160a01b0390911681526020016101b5565b6101c6600d5481565b61024a61022b366004610f75565b600960209081525f928352604080842090915290825290205460ff1681565b60405190151581526020016101b5565b6101c6610268366004610f9f565b610767565b6004546101fc906001600160a01b031681565b6101e761087a565b6101e7610296366004610f5e565b610a14565b6101e76102a9366004610f9f565b610a21565b6101c66102bc366004610f9f565b610b36565b6101c66102cf366004610f5e565b600b6020525f908152604090205481565b6101e7610b78565b6101c660055481565b6101c6600c5481565b6003546101fc906001600160a01b031681565b5f546001600160a01b03166101fc565b6101c661032b366004610f5e565b60076020525f908152604090205481565b6101c661034a366004610f75565b600860209081525f928352604080842090915290825290205481565b6101e7610374366004610fc7565b610b8b565b6001546101fc906001600160a01b031681565b6101c661039a36600461104c565b8051602081830181018051600a8252928201919093012091525481565b6101e76103c5366004610f45565b610c05565b6101c660065481565b6101e76103e1366004610f45565b610c3f565b6005545f9081526008602090815260408083206001600160a01b038581168086529190935281842054600254925163e5e666b160e01b81526004810192909252928492169063e5e666b190602401602060405180830381865afa15801561044f573d5f803e3d5ffd5b505050506040513d601f19601f8201168201806040525081019061047391906110f7565b929491935050565b5f8060035f9054906101000a90046001600160a01b03166001600160a01b0316634ff0876a6040518163ffffffff1660e01b8152600401602060405180830381865afa1580156104cd573d5f803e3d5ffd5b505050506040513d601f19601f820116820180604052508101906104f191906110f7565b6006546104fe9190611122565b905080421061050e575f91505090565b6105184282611135565b91505090565b610526610cb4565b600554811061056e5760405162461bcd60e51b815260206004820152600f60248201526e115c1bd8da081b9bdd08195b991959608a1b60448201526064015b60405180910390fd5b5f81815260096020908152604080832033845290915290205460ff16156105c95760405162461bcd60e51b815260206004820152600f60248201526e105b1c9958591e4818db185a5b5959608a1b6044820152606401610565565b5f8181526008602090815260408083203384529091529020546106215760405162461bcd60e51b815260206004820152601060248201526f4e6f20636f6e747269627574696f6e7360801b6044820152606401610565565b5f61062c3383610767565b90505f811161066a5760405162461bcd60e51b815260206004820152600a6024820152694e6f207265776172647360b01b6044820152606401610565565b5f8281526009602090815260408083203384529091528120805460ff19166001179055600d805483929061069f908490611122565b90915550506001546040516340c10f1960e01b8152336004820152602481018390526001600160a01b03909116906340c10f19906044015f604051808303815f87803b1580156106ed575f80fd5b505af11580156106ff573d5f803e3d5ffd5b50506040518381528492503391507ff01da32686223933d8a18a391060918c7f11a3648639edd87ae013e2e27317439060200160405180910390a35061076460017f9b779b17422d0df92223018b32b4d1fa46e071723d6817e2486d003becc55f0055565b50565b5f8181526008602090815260408083206001600160a01b0386168452825280832054848452600790925282205480158061079f575081155b156107ae575f92505050610874565b5f816107bc84612710611148565b6107c6919061115f565b60025460405163e5e666b160e01b81526001600160a01b0389811660048301529293505f929091169063e5e666b190602401602060405180830381865afa158015610813573d5f803e3d5ffd5b505050506040513d601f19601f8201168201806040525081019061083791906110f7565b5f878152600b60205260409020549091506305f5e100826108588584611148565b6108629190611148565b61086c919061115f565b955050505050505b92915050565b610882610ce2565b60035f9054906101000a90046001600160a01b03166001600160a01b0316634ff0876a6040518163ffffffff1660e01b8152600401602060405180830381865afa1580156108d2573d5f803e3d5ffd5b505050506040513d601f19601f820116820180604052508101906108f691906110f7565b6006546109039190611122565b4210156109445760405162461bcd60e51b815260206004820152600f60248201526e115c1bd8da081b9bdd08195b991959608a1b6044820152606401610565565b5f61094d610d0e565b6005545f908152600b60205260408082208390556002548151634ac77ebd60e11b815291519394506001600160a01b03169263958efd7a9260048084019391929182900301818387803b1580156109a2575f80fd5b505af11580156109b4573d5f803e3d5ffd5b505060058054925090505f6109c88361117e565b9091555050426006819055600554604080519283526020830184905290917f3bb7b347508b7c148ec2094ac60d2e3d8b7595421025643f08b45cb78b326b58910160405180910390a250565b610a1c610ce2565b600c55565b6004546001600160a01b03163314610a6d5760405162461bcd60e51b815260206004820152600f60248201526e27b7363c9030b3b3b932b3b0ba37b960891b6044820152606401610565565b6005545f9081526008602090815260408083206001600160a01b038616845290915281208054839290610aa1908490611122565b90915550506005545f9081526007602052604081208054839290610ac6908490611122565b90915550506040805160055483825260208201527fc5d2460186f7233c927e7db2dcc703c0e500b653ca82273b7bfad8045d85a470916001600160a01b038516917f3370b5ef195f8e20c1a618f8f3748c32fe720dfcafcdfaa9617ca2f1c028ea6c910160405180910390a35050565b5f8181526009602090815260408083206001600160a01b038616845290915281205460ff1615610b6757505f610874565b610b718383610767565b9392505050565b610b80610ce2565b610b895f610e99565b565b610b93610ce2565b80600a8484604051610ba6929190611196565b90815260405190819003602001812091909155610bc69084908490611196565b604051908190038120828252907f67e87062ca26aa935ffba6e1010eb008e734e1d28e84fcd5469f9dd116deffec9060200160405180910390a2505050565b610c0d610ce2565b6001600160a01b038116610c3657604051631e4fbdf760e01b81525f6004820152602401610565565b61076481610e99565b610c47610ce2565b6001600160a01b038116610c925760405162461bcd60e51b815260206004820152601260248201527124b73b30b634b21030b3b3b932b3b0ba37b960711b6044820152606401610565565b600480546001600160a01b0319166001600160a01b0392909216919091179055565b610cbc610ee8565b60027f9b779b17422d0df92223018b32b4d1fa46e071723d6817e2486d003becc55f0055565b5f546001600160a01b03163314610b895760405163118cdaa760e01b8152336004820152602401610565565b6040805161012081018252600360e082018181526242544360e81b610100840152825282518084018452600480825263444f474560e01b6020838101919091528085019290925284518086018652818152635045504560e01b8184015284860152845180860186528181526329a424a160e11b818401526060850152845180860186526005815264464c4f4b4960d81b81840152608085015284518086018652928352622ba4a360e91b8383015260a0840192909252835180850190945290835263424f4e4b60e01b9083015260c08101919091525f9081805b6007811015610e92576003546001600160a01b0316638f3c5200848360078110610e1457610e146111a5565b60200201516040518263ffffffff1660e01b8152600401610e3591906111b9565b602060405180830381865afa158015610e50573d5f803e3d5ffd5b505050506040513d601f19601f82011682018060405250810190610e7491906110f7565b610e7e9083611122565b915080610e8a8161117e565b915050610de8565b5092915050565b5f80546001600160a01b038381166001600160a01b0319831681178455604051919092169283917f8be0079c531659141344cd1fd0a4f28419497f9722a3daafe3b4186f6b6457e09190a35050565b7f9b779b17422d0df92223018b32b4d1fa46e071723d6817e2486d003becc55f0054600203610b8957604051633ee5aeb560e01b815260040160405180910390fd5b80356001600160a01b0381168114610f40575f80fd5b919050565b5f60208284031215610f55575f80fd5b610b7182610f2a565b5f60208284031215610f6e575f80fd5b5035919050565b5f8060408385031215610f86575f80fd5b82359150610f9660208401610f2a565b90509250929050565b5f8060408385031215610fb0575f80fd5b610fb983610f2a565b946020939093013593505050565b5f805f60408486031215610fd9575f80fd5b833567ffffffffffffffff80821115610ff0575f80fd5b818601915086601f830112611003575f80fd5b813581811115611011575f80fd5b876020828501011115611022575f80fd5b6020928301989097509590910135949350505050565b634e487b7160e01b5f52604160045260245ffd5b5f6020828403121561105c575f80fd5b813567ffffffffffffffff80821115611073575f80fd5b818401915084601f830112611086575f80fd5b81358181111561109857611098611038565b604051601f8201601f19908116603f011681019083821181831017156110c0576110c0611038565b816040528281528760208487010111156110d8575f80fd5b826020860160208301375f928101602001929092525095945050505050565b5f60208284031215611107575f80fd5b5051919050565b634e487b7160e01b5f52601160045260245ffd5b808201808211156108745761087461110e565b818103818111156108745761087461110e565b80820281158282048414176108745761087461110e565b5f8261117957634e487b7160e01b5f52601260045260245ffd5b500490565b5f6001820161118f5761118f61110e565b5060010190565b818382375f9101908152919050565b634e487b7160e01b5f52603260045260245ffd5b5f6020808352835180828501525f5b818110156111e4578581018301518582016040015282016111c8565b505f604082860101526040601f19601f830116850101925050509291505056fea264697066735822122070fa77490a3050b595cdeca331983d67da79ed894ebfe4673dbf7c5d4073cdc264736f6c63430008140033000000000000000000000000695ec0e49e2e69df5ea1ce6c061a6dcc5597864100000000000000000000000007aa8b1f50176a6783f5c710c0802f8871000920000000000000000000000000c81536da58b4b2e4ff433fe511bf0e035576ec15",
        "nonce": "0x71",
        "chainId": "0xaa02"
      },
      "additionalContracts": [],
      "isFixedGasLimit": false
    },
    {
      "hash": "0x93d485293f47b038e59c7d993cc22ed4ef75b3e0ab20fd4d29e641b9d075487d",
      "transactionType": "CREATE",
      "contractName": "Aggregator",
      "contractAddress": "0xc055b2220675d7b0cccf0919bfd8753a26a0843f",
      "function": null,
      "arguments": [
        "0x695ec0e49E2e69dF5Ea1Ce6C061A6DcC55978641",
        "0x8a8d38a9322d8d836415d8e8C8fc8fE8358D8a85",
        "0xC81536da58b4b2e4ff433FE511bF0e035576eC15"
      ],
      "transaction": {
        "from": "0x95ed40013cb3990013af947a635d1a3e31057426",
        "gas": "0x1f62d9",
        "value": "0x0",
        "input": "0x608060405234801562000010575f80fd5b5060405162001b8d38038062001b8d8339810160408190526200003391620001cc565b33806200005a57604051631e4fbdf760e01b81525f60048201526024015b60405180910390fd5b620000658162000161565b5060017f9b779b17422d0df92223018b32b4d1fa46e071723d6817e2486d003becc55f00556001600160a01b038316620000d55760405162461bcd60e51b815260206004820152601060248201526f496e76616c696420726567697374727960801b604482015260640162000051565b6001600160a01b0381166200011e5760405162461bcd60e51b815260206004820152600e60248201526d496e76616c696420636f6e66696760901b604482015260640162000051565b600180546001600160a01b039485166001600160a01b03199182161790915560028054938516938216939093179092556003805491909316911617905562000213565b5f80546001600160a01b038381166001600160a01b0319831681178455604051919092169283917f8be0079c531659141344cd1fd0a4f28419497f9722a3daafe3b4186f6b6457e09190a35050565b80516001600160a01b0381168114620001c7575f80fd5b919050565b5f805f60608486031215620001df575f80fd5b620001ea84620001b0565b9250620001fa60208501620001b0565b91506200020a60408501620001b0565b90509250925092565b61196c80620002215f395ff3fe608060405234801561000f575f80fd5b50600436106100fb575f3560e01c80638da5cb5b11610093578063d52195d511610063578063d52195d514610291578063e3640735146102a4578063f2fde38b146102b7578063f3b3347e146102ca575f80fd5b80638da5cb5b1461022757806393a2295d14610237578063b37a00491461024a578063cb8ae86c1461025d575f80fd5b80636ca276e8116100ce5780636ca276e8146101d7578063715018a6146101f757806375619ab51461020157806379502c5514610214575f80fd5b806302b3bfbb146100ff5780630d1cfcae1461015d5780632f764644146101885780633e07d751146101ba575b5f80fd5b61011261010d36600461142b565b6102dd565b6040805197885260208801969096529315159486019490945260ff9091166060850152608084015260a08301919091526001600160a01b031660c082015260e0015b60405180910390f35b600154610170906001600160a01b031681565b6040516001600160a01b039091168152602001610154565b6101aa61019636600461146d565b60066020525f908152604090205460ff1681565b6040519015158152602001610154565b6101c9678ac7230489e8000081565b604051908152602001610154565b6101ea6101e53660046114c9565b610352565b6040516101549190611511565b6101ff6104f4565b005b6101ff61020f3660046115bb565b610507565b600354610170906001600160a01b031681565b5f546001600160a01b0316610170565b6101c96102453660046115db565b610531565b600254610170906001600160a01b031681565b61017061026b36600461161a565b80516020818301810180516004825292820191909301209152546001600160a01b031681565b6101c961029f3660046115db565b61055d565b6101ff6102b2366004611654565b61081e565b6101ff6102c53660046115bb565b611190565b6101ff6102d83660046116be565b6111cd565b81516020818401810180516005825292820191850191909120919052805482908110610307575f80fd5b5f91825260209091206006909102018054600182015460028301546003840154600485015460059095015493965091945060ff8082169461010090920416926001600160a01b031687565b60605f6005858560405161036792919061170e565b908152602001604051809103902090505f83828054905010610389578361038c565b81545b90505f8167ffffffffffffffff8111156103a8576103a861138e565b60405190808252806020026020018201604052801561040d57816020015b6040805160e0810182525f8082526020808301829052928201819052606082018190526080820181905260a0820181905260c082015282525f199092019101816103c65790505b5090505f5b828110156104e95783548490829061042b908690611731565b6104359190611744565b8154811061044557610445611757565b5f9182526020918290206040805160e081018252600690930290910180548352600181015493830193909352600283015460ff808216151592840192909252610100900416606082015260038201546080820152600482015460a08201526005909101546001600160a01b031660c082015282518390839081106104cb576104cb611757565b602002602001018190525080806104e19061176b565b915050610412565b509695505050505050565b6104fc6112a3565b6105055f6112cf565b565b61050f6112a3565b600280546001600160a01b0319166001600160a01b0392909216919091179055565b5f6005838360405161054492919061170e565b9081526040519081900360200190205490505b92915050565b5f806005848460405161057192919061170e565b9081526040519081900360200190208054909150806105ce5760405162461bcd60e51b81526020600482015260146024820152734e6f207570646174657320617661696c61626c6560601b60448201526064015b60405180910390fd5b5f805f5b838110156107b9575f8582815481106105ed576105ed611757565b5f91825260208083206040805160e0810182526006949094029091018054845260018082015493850193909352600281015460ff8082161515868501526101009091041660608501526003810154608085015260048082015460a08601526005909101546001600160a01b0390811660c086018190529354925163e5e666b160e01b815291820193909352929450169063e5e666b190602401602060405180830381865afa1580156106a1573d5f803e3d5ffd5b505050506040513d601f19601f820116820180604052508101906106c59190611783565b90505f60035f9054906101000a90046001600160a01b03166001600160a01b03166332d9c0ce6040518163ffffffff1660e01b8152600401602060405180830381865afa158015610718573d5f803e3d5ffd5b505050506040513d601f19601f8201168201806040525081019061073c9190611783565b90508082101561074a578091505b5f612710846060015160ff16848660200151610766919061179a565b610770919061179a565b61077a91906117b1565b845190915061078a90829061179a565b6107949088611744565b96506107a08187611744565b95505050505080806107b19061176b565b9150506105d2565b50805f036108095760405162461bcd60e51b815260206004820152601a60248201527f4e6f2076616c6964207570646174657320666f7220564357415000000000000060448201526064016105c5565b61081381836117b1565b979650505050505050565b61082661131e565b336001600160a01b0385161461088a5760405162461bcd60e51b815260206004820152602360248201527f43616c6c6572206d757374206265207468652072656769737465726564206167604482015262195b9d60ea1b60648201526084016105c5565b600154604051630a50339160e21b81526001600160a01b0390911690632940ce44906108be908790879087906004016117d0565b602060405180830381865afa1580156108d9573d5f803e3d5ffd5b505050506040513d601f19601f820116820180604052508101906108fd919061181c565b6109405760405162461bcd60e51b81526020600482015260146024820152731059d95b9d081b9bdd081c9959da5cdd195c995960621b60448201526064016105c5565b5f8160200135116109885760405162461bcd60e51b81526020600482015260126024820152710566f6c756d65206d757374206265203e20360741b60448201526064016105c5565b678ac7230489e80000816020013511156109d65760405162461bcd60e51b815260206004820152600f60248201526e0acded8eadaca40e8dede40d0d2ced608b1b60448201526064016105c5565b5f6109e76080830160608401611847565b60ff1611610a2e5760405162461bcd60e51b815260206004820152601460248201527304c65766572616765206d757374206265203e20360641b60448201526064016105c5565b4281608001351115610a755760405162461bcd60e51b815260206004820152601060248201526f04675747572652074696d657374616d760841b60448201526064016105c5565b60a08101355f9081526006602052604090205460ff1615610acc5760405162461bcd60e51b8152602060048201526011602482015270105b1c9958591e481c1c9bd8d95cdcd959607a1b60448201526064016105c5565b5f6001600160a01b031660048484604051610ae892919061170e565b908152604051908190036020019020546001600160a01b031603610b3f5760405162461bcd60e51b815260206004820152600e60248201526d11995959081b9bdd08199bdd5b9960921b60448201526064016105c5565b60a08101355f908152600660205260408120805460ff19166001179055610b6b36839003830183611860565b6001600160a01b03861660c0820152604051909150600590610b90908690869061170e565b9081526040805191829003602090810183208054600181810183555f9283528383208751600690930201918255868401519082015585840151600282018054606089015160ff166101000261ff00199315159390931661ffff1990911617919091179055608086015160038083019190915560a087015160048084019190915560c0880151600590930180546001600160a01b039485166001600160a01b031990911617905590546306a46fa760e41b8752945192959490911693636a46fa709382820193909290918290030181865afa158015610c70573d5f803e3d5ffd5b505050506040513d601f19601f82011682018060405250810190610c949190611783565b90508060058686604051610ca992919061170e565b908152604051908190036020019020541115610e95575f5b600160058787604051610cd592919061170e565b90815260405190819003602001902054610cef9190611731565b811015610e185760058686604051610d0892919061170e565b908152604051908190036020019020610d22826001611744565b81548110610d3257610d32611757565b905f5260205f20906006020160058787604051610d5092919061170e565b90815260200160405180910390208281548110610d6f57610d6f611757565b5f918252602090912082546006909202019081556001808301549082015560028083018054918301805460ff938416151560ff1982168117835592546101009081900490941690930261ff001990921661ffff19909316929092171790556003808301549082015560048083015490820155600591820154910180546001600160a01b0319166001600160a01b0390921691909117905580610e108161176b565b915050610cc1565b5060058585604051610e2b92919061170e565b9081526020016040518091039020805480610e4857610e486118f6565b5f8281526020812060065f19909301928302018181556001810182905560028101805461ffff1916905560038101829055600481019190915560050180546001600160a01b031916905590555b60015460405163feabe7bf60e01b81526001600160a01b0388811660048301529091169063feabe7bf906024015f604051808303815f87803b158015610ed9575f80fd5b505af1158015610eeb573d5f803e3d5ffd5b505050505f610efa868661055d565b905060048686604051610f0e92919061170e565b90815260405190819003602001812054636273a25160e01b8252600482018390524260248301526001600160a01b031690636273a251906044015f604051808303815f87803b158015610f5f575f80fd5b505af1158015610f71573d5f803e3d5ffd5b50506002546001600160a01b03161591506110759050576002546040516001600160a01b038981166024830152602087013560448301525f92169060640160408051601f198184030181529181526020820180516001600160e01b03166348cff27f60e01b17905251610fe4919061190a565b5f604051808303815f865af19150503d805f811461101d576040519150601f19603f3d011682016040523d82523d5f602084013e611022565b606091505b50509050806110735760405162461bcd60e51b815260206004820152601760248201527f4469737472696275746f722063616c6c206661696c656400000000000000000060448201526064016105c5565b505b858560405161108592919061170e565b6040805191829003822086358352602080880135908401526080808801358484015260a08801356060850152915190926001600160a01b038b16927fa497fbb1d4e9f1b0b222d00edcac5a6cb5a96385abf437a7d5bda16ff0a8e82c92918290030190a385856040516110f992919061170e565b60405180910390207f7ef7f833d43bb516e267595b38b132a56879620249ce3a563c8149695438540f826005898960405161113592919061170e565b90815260405190819003602001812054611156928252602082015260400190565b60405180910390a250505061118a60017f9b779b17422d0df92223018b32b4d1fa46e071723d6817e2486d003becc55f0055565b50505050565b6111986112a3565b6001600160a01b0381166111c157604051631e4fbdf760e01b81525f60048201526024016105c5565b6111ca816112cf565b50565b6111d56112a3565b6001600160a01b0381166112205760405162461bcd60e51b8152602060048201526012602482015271125b9d985b1a59081c1c9a58d9481999595960721b60448201526064016105c5565b806004848460405161123392919061170e565b90815260405190819003602001812080546001600160a01b039384166001600160a01b03199091161790559082169061126f908590859061170e565b604051908190038120907fdf04234d4adad453c202a56aae343d791761210eb89d2d72fd2ff7102d8d3186905f90a3505050565b5f546001600160a01b031633146105055760405163118cdaa760e01b81523360048201526024016105c5565b5f80546001600160a01b038381166001600160a01b0319831681178455604051919092169283917f8be0079c531659141344cd1fd0a4f28419497f9722a3daafe3b4186f6b6457e09190a35050565b61132661134c565b60027f9b779b17422d0df92223018b32b4d1fa46e071723d6817e2486d003becc55f0055565b7f9b779b17422d0df92223018b32b4d1fa46e071723d6817e2486d003becc55f005460020361050557604051633ee5aeb560e01b815260040160405180910390fd5b634e487b7160e01b5f52604160045260245ffd5b5f82601f8301126113b1575f80fd5b813567ffffffffffffffff808211156113cc576113cc61138e565b604051601f8301601f19908116603f011681019082821181831017156113f4576113f461138e565b8160405283815286602085880101111561140c575f80fd5b836020870160208301375f602085830101528094505050505092915050565b5f806040838503121561143c575f80fd5b823567ffffffffffffffff811115611452575f80fd5b61145e858286016113a2565b95602094909401359450505050565b5f6020828403121561147d575f80fd5b5035919050565b5f8083601f840112611494575f80fd5b50813567ffffffffffffffff8111156114ab575f80fd5b6020830191508360208285010111156114c2575f80fd5b9250929050565b5f805f604084860312156114db575f80fd5b833567ffffffffffffffff8111156114f1575f80fd5b6114fd86828701611484565b909790965060209590950135949350505050565b602080825282518282018190525f919060409081850190868401855b828110156115935781518051855286810151878601528581015115158686015260608082015160ff16908601526080808201519086015260a0808201519086015260c0908101516001600160a01b03169085015260e0909301929085019060010161152d565b5091979650505050505050565b80356001600160a01b03811681146115b6575f80fd5b919050565b5f602082840312156115cb575f80fd5b6115d4826115a0565b9392505050565b5f80602083850312156115ec575f80fd5b823567ffffffffffffffff811115611602575f80fd5b61160e85828601611484565b90969095509350505050565b5f6020828403121561162a575f80fd5b813567ffffffffffffffff811115611640575f80fd5b61164c848285016113a2565b949350505050565b5f805f80848603610120811215611669575f80fd5b611672866115a0565b9450602086013567ffffffffffffffff81111561168d575f80fd5b61169988828901611484565b90955093505060e0603f19820112156116b0575f80fd5b509295919450926040019150565b5f805f604084860312156116d0575f80fd5b833567ffffffffffffffff8111156116e6575f80fd5b6116f286828701611484565b90945092506117059050602085016115a0565b90509250925092565b818382375f9101908152919050565b634e487b7160e01b5f52601160045260245ffd5b818103818111156105575761055761171d565b808201808211156105575761055761171d565b634e487b7160e01b5f52603260045260245ffd5b5f6001820161177c5761177c61171d565b5060010190565b5f60208284031215611793575f80fd5b5051919050565b80820281158282048414176105575761055761171d565b5f826117cb57634e487b7160e01b5f52601260045260245ffd5b500490565b6001600160a01b03841681526040602082018190528101829052818360608301375f818301606090810191909152601f909201601f1916010192915050565b80151581146111ca575f80fd5b5f6020828403121561182c575f80fd5b81516115d48161180f565b803560ff811681146115b6575f80fd5b5f60208284031215611857575f80fd5b6115d482611837565b5f60e08284031215611870575f80fd5b60405160e0810181811067ffffffffffffffff821117156118935761189361138e565b8060405250823581526020830135602082015260408301356118b48161180f565b60408201526118c560608401611837565b60608201526080830135608082015260a083013560a08201526118ea60c084016115a0565b60c08201529392505050565b634e487b7160e01b5f52603160045260245ffd5b5f82515f5b81811015611929576020818601810151858301520161190f565b505f92019182525091905056fea2646970667358221220bb2fa122d89214b5a769e31011ddef4f2fe9a707753bed7f0ebf474c9ee2ad6264736f6c63430008140033000000000000000000000000695ec0e49e2e69df5ea1ce6c061a6dcc559786410000000000000000000000008a8d38a9322d8d836415d8e8c8fc8fe8358d8a85000000000000000000000000c81536da58b4b2e4ff433fe511bf0e035576ec15",
        "nonce": "0x72",
        "chainId": "0xaa02"
      },
      "additionalContracts": [],
      "isFixedGasLimit": false
    },
    {
      "hash": "0xf9d59c99bd6025f6ba055c1b231104c641a615463435281b49121b7ac7a90723",
      "transactionType": "CALL",
      "contractName": "AgentRegistry",
      "contractAddress": "0x695ec0e49e2e69df5ea1ce6c061a6dcc55978641",
      "function": "setAggregator(address)",
      "arguments": [
        "0xc055B2220675d7B0cCcf0919bFd8753A26A0843F"
      ],
      "transaction": {
        "from": "0x95ed40013cb3990013af947a635d1a3e31057426",
        "to": "0x695ec0e49e2e69df5ea1ce6c061a6dcc55978641",
        "gas": "0xff56",
        "value": "0x0",
        "input": "0xf9120af6000000000000000000000000c055b2220675d7b0cccf0919bfd8753a26a0843f",
        "nonce": "0x73",
        "chainId": "0xaa02"
      },
      "additionalContracts": [],
      "isFixedGasLimit": false
    },
    {
      "hash": "0x9517cee4cb3a978ed10e763c447824272a12863b28e70187c024214e6c5be296",
      "transactionType": "CALL",
      "contractName": "AgentRegistry",
      "contractAddress": "0x695ec0e49e2e69df5ea1ce6c061a6dcc55978641",
      "function": "setDistributor(address)",
      "arguments": [
        "0x8a8d38a9322d8d836415d8e8C8fc8fE8358D8a85"
      ],
      "transaction": {
        "from": "0x95ed40013cb3990013af947a635d1a3e31057426",
        "to": "0x695ec0e49e2e69df5ea1ce6c061a6dcc55978641",
        "gas": "0xff59",
        "value": "0x0",
        "input": "0x75619ab50000000000000000000000008a8d38a9322d8d836415d8e8c8fc8fe8358d8a85",
        "nonce": "0x74",
        "chainId": "0xaa02"
      },
      "additionalContracts": [],
      "isFixedGasLimit": false
    },
    {
      "hash": "0x1644430b190dcf82e48e16d8e3b7b30b9a096adf60ae0406f79c5323e539aa54",
      "transactionType": "CALL",
      "contractName": "MTokenDistributor",
      "contractAddress": "0x8a8d38a9322d8d836415d8e8c8fc8fe8358d8a85",
      "function": "setAggregator(address)",
      "arguments": [
        "0xc055B2220675d7B0cCcf0919bFd8753A26A0843F"
      ],
      "transaction": {
        "from": "0x95ed40013cb3990013af947a635d1a3e31057426",
        "to": "0x8a8d38a9322d8d836415d8e8c8fc8fe8358d8a85",
        "gas": "0x107fc",
        "value": "0x0",
        "input": "0xf9120af6000000000000000000000000c055b2220675d7b0cccf0919bfd8753a26a0843f",
        "nonce": "0x75",
        "chainId": "0xaa02"
      },
      "additionalContracts": [],
      "isFixedGasLimit": false
    },
    {
      "hash": "0xd3ebb0868e20dc986c982d2b73d1f090e7c5ae68eb20d16ad94e038d090bbc24",
      "transactionType": "CALL",
      "contractName": "Aggregator",
      "contractAddress": "0xc055b2220675d7b0cccf0919bfd8753a26a0843f",
      "function": "setPriceFeed(string,address)",
      "arguments": [
        "DOGE",
        "0x30490c9239FDc6ff8FEEF84FF6f7B657Ec6882F8"
      ],
      "transaction": {
        "from": "0x95ed40013cb3990013af947a635d1a3e31057426",
        "to": "0xc055b2220675d7b0cccf0919bfd8753a26a0843f",
        "gas": "0x106d8",
        "value": "0x0",
        "input": "0xf3b3347e000000000000000000000000000000000000000000000000000000000000004000000000000000000000000030490c9239fdc6ff8feef84ff6f7b657ec6882f80000000000000000000000000000000000000000000000000000000000000004444f474500000000000000000000000000000000000000000000000000000000",
        "nonce": "0x76",
        "chainId": "0xaa02"
      },
      "additionalContracts": [],
      "isFixedGasLimit": false
    },
    {
      "hash": "0x44778494c5c5cedbe92e1310a967e58767a993cadbdd502b6320fb52124f406b",
      "transactionType": "CALL",
      "contractName": "Aggregator",
      "contractAddress": "0xc055b2220675d7b0cccf0919bfd8753a26a0843f",
      "function": "setPriceFeed(string,address)",
      "arguments": [
        "PEPE",
        "0x5DbD29ca81385606888112288bbAe95f0Eb9f170"
      ],
      "transaction": {
        "from": "0x95ed40013cb3990013af947a635d1a3e31057426",
        "to": "0xc055b2220675d7b0cccf0919bfd8753a26a0843f",
        "gas": "0x106d8",
        "value": "0x0",
        "input": "0xf3b3347e00000000000000000000000000000000000000000000000000000000000000400000000000000000000000005dbd29ca81385606888112288bbae95f0eb9f17000000000000000000000000000000000000000000000000000000000000000045045504500000000000000000000000000000000000000000000000000000000",
        "nonce": "0x77",
        "chainId": "0xaa02"
      },
      "additionalContracts": [],
      "isFixedGasLimit": false
    },
    {
      "hash": "0xeea3811017eff7e0d55219caa9596d99224a6431538c030aa0b67b6bb2395fb7",
      "transactionType": "CALL",
      "contractName": "Aggregator",
      "contractAddress": "0xc055b2220675d7b0cccf0919bfd8753a26a0843f",
      "function": "setPriceFeed(string,address)",
      "arguments": [
        "SHIB",
        "0xa35F2923f8C6a8E9D2F655AB4cfb373864E6cC89"
      ],
      "transaction": {
        "from": "0x95ed40013cb3990013af947a635d1a3e31057426",
        "to": "0xc055b2220675d7b0cccf0919bfd8753a26a0843f",
        "gas": "0x106d8",
        "value": "0x0",
        "input": "0xf3b3347e0000000000000000000000000000000000000000000000000000000000000040000000000000000000000000a35f2923f8c6a8e9d2f655ab4cfb373864e6cc8900000000000000000000000000000000000000000000000000000000000000045348494200000000000000000000000000000000000000000000000000000000",
        "nonce": "0x78",
        "chainId": "0xaa02"
      },
      "additionalContracts": [],
      "isFixedGasLimit": false
    },
    {
      "hash": "0x4c0e39e3ea367fad8a9db1c81c1b73eb09407d3de625f6ad5f206f169febd31e",
      "transactionType": "CALL",
      "contractName": "Aggregator",
      "contractAddress": "0xc055b2220675d7b0cccf0919bfd8753a26a0843f",
      "function": "setPriceFeed(string,address)",
      "arguments": [
        "FLOKI",
        "0xF34772793a37Cab10E13B7fb686f93445e0f4339"
      ],
      "transaction": {
        "from": "0x95ed40013cb3990013af947a635d1a3e31057426",
        "to": "0xc055b2220675d7b0cccf0919bfd8753a26a0843f",
        "gas": "0x106e8",
        "value": "0x0",
        "input": "0xf3b3347e0000000000000000000000000000000000000000000000000000000000000040000000000000000000000000f34772793a37cab10e13b7fb686f93445e0f43390000000000000000000000000000000000000000000000000000000000000005464c4f4b49000000000000000000000000000000000000000000000000000000",
        "nonce": "0x79",
        "chainId": "0xaa02"
      },
      "additionalContracts": [],
      "isFixedGasLimit": false
    },
    {
      "hash": "0x11817c61e66ca4776a7da728ded31334b94f50d3d8ed341af9134410fe71bce2",
      "transactionType": "CALL",
      "contractName": "Aggregator",
      "contractAddress": "0xc055b2220675d7b0cccf0919bfd8753a26a0843f",
      "function": "setPriceFeed(string,address)",
      "arguments": [
        "WIF",
        "0xf11B4128624461839165F46cC3eF30eA84fb4DBC"
      ],
      "transaction": {
        "from": "0x95ed40013cb3990013af947a635d1a3e31057426",
        "to": "0xc055b2220675d7b0cccf0919bfd8753a26a0843f",
        "gas": "0x106c8",
        "value": "0x0",
        "input": "0xf3b3347e0000000000000000000000000000000000000000000000000000000000000040000000000000000000000000f11b4128624461839165f46cc3ef30ea84fb4dbc00000000000000000000000000000000000000000000000000000000000000035749460000000000000000000000000000000000000000000000000000000000",
        "nonce": "0x7a",
        "chainId": "0xaa02"
      },
      "additionalContracts": [],
      "isFixedGasLimit": false
    },
    {
      "hash": "0xb2c90307e4fa83526617f14873df9b538787291a9069da843d0b21a47fea5b53",
      "transactionType": "CALL",
      "contractName": "Aggregator",
      "contractAddress": "0xc055b2220675d7b0cccf0919bfd8753a26a0843f",
      "function": "setPriceFeed(string,address)",
      "arguments": [
        "BONK",
        "0x1e44CFA2C04F9bbe1C612673BC808C214bA04941"
      ],
      "transaction": {
        "from": "0x95ed40013cb3990013af947a635d1a3e31057426",
        "to": "0xc055b2220675d7b0cccf0919bfd8753a26a0843f",
        "gas": "0x106d8",
        "value": "0x0",
        "input": "0xf3b3347e00000000000000000000000000000000000000000000000000000000000000400000000000000000000000001e44cfa2c04f9bbe1c612673bc808c214ba049410000000000000000000000000000000000000000000000000000000000000004424f4e4b00000000000000000000000000000000000000000000000000000000",
        "nonce": "0x7b",
        "chainId": "0xaa02"
      },
      "additionalContracts": [],
      "isFixedGasLimit": false
    },
    {
      "hash": "0x815c02a3db2f73f4a2dd9781047f9963339338bf1eaa03065cd0cc44bc89bb2e",
      "transactionType": "CALL",
      "contractName": "Aggregator",
      "contractAddress": "0xc055b2220675d7b0cccf0919bfd8753a26a0843f",
      "function": "setPriceFeed(string,address)",
      "arguments": [
        "BTC",
        "0xBB906be3676b1d6872cdcA58E336Aea089c698b0"
      ],
      "transaction": {
        "from": "0x95ed40013cb3990013af947a635d1a3e31057426",
        "to": "0xc055b2220675d7b0cccf0919bfd8753a26a0843f",
        "gas": "0x106c8",
        "value": "0x0",
        "input": "0xf3b3347e0000000000000000000000000000000000000000000000000000000000000040000000000000000000000000bb906be3676b1d6872cdca58e336aea089c698b000000000000000000000000000000000000000000000000000000000000000034254430000000000000000000000000000000000000000000000000000000000",
        "nonce": "0x7c",
        "chainId": "0xaa02"
      },
      "additionalContracts": [],
      "isFixedGasLimit": false
    },
    {
      "hash": "0x06242eeaec9b7cdddb2fd77b12008d87d2aa510f982d9868b05885455ecd160f",
      "transactionType": "CALL",
      "contractName": null,
      "contractAddress": "0x30490c9239fdc6ff8feef84ff6f7b657ec6882f8",
      "function": "setAggregator(address)",
      "arguments": [
        "0xc055B2220675d7B0cCcf0919bFd8753A26A0843F"
      ],
      "transaction": {
        "from": "0x95ed40013cb3990013af947a635d1a3e31057426",
        "to": "0x30490c9239fdc6ff8feef84ff6f7b657ec6882f8",
        "gas": "0xa4ea",
        "value": "0x0",
        "input": "0xf9120af6000000000000000000000000c055b2220675d7b0cccf0919bfd8753a26a0843f",
        "nonce": "0x7d",
        "chainId": "0xaa02"
      },
      "additionalContracts": [],
      "isFixedGasLimit": false
    },
    {
      "hash": "0x51b758cbba89317d4714559d7df89a23818ea55dc355c16ed081ba67030e1e21",
      "transactionType": "CALL",
      "contractName": null,
      "contractAddress": "0x5dbd29ca81385606888112288bbae95f0eb9f170",
      "function": "setAggregator(address)",
      "arguments": [
        "0xc055B2220675d7B0cCcf0919bFd8753A26A0843F"
      ],
      "transaction": {
        "from": "0x95ed40013cb3990013af947a635d1a3e31057426",
        "to": "0x5dbd29ca81385606888112288bbae95f0eb9f170",
        "gas": "0xa4ea",
        "value": "0x0",
        "input": "0xf9120af6000000000000000000000000c055b2220675d7b0cccf0919bfd8753a26a0843f",
        "nonce": "0x7e",
        "chainId": "0xaa02"
      },
      "additionalContracts": [],
      "isFixedGasLimit": false
    },
    {
      "hash": "0x78478bd0cd637c4f811db78ea83952e0d3743fcdc7c9e9efdc68878a8c468f3d",
      "transactionType": "CALL",
      "contractName": null,
      "contractAddress": "0xa35f2923f8c6a8e9d2f655ab4cfb373864e6cc89",
      "function": "setAggregator(address)",
      "arguments": [
        "0xc055B2220675d7B0cCcf0919bFd8753A26A0843F"
      ],
      "transaction": {
        "from": "0x95ed40013cb3990013af947a635d1a3e31057426",
        "to": "0xa35f2923f8c6a8e9d2f655ab4cfb373864e6cc89",
        "gas": "0xa4ea",
        "value": "0x0",
        "input": "0xf9120af6000000000000000000000000c055b2220675d7b0cccf0919bfd8753a26a0843f",
        "nonce": "0x7f",
        "chainId": "0xaa02"
      },
      "additionalContracts": [],
      "isFixedGasLimit": false
    },
    {
      "hash": "0x6115c95f72dccc718138c0660ce4328b723a2e7236d3d5792d7719f27a2a954f",
      "transactionType": "CALL",
      "contractName": null,
      "contractAddress": "0xf34772793a37cab10e13b7fb686f93445e0f4339",
      "function": "setAggregator(address)",
      "arguments": [
        "0xc055B2220675d7B0cCcf0919bFd8753A26A0843F"
      ],
      "transaction": {
        "from": "0x95ed40013cb3990013af947a635d1a3e31057426",
        "to": "0xf34772793a37cab10e13b7fb686f93445e0f4339",
        "gas": "0xa4ea",
        "value": "0x0",
        "input": "0xf9120af6000000000000000000000000c055b2220675d7b0cccf0919bfd8753a26a0843f",
        "nonce": "0x80",
        "chainId": "0xaa02"
      },
      "additionalContracts": [],
      "isFixedGasLimit": false
    },
    {
      "hash": "0x97286b31417ee15a817edc6eae1e369ec331a99116559f32091d0dbb255c7e38",
      "transactionType": "CALL",
      "contractName": null,
      "contractAddress": "0xf11b4128624461839165f46cc3ef30ea84fb4dbc",
      "function": "setAggregator(address)",
      "arguments": [
        "0xc055B2220675d7B0cCcf0919bFd8753A26A0843F"
      ],
      "transaction": {
        "from": "0x95ed40013cb3990013af947a635d1a3e31057426",
        "to": "0xf11b4128624461839165f46cc3ef30ea84fb4dbc",
        "gas": "0xa4ea",
        "value": "0x0",
        "input": "0xf9120af6000000000000000000000000c055b2220675d7b0cccf0919bfd8753a26a0843f",
        "nonce": "0x81",
        "chainId": "0xaa02"
      },
      "additionalContracts": [],
      "isFixedGasLimit": false
    },
    {
      "hash": "0x3eac3ac52aa90b319e73216f24accbdf8383c424a1e0a03e50d52f799a5f6c61",
      "transactionType": "CALL",
      "contractName": null,
      "contractAddress": "0x1e44cfa2c04f9bbe1c612673bc808c214ba04941",
      "function": "setAggregator(address)",
      "arguments": [
        "0xc055B2220675d7B0cCcf0919bFd8753A26A0843F"
      ],
      "transaction": {
        "from": "0x95ed40013cb3990013af947a635d1a3e31057426",
        "to": "0x1e44cfa2c04f9bbe1c612673bc808c214ba04941",
        "gas": "0xa4ea",
        "value": "0x0",
        "input": "0xf9120af6000000000000000000000000c055b2220675d7b0cccf0919bfd8753a26a0843f",
        "nonce": "0x82",
        "chainId": "0xaa02"
      },
      "additionalContracts": [],
      "isFixedGasLimit": false
    },
    {
      "hash": "0xd40a69b8b400b5ddef3c7eb5706df25b289166cc903cbc26d15b2d2c471f051e",
      "transactionType": "CALL",
      "contractName": null,
      "contractAddress": "0xbb906be3676b1d6872cdca58e336aea089c698b0",
      "function": "setAggregator(address)",
      "arguments": [
        "0xc055B2220675d7B0cCcf0919bFd8753A26A0843F"
      ],
      "transaction": {
        "from": "0x95ed40013cb3990013af947a635d1a3e31057426",
        "to": "0xbb906be3676b1d6872cdca58e336aea089c698b0",
        "gas": "0xa4ea",
        "value": "0x0",
        "input": "0xf9120af6000000000000000000000000c055b2220675d7b0cccf0919bfd8753a26a0843f",
        "nonce": "0x83",
        "chainId": "0xaa02"
      },
      "additionalContracts": [],
      "isFixedGasLimit": false
    },
    {
      "hash": "0xe25fbdeb0d50161176a067e538bada2c8911962b8fcd1e520593118feda0522f",
      "transactionType": "CALL",
      "contractName": "AgentRegistry",
      "contractAddress": "0x695ec0e49e2e69df5ea1ce6c061a6dcc55978641",
      "function": "registerAgent(address,string)",
      "arguments": [
        "0x95ed40013Cb3990013Af947a635D1A3E31057426",
        "DOGE"
      ],
      "transaction": {
        "from": "0x95ed40013cb3990013af947a635d1a3e31057426",
        "to": "0x695ec0e49e2e69df5ea1ce6c061a6dcc55978641",
        "gas": "0x32299",
        "value": "0x0",
        "input": "0x22b833d800000000000000000000000095ed40013cb3990013af947a635d1a3e3105742600000000000000000000000000000000000000000000000000000000000000400000000000000000000000000000000000000000000000000000000000000004444f474500000000000000000000000000000000000000000000000000000000",
        "nonce": "0x84",
        "chainId": "0xaa02"
      },
      "additionalContracts": [],
      "isFixedGasLimit": false
    },
    {
      "hash": "0x74f64a8c48458e417f4479dc25f18f9882b7dc7bb2c4869ab922e84bd5297645",
      "transactionType": "CALL",
      "contractName": "AgentRegistry",
      "contractAddress": "0x695ec0e49e2e69df5ea1ce6c061a6dcc55978641",
      "function": "registerAgent(address,string)",
      "arguments": [
        "0x95ed40013Cb3990013Af947a635D1A3E31057426",
        "PEPE"
      ],
      "transaction": {
        "from": "0x95ed40013cb3990013af947a635d1a3e31057426",
        "to": "0x695ec0e49e2e69df5ea1ce6c061a6dcc55978641",
        "gas": "0x22522",
        "value": "0x0",
        "input": "0x22b833d800000000000000000000000095ed40013cb3990013af947a635d1a3e31057426000000000000000000000000000000000000000000000000000000000000004000000000000000000000000000000000000000000000000000000000000000045045504500000000000000000000000000000000000000000000000000000000",
        "nonce": "0x85",
        "chainId": "0xaa02"
      },
      "additionalContracts": [],
      "isFixedGasLimit": false
    },
    {
      "hash": "0x44562322a25bf9106756157c5b64092c9916bb458a9a5ee10b551183c0aa3799",
      "transactionType": "CALL",
      "contractName": "AgentRegistry",
      "contractAddress": "0x695ec0e49e2e69df5ea1ce6c061a6dcc55978641",
      "function": "registerAgent(address,string)",
      "arguments": [
        "0x95ed40013Cb3990013Af947a635D1A3E31057426",
        "SHIB"
      ],
      "transaction": {
        "from": "0x95ed40013cb3990013af947a635d1a3e31057426",
        "to": "0x695ec0e49e2e69df5ea1ce6c061a6dcc55978641",
        "gas": "0x22522",
        "value": "0x0",
        "input": "0x22b833d800000000000000000000000095ed40013cb3990013af947a635d1a3e31057426000000000000000000000000000000000000000000000000000000000000004000000000000000000000000000000000000000000000000000000000000000045348494200000000000000000000000000000000000000000000000000000000",
        "nonce": "0x86",
        "chainId": "0xaa02"
      },
      "additionalContracts": [],
      "isFixedGasLimit": false
    },
    {
      "hash": "0x2025e7360165d80a1499e04fec384ae80933efb1baa480165f41a0f53d265d28",
      "transactionType": "CALL",
      "contractName": "AgentRegistry",
      "contractAddress": "0x695ec0e49e2e69df5ea1ce6c061a6dcc55978641",
      "function": "registerAgent(address,string)",
      "arguments": [
        "0x95ed40013Cb3990013Af947a635D1A3E31057426",
        "FLOKI"
      ],
      "transaction": {
        "from": "0x95ed40013cb3990013af947a635d1a3e31057426",
        "to": "0x695ec0e49e2e69df5ea1ce6c061a6dcc55978641",
        "gas": "0x206b0",
        "value": "0x0",
        "input": "0x22b833d800000000000000000000000095ed40013cb3990013af947a635d1a3e3105742600000000000000000000000000000000000000000000000000000000000000400000000000000000000000000000000000000000000000000000000000000005464c4f4b49000000000000000000000000000000000000000000000000000000",
        "nonce": "0x87",
        "chainId": "0xaa02"
      },
      "additionalContracts": [],
      "isFixedGasLimit": false
    },
    {
      "hash": "0xa0b6940b91ad4cae12c2a50943958d9023ac7bd213f9969c8a506dedfd088208",
      "transactionType": "CALL",
      "contractName": "AgentRegistry",
      "contractAddress": "0x695ec0e49e2e69df5ea1ce6c061a6dcc55978641",
      "function": "registerAgent(address,string)",
      "arguments": [
        "0x95ed40013Cb3990013Af947a635D1A3E31057426",
        "WIF"
      ],
      "transaction": {
        "from": "0x95ed40013cb3990013af947a635d1a3e31057426",
        "to": "0x695ec0e49e2e69df5ea1ce6c061a6dcc55978641",
        "gas": "0x2068e",
        "value": "0x0",
        "input": "0x22b833d800000000000000000000000095ed40013cb3990013af947a635d1a3e31057426000000000000000000000000000000000000000000000000000000000000004000000000000000000000000000000000000000000000000000000000000000035749460000000000000000000000000000000000000000000000000000000000",
        "nonce": "0x88",
        "chainId": "0xaa02"
      },
      "additionalContracts": [],
      "isFixedGasLimit": false
    },
    {
      "hash": "0x5d05f5172a6e5b228ea0e45bf063c34d8e401b29685dd345c7668ebacdc1efc6",
      "transactionType": "CALL",
      "contractName": "AgentRegistry",
      "contractAddress": "0x695ec0e49e2e69df5ea1ce6c061a6dcc55978641",
      "function": "registerAgent(address,string)",
      "arguments": [
        "0x95ed40013Cb3990013Af947a635D1A3E31057426",
        "BONK"
      ],
      "transaction": {
        "from": "0x95ed40013cb3990013af947a635d1a3e31057426",
        "to": "0x695ec0e49e2e69df5ea1ce6c061a6dcc55978641",
        "gas": "0x22522",
        "value": "0x0",
        "input": "0x22b833d800000000000000000000000095ed40013cb3990013af947a635d1a3e3105742600000000000000000000000000000000000000000000000000000000000000400000000000000000000000000000000000000000000000000000000000000004424f4e4b00000000000000000000000000000000000000000000000000000000",
        "nonce": "0x89",
        "chainId": "0xaa02"
      },
      "additionalContracts": [],
      "isFixedGasLimit": false
    },
    {
      "hash": "0xe7167a96f93eae8d121bae2ecf5012c38835a39d635bee67ebe7e40a120aebab",
      "transactionType": "CALL",
      "contractName": "AgentRegistry",
      "contractAddress": "0x695ec0e49e2e69df5ea1ce6c061a6dcc55978641",
      "function": "registerAgent(address,string)",
      "arguments": [
        "0x95ed40013Cb3990013Af947a635D1A3E31057426",
        "BTC"
      ],
      "transaction": {
        "from": "0x95ed40013cb3990013af947a635d1a3e31057426",
        "to": "0x695ec0e49e2e69df5ea1ce6c061a6dcc55978641",
        "gas": "0x2068e",
        "value": "0x0",
        "input": "0x22b833d800000000000000000000000095ed40013cb3990013af947a635d1a3e31057426000000000000000000000000000000000000000000000000000000000000004000000000000000000000000000000000000000000000000000000000000000034254430000000000000000000000000000000000000000000000000000000000",
        "nonce": "0x8a",
        "chainId": "0xaa02"
      },
      "additionalContracts": [],
      "isFixedGasLimit": false
    }
  ],
  "receipts": [
    {
      "status": "0x1",
      "cumulativeGasUsed": "0x1135d2",
      "logs": [
        {
          "address": "0x695ec0e49e2e69df5ea1ce6c061a6dcc55978641",
          "topics": [
            "0x8be0079c531659141344cd1fd0a4f28419497f9722a3daafe3b4186f6b6457e0",
            "0x0000000000000000000000000000000000000000000000000000000000000000",
            "0x00000000000000000000000095ed40013cb3990013af947a635d1a3e31057426"
          ],
          "data": "0x",
          "blockHash": "0x3b89bb85cd3ec368c8a0f623537c6d44cc9fa9695730e84bb968be76647711de",
          "blockNumber": "0x2b1871",
          "transactionHash": "0x378a041587b10759c1947035a08da1521cbd97956759fd5395f39db35a741967",
          "transactionIndex": "0x0",
          "logIndex": "0x0",
          "removed": false
        }
      ],
      "logsBloom": "0x000000000000000000000000000000000000000000000000048000000000000000000000000000000000000000000000800000000000000000000000000000000000000000000000000000000000000000010000000000000000000000000000000000000a0000000000000000000800000000000000000000000000000000400000000000000000000000000000000000000000002000000000000000000000000000000000000000000000000000000000000000000000004000000000000000000000000000000000000000000000000000000000000000000000000020000000000000000000000000000000000000000000000000000008000000000000",
      "type": "0x2",
      "transactionHash": "0x378a041587b10759c1947035a08da1521cbd97956759fd5395f39db35a741967",
      "transactionIndex": "0x0",
      "blockHash": "0x3b89bb85cd3ec368c8a0f623537c6d44cc9fa9695730e84bb968be76647711de",
      "blockNumber": "0x2b1871",
      "gasUsed": "0x1135d2",
      "effectiveGasPrice": "0x15d7a926200",
      "from": "0x95ed40013cb3990013af947a635d1a3e31057426",
      "to": null,
      "contractAddress": "0x695ec0e49e2e69df5ea1ce6c061a6dcc55978641"
    },
    {
      "status": "0x1",
      "cumulativeGasUsed": "0x23f8e4",
      "logs": [
        {
          "address": "0x8a8d38a9322d8d836415d8e8c8fc8fe8358d8a85",
          "topics": [
            "0x8be0079c531659141344cd1fd0a4f28419497f9722a3daafe3b4186f6b6457e0",
            "0x0000000000000000000000000000000000000000000000000000000000000000",
            "0x00000000000000000000000095ed40013cb3990013af947a635d1a3e31057426"
          ],
          "data": "0x",
          "blockHash": "0x3b89bb85cd3ec368c8a0f623537c6d44cc9fa9695730e84bb968be76647711de",
          "blockNumber": "0x2b1871",
          "transactionHash": "0x0e3f9f8f011929d59c3b7d105d543ebcd29e577483ab3efe0501a9aee16798b6",
          "transactionIndex": "0x1",
          "logIndex": "0x1",
          "removed": false
        }
      ],
      "logsBloom": "0x000000000000000000000000000000000000000000000800048000000000000000000000000000000000000000000000000000000000000000000000000000000000000000000000000000000000000000010000000000000000000000000000000000000a0000000000000000000800020000000000000000000000000000400000000000000000000000000000000000000000002000000000000000000000000000100000000000000000000000000000000000000000000000000000000000000000000000000000000000000000000000000000000000000000000020000000000000000000000000000000000000000000000000000000000000000000",
      "type": "0x2",
      "transactionHash": "0x0e3f9f8f011929d59c3b7d105d543ebcd29e577483ab3efe0501a9aee16798b6",
      "transactionIndex": "0x1",
      "blockHash": "0x3b89bb85cd3ec368c8a0f623537c6d44cc9fa9695730e84bb968be76647711de",
      "blockNumber": "0x2b1871",
      "gasUsed": "0x12c312",
      "effectiveGasPrice": "0x15d7a926200",
      "from": "0x95ed40013cb3990013af947a635d1a3e31057426",
      "to": null,
      "contractAddress": "0x8a8d38a9322d8d836415d8e8c8fc8fe8358d8a85"
    },
    {
      "status": "0x1",
      "cumulativeGasUsed": "0x3c1d8b",
      "logs": [
        {
          "address": "0xc055b2220675d7b0cccf0919bfd8753a26a0843f",
          "topics": [
            "0x8be0079c531659141344cd1fd0a4f28419497f9722a3daafe3b4186f6b6457e0",
            "0x0000000000000000000000000000000000000000000000000000000000000000",
            "0x00000000000000000000000095ed40013cb3990013af947a635d1a3e31057426"
          ],
          "data": "0x",
          "blockHash": "0x3b89bb85cd3ec368c8a0f623537c6d44cc9fa9695730e84bb968be76647711de",
          "blockNumber": "0x2b1871",
          "transactionHash": "0x93d485293f47b038e59c7d993cc22ed4ef75b3e0ab20fd4d29e641b9d075487d",
          "transactionIndex": "0x2",
          "logIndex": "0x2",
          "removed": false
        }
      ],
      "logsBloom": "0x000000000000000000000000000000000000000000000000048000000000000000000000000000000000000000000000000000000000000000000000010000000000000000000000000000000000000000010000000000000000000000000000000000000a0000000000000000000800000000000000000000000000000000400000000000000000000000000000000000000000002000000000000000000000000000000000000000000000000000000000000000000000000000000000080000000008000000000000000000000000000000000000000000000000000020000000000000000000000000000000000000000000000000000000000000000000",
      "type": "0x2",
      "transactionHash": "0x93d485293f47b038e59c7d993cc22ed4ef75b3e0ab20fd4d29e641b9d075487d",
      "transactionIndex": "0x2",
      "blockHash": "0x3b89bb85cd3ec368c8a0f623537c6d44cc9fa9695730e84bb968be76647711de",
      "blockNumber": "0x2b1871",
      "gasUsed": "0x1824a7",
      "effectiveGasPrice": "0x15d7a926200",
      "from": "0x95ed40013cb3990013af947a635d1a3e31057426",
      "to": null,
      "contractAddress": "0xc055b2220675d7b0cccf0919bfd8753a26a0843f"
    },
    {
      "status": "0x1",
      "cumulativeGasUsed": "0x3cd668",
      "logs": [
        {
          "address": "0x695ec0e49e2e69df5ea1ce6c061a6dcc55978641",
          "topics": [
            "0x94b241e14651a9658c51a45c82167e4f25ac3d3e7f8a2beae9d10b1ba07a94a0",
            "0x000000000000000000000000c055b2220675d7b0cccf0919bfd8753a26a0843f"
          ],
          "data": "0x",
          "blockHash": "0x3b89bb85cd3ec368c8a0f623537c6d44cc9fa9695730e84bb968be76647711de",
          "blockNumber": "0x2b1871",
          "transactionHash": "0xf9d59c99bd6025f6ba055c1b231104c641a615463435281b49121b7ac7a90723",
          "transactionIndex": "0x3",
          "logIndex": "0x3",
          "removed": false
        }
      ],
      "logsBloom": "0x00000000000040000000000000000000000000000000000000000000000000000000000008000000000000000000000080000000000000000000000000000000000000000000000000000000000000000000000000000000000000000000000000000000000000000000000000000000000000000000000000000000000000000000000000000000000000000000000000000000000000000000000000000000000000000000400000000000010000000000000000000000004000000000000000000000000000020000000000000000000000000000000000000000000100000000000000000000000000000000000000000000000000000008000000000000",
      "type": "0x2",
      "transactionHash": "0xf9d59c99bd6025f6ba055c1b231104c641a615463435281b49121b7ac7a90723",
      "transactionIndex": "0x3",
      "blockHash": "0x3b89bb85cd3ec368c8a0f623537c6d44cc9fa9695730e84bb968be76647711de",
      "blockNumber": "0x2b1871",
      "gasUsed": "0xb8dd",
      "effectiveGasPrice": "0x15d7a926200",
      "from": "0x95ed40013cb3990013af947a635d1a3e31057426",
      "to": "0x695ec0e49e2e69df5ea1ce6c061a6dcc55978641",
      "contractAddress": null
    },
    {
      "status": "0x1",
      "cumulativeGasUsed": "0x3d8f47",
      "logs": [
        {
          "address": "0x695ec0e49e2e69df5ea1ce6c061a6dcc55978641",
          "topics": [
            "0x86719c518c7d99ac94b3d405d462ea876ba5cd0a978461dc9a7c9862a9485886",
            "0x0000000000000000000000008a8d38a9322d8d836415d8e8c8fc8fe8358d8a85"
          ],
          "data": "0x",
          "blockHash": "0x3b89bb85cd3ec368c8a0f623537c6d44cc9fa9695730e84bb968be76647711de",
          "blockNumber": "0x2b1871",
          "transactionHash": "0x9517cee4cb3a978ed10e763c447824272a12863b28e70187c024214e6c5be296",
          "transactionIndex": "0x4",
          "logIndex": "0x4",
          "removed": false
        }
      ],
      "logsBloom": "0x00000000000000400000000000000000000000000000000000000000000000000000040000000000000000000000000080000000000000000000000000000000000000000000000000000000000000000000000000000000400000000000000000000000000000000000000000000000000000000000000000000000000000000000000000000000000000100000000000000000000000000000000000000000000000000000000000000000000000000000000000000000004000000000000000000008000000000000000000000000000000000000000000000000000000000000000000000000000000000000000000000800000000000008000000000000",
      "type": "0x2",
      "transactionHash": "0x9517cee4cb3a978ed10e763c447824272a12863b28e70187c024214e6c5be296",
      "transactionIndex": "0x4",
      "blockHash": "0x3b89bb85cd3ec368c8a0f623537c6d44cc9fa9695730e84bb968be76647711de",
      "blockNumber": "0x2b1871",
      "gasUsed": "0xb8df",
      "effectiveGasPrice": "0x15d7a926200",
      "from": "0x95ed40013cb3990013af947a635d1a3e31057426",
      "to": "0x695ec0e49e2e69df5ea1ce6c061a6dcc55978641",
      "contractAddress": null
    },
    {
      "status": "0x1",
      "cumulativeGasUsed": "0x3e43c8",
      "logs": [],
      "logsBloom": "0x00000000000000000000000000000000000000000000000000000000000000000000000000000000000000000000000000000000000000000000000000000000000000000000000000000000000000000000000000000000000000000000000000000000000000000000000000000000000000000000000000000000000000000000000000000000000000000000000000000000000000000000000000000000000000000000000000000000000000000000000000000000000000000000000000000000000000000000000000000000000000000000000000000000000000000000000000000000000000000000000000000000000000000000000000000000",
      "type": "0x2",
      "transactionHash": "0x1644430b190dcf82e48e16d8e3b7b30b9a096adf60ae0406f79c5323e539aa54",
      "transactionIndex": "0x5",
      "blockHash": "0x3b89bb85cd3ec368c8a0f623537c6d44cc9fa9695730e84bb968be76647711de",
      "blockNumber": "0x2b1871",
      "gasUsed": "0xb481",
      "effectiveGasPrice": "0x15d7a926200",
      "from": "0x95ed40013cb3990013af947a635d1a3e31057426",
      "to": "0x8a8d38a9322d8d836415d8e8c8fc8fe8358d8a85",
      "contractAddress": null
    },
    {
      "status": "0x1",
      "cumulativeGasUsed": "0x3f0214",
      "logs": [
        {
          "address": "0xc055b2220675d7b0cccf0919bfd8753a26a0843f",
          "topics": [
            "0xdf04234d4adad453c202a56aae343d791761210eb89d2d72fd2ff7102d8d3186",
            "0x9a3f52b1b31ae58da40209f38379e78c3a0756495a0f585d0b3c84a9e9718f9d",
            "0x00000000000000000000000030490c9239fdc6ff8feef84ff6f7b657ec6882f8"
          ],
          "data": "0x",
          "blockHash": "0x3b89bb85cd3ec368c8a0f623537c6d44cc9fa9695730e84bb968be76647711de",
          "blockNumber": "0x2b1871",
          "transactionHash": "0xd3ebb0868e20dc986c982d2b73d1f090e7c5ae68eb20d16ad94e038d090bbc24",
          "transactionIndex": "0x6",
          "logIndex": "0x5",
          "removed": false
        }
      ],
      "logsBloom": "0x00000000000000000000000000000000000000000000040000000000000000000000000000000000000000000000000000800000004000000000000001000000000000000000000000000000000000000000000000000000000000000000000000000000000000000000000000000000000000000000000000000000000000000000000000000000000000000000000000000000000000000000000000000000000040000001040000000000000000000010000000000000000000000000880000000008000000000000000000000000000000000000000000000000000000000000000000004000000000000000000000000000000000000000000000000000",
      "type": "0x2",
      "transactionHash": "0xd3ebb0868e20dc986c982d2b73d1f090e7c5ae68eb20d16ad94e038d090bbc24",
      "transactionIndex": "0x6",
      "blockHash": "0x3b89bb85cd3ec368c8a0f623537c6d44cc9fa9695730e84bb968be76647711de",
      "blockNumber": "0x2b1871",
      "gasUsed": "0xbe4c",
      "effectiveGasPrice": "0x15d7a926200",
      "from": "0x95ed40013cb3990013af947a635d1a3e31057426",
      "to": "0xc055b2220675d7b0cccf0919bfd8753a26a0843f",
      "contractAddress": null
    },
    {
      "status": "0x1",
      "cumulativeGasUsed": "0x3fc060",
      "logs": [
        {
          "address": "0xc055b2220675d7b0cccf0919bfd8753a26a0843f",
          "topics": [
            "0xdf04234d4adad453c202a56aae343d791761210eb89d2d72fd2ff7102d8d3186",
            "0x608e17bb6814e7eb8d564b13416322f3d8a2dc5e36dde75519945008d7848749",
            "0x0000000000000000000000005dbd29ca81385606888112288bbae95f0eb9f170"
          ],
          "data": "0x",
          "blockHash": "0x3b89bb85cd3ec368c8a0f623537c6d44cc9fa9695730e84bb968be76647711de",
          "blockNumber": "0x2b1871",
          "transactionHash": "0x44778494c5c5cedbe92e1310a967e58767a993cadbdd502b6320fb52124f406b",
          "transactionIndex": "0x7",
          "logIndex": "0x6",
          "removed": false
        }
      ],
      "logsBloom": "0x00000000000000000000000000000000000000000000000000000000000000000000000000000000000000000000000000800000004000000000000001000000000000040000000000000000000000000000000000000000000000000000000000000000000000000000000000000000000000000000000000000010000000000000000000000000000000000010000000000000000000000000000000000000000000000000020000000000000000000000000000000020000000000000080000000008000000000000000000000000000000000000000000020000000000000000000000004000000000000000000000000000000000000000000000000000",
      "type": "0x2",
      "transactionHash": "0x44778494c5c5cedbe92e1310a967e58767a993cadbdd502b6320fb52124f406b",
      "transactionIndex": "0x7",
      "blockHash": "0x3b89bb85cd3ec368c8a0f623537c6d44cc9fa9695730e84bb968be76647711de",
      "blockNumber": "0x2b1871",
      "gasUsed": "0xbe4c",
      "effectiveGasPrice": "0x15d7a926200",
      "from": "0x95ed40013cb3990013af947a635d1a3e31057426",
      "to": "0xc055b2220675d7b0cccf0919bfd8753a26a0843f",
      "contractAddress": null
    },
    {
      "status": "0x1",
      "cumulativeGasUsed": "0x407eac",
      "logs": [
        {
          "address": "0xc055b2220675d7b0cccf0919bfd8753a26a0843f",
          "topics": [
            "0xdf04234d4adad453c202a56aae343d791761210eb89d2d72fd2ff7102d8d3186",
            "0xefa585451ff82e7559b7e4aa3c7d26b394fd121301bbf6f1da4ef6d29210466e",
            "0x000000000000000000000000a35f2923f8c6a8e9d2f655ab4cfb373864e6cc89"
          ],
          "data": "0x",
          "blockHash": "0x3b89bb85cd3ec368c8a0f623537c6d44cc9fa9695730e84bb968be76647711de",
          "blockNumber": "0x2b1871",
          "transactionHash": "0xeea3811017eff7e0d55219caa9596d99224a6431538c030aa0b67b6bb2395fb7",
          "transactionIndex": "0x8",
          "logIndex": "0x7",
          "removed": false
        }
      ],
      "logsBloom": "0x00000000000000000000000000000000000000000000000000000000000000000000000008000000000000000000000000800000004000000000000001000000000000000000000000000000000000000000000000080000000000000000000000000000000000000000000000000000000010000000000000000000000000000000000000000000000000000000000000000000000000000000000000000000000000000000000000000000000000000000000000000000000000000000080000000008000000000000000000000000800000000000000000000000000000800200000000004000000000000000000000000000000000000000000000000000",
      "type": "0x2",
      "transactionHash": "0xeea3811017eff7e0d55219caa9596d99224a6431538c030aa0b67b6bb2395fb7",
      "transactionIndex": "0x8",
      "blockHash": "0x3b89bb85cd3ec368c8a0f623537c6d44cc9fa9695730e84bb968be76647711de",
      "blockNumber": "0x2b1871",
      "gasUsed": "0xbe4c",
      "effectiveGasPrice": "0x15d7a926200",
      "from": "0x95ed40013cb3990013af947a635d1a3e31057426",
      "to": "0xc055b2220675d7b0cccf0919bfd8753a26a0843f",
      "contractAddress": null
    },
    {
      "status": "0x1",
      "cumulativeGasUsed": "0x413d04",
      "logs": [
        {
          "address": "0xc055b2220675d7b0cccf0919bfd8753a26a0843f",
          "topics": [
            "0xdf04234d4adad453c202a56aae343d791761210eb89d2d72fd2ff7102d8d3186",
            "0x4d2685df44ed8d92cd381798ca9d3877ed9fca9a24cbfcf0e5985c253410b371",
            "0x000000000000000000000000f34772793a37cab10e13b7fb686f93445e0f4339"
          ],
          "data": "0x",
          "blockHash": "0x3b89bb85cd3ec368c8a0f623537c6d44cc9fa9695730e84bb968be76647711de",
          "blockNumber": "0x2b1871",
          "transactionHash": "0x4c0e39e3ea367fad8a9db1c81c1b73eb09407d3de625f6ad5f206f169febd31e",
          "transactionIndex": "0x9",
          "logIndex": "0x8",
          "removed": false
        }
      ],
      "logsBloom": "0x00000000000000000000000100000000000000000000000000000000000000000000000000000000000000000000000000820000004000000000000001000000000000000000000000000000000000000000000000000000000000000000000000000000000000000000000002000000000000000000000000000000000000000000000000010000000000000000000000000000000000000000000000000000000000000000000000000000000000000000000000000000000001000000080000000008000000000000000000000000000000000000000000000000000000000000000000004000000000000000000400000000000000000000000000000000",
      "type": "0x2",
      "transactionHash": "0x4c0e39e3ea367fad8a9db1c81c1b73eb09407d3de625f6ad5f206f169febd31e",
      "transactionIndex": "0x9",
      "blockHash": "0x3b89bb85cd3ec368c8a0f623537c6d44cc9fa9695730e84bb968be76647711de",
      "blockNumber": "0x2b1871",
      "gasUsed": "0xbe58",
      "effectiveGasPrice": "0x15d7a926200",
      "from": "0x95ed40013cb3990013af947a635d1a3e31057426",
      "to": "0xc055b2220675d7b0cccf0919bfd8753a26a0843f",
      "contractAddress": null
    },
    {
      "status": "0x1",
      "cumulativeGasUsed": "0x41fb44",
      "logs": [
        {
          "address": "0xc055b2220675d7b0cccf0919bfd8753a26a0843f",
          "topics": [
            "0xdf04234d4adad453c202a56aae343d791761210eb89d2d72fd2ff7102d8d3186",
            "0xabad9a062c9f315a9feea094e0ec8d4620ba3e5953a36728cb12e20baddf0a07",
            "0x000000000000000000000000f11b4128624461839165f46cc3ef30ea84fb4dbc"
          ],
          "data": "0x",
          "blockHash": "0x3b89bb85cd3ec368c8a0f623537c6d44cc9fa9695730e84bb968be76647711de",
          "blockNumber": "0x2b1871",
          "transactionHash": "0x11817c61e66ca4776a7da728ded31334b94f50d3d8ed341af9134410fe71bce2",
          "transactionIndex": "0xa",
          "logIndex": "0x9",
          "removed": false
        }
      ],
      "logsBloom": "0x00000000000000000000000000000000000000000000000000000000000000000000000000000000000000000000000000800000004000000000000001000000000000000000000000000000000000000000000000000000000000000000000008000000000000000000000000000000000008000000000000000000000000000000000000000000000000000000000000000000000000000000000000000000000000000000000000000000000004000001000000000000000000000000080000000008000200000000000000000000000000000000000000000000080000000000000000004000000000000000000000000000000000000000000000000000",
      "type": "0x2",
      "transactionHash": "0x11817c61e66ca4776a7da728ded31334b94f50d3d8ed341af9134410fe71bce2",
      "transactionIndex": "0xa",
      "blockHash": "0x3b89bb85cd3ec368c8a0f623537c6d44cc9fa9695730e84bb968be76647711de",
      "blockNumber": "0x2b1871",
      "gasUsed": "0xbe40",
      "effectiveGasPrice": "0x15d7a926200",
      "from": "0x95ed40013cb3990013af947a635d1a3e31057426",
      "to": "0xc055b2220675d7b0cccf0919bfd8753a26a0843f",
      "contractAddress": null
    },
    {
      "status": "0x1",
      "cumulativeGasUsed": "0x42b990",
      "logs": [
        {
          "address": "0xc055b2220675d7b0cccf0919bfd8753a26a0843f",
          "topics": [
            "0xdf04234d4adad453c202a56aae343d791761210eb89d2d72fd2ff7102d8d3186",
            "0x33a9943bc13f82050177e083c742d665a37b94763b617af88e4f7d84f1d209ff",
            "0x0000000000000000000000001e44cfa2c04f9bbe1c612673bc808c214ba04941"
          ],
          "data": "0x",
          "blockHash": "0x3b89bb85cd3ec368c8a0f623537c6d44cc9fa9695730e84bb968be76647711de",
          "blockNumber": "0x2b1871",
          "transactionHash": "0xb2c90307e4fa83526617f14873df9b538787291a9069da843d0b21a47fea5b53",
          "transactionIndex": "0xb",
          "logIndex": "0xa",
          "removed": false
        }
      ],
      "logsBloom": "0x00000000000004000000000000000000000000000000000000000000000000000000000000000000000000000000400000800000004000000000000041000000000000000000000000000000000000000000000000000000000000000000000000000000000000000040000000000000000000000000000000000000000000000000000000000000000000000000000000000004000000000000000000000000000000000000000000000000000000000000000000000000000000000000080000000008000000000000000000000000000000000000000000000000000000000000000000004000000000000000000000000000000000000000000000010000",
      "type": "0x2",
      "transactionHash": "0xb2c90307e4fa83526617f14873df9b538787291a9069da843d0b21a47fea5b53",
      "transactionIndex": "0xb",
      "blockHash": "0x3b89bb85cd3ec368c8a0f623537c6d44cc9fa9695730e84bb968be76647711de",
      "blockNumber": "0x2b1871",
      "gasUsed": "0xbe4c",
      "effectiveGasPrice": "0x15d7a926200",
      "from": "0x95ed40013cb3990013af947a635d1a3e31057426",
      "to": "0xc055b2220675d7b0cccf0919bfd8753a26a0843f",
      "contractAddress": null
    },
    {
      "status": "0x1",
      "cumulativeGasUsed": "0x4377d0",
      "logs": [
        {
          "address": "0xc055b2220675d7b0cccf0919bfd8753a26a0843f",
          "topics": [
            "0xdf04234d4adad453c202a56aae343d791761210eb89d2d72fd2ff7102d8d3186",
            "0xe98e2830be1a7e4156d656a7505e65d08c67660dc618072422e9c78053c261e9",
            "0x000000000000000000000000bb906be3676b1d6872cdca58e336aea089c698b0"
          ],
          "data": "0x",
          "blockHash": "0x3b89bb85cd3ec368c8a0f623537c6d44cc9fa9695730e84bb968be76647711de",
          "blockNumber": "0x2b1871",
          "transactionHash": "0x815c02a3db2f73f4a2dd9781047f9963339338bf1eaa03065cd0cc44bc89bb2e",
          "transactionIndex": "0xc",
          "logIndex": "0xb",
          "removed": false
        }
      ],
      "logsBloom": "0x00000000000000000000000000000000000000000000000000000000000000000000000000000000002000000000000000800000004000000000000001000000000000000000000000000000000000000000000000000000000000000000000000000000000000000000000000000000000000000000000000000000000000000000000000000001000000000000000000000000000000000000000000000000000000000000000000000000000000000000000000000000000000000000080000000008000000000000000000000000000000000000000000000040000000000000000000004000000100000000000000000000000000000000000000400000",
      "type": "0x2",
      "transactionHash": "0x815c02a3db2f73f4a2dd9781047f9963339338bf1eaa03065cd0cc44bc89bb2e",
      "transactionIndex": "0xc",
      "blockHash": "0x3b89bb85cd3ec368c8a0f623537c6d44cc9fa9695730e84bb968be76647711de",
      "blockNumber": "0x2b1871",
      "gasUsed": "0xbe40",
      "effectiveGasPrice": "0x15d7a926200",
      "from": "0x95ed40013cb3990013af947a635d1a3e31057426",
      "to": "0xc055b2220675d7b0cccf0919bfd8753a26a0843f",
      "contractAddress": null
    },
    {
      "status": "0x1",
      "cumulativeGasUsed": "0x43ef36",
      "logs": [
        {
          "address": "0x30490c9239fdc6ff8feef84ff6f7b657ec6882f8",
          "topics": [
            "0x89baabef7dfd0683c0ac16fd2a8431c51b49fbe654c3f7b5ef19763e2ccd88f2",
            "0x000000000000000000000000feab9a221f6bcdb4c160cd81954ee4405edf0e35",
            "0x000000000000000000000000c055b2220675d7b0cccf0919bfd8753a26a0843f"
          ],
          "data": "0x",
          "blockHash": "0x3b89bb85cd3ec368c8a0f623537c6d44cc9fa9695730e84bb968be76647711de",
          "blockNumber": "0x2b1871",
          "transactionHash": "0x06242eeaec9b7cdddb2fd77b12008d87d2aa510f982d9868b05885455ecd160f",
          "transactionIndex": "0xd",
          "logIndex": "0xc",
          "removed": false
        }
      ],
      "logsBloom": "0x00000000000000000000000000000000000000000010000000000000000000000000000000000000100000000000000000000000000000000000000000000000000000000000000000000000000000000000000000000000000000000000000000000000110000000000000000000000000000000000000000000000020000000000000000008000000000000000000000000000000008000000000000000000000000000000400000000000010000000000000000000000000000000000000000000000000000000000000000000000000000000000004000000000000100000000000000000000000000080000000000000000000000000000000000000000",
      "type": "0x2",
      "transactionHash": "0x06242eeaec9b7cdddb2fd77b12008d87d2aa510f982d9868b05885455ecd160f",
      "transactionIndex": "0xd",
      "blockHash": "0x3b89bb85cd3ec368c8a0f623537c6d44cc9fa9695730e84bb968be76647711de",
      "blockNumber": "0x2b1871",
      "gasUsed": "0x7766",
      "effectiveGasPrice": "0x15d7a926200",
      "from": "0x95ed40013cb3990013af947a635d1a3e31057426",
      "to": "0x30490c9239fdc6ff8feef84ff6f7b657ec6882f8",
      "contractAddress": null
    },
    {
      "status": "0x1",
      "cumulativeGasUsed": "0x44669c",
      "logs": [
        {
          "address": "0x5dbd29ca81385606888112288bbae95f0eb9f170",
          "topics": [
            "0x89baabef7dfd0683c0ac16fd2a8431c51b49fbe654c3f7b5ef19763e2ccd88f2",
            "0x000000000000000000000000feab9a221f6bcdb4c160cd81954ee4405edf0e35",
            "0x000000000000000000000000c055b2220675d7b0cccf0919bfd8753a26a0843f"
          ],
          "data": "0x",
          "blockHash": "0x3b89bb85cd3ec368c8a0f623537c6d44cc9fa9695730e84bb968be76647711de",
          "blockNumber": "0x2b1871",
          "transactionHash": "0x51b758cbba89317d4714559d7df89a23818ea55dc355c16ed081ba67030e1e21",
          "transactionIndex": "0xe",
          "logIndex": "0xd",
          "removed": false
        }
      ],
      "logsBloom": "0x00000000000000000000000000000000000000000010000000000000000000000000000000000000100000000000000000000000000000000000000000000000000000000000000000000000000000000000000000000000000000000000000000000000110080000000000000000000000000000000000000000000020000000000000000000000000000000000000200000000000000000000000000000000002000000000400000000000010000000000000000000000000000000000000000000000000000000000000000000000000000000000000000000000000100000000000000000000000000080000000000000000000000000000000000000000",
      "type": "0x2",
      "transactionHash": "0x51b758cbba89317d4714559d7df89a23818ea55dc355c16ed081ba67030e1e21",
      "transactionIndex": "0xe",
      "blockHash": "0x3b89bb85cd3ec368c8a0f623537c6d44cc9fa9695730e84bb968be76647711de",
      "blockNumber": "0x2b1871",
      "gasUsed": "0x7766",
      "effectiveGasPrice": "0x15d7a926200",
      "from": "0x95ed40013cb3990013af947a635d1a3e31057426",
      "to": "0x5dbd29ca81385606888112288bbae95f0eb9f170",
      "contractAddress": null
    },
    {
      "status": "0x1",
      "cumulativeGasUsed": "0x44de02",
      "logs": [
        {
          "address": "0xa35f2923f8c6a8e9d2f655ab4cfb373864e6cc89",
          "topics": [
            "0x89baabef7dfd0683c0ac16fd2a8431c51b49fbe654c3f7b5ef19763e2ccd88f2",
            "0x000000000000000000000000feab9a221f6bcdb4c160cd81954ee4405edf0e35",
            "0x000000000000000000000000c055b2220675d7b0cccf0919bfd8753a26a0843f"
          ],
          "data": "0x",
          "blockHash": "0x3b89bb85cd3ec368c8a0f623537c6d44cc9fa9695730e84bb968be76647711de",
          "blockNumber": "0x2b1871",
          "transactionHash": "0x78478bd0cd637c4f811db78ea83952e0d3743fcdc7c9e9efdc68878a8c468f3d",
          "transactionIndex": "0xf",
          "logIndex": "0xe",
          "removed": false
        }
      ],
      "logsBloom": "0x00000000000000000000000000000000000000008010000000000000000000000000000000000000100000000000000000000000000000000000000000000000000000000000000004000000000000000000000000000000000000000000000000000000110000000000000000000000000000000000000000000000020000000000020000000000000000000000000000000000000000000000000000000000000000000000400000000000010000000000000000000000000000000000000000000000000000000000000000000000000000000000000000000000000100000000000000000000000000080000000000000000000000000000000000000000",
      "type": "0x2",
      "transactionHash": "0x78478bd0cd637c4f811db78ea83952e0d3743fcdc7c9e9efdc68878a8c468f3d",
      "transactionIndex": "0xf",
      "blockHash": "0x3b89bb85cd3ec368c8a0f623537c6d44cc9fa9695730e84bb968be76647711de",
      "blockNumber": "0x2b1871",
      "gasUsed": "0x7766",
      "effectiveGasPrice": "0x15d7a926200",
      "from": "0x95ed40013cb3990013af947a635d1a3e31057426",
      "to": "0xa35f2923f8c6a8e9d2f655ab4cfb373864e6cc89",
      "contractAddress": null
    },
    {
      "status": "0x1",
      "cumulativeGasUsed": "0x455568",
      "logs": [
        {
          "address": "0xf34772793a37cab10e13b7fb686f93445e0f4339",
          "topics": [
            "0x89baabef7dfd0683c0ac16fd2a8431c51b49fbe654c3f7b5ef19763e2ccd88f2",
            "0x000000000000000000000000feab9a221f6bcdb4c160cd81954ee4405edf0e35",
            "0x000000000000000000000000c055b2220675d7b0cccf0919bfd8753a26a0843f"
          ],
          "data": "0x",
          "blockHash": "0x3b89bb85cd3ec368c8a0f623537c6d44cc9fa9695730e84bb968be76647711de",
          "blockNumber": "0x2b1871",
          "transactionHash": "0x6115c95f72dccc718138c0660ce4328b723a2e7236d3d5792d7719f27a2a954f",
          "transactionIndex": "0x10",
          "logIndex": "0xf",
          "removed": false
        }
      ],
      "logsBloom": "0x00000000000000000000000000000000000000000010000000000000000000004000000000000000100000000000000000000000000000000000000000000200000000000000000000000000000000000000000000000000000000000000000000000000110000000000000000000000000000000000000000000000020000000000000000000000000000000000000000000000000000000000000000000000000000000000400000000000010000000000000000000000000000000000000000000000000000000000000000000000000000000000000000000000000100000000000000000000000000080008000000000000000000000000000000000000",
      "type": "0x2",
      "transactionHash": "0x6115c95f72dccc718138c0660ce4328b723a2e7236d3d5792d7719f27a2a954f",
      "transactionIndex": "0x10",
      "blockHash": "0x3b89bb85cd3ec368c8a0f623537c6d44cc9fa9695730e84bb968be76647711de",
      "blockNumber": "0x2b1871",
      "gasUsed": "0x7766",
      "effectiveGasPrice": "0x15d7a926200",
      "from": "0x95ed40013cb3990013af947a635d1a3e31057426",
      "to": "0xf34772793a37cab10e13b7fb686f93445e0f4339",
      "contractAddress": null
    },
    {
      "status": "0x1",
      "cumulativeGasUsed": "0x45ccce",
      "logs": [
        {
          "address": "0xf11b4128624461839165f46cc3ef30ea84fb4dbc",
          "topics": [
            "0x89baabef7dfd0683c0ac16fd2a8431c51b49fbe654c3f7b5ef19763e2ccd88f2",
            "0x000000000000000000000000feab9a221f6bcdb4c160cd81954ee4405edf0e35",
            "0x000000000000000000000000c055b2220675d7b0cccf0919bfd8753a26a0843f"
          ],
          "data": "0x",
          "blockHash": "0x3b89bb85cd3ec368c8a0f623537c6d44cc9fa9695730e84bb968be76647711de",
          "blockNumber": "0x2b1871",
          "transactionHash": "0x97286b31417ee15a817edc6eae1e369ec331a99116559f32091d0dbb255c7e38",
          "transactionIndex": "0x11",
          "logIndex": "0x10",
          "removed": false
        }
      ],
      "logsBloom": "0x00000000000000000000000000000000000000000010000004000000000000000000000000000000100000000000000000000000000000000000000000000000000000000000000000000000000000000000000000000000000020000000000000000000110000000000000000000000000000000000000000000000020000000000000000000000000000000000000000000000000000000000000000000000000000000000400000000000010000000000000000000000000000000000000000000000000000000000000000000000000000000000000000000000000100000000000000000000000000080000000000000000000080000000000000000000",
      "type": "0x2",
      "transactionHash": "0x97286b31417ee15a817edc6eae1e369ec331a99116559f32091d0dbb255c7e38",
      "transactionIndex": "0x11",
      "blockHash": "0x3b89bb85cd3ec368c8a0f623537c6d44cc9fa9695730e84bb968be76647711de",
      "blockNumber": "0x2b1871",
      "gasUsed": "0x7766",
      "effectiveGasPrice": "0x15d7a926200",
      "from": "0x95ed40013cb3990013af947a635d1a3e31057426",
      "to": "0xf11b4128624461839165f46cc3ef30ea84fb4dbc",
      "contractAddress": null
    },
    {
      "status": "0x1",
      "cumulativeGasUsed": "0x464434",
      "logs": [
        {
          "address": "0x1e44cfa2c04f9bbe1c612673bc808c214ba04941",
          "topics": [
            "0x89baabef7dfd0683c0ac16fd2a8431c51b49fbe654c3f7b5ef19763e2ccd88f2",
            "0x000000000000000000000000feab9a221f6bcdb4c160cd81954ee4405edf0e35",
            "0x000000000000000000000000c055b2220675d7b0cccf0919bfd8753a26a0843f"
          ],
          "data": "0x",
          "blockHash": "0x3b89bb85cd3ec368c8a0f623537c6d44cc9fa9695730e84bb968be76647711de",
          "blockNumber": "0x2b1871",
          "transactionHash": "0x3eac3ac52aa90b319e73216f24accbdf8383c424a1e0a03e50d52f799a5f6c61",
          "transactionIndex": "0x12",
          "logIndex": "0x11",
          "removed": false
        }
      ],
      "logsBloom": "0x00000000000000000000000000000000000000000010000000000000000000000000000000000000100000000000000000000000000000000000000000000000000000000000000000000000000000000000000000000000000000000000000000000000110000000000000000000000000000000000000000000000020000000000000000000000000000000000000000000000000000000000000000000010000000000010400000000000010000000000000000000000000000000000000000000000000000000000000000000000000000000080000000000000000100000000000000000000000000080000000000000000000000000000000000000000",
      "type": "0x2",
      "transactionHash": "0x3eac3ac52aa90b319e73216f24accbdf8383c424a1e0a03e50d52f799a5f6c61",
      "transactionIndex": "0x12",
      "blockHash": "0x3b89bb85cd3ec368c8a0f623537c6d44cc9fa9695730e84bb968be76647711de",
      "blockNumber": "0x2b1871",
      "gasUsed": "0x7766",
      "effectiveGasPrice": "0x15d7a926200",
      "from": "0x95ed40013cb3990013af947a635d1a3e31057426",
      "to": "0x1e44cfa2c04f9bbe1c612673bc808c214ba04941",
      "contractAddress": null
    },
    {
      "status": "0x1",
      "cumulativeGasUsed": "0x46bb9a",
      "logs": [
        {
          "address": "0xbb906be3676b1d6872cdca58e336aea089c698b0",
          "topics": [
            "0x89baabef7dfd0683c0ac16fd2a8431c51b49fbe654c3f7b5ef19763e2ccd88f2",
            "0x000000000000000000000000feab9a221f6bcdb4c160cd81954ee4405edf0e35",
            "0x000000000000000000000000c055b2220675d7b0cccf0919bfd8753a26a0843f"
          ],
          "data": "0x",
          "blockHash": "0x3b89bb85cd3ec368c8a0f623537c6d44cc9fa9695730e84bb968be76647711de",
          "blockNumber": "0x2b1871",
          "transactionHash": "0xd40a69b8b400b5ddef3c7eb5706df25b289166cc903cbc26d15b2d2c471f051e",
          "transactionIndex": "0x13",
          "logIndex": "0x12",
          "removed": false
        }
      ],
      "logsBloom": "0x00000000000000000000000000000000000000000010000000000000000000000000000000000000100000000000000000000000000000000000000000000000000000000000000000000000000000200000000000000000000000000000000000000000110000000000000000000000000000000000000000000000020000000000000000000000000000000000000000000000000000000000008000000000000000000000400000000000010000000000000000000000000000000000000000000000000000000000000000000000000000000000000000000000000180000000000000000000000000080000000000000000000000000000000000000000",
      "type": "0x2",
      "transactionHash": "0xd40a69b8b400b5ddef3c7eb5706df25b289166cc903cbc26d15b2d2c471f051e",
      "transactionIndex": "0x13",
      "blockHash": "0x3b89bb85cd3ec368c8a0f623537c6d44cc9fa9695730e84bb968be76647711de",
      "blockNumber": "0x2b1871",
      "gasUsed": "0x7766",
      "effectiveGasPrice": "0x15d7a926200",
      "from": "0x95ed40013cb3990013af947a635d1a3e31057426",
      "to": "0xbb906be3676b1d6872cdca58e336aea089c698b0",
      "contractAddress": null
    },
    {
      "status": "0x1",
      "cumulativeGasUsed": "0x48e063",
      "logs": [
        {
          "address": "0x695ec0e49e2e69df5ea1ce6c061a6dcc55978641",
          "topics": [
            "0x023c5efe572c42192271951adb0e77f97d7fc84bc761d026189ac08617346824",
            "0x00000000000000000000000095ed40013cb3990013af947a635d1a3e31057426",
            "0x9a3f52b1b31ae58da40209f38379e78c3a0756495a0f585d0b3c84a9e9718f9d"
          ],
          "data": "0x000000000000000000000000000000000000000000000000000000006933f284",
          "blockHash": "0x3b89bb85cd3ec368c8a0f623537c6d44cc9fa9695730e84bb968be76647711de",
          "blockNumber": "0x2b1871",
          "transactionHash": "0xe25fbdeb0d50161176a067e538bada2c8911962b8fcd1e520593118feda0522f",
          "transactionIndex": "0x14",
          "logIndex": "0x13",
          "removed": false
        }
      ],
      "logsBloom": "0x00000000000000000000000000000000000000000000040004000000000040000000000000000000000000000000000080000000000000000000000000000000000000000000000000000000000000000000000000000000000000000000000000000000080000000000000000000000000000000000000000000000000000000000000000000000000000000000000000000000002000000000000000000000000100000001000000000000000000000010000000000000004000000000000200000000000000000000000000000000000000000000000000000000000000000000000000000000000000000000000000000000000000000008000000000000",
      "type": "0x2",
      "transactionHash": "0xe25fbdeb0d50161176a067e538bada2c8911962b8fcd1e520593118feda0522f",
      "transactionIndex": "0x14",
      "blockHash": "0x3b89bb85cd3ec368c8a0f623537c6d44cc9fa9695730e84bb968be76647711de",
      "blockNumber": "0x2b1871",
      "gasUsed": "0x224c9",
      "effectiveGasPrice": "0x15d7a926200",
      "from": "0x95ed40013cb3990013af947a635d1a3e31057426",
      "to": "0x695ec0e49e2e69df5ea1ce6c061a6dcc55978641",
      "contractAddress": null
    },
    {
      "status": "0x1",
      "cumulativeGasUsed": "0x4a57dd",
      "logs": [
        {
          "address": "0x695ec0e49e2e69df5ea1ce6c061a6dcc55978641",
          "topics": [
            "0x023c5efe572c42192271951adb0e77f97d7fc84bc761d026189ac08617346824",
            "0x00000000000000000000000095ed40013cb3990013af947a635d1a3e31057426",
            "0x608e17bb6814e7eb8d564b13416322f3d8a2dc5e36dde75519945008d7848749"
          ],
          "data": "0x000000000000000000000000000000000000000000000000000000006933f284",
          "blockHash": "0x3b89bb85cd3ec368c8a0f623537c6d44cc9fa9695730e84bb968be76647711de",
          "blockNumber": "0x2b1871",
          "transactionHash": "0x74f64a8c48458e417f4479dc25f18f9882b7dc7bb2c4869ab922e84bd5297645",
          "transactionIndex": "0x15",
          "logIndex": "0x14",
          "removed": false
        }
      ],
      "logsBloom": "0x00000000000000000000000000000000000000000000000004000000000040000000000000000000000000000000000080000000000000000000000000000000000000040000000000000000000000000000000000000000000000000000000000000000080000000000000000000000000000000000000000000000000000000000000000000000000000000000000000000000002000000000000000000000000100000000000000000000000000000000000000000020004000000000000200000000000000000000000000000000000000000000000000020000000000000000000000000000000000000000000000000000000000000008000000000000",
      "type": "0x2",
      "transactionHash": "0x74f64a8c48458e417f4479dc25f18f9882b7dc7bb2c4869ab922e84bd5297645",
      "transactionIndex": "0x15",
      "blockHash": "0x3b89bb85cd3ec368c8a0f623537c6d44cc9fa9695730e84bb968be76647711de",
      "blockNumber": "0x2b1871",
      "gasUsed": "0x1777a",
      "effectiveGasPrice": "0x15d7a926200",
      "from": "0x95ed40013cb3990013af947a635d1a3e31057426",
      "to": "0x695ec0e49e2e69df5ea1ce6c061a6dcc55978641",
      "contractAddress": null
    },
    {
      "status": "0x1",
      "cumulativeGasUsed": "0x4bcf57",
      "logs": [
        {
          "address": "0x695ec0e49e2e69df5ea1ce6c061a6dcc55978641",
          "topics": [
            "0x023c5efe572c42192271951adb0e77f97d7fc84bc761d026189ac08617346824",
            "0x00000000000000000000000095ed40013cb3990013af947a635d1a3e31057426",
            "0xefa585451ff82e7559b7e4aa3c7d26b394fd121301bbf6f1da4ef6d29210466e"
          ],
          "data": "0x000000000000000000000000000000000000000000000000000000006933f284",
          "blockHash": "0x3b89bb85cd3ec368c8a0f623537c6d44cc9fa9695730e84bb968be76647711de",
          "blockNumber": "0x2b1871",
          "transactionHash": "0x44562322a25bf9106756157c5b64092c9916bb458a9a5ee10b551183c0aa3799",
          "transactionIndex": "0x16",
          "logIndex": "0x15",
          "removed": false
        }
      ],
      "logsBloom": "0x00000000000000000000000000000000000000000000000004000000000040000000000000000000000000000000000080000000000000000000000000000000000000000000000000000000000000000000000000080000000000000000000000000000080000000000000000000000000000000000000000000000000000000000000000000000000000000000000000000000002000000000000000000000000100000000000000000000000000000000000000000000004000000000000200000000000000000000000000000000000000000000000000000000000000800200000000000000000000000000000000000000000000000008000000000000",
      "type": "0x2",
      "transactionHash": "0x44562322a25bf9106756157c5b64092c9916bb458a9a5ee10b551183c0aa3799",
      "transactionIndex": "0x16",
      "blockHash": "0x3b89bb85cd3ec368c8a0f623537c6d44cc9fa9695730e84bb968be76647711de",
      "blockNumber": "0x2b1871",
      "gasUsed": "0x1777a",
      "effectiveGasPrice": "0x15d7a926200",
      "from": "0x95ed40013cb3990013af947a635d1a3e31057426",
      "to": "0x695ec0e49e2e69df5ea1ce6c061a6dcc55978641",
      "contractAddress": null
    },
    {
      "status": "0x1",
      "cumulativeGasUsed": "0x4d46dd",
      "logs": [
        {
          "address": "0x695ec0e49e2e69df5ea1ce6c061a6dcc55978641",
          "topics": [
            "0x023c5efe572c42192271951adb0e77f97d7fc84bc761d026189ac08617346824",
            "0x00000000000000000000000095ed40013cb3990013af947a635d1a3e31057426",
            "0x4d2685df44ed8d92cd381798ca9d3877ed9fca9a24cbfcf0e5985c253410b371"
          ],
          "data": "0x000000000000000000000000000000000000000000000000000000006933f284",
          "blockHash": "0x3b89bb85cd3ec368c8a0f623537c6d44cc9fa9695730e84bb968be76647711de",
          "blockNumber": "0x2b1871",
          "transactionHash": "0x2025e7360165d80a1499e04fec384ae80933efb1baa480165f41a0f53d265d28",
          "transactionIndex": "0x17",
          "logIndex": "0x16",
          "removed": false
        }
      ],
      "logsBloom": "0x00000000000000000000000000000000000000000000000004000000000040000000000000000000000000000000000080020000000000000000000000000000000000000000000000000000000000000000000000000000000000000000000000000000080000000000000000000000000000000000000000000000000000000000000000010000000000000000000000000000002000000000000000000000000100000000000000000000000000000000000000000000004000000000000200000000000000000000000000000000000000000000000000000000000000000000000000000000000000000000000400000000000000000008000000000000",
      "type": "0x2",
      "transactionHash": "0x2025e7360165d80a1499e04fec384ae80933efb1baa480165f41a0f53d265d28",
      "transactionIndex": "0x17",
      "blockHash": "0x3b89bb85cd3ec368c8a0f623537c6d44cc9fa9695730e84bb968be76647711de",
      "blockNumber": "0x2b1871",
      "gasUsed": "0x17786",
      "effectiveGasPrice": "0x15d7a926200",
      "from": "0x95ed40013cb3990013af947a635d1a3e31057426",
      "to": "0x695ec0e49e2e69df5ea1ce6c061a6dcc55978641",
      "contractAddress": null
    },
    {
      "status": "0x1",
      "cumulativeGasUsed": "0x4ebe4b",
      "logs": [
        {
          "address": "0x695ec0e49e2e69df5ea1ce6c061a6dcc55978641",
          "topics": [
            "0x023c5efe572c42192271951adb0e77f97d7fc84bc761d026189ac08617346824",
            "0x00000000000000000000000095ed40013cb3990013af947a635d1a3e31057426",
            "0xabad9a062c9f315a9feea094e0ec8d4620ba3e5953a36728cb12e20baddf0a07"
          ],
          "data": "0x000000000000000000000000000000000000000000000000000000006933f284",
          "blockHash": "0x3b89bb85cd3ec368c8a0f623537c6d44cc9fa9695730e84bb968be76647711de",
          "blockNumber": "0x2b1871",
          "transactionHash": "0xa0b6940b91ad4cae12c2a50943958d9023ac7bd213f9969c8a506dedfd088208",
          "transactionIndex": "0x18",
          "logIndex": "0x17",
          "removed": false
        }
      ],
      "logsBloom": "0x00000000000000000000000000000000000000000000000004000000000040000000000000000000000000000000000080000000000000000000000000000000000000000000000000000000000000000000000000000000000000000000000000000000080000000000000000000000000000000000000000000000000000000000000000000000000000000000000000000000002000000000000000000000000100000000000000000000000004000001000000000000004000000000000200000000000200000000000000000000000000000000000000000000000000000000000000000000000000000000000000000000000000000008000000000000",
      "type": "0x2",
      "transactionHash": "0xa0b6940b91ad4cae12c2a50943958d9023ac7bd213f9969c8a506dedfd088208",
      "transactionIndex": "0x18",
      "blockHash": "0x3b89bb85cd3ec368c8a0f623537c6d44cc9fa9695730e84bb968be76647711de",
      "blockNumber": "0x2b1871",
      "gasUsed": "0x1776e",
      "effectiveGasPrice": "0x15d7a926200",
      "from": "0x95ed40013cb3990013af947a635d1a3e31057426",
      "to": "0x695ec0e49e2e69df5ea1ce6c061a6dcc55978641",
      "contractAddress": null
    },
    {
      "status": "0x1",
      "cumulativeGasUsed": "0x5035c5",
      "logs": [
        {
          "address": "0x695ec0e49e2e69df5ea1ce6c061a6dcc55978641",
          "topics": [
            "0x023c5efe572c42192271951adb0e77f97d7fc84bc761d026189ac08617346824",
            "0x00000000000000000000000095ed40013cb3990013af947a635d1a3e31057426",
            "0x33a9943bc13f82050177e083c742d665a37b94763b617af88e4f7d84f1d209ff"
          ],
          "data": "0x000000000000000000000000000000000000000000000000000000006933f284",
          "blockHash": "0x3b89bb85cd3ec368c8a0f623537c6d44cc9fa9695730e84bb968be76647711de",
          "blockNumber": "0x2b1871",
          "transactionHash": "0x5d05f5172a6e5b228ea0e45bf063c34d8e401b29685dd345c7668ebacdc1efc6",
          "transactionIndex": "0x19",
          "logIndex": "0x18",
          "removed": false
        }
      ],
      "logsBloom": "0x00000000000000000000000000000000000000000000000004000000000040000000000000000000000000000000400080000000000000000000000040000000000000000000000000000000000000000000000000000000000000000000000000000000080000000040000000000000000000000000000000000000000000000000000000000000000000000000000000000000002000000000000000000000000100000000000000000000000000000000000000000000004000000000000200000000000000000000000000000000000000000000000000000000000000000000000000000000000000000000000000000000000000000008000000000000",
      "type": "0x2",
      "transactionHash": "0x5d05f5172a6e5b228ea0e45bf063c34d8e401b29685dd345c7668ebacdc1efc6",
      "transactionIndex": "0x19",
      "blockHash": "0x3b89bb85cd3ec368c8a0f623537c6d44cc9fa9695730e84bb968be76647711de",
      "blockNumber": "0x2b1871",
      "gasUsed": "0x1777a",
      "effectiveGasPrice": "0x15d7a926200",
      "from": "0x95ed40013cb3990013af947a635d1a3e31057426",
      "to": "0x695ec0e49e2e69df5ea1ce6c061a6dcc55978641",
      "contractAddress": null
    },
    {
      "status": "0x1",
      "cumulativeGasUsed": "0x51ad33",
      "logs": [
        {
          "address": "0x695ec0e49e2e69df5ea1ce6c061a6dcc55978641",
          "topics": [
            "0x023c5efe572c42192271951adb0e77f97d7fc84bc761d026189ac08617346824",
            "0x00000000000000000000000095ed40013cb3990013af947a635d1a3e31057426",
            "0xe98e2830be1a7e4156d656a7505e65d08c67660dc618072422e9c78053c261e9"
          ],
          "data": "0x000000000000000000000000000000000000000000000000000000006933f284",
          "blockHash": "0x3b89bb85cd3ec368c8a0f623537c6d44cc9fa9695730e84bb968be76647711de",
          "blockNumber": "0x2b1871",
          "transactionHash": "0xe7167a96f93eae8d121bae2ecf5012c38835a39d635bee67ebe7e40a120aebab",
          "transactionIndex": "0x1a",
          "logIndex": "0x19",
          "removed": false
        }
      ],
      "logsBloom": "0x00000000000000000000000000000000000000000000000004000000000040000000000000000000002000000000000080000000000000000000000000000000000000000000000000000000000000000000000000000000000000000000000000000000080000000000000000000000000000000000000000000000000000000000000000000000000000000000000000000000002000000000000000000000000100000000000000000000000000000000000000000000004000000000000200000000000000000000000000000000000000000000000000000000000000000000000000000000000100000000000000000000000000000008000000400000",
      "type": "0x2",
      "transactionHash": "0xe7167a96f93eae8d121bae2ecf5012c38835a39d635bee67ebe7e40a120aebab",
      "transactionIndex": "0x1a",
      "blockHash": "0x3b89bb85cd3ec368c8a0f623537c6d44cc9fa9695730e84bb968be76647711de",
      "blockNumber": "0x2b1871",
      "gasUsed": "0x1776e",
      "effectiveGasPrice": "0x15d7a926200",
      "from": "0x95ed40013cb3990013af947a635d1a3e31057426",
      "to": "0x695ec0e49e2e69df5ea1ce6c061a6dcc55978641",
      "contractAddress": null
    }
  ],
  "libraries": [],
  "pending": [],
  "returns": {},
  "timestamp": 1765012101595,
  "chain": 43522,
  "commit": "9c6dd2e"
}