{
  "transactions": [
    {
      "hash": "0x0bf2bf525915fb160dc7c456652dc2877c7ebbcfccf896042beaaa5d429b7477",
      "transactionType": "CREATE",
      "contractName": "AgentRegistry",
      "contractAddress": "0xd49df845d77dd02de442197be0d4ccde0a076738",
      "function": null,
      "arguments": null,
      "transaction": {
        "from": "0x95ed40013cb3990013af947a635d1a3e31057426",
        "gas": "0x1382fb",
        "value": "0x0",
        "input": "0x60806040526001600955348015610014575f80fd5b50338061003a57604051631e4fbdf760e01b81525f600482015260240160405180910390fd5b61004381610049565b50610098565b5f80546001600160a01b038381166001600160a01b0319831681178455604051919092169283917f8be0079c531659141344cd1fd0a4f28419497f9722a3daafe3b4186f6b6457e09190a35050565b610ff0806100a55f395ff3fe608060405234801561000f575f80fd5b50600436106101a1575f3560e01c8063958efd7a116100f3578063e5e666b111610093578063f1372c931161006e578063f1372c93146103d9578063f2fde38b146103ec578063f9120af6146103ff578063feabe7bf14610412575f80fd5b8063e5e666b114610394578063e8d630df146103a7578063ea0d685f146103ba575f80fd5b8063b5695b38116100ce578063b5695b381461032d578063bfe109281461035b578063c1bf1dcf1461036e578063d5db72eb14610381575f80fd5b8063958efd7a146102c8578063a638f0d0146102d0578063b32f20131461030e575f80fd5b8063595249ab1161015e5780637667180811610139578063766718081461026e5780637d54f2a51461027757806389aeca76146102965780638da5cb5b146102b8575f80fd5b8063595249ab1461024b578063715018a61461025357806375619ab51461025b575f80fd5b80631b4b0ead146101a557806320c8d7d8146101c157806322b833d8146101c9578063245a7bfc146101de5780632940ce4414610209578063464037ab1461022c575b5f80fd5b6101ae61138881565b6040519081526020015b60405180910390f35b6101ae606481565b6101dc6101d7366004610d6d565b610425565b005b6001546101f1906001600160a01b031681565b6040516001600160a01b0390911681526020016101b8565b61021c610217366004610d6d565b61060f565b60405190151581526020016101b8565b6101ae61023a366004610de9565b60086020525f908152604090205481565b6101ae600a81565b6101dc610652565b6101dc610269366004610de9565b610665565b6101ae60095481565b6101ae610285366004610de9565b60056020525f908152604090205481565b61021c6102a4366004610de9565b60036020525f908152604090205460ff1681565b5f546001600160a01b03166101f1565b6101dc610702565b61021c6102de366004610e1d565b600460209081525f9283526040909220815180830184018051928152908401929093019190912091525460ff1681565b6101ae61031c366004610de9565b60076020525f908152604090205481565b61034061033b366004610de9565b610765565b604080519384526020840192909252908201526060016101b8565b6002546101f1906001600160a01b031681565b6101dc61037c366004610ed9565b6107c0565b61021c61038f366004610de9565b610870565b6101ae6103a2366004610de9565b6108a9565b6101dc6103b5366004610f12565b610990565b6101ae6103c8366004610de9565b60066020525f908152604090205481565b6101dc6103e7366004610f12565b610a92565b6101dc6103fa366004610de9565b610b3b565b6101dc61040d366004610de9565b610b78565b6101dc610420366004610de9565b610c14565b5f546001600160a01b031633148061044b5750335f9081526003602052604090205460ff165b61049c5760405162461bcd60e51b815260206004820152601860248201527f4e6f7420617574686f72697a656420726567697374726172000000000000000060448201526064015b60405180910390fd5b6001600160a01b0383165f908152600460205260409081902090516104c49084908490610f3a565b9081526040519081900360200190205460ff16156105195760405162461bcd60e51b8152602060048201526012602482015271105b1c9958591e481c9959da5cdd195c995960721b6044820152606401610493565b6001600160a01b0383165f90815260046020526040908190209051600191906105459085908590610f3a565b9081526040805160209281900383019020805460ff1916931515939093179092556001600160a01b0385165f90815260059091529081205490036105af576001600160a01b0383165f90815260056020908152604080832061138890556009546008909252909120555b81816040516105bf929190610f3a565b6040518091039020836001600160a01b03167f023c5efe572c42192271951adb0e77f97d7fc84bc761d026189ac086173468244260405161060291815260200190565b60405180910390a3505050565b6001600160a01b0383165f9081526004602052604080822090516106369085908590610f3a565b9081526040519081900360200190205460ff1690509392505050565b61065a610cd7565b6106635f610d03565b565b61066d610cd7565b6001600160a01b0381166106b95760405162461bcd60e51b815260206004820152601360248201527224b73b30b634b2103234b9ba3934b13aba37b960691b6044820152606401610493565b600280546001600160a01b0319166001600160a01b0383169081179091556040517f86719c518c7d99ac94b3d405d462ea876ba5cd0a978461dc9a7c9862a9485886905f90a250565b6002546001600160a01b0316331461074f5760405162461bcd60e51b815260206004820152601060248201526f27b7363c903234b9ba3934b13aba37b960811b6044820152606401610493565b60098054905f61075e83610f5d565b9190505550565b6001600160a01b0381165f908152600660209081526040808320546005909252822054909182610795575f6107b8565b6001600160a01b0384165f908152600760205260409020546107b8908490610f75565b929491935050565b6107c8610cd7565b6001600160a01b0382166108125760405162461bcd60e51b815260206004820152601160248201527024b73b30b634b2103932b3b4b9ba3930b960791b6044820152606401610493565b6001600160a01b0382165f81815260036020908152604091829020805460ff191685151590811790915591519182527faa29e9c7319872059973646686bcb05675a1351529119ca980b4ad90e73d7264910160405180910390a25050565b5f80546001600160a01b03838116911614806108a357506001600160a01b0382165f9081526003602052604090205460ff165b92915050565b6001600160a01b0381165f908152600560205260408120548082036108d2575061138892915050565b6001600160a01b0383165f90815260086020526040812054600954116108f8575f61091d565b6001600160a01b0384165f9081526008602052604090205460095461091d9190610f94565b9050805f0361092d575092915050565b5f8061093a836001610fa7565b90505b600181111561096557610951606483610fa7565b915061095e600282610f75565b905061093d565b5f6109708386610fa7565b905061271081116109815780610985565b6127105b979650505050505050565b610998610cd7565b6001600160a01b0382165f90815260066020908152604080832054600790925282208054919284926109cb908490610fa7565b90915550506001600160a01b0383165f9081526005602052604081205490600a8310156109fb5750611388610a37565b6001600160a01b0385165f90815260076020526040812054610a1e908590610f75565b90506127108111610a2f5780610a33565b6127105b9150505b6001600160a01b0385165f8181526005602090815260409182902084905581518581529081018490527f35a172ee9b7bba49ce50c0ba9b35893a8948f2d53ca31ce2890a07a54e1f548a910160405180910390a25050505050565b610a9a610cd7565b612710811115610add5760405162461bcd60e51b815260206004820152600e60248201526d0a6c6dee4ca40e8dede40d0d2ced60931b6044820152606401610493565b6001600160a01b0382165f81815260056020908152604091829020805490859055825181815291820185905292917f35a172ee9b7bba49ce50c0ba9b35893a8948f2d53ca31ce2890a07a54e1f548a910160405180910390a2505050565b610b43610cd7565b6001600160a01b038116610b6c57604051631e4fbdf760e01b81525f6004820152602401610493565b610b7581610d03565b50565b610b80610cd7565b6001600160a01b038116610bcb5760405162461bcd60e51b815260206004820152601260248201527124b73b30b634b21030b3b3b932b3b0ba37b960711b6044820152606401610493565b600180546001600160a01b0319166001600160a01b0383169081179091556040517f94b241e14651a9658c51a45c82167e4f25ac3d3e7f8a2beae9d10b1ba07a94a0905f90a250565b6001546001600160a01b03163314610c605760405162461bcd60e51b815260206004820152600f60248201526e27b7363c9030b3b3b932b3b0ba37b960891b6044820152606401610493565b6001600160a01b0381165f908152600660205260408120805491610c8383610f5d565b90915550506001600160a01b0381165f818152600660209081526040918290205491519182527f7e1e2bbb910c7ff21f0b32e7c6d3a7d4cb1257a3197dea19b1b6c21e9cd5d8cc910160405180910390a250565b5f546001600160a01b031633146106635760405163118cdaa760e01b8152336004820152602401610493565b5f80546001600160a01b038381166001600160a01b0319831681178455604051919092169283917f8be0079c531659141344cd1fd0a4f28419497f9722a3daafe3b4186f6b6457e09190a35050565b80356001600160a01b0381168114610d68575f80fd5b919050565b5f805f60408486031215610d7f575f80fd5b610d8884610d52565b9250602084013567ffffffffffffffff80821115610da4575f80fd5b818601915086601f830112610db7575f80fd5b813581811115610dc5575f80fd5b876020828501011115610dd6575f80fd5b6020830194508093505050509250925092565b5f60208284031215610df9575f80fd5b610e0282610d52565b9392505050565b634e487b7160e01b5f52604160045260245ffd5b5f8060408385031215610e2e575f80fd5b610e3783610d52565b9150602083013567ffffffffffffffff80821115610e53575f80fd5b818501915085601f830112610e66575f80fd5b813581811115610e7857610e78610e09565b604051601f8201601f19908116603f01168101908382118183101715610ea057610ea0610e09565b81604052828152886020848701011115610eb8575f80fd5b826020860160208301375f6020848301015280955050505050509250929050565b5f8060408385031215610eea575f80fd5b610ef383610d52565b915060208301358015158114610f07575f80fd5b809150509250929050565b5f8060408385031215610f23575f80fd5b610f2c83610d52565b946020939093013593505050565b818382375f9101908152919050565b634e487b7160e01b5f52601160045260245ffd5b5f60018201610f6e57610f6e610f49565b5060010190565b5f82610f8f57634e487b7160e01b5f52601260045260245ffd5b500490565b818103818111156108a3576108a3610f49565b808201808211156108a3576108a3610f4956fea2646970667358221220366d4907a9fa270b465c414a3c6061eee4dcc003c400ebe60153968aa6de103f64736f6c63430008140033",
        "nonce": "0x1f",
        "chainId": "0xaa02"
      },
      "additionalContracts": [],
      "isFixedGasLimit": false
    },
    {
      "hash": "0x04949a31eefc8df00e068ce7b0d9ea86e3815e5731782261fe6f3d8c054ae419",
      "transactionType": "CREATE",
      "contractName": "MTokenDistributor",
      "contractAddress": "0xaa6b8ad37f435dc7e095ba6a20b6b2e7e0e285a1",
      "function": null,
      "arguments": [
        "0xCe5Ab1Eb28f45552b0DB6792979Ab0A8502d09Fa",
        "0xd49df845D77Dd02DE442197BE0D4ccde0A076738",
        "0xC81536da58b4b2e4ff433FE511bF0e035576eC15"
      ],
      "transaction": {
        "from": "0x95ed40013cb3990013af947a635d1a3e31057426",
        "gas": "0x18640d",
        "value": "0x0",
        "input": "0x608060405234801562000010575f80fd5b50604051620014ab380380620014ab83398101604081905262000033916200021c565b33806200005a57604051631e4fbdf760e01b81525f60048201526024015b60405180910390fd5b6200006581620001b1565b5060017f9b779b17422d0df92223018b32b4d1fa46e071723d6817e2486d003becc55f00556001600160a01b038316620000d45760405162461bcd60e51b815260206004820152600f60248201526e24b73b30b634b21026903a37b5b2b760891b604482015260640162000051565b6001600160a01b0382166200011f5760405162461bcd60e51b815260206004820152601060248201526f496e76616c696420726567697374727960801b604482015260640162000051565b6001600160a01b038116620001685760405162461bcd60e51b815260206004820152600e60248201526d496e76616c696420636f6e66696760901b604482015260640162000051565b600180546001600160a01b038086166001600160a01b03199283161783556002805486831690841617905560038054918516919092161790556005554260065550505062000263565b5f80546001600160a01b038381166001600160a01b0319831681178455604051919092169283917f8be0079c531659141344cd1fd0a4f28419497f9722a3daafe3b4186f6b6457e09190a35050565b80516001600160a01b038116811462000217575f80fd5b919050565b5f805f606084860312156200022f575f80fd5b6200023a8462000200565b92506200024a6020850162000200565b91506200025a6040850162000200565b90509250925092565b61123a80620002715f395ff3fe608060405234801561000f575f80fd5b5060043610610187575f3560e01c8063715018a6116100d9578063a14bcf6d11610093578063d0bb0fbe1161006e578063d0bb0fbe1461038c578063f2fde38b146103b7578063f60ca641146103ca578063f9120af6146103d3575f80fd5b8063a14bcf6d1461033c578063afcb002e14610366578063c3b6f93914610379575f80fd5b8063715018a6146102e057806376671808146102e857806379203dc4146102f157806379502c55146102fa5780638da5cb5b1461030d5780639b9318c41461031d575f80fd5b80631852e8d91161014457806347c3c6b41161011f57806347c3c6b41461028857806348cff27f1461029b578063533f852e146102ae5780635beed98f146102c1575f80fd5b80631852e8d91461025a578063245a7bfc1461026d5780633aab0a6214610280575f80fd5b8063027a896e1461018b57806306f46166146101be5780630962ef79146101d45780630d1cfcae146101e95780630d25320c14610214578063120aa8771461021d575b5f80fd5b61019e610199366004610f45565b6103e6565b604080519384526020840192909252908201526060015b60405180910390f35b6101c661047b565b6040519081526020016101b5565b6101e76101e2366004610f5e565b61051e565b005b6002546101fc906001600160a01b031681565b6040516001600160a01b0390911681526020016101b5565b6101c6600d5481565b61024a61022b366004610f75565b600960209081525f928352604080842090915290825290205460ff1681565b60405190151581526020016101b5565b6101c6610268366004610f9f565b610767565b6004546101fc906001600160a01b031681565b6101e761087a565b6101e7610296366004610f5e565b610a14565b6101e76102a9366004610f9f565b610a21565b6101c66102bc366004610f9f565b610b36565b6101c66102cf366004610f5e565b600b6020525f908152604090205481565b6101e7610b78565b6101c660055481565b6101c6600c5481565b6003546101fc906001600160a01b031681565b5f546001600160a01b03166101fc565b6101c661032b366004610f5e565b60076020525f908152604090205481565b6101c661034a366004610f75565b600860209081525f928352604080842090915290825290205481565b6101e7610374366004610fc7565b610b8b565b6001546101fc906001600160a01b031681565b6101c661039a36600461104c565b8051602081830181018051600a8252928201919093012091525481565b6101e76103c5366004610f45565b610c05565b6101c660065481565b6101e76103e1366004610f45565b610c3f565b6005545f9081526008602090815260408083206001600160a01b038581168086529190935281842054600254925163e5e666b160e01b81526004810192909252928492169063e5e666b190602401602060405180830381865afa15801561044f573d5f803e3d5ffd5b505050506040513d601f19601f8201168201806040525081019061047391906110f7565b929491935050565b5f8060035f9054906101000a90046001600160a01b03166001600160a01b0316634ff0876a6040518163ffffffff1660e01b8152600401602060405180830381865afa1580156104cd573d5f803e3d5ffd5b505050506040513d601f19601f820116820180604052508101906104f191906110f7565b6006546104fe9190611122565b905080421061050e575f91505090565b6105184282611135565b91505090565b610526610cb4565b600554811061056e5760405162461bcd60e51b815260206004820152600f60248201526e115c1bd8da081b9bdd08195b991959608a1b60448201526064015b60405180910390fd5b5f81815260096020908152604080832033845290915290205460ff16156105c95760405162461bcd60e51b815260206004820152600f60248201526e105b1c9958591e4818db185a5b5959608a1b6044820152606401610565565b5f8181526008602090815260408083203384529091529020546106215760405162461bcd60e51b815260206004820152601060248201526f4e6f20636f6e747269627574696f6e7360801b6044820152606401610565565b5f61062c3383610767565b90505f811161066a5760405162461bcd60e51b815260206004820152600a6024820152694e6f207265776172647360b01b6044820152606401610565565b5f8281526009602090815260408083203384529091528120805460ff19166001179055600d805483929061069f908490611122565b90915550506001546040516340c10f1960e01b8152336004820152602481018390526001600160a01b03909116906340c10f19906044015f604051808303815f87803b1580156106ed575f80fd5b505af11580156106ff573d5f803e3d5ffd5b50506040518381528492503391507ff01da32686223933d8a18a391060918c7f11a3648639edd87ae013e2e27317439060200160405180910390a35061076460017f9b779b17422d0df92223018b32b4d1fa46e071723d6817e2486d003becc55f0055565b50565b5f8181526008602090815260408083206001600160a01b0386168452825280832054848452600790925282205480158061079f575081155b156107ae575f92505050610874565b5f816107bc84612710611148565b6107c6919061115f565b60025460405163e5e666b160e01b81526001600160a01b0389811660048301529293505f929091169063e5e666b190602401602060405180830381865afa158015610813573d5f803e3d5ffd5b505050506040513d601f19601f8201168201806040525081019061083791906110f7565b5f878152600b60205260409020549091506305f5e100826108588584611148565b6108629190611148565b61086c919061115f565b955050505050505b92915050565b610882610ce2565b60035f9054906101000a90046001600160a01b03166001600160a01b0316634ff0876a6040518163ffffffff1660e01b8152600401602060405180830381865afa1580156108d2573d5f803e3d5ffd5b505050506040513d601f19601f820116820180604052508101906108f691906110f7565b6006546109039190611122565b4210156109445760405162461bcd60e51b815260206004820152600f60248201526e115c1bd8da081b9bdd08195b991959608a1b6044820152606401610565565b5f61094d610d0e565b6005545f908152600b60205260408082208390556002548151634ac77ebd60e11b815291519394506001600160a01b03169263958efd7a9260048084019391929182900301818387803b1580156109a2575f80fd5b505af11580156109b4573d5f803e3d5ffd5b505060058054925090505f6109c88361117e565b9091555050426006819055600554604080519283526020830184905290917f3bb7b347508b7c148ec2094ac60d2e3d8b7595421025643f08b45cb78b326b58910160405180910390a250565b610a1c610ce2565b600c55565b6004546001600160a01b03163314610a6d5760405162461bcd60e51b815260206004820152600f60248201526e27b7363c9030b3b3b932b3b0ba37b960891b6044820152606401610565565b6005545f9081526008602090815260408083206001600160a01b038616845290915281208054839290610aa1908490611122565b90915550506005545f9081526007602052604081208054839290610ac6908490611122565b90915550506040805160055483825260208201527fc5d2460186f7233c927e7db2dcc703c0e500b653ca82273b7bfad8045d85a470916001600160a01b038516917f3370b5ef195f8e20c1a618f8f3748c32fe720dfcafcdfaa9617ca2f1c028ea6c910160405180910390a35050565b5f8181526009602090815260408083206001600160a01b038616845290915281205460ff1615610b6757505f610874565b610b718383610767565b9392505050565b610b80610ce2565b610b895f610e99565b565b610b93610ce2565b80600a8484604051610ba6929190611196565b90815260405190819003602001812091909155610bc69084908490611196565b604051908190038120828252907f67e87062ca26aa935ffba6e1010eb008e734e1d28e84fcd5469f9dd116deffec9060200160405180910390a2505050565b610c0d610ce2565b6001600160a01b038116610c3657604051631e4fbdf760e01b81525f6004820152602401610565565b61076481610e99565b610c47610ce2565b6001600160a01b038116610c925760405162461bcd60e51b815260206004820152601260248201527124b73b30b634b21030b3b3b932b3b0ba37b960711b6044820152606401610565565b600480546001600160a01b0319166001600160a01b0392909216919091179055565b610cbc610ee8565b60027f9b779b17422d0df92223018b32b4d1fa46e071723d6817e2486d003becc55f0055565b5f546001600160a01b03163314610b895760405163118cdaa760e01b8152336004820152602401610565565b6040805161012081018252600360e082018181526242544360e81b610100840152825282518084018452600480825263444f474560e01b6020838101919091528085019290925284518086018652818152635045504560e01b8184015284860152845180860186528181526329a424a160e11b818401526060850152845180860186526005815264464c4f4b4960d81b81840152608085015284518086018652928352622ba4a360e91b8383015260a0840192909252835180850190945290835263424f4e4b60e01b9083015260c08101919091525f9081805b6007811015610e92576003546001600160a01b0316638f3c5200848360078110610e1457610e146111a5565b60200201516040518263ffffffff1660e01b8152600401610e3591906111b9565b602060405180830381865afa158015610e50573d5f803e3d5ffd5b505050506040513d601f19601f82011682018060405250810190610e7491906110f7565b610e7e9083611122565b915080610e8a8161117e565b915050610de8565b5092915050565b5f80546001600160a01b038381166001600160a01b0319831681178455604051919092169283917f8be0079c531659141344cd1fd0a4f28419497f9722a3daafe3b4186f6b6457e09190a35050565b7f9b779b17422d0df92223018b32b4d1fa46e071723d6817e2486d003becc55f0054600203610b8957604051633ee5aeb560e01b815260040160405180910390fd5b80356001600160a01b0381168114610f40575f80fd5b919050565b5f60208284031215610f55575f80fd5b610b7182610f2a565b5f60208284031215610f6e575f80fd5b5035919050565b5f8060408385031215610f86575f80fd5b82359150610f9660208401610f2a565b90509250929050565b5f8060408385031215610fb0575f80fd5b610fb983610f2a565b946020939093013593505050565b5f805f60408486031215610fd9575f80fd5b833567ffffffffffffffff80821115610ff0575f80fd5b818601915086601f830112611003575f80fd5b813581811115611011575f80fd5b876020828501011115611022575f80fd5b6020928301989097509590910135949350505050565b634e487b7160e01b5f52604160045260245ffd5b5f6020828403121561105c575f80fd5b813567ffffffffffffffff80821115611073575f80fd5b818401915084601f830112611086575f80fd5b81358181111561109857611098611038565b604051601f8201601f19908116603f011681019083821181831017156110c0576110c0611038565b816040528281528760208487010111156110d8575f80fd5b826020860160208301375f928101602001929092525095945050505050565b5f60208284031215611107575f80fd5b5051919050565b634e487b7160e01b5f52601160045260245ffd5b808201808211156108745761087461110e565b818103818111156108745761087461110e565b80820281158282048414176108745761087461110e565b5f8261117957634e487b7160e01b5f52601260045260245ffd5b500490565b5f6001820161118f5761118f61110e565b5060010190565b818382375f9101908152919050565b634e487b7160e01b5f52603260045260245ffd5b5f6020808352835180828501525f5b818110156111e4578581018301518582016040015282016111c8565b505f604082860101526040601f19601f830116850101925050509291505056fea26469706673582212204c7e56381b0a956ccc59e42a8477a40929b35963341c2a481df8fcfcf69c094364736f6c63430008140033000000000000000000000000ce5ab1eb28f45552b0db6792979ab0a8502d09fa000000000000000000000000d49df845d77dd02de442197be0d4ccde0a076738000000000000000000000000c81536da58b4b2e4ff433fe511bf0e035576ec15",
        "nonce": "0x20",
        "chainId": "0xaa02"
      },
      "additionalContracts": [],
      "isFixedGasLimit": false
    },
    {
      "hash": "0xb7a8c265cb83a88fd5207e38815f470146929d60a1724c201eb41ee66360c476",
      "transactionType": "CREATE",
      "contractName": "Aggregator",
      "contractAddress": "0xd164fd1b456b067fc52c2c9445e7ab980d411563",
      "function": null,
      "arguments": [
        "0xd49df845D77Dd02DE442197BE0D4ccde0A076738",
        "0xaa6b8aD37f435Dc7e095ba6a20b6b2e7E0e285a1",
        "0xC81536da58b4b2e4ff433FE511bF0e035576eC15"
      ],
      "transaction": {
        "from": "0x95ed40013cb3990013af947a635d1a3e31057426",
        "gas": "0x1ef506",
        "value": "0x0",
        "input": "0x608060405234801562000010575f80fd5b5060405162001b2938038062001b298339810160408190526200003391620001cc565b33806200005a57604051631e4fbdf760e01b81525f60048201526024015b60405180910390fd5b620000658162000161565b5060017f9b779b17422d0df92223018b32b4d1fa46e071723d6817e2486d003becc55f00556001600160a01b038316620000d55760405162461bcd60e51b815260206004820152601060248201526f496e76616c696420726567697374727960801b604482015260640162000051565b6001600160a01b0381166200011e5760405162461bcd60e51b815260206004820152600e60248201526d496e76616c696420636f6e66696760901b604482015260640162000051565b600180546001600160a01b039485166001600160a01b03199182161790915560028054938516938216939093179092556003805491909316911617905562000213565b5f80546001600160a01b038381166001600160a01b0319831681178455604051919092169283917f8be0079c531659141344cd1fd0a4f28419497f9722a3daafe3b4186f6b6457e09190a35050565b80516001600160a01b0381168114620001c7575f80fd5b919050565b5f805f60608486031215620001df575f80fd5b620001ea84620001b0565b9250620001fa60208501620001b0565b91506200020a60408501620001b0565b90509250925092565b61190880620002215f395ff3fe608060405234801561000f575f80fd5b50600436106100fb575f3560e01c80638da5cb5b11610093578063d52195d511610063578063d52195d514610291578063e3640735146102a4578063f2fde38b146102b7578063f3b3347e146102ca575f80fd5b80638da5cb5b1461022757806393a2295d14610237578063b37a00491461024a578063cb8ae86c1461025d575f80fd5b80636ca276e8116100ce5780636ca276e8146101d7578063715018a6146101f757806375619ab51461020157806379502c5514610214575f80fd5b806302b3bfbb146100ff5780630d1cfcae1461015d5780632f764644146101885780633e07d751146101ba575b5f80fd5b61011261010d3660046113c7565b6102dd565b6040805197885260208801969096529315159486019490945260ff9091166060850152608084015260a08301919091526001600160a01b031660c082015260e0015b60405180910390f35b600154610170906001600160a01b031681565b6040516001600160a01b039091168152602001610154565b6101aa610196366004611409565b60066020525f908152604090205460ff1681565b6040519015158152602001610154565b6101c9678ac7230489e8000081565b604051908152602001610154565b6101ea6101e5366004611465565b610352565b60405161015491906114ad565b6101ff6104f4565b005b6101ff61020f366004611557565b610507565b600354610170906001600160a01b031681565b5f546001600160a01b0316610170565b6101c9610245366004611577565b610531565b600254610170906001600160a01b031681565b61017061026b3660046115b6565b80516020818301810180516004825292820191909301209152546001600160a01b031681565b6101c961029f366004611577565b61055d565b6101ff6102b23660046115f0565b61081e565b6101ff6102c5366004611557565b61112c565b6101ff6102d836600461165a565b611169565b81516020818401810180516005825292820191850191909120919052805482908110610307575f80fd5b5f91825260209091206006909102018054600182015460028301546003840154600485015460059095015493965091945060ff8082169461010090920416926001600160a01b031687565b60605f600585856040516103679291906116aa565b908152602001604051809103902090505f83828054905010610389578361038c565b81545b90505f8167ffffffffffffffff8111156103a8576103a861132a565b60405190808252806020026020018201604052801561040d57816020015b6040805160e0810182525f8082526020808301829052928201819052606082018190526080820181905260a0820181905260c082015282525f199092019101816103c65790505b5090505f5b828110156104e95783548490829061042b9086906116cd565b61043591906116e0565b81548110610445576104456116f3565b5f9182526020918290206040805160e081018252600690930290910180548352600181015493830193909352600283015460ff808216151592840192909252610100900416606082015260038201546080820152600482015460a08201526005909101546001600160a01b031660c082015282518390839081106104cb576104cb6116f3565b602002602001018190525080806104e190611707565b915050610412565b509695505050505050565b6104fc61123f565b6105055f61126b565b565b61050f61123f565b600280546001600160a01b0319166001600160a01b0392909216919091179055565b5f600583836040516105449291906116aa565b9081526040519081900360200190205490505b92915050565b5f80600584846040516105719291906116aa565b9081526040519081900360200190208054909150806105ce5760405162461bcd60e51b81526020600482015260146024820152734e6f207570646174657320617661696c61626c6560601b60448201526064015b60405180910390fd5b5f805f5b838110156107b9575f8582815481106105ed576105ed6116f3565b5f91825260208083206040805160e0810182526006949094029091018054845260018082015493850193909352600281015460ff8082161515868501526101009091041660608501526003810154608085015260048082015460a08601526005909101546001600160a01b0390811660c086018190529354925163e5e666b160e01b815291820193909352929450169063e5e666b190602401602060405180830381865afa1580156106a1573d5f803e3d5ffd5b505050506040513d601f19601f820116820180604052508101906106c5919061171f565b90505f60035f9054906101000a90046001600160a01b03166001600160a01b03166332d9c0ce6040518163ffffffff1660e01b8152600401602060405180830381865afa158015610718573d5f803e3d5ffd5b505050506040513d601f19601f8201168201806040525081019061073c919061171f565b90508082101561074a578091505b5f612710846060015160ff168486602001516107669190611736565b6107709190611736565b61077a919061174d565b845190915061078a908290611736565b61079490886116e0565b96506107a081876116e0565b95505050505080806107b190611707565b9150506105d2565b50805f036108095760405162461bcd60e51b815260206004820152601a60248201527f4e6f2076616c6964207570646174657320666f7220564357415000000000000060448201526064016105c5565b610813818361174d565b979650505050505050565b6108266112ba565b600154604051630a50339160e21b81526001600160a01b0390911690632940ce449061085a9087908790879060040161176c565b602060405180830381865afa158015610875573d5f803e3d5ffd5b505050506040513d601f19601f8201168201806040525081019061089991906117b8565b6108dc5760405162461bcd60e51b81526020600482015260146024820152731059d95b9d081b9bdd081c9959da5cdd195c995960621b60448201526064016105c5565b5f8160200135116109245760405162461bcd60e51b81526020600482015260126024820152710566f6c756d65206d757374206265203e20360741b60448201526064016105c5565b678ac7230489e80000816020013511156109725760405162461bcd60e51b815260206004820152600f60248201526e0acded8eadaca40e8dede40d0d2ced608b1b60448201526064016105c5565b5f61098360808301606084016117e3565b60ff16116109ca5760405162461bcd60e51b815260206004820152601460248201527304c65766572616765206d757374206265203e20360641b60448201526064016105c5565b4281608001351115610a115760405162461bcd60e51b815260206004820152601060248201526f04675747572652074696d657374616d760841b60448201526064016105c5565b60a08101355f9081526006602052604090205460ff1615610a685760405162461bcd60e51b8152602060048201526011602482015270105b1c9958591e481c1c9bd8d95cdcd959607a1b60448201526064016105c5565b5f6001600160a01b031660048484604051610a849291906116aa565b908152604051908190036020019020546001600160a01b031603610adb5760405162461bcd60e51b815260206004820152600e60248201526d11995959081b9bdd08199bdd5b9960921b60448201526064016105c5565b60a08101355f908152600660205260408120805460ff19166001179055610b07368390038301836117fc565b6001600160a01b03861660c0820152604051909150600590610b2c90869086906116aa565b9081526040805191829003602090810183208054600181810183555f9283528383208751600690930201918255868401519082015585840151600282018054606089015160ff166101000261ff00199315159390931661ffff1990911617919091179055608086015160038083019190915560a087015160048084019190915560c0880151600590930180546001600160a01b039485166001600160a01b031990911617905590546306a46fa760e41b8752945192959490911693636a46fa709382820193909290918290030181865afa158015610c0c573d5f803e3d5ffd5b505050506040513d601f19601f82011682018060405250810190610c30919061171f565b90508060058686604051610c459291906116aa565b908152604051908190036020019020541115610e31575f5b600160058787604051610c719291906116aa565b90815260405190819003602001902054610c8b91906116cd565b811015610db45760058686604051610ca49291906116aa565b908152604051908190036020019020610cbe8260016116e0565b81548110610cce57610cce6116f3565b905f5260205f20906006020160058787604051610cec9291906116aa565b90815260200160405180910390208281548110610d0b57610d0b6116f3565b5f918252602090912082546006909202019081556001808301549082015560028083018054918301805460ff938416151560ff1982168117835592546101009081900490941690930261ff001990921661ffff19909316929092171790556003808301549082015560048083015490820155600591820154910180546001600160a01b0319166001600160a01b0390921691909117905580610dac81611707565b915050610c5d565b5060058585604051610dc79291906116aa565b9081526020016040518091039020805480610de457610de4611892565b5f8281526020812060065f19909301928302018181556001810182905560028101805461ffff1916905560038101829055600481019190915560050180546001600160a01b031916905590555b60015460405163feabe7bf60e01b81526001600160a01b0388811660048301529091169063feabe7bf906024015f604051808303815f87803b158015610e75575f80fd5b505af1158015610e87573d5f803e3d5ffd5b505050505f610e96868661055d565b905060048686604051610eaa9291906116aa565b90815260405190819003602001812054636273a25160e01b8252600482018390524260248301526001600160a01b031690636273a251906044015f604051808303815f87803b158015610efb575f80fd5b505af1158015610f0d573d5f803e3d5ffd5b50506002546001600160a01b03161591506110119050576002546040516001600160a01b038981166024830152602087013560448301525f92169060640160408051601f198184030181529181526020820180516001600160e01b03166348cff27f60e01b17905251610f8091906118a6565b5f604051808303815f865af19150503d805f8114610fb9576040519150601f19603f3d011682016040523d82523d5f602084013e610fbe565b606091505b505090508061100f5760405162461bcd60e51b815260206004820152601760248201527f4469737472696275746f722063616c6c206661696c656400000000000000000060448201526064016105c5565b505b85856040516110219291906116aa565b6040805191829003822086358352602080880135908401526080808801358484015260a08801356060850152915190926001600160a01b038b16927fa497fbb1d4e9f1b0b222d00edcac5a6cb5a96385abf437a7d5bda16ff0a8e82c92918290030190a385856040516110959291906116aa565b60405180910390207f7ef7f833d43bb516e267595b38b132a56879620249ce3a563c8149695438540f82600589896040516110d19291906116aa565b908152604051908190036020018120546110f2928252602082015260400190565b60405180910390a250505061112660017f9b779b17422d0df92223018b32b4d1fa46e071723d6817e2486d003becc55f0055565b50505050565b61113461123f565b6001600160a01b03811661115d57604051631e4fbdf760e01b81525f60048201526024016105c5565b6111668161126b565b50565b61117161123f565b6001600160a01b0381166111bc5760405162461bcd60e51b8152602060048201526012602482015271125b9d985b1a59081c1c9a58d9481999595960721b60448201526064016105c5565b80600484846040516111cf9291906116aa565b90815260405190819003602001812080546001600160a01b039384166001600160a01b03199091161790559082169061120b90859085906116aa565b604051908190038120907fdf04234d4adad453c202a56aae343d791761210eb89d2d72fd2ff7102d8d3186905f90a3505050565b5f546001600160a01b031633146105055760405163118cdaa760e01b81523360048201526024016105c5565b5f80546001600160a01b038381166001600160a01b0319831681178455604051919092169283917f8be0079c531659141344cd1fd0a4f28419497f9722a3daafe3b4186f6b6457e09190a35050565b6112c26112e8565b60027f9b779b17422d0df92223018b32b4d1fa46e071723d6817e2486d003becc55f0055565b7f9b779b17422d0df92223018b32b4d1fa46e071723d6817e2486d003becc55f005460020361050557604051633ee5aeb560e01b815260040160405180910390fd5b634e487b7160e01b5f52604160045260245ffd5b5f82601f83011261134d575f80fd5b813567ffffffffffffffff808211156113685761136861132a565b604051601f8301601f19908116603f011681019082821181831017156113905761139061132a565b816040528381528660208588010111156113a8575f80fd5b836020870160208301375f602085830101528094505050505092915050565b5f80604083850312156113d8575f80fd5b823567ffffffffffffffff8111156113ee575f80fd5b6113fa8582860161133e565b95602094909401359450505050565b5f60208284031215611419575f80fd5b5035919050565b5f8083601f840112611430575f80fd5b50813567ffffffffffffffff811115611447575f80fd5b60208301915083602082850101111561145e575f80fd5b9250929050565b5f805f60408486031215611477575f80fd5b833567ffffffffffffffff81111561148d575f80fd5b61149986828701611420565b909790965060209590950135949350505050565b602080825282518282018190525f919060409081850190868401855b8281101561152f5781518051855286810151878601528581015115158686015260608082015160ff16908601526080808201519086015260a0808201519086015260c0908101516001600160a01b03169085015260e090930192908501906001016114c9565b5091979650505050505050565b80356001600160a01b0381168114611552575f80fd5b919050565b5f60208284031215611567575f80fd5b6115708261153c565b9392505050565b5f8060208385031215611588575f80fd5b823567ffffffffffffffff81111561159e575f80fd5b6115aa85828601611420565b90969095509350505050565b5f602082840312156115c6575f80fd5b813567ffffffffffffffff8111156115dc575f80fd5b6115e88482850161133e565b949350505050565b5f805f80848603610120811215611605575f80fd5b61160e8661153c565b9450602086013567ffffffffffffffff811115611629575f80fd5b61163588828901611420565b90955093505060e0603f198201121561164c575f80fd5b509295919450926040019150565b5f805f6040848603121561166c575f80fd5b833567ffffffffffffffff811115611682575f80fd5b61168e86828701611420565b90945092506116a190506020850161153c565b90509250925092565b818382375f9101908152919050565b634e487b7160e01b5f52601160045260245ffd5b81810381811115610557576105576116b9565b80820180821115610557576105576116b9565b634e487b7160e01b5f52603260045260245ffd5b5f60018201611718576117186116b9565b5060010190565b5f6020828403121561172f575f80fd5b5051919050565b8082028115828204841417610557576105576116b9565b5f8261176757634e487b7160e01b5f52601260045260245ffd5b500490565b6001600160a01b03841681526040602082018190528101829052818360608301375f818301606090810191909152601f909201601f1916010192915050565b8015158114611166575f80fd5b5f602082840312156117c8575f80fd5b8151611570816117ab565b803560ff81168114611552575f80fd5b5f602082840312156117f3575f80fd5b611570826117d3565b5f60e0828403121561180c575f80fd5b60405160e0810181811067ffffffffffffffff8211171561182f5761182f61132a565b806040525082358152602083013560208201526040830135611850816117ab565b6040820152611861606084016117d3565b60608201526080830135608082015260a083013560a082015261188660c0840161153c565b60c08201529392505050565b634e487b7160e01b5f52603160045260245ffd5b5f82515f5b818110156118c557602081860181015185830152016118ab565b505f92019182525091905056fea26469706673582212202b5d59b3b4262ea1e05499ca7813809a3adf6146fcc75422158d27ab3c037b8b64736f6c63430008140033000000000000000000000000d49df845d77dd02de442197be0d4ccde0a076738000000000000000000000000aa6b8ad37f435dc7e095ba6a20b6b2e7e0e285a1000000000000000000000000c81536da58b4b2e4ff433fe511bf0e035576ec15",
        "nonce": "0x21",
        "chainId": "0xaa02"
      },
      "additionalContracts": [],
      "isFixedGasLimit": false
    },
    {
      "hash": "0x694a4cf9db3e1e3399c9b9a98ee402197922db910a2bb5b0f50a66a8ddfc51d4",
      "transactionType": "CALL",
      "contractName": "AgentRegistry",
      "contractAddress": "0xd49df845d77dd02de442197be0d4ccde0a076738",
      "function": "setAggregator(address)",
      "arguments": [
        "0xd164fD1b456b067FC52C2C9445E7AB980D411563"
      ],
      "transaction": {
        "from": "0x95ed40013cb3990013af947a635d1a3e31057426",
        "to": "0xd49df845d77dd02de442197be0d4ccde0a076738",
        "gas": "0xff56",
        "value": "0x0",
        "input": "0xf9120af6000000000000000000000000d164fd1b456b067fc52c2c9445e7ab980d411563",
        "nonce": "0x22",
        "chainId": "0xaa02"
      },
      "additionalContracts": [],
      "isFixedGasLimit": false
    },
    {
      "hash": "0x2e17fceff2b82a8bd1ab05cfde8c15df672c60f4fc46bf52aad7a07c62b3b09d",
      "transactionType": "CALL",
      "contractName": "AgentRegistry",
      "contractAddress": "0xd49df845d77dd02de442197be0d4ccde0a076738",
      "function": "setDistributor(address)",
      "arguments": [
        "0xaa6b8aD37f435Dc7e095ba6a20b6b2e7E0e285a1"
      ],
      "transaction": {
        "from": "0x95ed40013cb3990013af947a635d1a3e31057426",
        "to": "0xd49df845d77dd02de442197be0d4ccde0a076738",
        "gas": "0xff59",
        "value": "0x0",
        "input": "0x75619ab5000000000000000000000000aa6b8ad37f435dc7e095ba6a20b6b2e7e0e285a1",
        "nonce": "0x23",
        "chainId": "0xaa02"
      },
      "additionalContracts": [],
      "isFixedGasLimit": false
    },
    {
      "hash": "0x9e87c01b822a5c0a94ccb020f17b1d2cc688ae7e5fc4e776fdb4556de3be443e",
      "transactionType": "CALL",
      "contractName": "MTokenDistributor",
      "contractAddress": "0xaa6b8ad37f435dc7e095ba6a20b6b2e7e0e285a1",
      "function": "setAggregator(address)",
      "arguments": [
        "0xd164fD1b456b067FC52C2C9445E7AB980D411563"
      ],
      "transaction": {
        "from": "0x95ed40013cb3990013af947a635d1a3e31057426",
        "to": "0xaa6b8ad37f435dc7e095ba6a20b6b2e7e0e285a1",
        "gas": "0x107fc",
        "value": "0x0",
        "input": "0xf9120af6000000000000000000000000d164fd1b456b067fc52c2c9445e7ab980d411563",
        "nonce": "0x24",
        "chainId": "0xaa02"
      },
      "additionalContracts": [],
      "isFixedGasLimit": false
    },
    {
      "hash": "0xec54e8d3cc72b444f1d46965c2414795c30fc9236d41812fa19b6bf11709f1bd",
      "transactionType": "CALL",
      "contractName": "Aggregator",
      "contractAddress": "0xd164fd1b456b067fc52c2c9445e7ab980d411563",
      "function": "setPriceFeed(string,address)",
      "arguments": [
        "DOGE",
        "0x30490c9239FDc6ff8FEEF84FF6f7B657Ec6882F8"
      ],
      "transaction": {
        "from": "0x95ed40013cb3990013af947a635d1a3e31057426",
        "to": "0xd164fd1b456b067fc52c2c9445e7ab980d411563",
        "gas": "0x106d8",
        "value": "0x0",
        "input": "0xf3b3347e000000000000000000000000000000000000000000000000000000000000004000000000000000000000000030490c9239fdc6ff8feef84ff6f7b657ec6882f80000000000000000000000000000000000000000000000000000000000000004444f474500000000000000000000000000000000000000000000000000000000",
        "nonce": "0x25",
        "chainId": "0xaa02"
      },
      "additionalContracts": [],
      "isFixedGasLimit": false
    },
    {
      "hash": "0x945a99f5da8ccb17254df942318d2a6acc453182a3cdd89683e12dcf85ef79ee",
      "transactionType": "CALL",
      "contractName": "Aggregator",
      "contractAddress": "0xd164fd1b456b067fc52c2c9445e7ab980d411563",
      "function": "setPriceFeed(string,address)",
      "arguments": [
        "PEPE",
        "0x5DbD29ca81385606888112288bbAe95f0Eb9f170"
      ],
      "transaction": {
        "from": "0x95ed40013cb3990013af947a635d1a3e31057426",
        "to": "0xd164fd1b456b067fc52c2c9445e7ab980d411563",
        "gas": "0x106d8",
        "value": "0x0",
        "input": "0xf3b3347e00000000000000000000000000000000000000000000000000000000000000400000000000000000000000005dbd29ca81385606888112288bbae95f0eb9f17000000000000000000000000000000000000000000000000000000000000000045045504500000000000000000000000000000000000000000000000000000000",
        "nonce": "0x26",
        "chainId": "0xaa02"
      },
      "additionalContracts": [],
      "isFixedGasLimit": false
    },
    {
      "hash": "0xd9a7651a1bdcc1ff4c96f2bdf004440e3af7e11fd7bb9b0365ed8a44c654ff91",
      "transactionType": "CALL",
      "contractName": "Aggregator",
      "contractAddress": "0xd164fd1b456b067fc52c2c9445e7ab980d411563",
      "function": "setPriceFeed(string,address)",
      "arguments": [
        "SHIB",
        "0xa35F2923f8C6a8E9D2F655AB4cfb373864E6cC89"
      ],
      "transaction": {
        "from": "0x95ed40013cb3990013af947a635d1a3e31057426",
        "to": "0xd164fd1b456b067fc52c2c9445e7ab980d411563",
        "gas": "0x106d8",
        "value": "0x0",
        "input": "0xf3b3347e0000000000000000000000000000000000000000000000000000000000000040000000000000000000000000a35f2923f8c6a8e9d2f655ab4cfb373864e6cc8900000000000000000000000000000000000000000000000000000000000000045348494200000000000000000000000000000000000000000000000000000000",
        "nonce": "0x27",
        "chainId": "0xaa02"
      },
      "additionalContracts": [],
      "isFixedGasLimit": false
    },
    {
      "hash": "0x1e5f770e79986ec4f3000f8580da26c2a27322570e4653198fb4f8287982ceb9",
      "transactionType": "CALL",
      "contractName": "Aggregator",
      "contractAddress": "0xd164fd1b456b067fc52c2c9445e7ab980d411563",
      "function": "setPriceFeed(string,address)",
      "arguments": [
        "FLOKI",
        "0xF34772793a37Cab10E13B7fb686f93445e0f4339"
      ],
      "transaction": {
        "from": "0x95ed40013cb3990013af947a635d1a3e31057426",
        "to": "0xd164fd1b456b067fc52c2c9445e7ab980d411563",
        "gas": "0x106e8",
        "value": "0x0",
        "input": "0xf3b3347e0000000000000000000000000000000000000000000000000000000000000040000000000000000000000000f34772793a37cab10e13b7fb686f93445e0f43390000000000000000000000000000000000000000000000000000000000000005464c4f4b49000000000000000000000000000000000000000000000000000000",
        "nonce": "0x28",
        "chainId": "0xaa02"
      },
      "additionalContracts": [],
      "isFixedGasLimit": false
    },
    {
      "hash": "0x4ef2818a2431cc40c7a9fea8bd9a78f3951e8e4a0d88f9a1f76787809214b4c8",
      "transactionType": "CALL",
      "contractName": "Aggregator",
      "contractAddress": "0xd164fd1b456b067fc52c2c9445e7ab980d411563",
      "function": "setPriceFeed(string,address)",
      "arguments": [
        "WIF",
        "0xf11B4128624461839165F46cC3eF30eA84fb4DBC"
      ],
      "transaction": {
        "from": "0x95ed40013cb3990013af947a635d1a3e31057426",
        "to": "0xd164fd1b456b067fc52c2c9445e7ab980d411563",
        "gas": "0x106c8",
        "value": "0x0",
        "input": "0xf3b3347e0000000000000000000000000000000000000000000000000000000000000040000000000000000000000000f11b4128624461839165f46cc3ef30ea84fb4dbc00000000000000000000000000000000000000000000000000000000000000035749460000000000000000000000000000000000000000000000000000000000",
        "nonce": "0x29",
        "chainId": "0xaa02"
      },
      "additionalContracts": [],
      "isFixedGasLimit": false
    },
    {
      "hash": "0x20549c1821b84b3eb36ec78def1c6e5488d7dd409e0b11bc545ea3e7d27bab32",
      "transactionType": "CALL",
      "contractName": "Aggregator",
      "contractAddress": "0xd164fd1b456b067fc52c2c9445e7ab980d411563",
      "function": "setPriceFeed(string,address)",
      "arguments": [
        "BONK",
        "0x1e44CFA2C04F9bbe1C612673BC808C214bA04941"
      ],
      "transaction": {
        "from": "0x95ed40013cb3990013af947a635d1a3e31057426",
        "to": "0xd164fd1b456b067fc52c2c9445e7ab980d411563",
        "gas": "0x106d8",
        "value": "0x0",
        "input": "0xf3b3347e00000000000000000000000000000000000000000000000000000000000000400000000000000000000000001e44cfa2c04f9bbe1c612673bc808c214ba049410000000000000000000000000000000000000000000000000000000000000004424f4e4b00000000000000000000000000000000000000000000000000000000",
        "nonce": "0x2a",
        "chainId": "0xaa02"
      },
      "additionalContracts": [],
      "isFixedGasLimit": false
    },
    {
      "hash": "0x9f2999524da625fb6268c858ae64b865cb7a3b5b46b02fe0390f4020dace5f07",
      "transactionType": "CALL",
      "contractName": "Aggregator",
      "contractAddress": "0xd164fd1b456b067fc52c2c9445e7ab980d411563",
      "function": "setPriceFeed(string,address)",
      "arguments": [
        "BTC",
        "0xBB906be3676b1d6872cdcA58E336Aea089c698b0"
      ],
      "transaction": {
        "from": "0x95ed40013cb3990013af947a635d1a3e31057426",
        "to": "0xd164fd1b456b067fc52c2c9445e7ab980d411563",
        "gas": "0x106c8",
        "value": "0x0",
        "input": "0xf3b3347e0000000000000000000000000000000000000000000000000000000000000040000000000000000000000000bb906be3676b1d6872cdca58e336aea089c698b000000000000000000000000000000000000000000000000000000000000000034254430000000000000000000000000000000000000000000000000000000000",
        "nonce": "0x2b",
        "chainId": "0xaa02"
      },
      "additionalContracts": [],
      "isFixedGasLimit": false
    },
    {
      "hash": "0x650a61a9443b115c060aa005498b727a0846f26bc8645b38aea9ea248d904b1d",
      "transactionType": "CALL",
      "contractName": null,
      "contractAddress": "0x30490c9239fdc6ff8feef84ff6f7b657ec6882f8",
      "function": "setAggregator(address)",
      "arguments": [
        "0xd164fD1b456b067FC52C2C9445E7AB980D411563"
      ],
      "transaction": {
        "from": "0x95ed40013cb3990013af947a635d1a3e31057426",
        "to": "0x30490c9239fdc6ff8feef84ff6f7b657ec6882f8",
        "gas": "0xa4ea",
        "value": "0x0",
        "input": "0xf9120af6000000000000000000000000d164fd1b456b067fc52c2c9445e7ab980d411563",
        "nonce": "0x2c",
        "chainId": "0xaa02"
      },
      "additionalContracts": [],
      "isFixedGasLimit": false
    },
    {
      "hash": "0xe46fb8efcac7c9d6e058952a2ca894586cbb0aad2dc44db0d931f6346d91bb37",
      "transactionType": "CALL",
      "contractName": null,
      "contractAddress": "0x5dbd29ca81385606888112288bbae95f0eb9f170",
      "function": "setAggregator(address)",
      "arguments": [
        "0xd164fD1b456b067FC52C2C9445E7AB980D411563"
      ],
      "transaction": {
        "from": "0x95ed40013cb3990013af947a635d1a3e31057426",
        "to": "0x5dbd29ca81385606888112288bbae95f0eb9f170",
        "gas": "0xa4ea",
        "value": "0x0",
        "input": "0xf9120af6000000000000000000000000d164fd1b456b067fc52c2c9445e7ab980d411563",
        "nonce": "0x2d",
        "chainId": "0xaa02"
      },
      "additionalContracts": [],
      "isFixedGasLimit": false
    },
    {
      "hash": "0x4a473a8cce643cef19b8e0dd15242fea6a95dd979d728ea8999288ca9804b7f3",
      "transactionType": "CALL",
      "contractName": null,
      "contractAddress": "0xa35f2923f8c6a8e9d2f655ab4cfb373864e6cc89",
      "function": "setAggregator(address)",
      "arguments": [
        "0xd164fD1b456b067FC52C2C9445E7AB980D411563"
      ],
      "transaction": {
        "from": "0x95ed40013cb3990013af947a635d1a3e31057426",
        "to": "0xa35f2923f8c6a8e9d2f655ab4cfb373864e6cc89",
        "gas": "0xa4ea",
        "value": "0x0",
        "input": "0xf9120af6000000000000000000000000d164fd1b456b067fc52c2c9445e7ab980d411563",
        "nonce": "0x2e",
        "chainId": "0xaa02"
      },
      "additionalContracts": [],
      "isFixedGasLimit": false
    },
    {
      "hash": "0xcef4a8772117a48aeeeb542ed83b3e44d775385bd292cf6daab47750a5415392",
      "transactionType": "CALL",
      "contractName": null,
      "contractAddress": "0xf34772793a37cab10e13b7fb686f93445e0f4339",
      "function": "setAggregator(address)",
      "arguments": [
        "0xd164fD1b456b067FC52C2C9445E7AB980D411563"
      ],
      "transaction": {
        "from": "0x95ed40013cb3990013af947a635d1a3e31057426",
        "to": "0xf34772793a37cab10e13b7fb686f93445e0f4339",
        "gas": "0xa4ea",
        "value": "0x0",
        "input": "0xf9120af6000000000000000000000000d164fd1b456b067fc52c2c9445e7ab980d411563",
        "nonce": "0x2f",
        "chainId": "0xaa02"
      },
      "additionalContracts": [],
      "isFixedGasLimit": false
    },
    {
      "hash": "0xdc1e4e4e66970095994919776cee1af520cc7b7f0bea13aab7c8cf56a4be7f8b",
      "transactionType": "CALL",
      "contractName": null,
      "contractAddress": "0xf11b4128624461839165f46cc3ef30ea84fb4dbc",
      "function": "setAggregator(address)",
      "arguments": [
        "0xd164fD1b456b067FC52C2C9445E7AB980D411563"
      ],
      "transaction": {
        "from": "0x95ed40013cb3990013af947a635d1a3e31057426",
        "to": "0xf11b4128624461839165f46cc3ef30ea84fb4dbc",
        "gas": "0xa4ea",
        "value": "0x0",
        "input": "0xf9120af6000000000000000000000000d164fd1b456b067fc52c2c9445e7ab980d411563",
        "nonce": "0x30",
        "chainId": "0xaa02"
      },
      "additionalContracts": [],
      "isFixedGasLimit": false
    },
    {
      "hash": "0xf18c03b4f84c607b22de5a21a4aa78e443bf14a8ccd4866f01123dea2356ae7c",
      "transactionType": "CALL",
      "contractName": null,
      "contractAddress": "0x1e44cfa2c04f9bbe1c612673bc808c214ba04941",
      "function": "setAggregator(address)",
      "arguments": [
        "0xd164fD1b456b067FC52C2C9445E7AB980D411563"
      ],
      "transaction": {
        "from": "0x95ed40013cb3990013af947a635d1a3e31057426",
        "to": "0x1e44cfa2c04f9bbe1c612673bc808c214ba04941",
        "gas": "0xa4ea",
        "value": "0x0",
        "input": "0xf9120af6000000000000000000000000d164fd1b456b067fc52c2c9445e7ab980d411563",
        "nonce": "0x31",
        "chainId": "0xaa02"
      },
      "additionalContracts": [],
      "isFixedGasLimit": false
    },
    {
      "hash": "0xa8a4e426324c0755d1c32fdd6728c5d061cf3b4734a3415b506c94f14f2e7ce2",
      "transactionType": "CALL",
      "contractName": null,
      "contractAddress": "0xbb906be3676b1d6872cdca58e336aea089c698b0",
      "function": "setAggregator(address)",
      "arguments": [
        "0xd164fD1b456b067FC52C2C9445E7AB980D411563"
      ],
      "transaction": {
        "from": "0x95ed40013cb3990013af947a635d1a3e31057426",
        "to": "0xbb906be3676b1d6872cdca58e336aea089c698b0",
        "gas": "0xa4ea",
        "value": "0x0",
        "input": "0xf9120af6000000000000000000000000d164fd1b456b067fc52c2c9445e7ab980d411563",
        "nonce": "0x32",
        "chainId": "0xaa02"
      },
      "additionalContracts": [],
      "isFixedGasLimit": false
    }
  ],
  "receipts": [
    {
      "status": "0x1",
      "cumulativeGasUsed": "0xf024b",
      "logs": [
        {
          "address": "0xd49df845d77dd02de442197be0d4ccde0a076738",
          "topics": [
            "0x8be0079c531659141344cd1fd0a4f28419497f9722a3daafe3b4186f6b6457e0",
            "0x0000000000000000000000000000000000000000000000000000000000000000",
            "0x00000000000000000000000095ed40013cb3990013af947a635d1a3e31057426"
          ],
          "data": "0x",
          "blockHash": "0xbed2acdf3b2d785e5c006a3ae55f6b00ca111ac5aa34590906a1af2b4824cf55",
          "blockNumber": "0x2b0ffd",
          "transactionHash": "0x0bf2bf525915fb160dc7c456652dc2877c7ebbcfccf896042beaaa5d429b7477",
          "transactionIndex": "0x0",
          "logIndex": "0x0",
          "removed": false
        }
      ],
      "logsBloom": "0x000000000000000000000000000000000000000000000000048000000000000000000000000000000000000000000000000000000000000000000000000000000000000000000000000000000000000000010000000000000000000000000000100000000a0000000000000000000800000000000000000000000000000000400000000004000000000000000000000000000000002000000000000000000000000000000000000000000000000000000000000000000000000000000000000000000000000000000000000000000000000000000008000000000000000020000000000000000000000000000000000000000000000000000000000000000000",
      "type": "0x2",
      "transactionHash": "0x0bf2bf525915fb160dc7c456652dc2877c7ebbcfccf896042beaaa5d429b7477",
      "transactionIndex": "0x0",
      "blockHash": "0xbed2acdf3b2d785e5c006a3ae55f6b00ca111ac5aa34590906a1af2b4824cf55",
      "blockNumber": "0x2b0ffd",
      "gasUsed": "0xf024b",
      "effectiveGasPrice": "0x15d7a926200",
      "from": "0x95ed40013cb3990013af947a635d1a3e31057426",
      "to": null,
      "contractAddress": "0xd49df845d77dd02de442197be0d4ccde0a076738"
    },
    {
      "status": "0x1",
      "cumulativeGasUsed": "0x21c569",
      "logs": [
        {
          "address": "0xaa6b8ad37f435dc7e095ba6a20b6b2e7e0e285a1",
          "topics": [
            "0x8be0079c531659141344cd1fd0a4f28419497f9722a3daafe3b4186f6b6457e0",
            "0x0000000000000000000000000000000000000000000000000000000000000000",
            "0x00000000000000000000000095ed40013cb3990013af947a635d1a3e31057426"
          ],
          "data": "0x",
          "blockHash": "0xbed2acdf3b2d785e5c006a3ae55f6b00ca111ac5aa34590906a1af2b4824cf55",
          "blockNumber": "0x2b0ffd",
          "transactionHash": "0x04949a31eefc8df00e068ce7b0d9ea86e3815e5731782261fe6f3d8c054ae419",
          "transactionIndex": "0x1",
          "logIndex": "0x1",
          "removed": false
        }
      ],
      "logsBloom": "0x000000000000000000000000000000000000000000000000048000000000000000000000000000000000000001000000000000000000000000000000000000000000000000000000000000000000000000010000000000000000040000000000000000000a0000000000000000000800000000000000000000000000000000400000000000000000000000200000000000000000002000000000000000000000000000000000000000000000000000000000000000000000000000000000000000000000000000000000000000000000000000000000000000000000000020000000000000000000000000000000000000000000000000000000000000000000",
      "type": "0x2",
      "transactionHash": "0x04949a31eefc8df00e068ce7b0d9ea86e3815e5731782261fe6f3d8c054ae419",
      "transactionIndex": "0x1",
      "blockHash": "0xbed2acdf3b2d785e5c006a3ae55f6b00ca111ac5aa34590906a1af2b4824cf55",
      "blockNumber": "0x2b0ffd",
      "gasUsed": "0x12c31e",
      "effectiveGasPrice": "0x15d7a926200",
      "from": "0x95ed40013cb3990013af947a635d1a3e31057426",
      "to": null,
      "contractAddress": "0xaa6b8ad37f435dc7e095ba6a20b6b2e7e0e285a1"
    },
    {
      "status": "0x1",
      "cumulativeGasUsed": "0x399595",
      "logs": [
        {
          "address": "0xd164fd1b456b067fc52c2c9445e7ab980d411563",
          "topics": [
            "0x8be0079c531659141344cd1fd0a4f28419497f9722a3daafe3b4186f6b6457e0",
            "0x0000000000000000000000000000000000000000000000000000000000000000",
            "0x00000000000000000000000095ed40013cb3990013af947a635d1a3e31057426"
          ],
          "data": "0x",
          "blockHash": "0xbed2acdf3b2d785e5c006a3ae55f6b00ca111ac5aa34590906a1af2b4824cf55",
          "blockNumber": "0x2b0ffd",
          "transactionHash": "0xb7a8c265cb83a88fd5207e38815f470146929d60a1724c201eb41ee66360c476",
          "transactionIndex": "0x2",
          "logIndex": "0x2",
          "removed": false
        }
      ],
      "logsBloom": "0x000000000000000000000000000000100000000000000000048000000000000000000000000000000000000000000000000000000000000000000000000000000000000000000000000000000000000000010000000000000000000000000000000000000a0000000000000000000800000000000000000000000000000000400000000000000000000000000000000000004000002000000000000000000000000000000000000000000000000000000000000000000000000000000000000000000000000000000000000000000000000000000000000000000000000020000000000000001000000000000000000000000000000000000000000000000000",
      "type": "0x2",
      "transactionHash": "0xb7a8c265cb83a88fd5207e38815f470146929d60a1724c201eb41ee66360c476",
      "transactionIndex": "0x2",
      "blockHash": "0xbed2acdf3b2d785e5c006a3ae55f6b00ca111ac5aa34590906a1af2b4824cf55",
      "blockNumber": "0x2b0ffd",
      "gasUsed": "0x17d02c",
      "effectiveGasPrice": "0x15d7a926200",
      "from": "0x95ed40013cb3990013af947a635d1a3e31057426",
      "to": null,
      "contractAddress": "0xd164fd1b456b067fc52c2c9445e7ab980d411563"
    },
    {
      "status": "0x1",
      "cumulativeGasUsed": "0x3a4e72",
      "logs": [
        {
          "address": "0xd49df845d77dd02de442197be0d4ccde0a076738",
          "topics": [
            "0x94b241e14651a9658c51a45c82167e4f25ac3d3e7f8a2beae9d10b1ba07a94a0",
            "0x000000000000000000000000d164fd1b456b067fc52c2c9445e7ab980d411563"
          ],
          "data": "0x",
          "blockHash": "0xbed2acdf3b2d785e5c006a3ae55f6b00ca111ac5aa34590906a1af2b4824cf55",
          "blockNumber": "0x2b0ffd",
          "transactionHash": "0x694a4cf9db3e1e3399c9b9a98ee402197922db910a2bb5b0f50a66a8ddfc51d4",
          "transactionIndex": "0x3",
          "logIndex": "0x3",
          "removed": false
        }
      ],
      "logsBloom": "0x00000000000040000000000000000000000000000000000000000000000000000000000008000000000000000000000000000000000000000000000000400000000000000000000000000000000000000000000000000000000000000000000010000000000000000000000000000000000000000400000000000000000000000000000044000000000000000000000000000000000000000000000000000000000000000000000000000000000000000000000000000000000000000000000000000000000000020000000000000000000000000008000000000000000000000000000000000000000000000000000000000000000000000000000000000000",
      "type": "0x2",
      "transactionHash": "0x694a4cf9db3e1e3399c9b9a98ee402197922db910a2bb5b0f50a66a8ddfc51d4",
      "transactionIndex": "0x3",
      "blockHash": "0xbed2acdf3b2d785e5c006a3ae55f6b00ca111ac5aa34590906a1af2b4824cf55",
      "blockNumber": "0x2b0ffd",
      "gasUsed": "0xb8dd",
      "effectiveGasPrice": "0x15d7a926200",
      "from": "0x95ed40013cb3990013af947a635d1a3e31057426",
      "to": "0xd49df845d77dd02de442197be0d4ccde0a076738",
      "contractAddress": null
    },
    {
      "status": "0x1",
      "cumulativeGasUsed": "0x3b0751",
      "logs": [
        {
          "address": "0xd49df845d77dd02de442197be0d4ccde0a076738",
          "topics": [
            "0x86719c518c7d99ac94b3d405d462ea876ba5cd0a978461dc9a7c9862a9485886",
            "0x000000000000000000000000aa6b8ad37f435dc7e095ba6a20b6b2e7e0e285a1"
          ],
          "data": "0x",
          "blockHash": "0xbed2acdf3b2d785e5c006a3ae55f6b00ca111ac5aa34590906a1af2b4824cf55",
          "blockNumber": "0x2b0ffd",
          "transactionHash": "0x2e17fceff2b82a8bd1ab05cfde8c15df672c60f4fc46bf52aad7a07c62b3b09d",
          "transactionIndex": "0x4",
          "logIndex": "0x4",
          "removed": false
        }
      ],
      "logsBloom": "0x00000000000000400000000000000000000000000000000000000000000000000000040000000000000000000000000000000000000000000000000000000000000000000000000000000000000000000000000000000000400000000000000010000000000000000000000000000000000000000000000000000000000000000000000404000000000000001000000000020000000000000000000000000000000000000000000000000000000000000000000000000000000000000000000000000000000000000000000000000000000000000008000000000000000000000000000000000000000000000000000000000000000000000000000000000000",
      "type": "0x2",
      "transactionHash": "0x2e17fceff2b82a8bd1ab05cfde8c15df672c60f4fc46bf52aad7a07c62b3b09d",
      "transactionIndex": "0x4",
      "blockHash": "0xbed2acdf3b2d785e5c006a3ae55f6b00ca111ac5aa34590906a1af2b4824cf55",
      "blockNumber": "0x2b0ffd",
      "gasUsed": "0xb8df",
      "effectiveGasPrice": "0x15d7a926200",
      "from": "0x95ed40013cb3990013af947a635d1a3e31057426",
      "to": "0xd49df845d77dd02de442197be0d4ccde0a076738",
      "contractAddress": null
    },
    {
      "status": "0x1",
      "cumulativeGasUsed": "0x3bbbd2",
      "logs": [],
      "logsBloom": "0x00000000000000000000000000000000000000000000000000000000000000000000000000000000000000000000000000000000000000000000000000000000000000000000000000000000000000000000000000000000000000000000000000000000000000000000000000000000000000000000000000000000000000000000000000000000000000000000000000000000000000000000000000000000000000000000000000000000000000000000000000000000000000000000000000000000000000000000000000000000000000000000000000000000000000000000000000000000000000000000000000000000000000000000000000000000",
      "type": "0x2",
      "transactionHash": "0x9e87c01b822a5c0a94ccb020f17b1d2cc688ae7e5fc4e776fdb4556de3be443e",
      "transactionIndex": "0x5",
      "blockHash": "0xbed2acdf3b2d785e5c006a3ae55f6b00ca111ac5aa34590906a1af2b4824cf55",
      "blockNumber": "0x2b0ffd",
      "gasUsed": "0xb481",
      "effectiveGasPrice": "0x15d7a926200",
      "from": "0x95ed40013cb3990013af947a635d1a3e31057426",
      "to": "0xaa6b8ad37f435dc7e095ba6a20b6b2e7e0e285a1",
      "contractAddress": null
    },
    {
      "status": "0x1",
      "cumulativeGasUsed": "0x3c7a1e",
      "logs": [
        {
          "address": "0xd164fd1b456b067fc52c2c9445e7ab980d411563",
          "topics": [
            "0xdf04234d4adad453c202a56aae343d791761210eb89d2d72fd2ff7102d8d3186",
            "0x9a3f52b1b31ae58da40209f38379e78c3a0756495a0f585d0b3c84a9e9718f9d",
            "0x00000000000000000000000030490c9239fdc6ff8feef84ff6f7b657ec6882f8"
          ],
          "data": "0x",
          "blockHash": "0xbed2acdf3b2d785e5c006a3ae55f6b00ca111ac5aa34590906a1af2b4824cf55",
          "blockNumber": "0x2b0ffd",
          "transactionHash": "0xec54e8d3cc72b444f1d46965c2414795c30fc9236d41812fa19b6bf11709f1bd",
          "transactionIndex": "0x6",
          "logIndex": "0x5",
          "removed": false
        }
      ],
      "logsBloom": "0x00000000000000000000000000000010000000000000040000000000000000000000000000000000000000000000000000800000004000000000000000000000000000000000000000000000000000000000000000000000000000000000000000000000000000000000000000000000000000000000000000000000000000000000000000000000000000000000000000004000000000000000000000000000000040000001040000000000000000000010000000000000000000000000800000000000000000000000000000000000000000000000000000000000000000000000000000005000000000000000000000000000000000000000000000000000",
      "type": "0x2",
      "transactionHash": "0xec54e8d3cc72b444f1d46965c2414795c30fc9236d41812fa19b6bf11709f1bd",
      "transactionIndex": "0x6",
      "blockHash": "0xbed2acdf3b2d785e5c006a3ae55f6b00ca111ac5aa34590906a1af2b4824cf55",
      "blockNumber": "0x2b0ffd",
      "gasUsed": "0xbe4c",
      "effectiveGasPrice": "0x15d7a926200",
      "from": "0x95ed40013cb3990013af947a635d1a3e31057426",
      "to": "0xd164fd1b456b067fc52c2c9445e7ab980d411563",
      "contractAddress": null
    },
    {
      "status": "0x1",
      "cumulativeGasUsed": "0x3d386a",
      "logs": [
        {
          "address": "0xd164fd1b456b067fc52c2c9445e7ab980d411563",
          "topics": [
            "0xdf04234d4adad453c202a56aae343d791761210eb89d2d72fd2ff7102d8d3186",
            "0x608e17bb6814e7eb8d564b13416322f3d8a2dc5e36dde75519945008d7848749",
            "0x0000000000000000000000005dbd29ca81385606888112288bbae95f0eb9f170"
          ],
          "data": "0x",
          "blockHash": "0xbed2acdf3b2d785e5c006a3ae55f6b00ca111ac5aa34590906a1af2b4824cf55",
          "blockNumber": "0x2b0ffd",
          "transactionHash": "0x945a99f5da8ccb17254df942318d2a6acc453182a3cdd89683e12dcf85ef79ee",
          "transactionIndex": "0x7",
          "logIndex": "0x6",
          "removed": false
        }
      ],
      "logsBloom": "0x00000000000000000000000000000010000000000000000000000000000000000000000000000000000000000000000000800000004000000000000000000000000000040000000000000000000000000000000000000000000000000000000000000000000000000000000000000000000000000000000000000010000000000000000000000000000000000010000000004000000000000000000000000000000000000000020000000000000000000000000000000020000000000000000000000000000000000000000000000000000000000000000000020000000000000000000000005000000000000000000000000000000000000000000000000000",
      "type": "0x2",
      "transactionHash": "0x945a99f5da8ccb17254df942318d2a6acc453182a3cdd89683e12dcf85ef79ee",
      "transactionIndex": "0x7",
      "blockHash": "0xbed2acdf3b2d785e5c006a3ae55f6b00ca111ac5aa34590906a1af2b4824cf55",
      "blockNumber": "0x2b0ffd",
      "gasUsed": "0xbe4c",
      "effectiveGasPrice": "0x15d7a926200",
      "from": "0x95ed40013cb3990013af947a635d1a3e31057426",
      "to": "0xd164fd1b456b067fc52c2c9445e7ab980d411563",
      "contractAddress": null
    },
    {
      "status": "0x1",
      "cumulativeGasUsed": "0x3df6b6",
      "logs": [
        {
          "address": "0xd164fd1b456b067fc52c2c9445e7ab980d411563",
          "topics": [
            "0xdf04234d4adad453c202a56aae343d791761210eb89d2d72fd2ff7102d8d3186",
            "0xefa585451ff82e7559b7e4aa3c7d26b394fd121301bbf6f1da4ef6d29210466e",
            "0x000000000000000000000000a35f2923f8c6a8e9d2f655ab4cfb373864e6cc89"
          ],
          "data": "0x",
          "blockHash": "0xbed2acdf3b2d785e5c006a3ae55f6b00ca111ac5aa34590906a1af2b4824cf55",
          "blockNumber": "0x2b0ffd",
          "transactionHash": "0xd9a7651a1bdcc1ff4c96f2bdf004440e3af7e11fd7bb9b0365ed8a44c654ff91",
          "transactionIndex": "0x8",
          "logIndex": "0x7",
          "removed": false
        }
      ],
      "logsBloom": "0x00000000000000000000000000000010000000000000000000000000000000000000000008000000000000000000000000800000004000000000000000000000000000000000000000000000000000000000000000080000000000000000000000000000000000000000000000000000000010000000000000000000000000000000000000000000000000000000000000004000000000000000000000000000000000000000000000000000000000000000000000000000000000000000000000000000000000000000000000000000800000000000000000000000000000800200000000005000000000000000000000000000000000000000000000000000",
      "type": "0x2",
      "transactionHash": "0xd9a7651a1bdcc1ff4c96f2bdf004440e3af7e11fd7bb9b0365ed8a44c654ff91",
      "transactionIndex": "0x8",
      "blockHash": "0xbed2acdf3b2d785e5c006a3ae55f6b00ca111ac5aa34590906a1af2b4824cf55",
      "blockNumber": "0x2b0ffd",
      "gasUsed": "0xbe4c",
      "effectiveGasPrice": "0x15d7a926200",
      "from": "0x95ed40013cb3990013af947a635d1a3e31057426",
      "to": "0xd164fd1b456b067fc52c2c9445e7ab980d411563",
      "contractAddress": null
    },
    {
      "status": "0x1",
      "cumulativeGasUsed": "0x3eb50e",
      "logs": [
        {
          "address": "0xd164fd1b456b067fc52c2c9445e7ab980d411563",
          "topics": [
            "0xdf04234d4adad453c202a56aae343d791761210eb89d2d72fd2ff7102d8d3186",
            "0x4d2685df44ed8d92cd381798ca9d3877ed9fca9a24cbfcf0e5985c253410b371",
            "0x000000000000000000000000f34772793a37cab10e13b7fb686f93445e0f4339"
          ],
          "data": "0x",
          "blockHash": "0xbed2acdf3b2d785e5c006a3ae55f6b00ca111ac5aa34590906a1af2b4824cf55",
          "blockNumber": "0x2b0ffd",
          "transactionHash": "0x1e5f770e79986ec4f3000f8580da26c2a27322570e4653198fb4f8287982ceb9",
          "transactionIndex": "0x9",
          "logIndex": "0x8",
          "removed": false
        }
      ],
      "logsBloom": "0x00000000000000000000000100000010000000000000000000000000000000000000000000000000000000000000000000820000004000000000000000000000000000000000000000000000000000000000000000000000000000000000000000000000000000000000000002000000000000000000000000000000000000000000000000010000000000000000000000004000000000000000000000000000000000000000000000000000000000000000000000000000000001000000000000000000000000000000000000000000000000000000000000000000000000000000000000005000000000000000000400000000000000000000000000000000",
      "type": "0x2",
      "transactionHash": "0x1e5f770e79986ec4f3000f8580da26c2a27322570e4653198fb4f8287982ceb9",
      "transactionIndex": "0x9",
      "blockHash": "0xbed2acdf3b2d785e5c006a3ae55f6b00ca111ac5aa34590906a1af2b4824cf55",
      "blockNumber": "0x2b0ffd",
      "gasUsed": "0xbe58",
      "effectiveGasPrice": "0x15d7a926200",
      "from": "0x95ed40013cb3990013af947a635d1a3e31057426",
      "to": "0xd164fd1b456b067fc52c2c9445e7ab980d411563",
      "contractAddress": null
    },
    {
      "status": "0x1",
      "cumulativeGasUsed": "0x3f734e",
      "logs": [
        {
          "address": "0xd164fd1b456b067fc52c2c9445e7ab980d411563",
          "topics": [
            "0xdf04234d4adad453c202a56aae343d791761210eb89d2d72fd2ff7102d8d3186",
            "0xabad9a062c9f315a9feea094e0ec8d4620ba3e5953a36728cb12e20baddf0a07",
            "0x000000000000000000000000f11b4128624461839165f46cc3ef30ea84fb4dbc"
          ],
          "data": "0x",
          "blockHash": "0xbed2acdf3b2d785e5c006a3ae55f6b00ca111ac5aa34590906a1af2b4824cf55",
          "blockNumber": "0x2b0ffd",
          "transactionHash": "0x4ef2818a2431cc40c7a9fea8bd9a78f3951e8e4a0d88f9a1f76787809214b4c8",
          "transactionIndex": "0xa",
          "logIndex": "0x9",
          "removed": false
        }
      ],
      "logsBloom": "0x00000000000000000000000000000010000000000000000000000000000000000000000000000000000000000000000000800000004000000000000000000000000000000000000000000000000000000000000000000000000000000000000008000000000000000000000000000000000008000000000000000000000000000000000000000000000000000000000000004000000000000000000000000000000000000000000000000000000004000001000000000000000000000000000000000000000200000000000000000000000000000000000000000000080000000000000000005000000000000000000000000000000000000000000000000000",
      "type": "0x2",
      "transactionHash": "0x4ef2818a2431cc40c7a9fea8bd9a78f3951e8e4a0d88f9a1f76787809214b4c8",
      "transactionIndex": "0xa",
      "blockHash": "0xbed2acdf3b2d785e5c006a3ae55f6b00ca111ac5aa34590906a1af2b4824cf55",
      "blockNumber": "0x2b0ffd",
      "gasUsed": "0xbe40",
      "effectiveGasPrice": "0x15d7a926200",
      "from": "0x95ed40013cb3990013af947a635d1a3e31057426",
      "to": "0xd164fd1b456b067fc52c2c9445e7ab980d411563",
      "contractAddress": null
    },
    {
      "status": "0x1",
      "cumulativeGasUsed": "0x40319a",
      "logs": [
        {
          "address": "0xd164fd1b456b067fc52c2c9445e7ab980d411563",
          "topics": [
            "0xdf04234d4adad453c202a56aae343d791761210eb89d2d72fd2ff7102d8d3186",
            "0x33a9943bc13f82050177e083c742d665a37b94763b617af88e4f7d84f1d209ff",
            "0x0000000000000000000000001e44cfa2c04f9bbe1c612673bc808c214ba04941"
          ],
          "data": "0x",
          "blockHash": "0xbed2acdf3b2d785e5c006a3ae55f6b00ca111ac5aa34590906a1af2b4824cf55",
          "blockNumber": "0x2b0ffd",
          "transactionHash": "0x20549c1821b84b3eb36ec78def1c6e5488d7dd409e0b11bc545ea3e7d27bab32",
          "transactionIndex": "0xb",
          "logIndex": "0xa",
          "removed": false
        }
      ],
      "logsBloom": "0x00000000000004000000000000000010000000000000000000000000000000000000000000000000000000000000400000800000004000000000000040000000000000000000000000000000000000000000000000000000000000000000000000000000000000000040000000000000000000000000000000000000000000000000000000000000000000000000000000004004000000000000000000000000000000000000000000000000000000000000000000000000000000000000000000000000000000000000000000000000000000000000000000000000000000000000000000005000000000000000000000000000000000000000000000010000",
      "type": "0x2",
      "transactionHash": "0x20549c1821b84b3eb36ec78def1c6e5488d7dd409e0b11bc545ea3e7d27bab32",
      "transactionIndex": "0xb",
      "blockHash": "0xbed2acdf3b2d785e5c006a3ae55f6b00ca111ac5aa34590906a1af2b4824cf55",
      "blockNumber": "0x2b0ffd",
      "gasUsed": "0xbe4c",
      "effectiveGasPrice": "0x15d7a926200",
      "from": "0x95ed40013cb3990013af947a635d1a3e31057426",
      "to": "0xd164fd1b456b067fc52c2c9445e7ab980d411563",
      "contractAddress": null
    },
    {
      "status": "0x1",
      "cumulativeGasUsed": "0x40efda",
      "logs": [
        {
          "address": "0xd164fd1b456b067fc52c2c9445e7ab980d411563",
          "topics": [
            "0xdf04234d4adad453c202a56aae343d791761210eb89d2d72fd2ff7102d8d3186",
            "0xe98e2830be1a7e4156d656a7505e65d08c67660dc618072422e9c78053c261e9",
            "0x000000000000000000000000bb906be3676b1d6872cdca58e336aea089c698b0"
          ],
          "data": "0x",
          "blockHash": "0xbed2acdf3b2d785e5c006a3ae55f6b00ca111ac5aa34590906a1af2b4824cf55",
          "blockNumber": "0x2b0ffd",
          "transactionHash": "0x9f2999524da625fb6268c858ae64b865cb7a3b5b46b02fe0390f4020dace5f07",
          "transactionIndex": "0xc",
          "logIndex": "0xb",
          "removed": false
        }
      ],
      "logsBloom": "0x00000000000000000000000000000010000000000000000000000000000000000000000000000000002000000000000000800000004000000000000000000000000000000000000000000000000000000000000000000000000000000000000000000000000000000000000000000000000000000000000000000000000000000000000000000001000000000000000000004000000000000000000000000000000000000000000000000000000000000000000000000000000000000000000000000000000000000000000000000000000000000000000000000040000000000000000000005000000100000000000000000000000000000000000000400000",
      "type": "0x2",
      "transactionHash": "0x9f2999524da625fb6268c858ae64b865cb7a3b5b46b02fe0390f4020dace5f07",
      "transactionIndex": "0xc",
      "blockHash": "0xbed2acdf3b2d785e5c006a3ae55f6b00ca111ac5aa34590906a1af2b4824cf55",
      "blockNumber": "0x2b0ffd",
      "gasUsed": "0xbe40",
      "effectiveGasPrice": "0x15d7a926200",
      "from": "0x95ed40013cb3990013af947a635d1a3e31057426",
      "to": "0xd164fd1b456b067fc52c2c9445e7ab980d411563",
      "contractAddress": null
    },
    {
      "status": "0x1",
      "cumulativeGasUsed": "0x416740",
      "logs": [
        {
          "address": "0x30490c9239fdc6ff8feef84ff6f7b657ec6882f8",
          "topics": [
            "0x89baabef7dfd0683c0ac16fd2a8431c51b49fbe654c3f7b5ef19763e2ccd88f2",
            "0x000000000000000000000000c8e8e0f33d0cd24ee2cf2536fe2e34c6f0d83cd4",
            "0x000000000000000000000000d164fd1b456b067fc52c2c9445e7ab980d411563"
          ],
          "data": "0x",
          "blockHash": "0xbed2acdf3b2d785e5c006a3ae55f6b00ca111ac5aa34590906a1af2b4824cf55",
          "blockNumber": "0x2b0ffd",
          "transactionHash": "0x650a61a9443b115c060aa005498b727a0846f26bc8645b38aea9ea248d904b1d",
          "transactionIndex": "0xd",
          "logIndex": "0xc",
          "removed": false
        }
      ],
      "logsBloom": "0x00000000000000000000000000000000000000000000000000000000000000000000000000000000000800000000000000000000000000000000000000400000000000000000000000000000000000000000000004000000000000000000000000000000110000000000000000000000000000000400000000000000020000000000000040008000000000000000000000000000000008000000000000000000000000000000000000000000200000000000000000000000000000000000000000000000000000000000000000000000000000000000004000000000000000000000000000000000000000000000000000000000000000000000000000000000",
      "type": "0x2",
      "transactionHash": "0x650a61a9443b115c060aa005498b727a0846f26bc8645b38aea9ea248d904b1d",
      "transactionIndex": "0xd",
      "blockHash": "0xbed2acdf3b2d785e5c006a3ae55f6b00ca111ac5aa34590906a1af2b4824cf55",
      "blockNumber": "0x2b0ffd",
      "gasUsed": "0x7766",
      "effectiveGasPrice": "0x15d7a926200",
      "from": "0x95ed40013cb3990013af947a635d1a3e31057426",
      "to": "0x30490c9239fdc6ff8feef84ff6f7b657ec6882f8",
      "contractAddress": null
    },
    {
      "status": "0x1",
      "cumulativeGasUsed": "0x41dea6",
      "logs": [
        {
          "address": "0x5dbd29ca81385606888112288bbae95f0eb9f170",
          "topics": [
            "0x89baabef7dfd0683c0ac16fd2a8431c51b49fbe654c3f7b5ef19763e2ccd88f2",
            "0x000000000000000000000000c8e8e0f33d0cd24ee2cf2536fe2e34c6f0d83cd4",
            "0x000000000000000000000000d164fd1b456b067fc52c2c9445e7ab980d411563"
          ],
          "data": "0x",
          "blockHash": "0xbed2acdf3b2d785e5c006a3ae55f6b00ca111ac5aa34590906a1af2b4824cf55",
          "blockNumber": "0x2b0ffd",
          "transactionHash": "0xe46fb8efcac7c9d6e058952a2ca894586cbb0aad2dc44db0d931f6346d91bb37",
          "transactionIndex": "0xe",
          "logIndex": "0xd",
          "removed": false
        }
      ],
      "logsBloom": "0x00000000000000000000000000000000000000000000000000000000000000000000000000000000000800000000000000000000000000000000000000400000000000000000000000000000000000000000000004000000000000000000000000000000110080000000000000000000000000000400000000000000020000000000000040000000000000000000000200000000000000000000000000000000002000000000000000000000200000000000000000000000000000000000000000000000000000000000000000000000000000000000000000000000000000000000000000000000000000000000000000000000000000000000000000000000",
      "type": "0x2",
      "transactionHash": "0xe46fb8efcac7c9d6e058952a2ca894586cbb0aad2dc44db0d931f6346d91bb37",
      "transactionIndex": "0xe",
      "blockHash": "0xbed2acdf3b2d785e5c006a3ae55f6b00ca111ac5aa34590906a1af2b4824cf55",
      "blockNumber": "0x2b0ffd",
      "gasUsed": "0x7766",
      "effectiveGasPrice": "0x15d7a926200",
      "from": "0x95ed40013cb3990013af947a635d1a3e31057426",
      "to": "0x5dbd29ca81385606888112288bbae95f0eb9f170",
      "contractAddress": null
    },
    {
      "status": "0x1",
      "cumulativeGasUsed": "0x42560c",
      "logs": [
        {
          "address": "0xa35f2923f8c6a8e9d2f655ab4cfb373864e6cc89",
          "topics": [
            "0x89baabef7dfd0683c0ac16fd2a8431c51b49fbe654c3f7b5ef19763e2ccd88f2",
            "0x000000000000000000000000c8e8e0f33d0cd24ee2cf2536fe2e34c6f0d83cd4",
            "0x000000000000000000000000d164fd1b456b067fc52c2c9445e7ab980d411563"
          ],
          "data": "0x",
          "blockHash": "0xbed2acdf3b2d785e5c006a3ae55f6b00ca111ac5aa34590906a1af2b4824cf55",
          "blockNumber": "0x2b0ffd",
          "transactionHash": "0x4a473a8cce643cef19b8e0dd15242fea6a95dd979d728ea8999288ca9804b7f3",
          "transactionIndex": "0xf",
          "logIndex": "0xe",
          "removed": false
        }
      ],
      "logsBloom": "0x00000000000000000000000000000000000000008000000000000000000000000000000000000000000800000000000000000000000000000000000000400000000000000000000004000000000000000000000004000000000000000000000000000000110000000000000000000000000000000400000000000000020000000000020040000000000000000000000000000000000000000000000000000000000000000000000000000000200000000000000000000000000000000000000000000000000000000000000000000000000000000000000000000000000000000000000000000000000000000000000000000000000000000000000000000000",
      "type": "0x2",
      "transactionHash": "0x4a473a8cce643cef19b8e0dd15242fea6a95dd979d728ea8999288ca9804b7f3",
      "transactionIndex": "0xf",
      "blockHash": "0xbed2acdf3b2d785e5c006a3ae55f6b00ca111ac5aa34590906a1af2b4824cf55",
      "blockNumber": "0x2b0ffd",
      "gasUsed": "0x7766",
      "effectiveGasPrice": "0x15d7a926200",
      "from": "0x95ed40013cb3990013af947a635d1a3e31057426",
      "to": "0xa35f2923f8c6a8e9d2f655ab4cfb373864e6cc89",
      "contractAddress": null
    },
    {
      "status": "0x1",
      "cumulativeGasUsed": "0x42cd72",
      "logs": [
        {
          "address": "0xf34772793a37cab10e13b7fb686f93445e0f4339",
          "topics": [
            "0x89baabef7dfd0683c0ac16fd2a8431c51b49fbe654c3f7b5ef19763e2ccd88f2",
            "0x000000000000000000000000c8e8e0f33d0cd24ee2cf2536fe2e34c6f0d83cd4",
            "0x000000000000000000000000d164fd1b456b067fc52c2c9445e7ab980d411563"
          ],
          "data": "0x",
          "blockHash": "0xbed2acdf3b2d785e5c006a3ae55f6b00ca111ac5aa34590906a1af2b4824cf55",
          "blockNumber": "0x2b0ffd",
          "transactionHash": "0xcef4a8772117a48aeeeb542ed83b3e44d775385bd292cf6daab47750a5415392",
          "transactionIndex": "0x10",
          "logIndex": "0xf",
          "removed": false
        }
      ],
      "logsBloom": "0x00000000000000000000000000000000000000000000000000000000000000004000000000000000000800000000000000000000000000000000000000400200000000000000000000000000000000000000000004000000000000000000000000000000110000000000000000000000000000000400000000000000020000000000000040000000000000000000000000000000000000000000000000000000000000000000000000000000200000000000000000000000000000000000000000000000000000000000000000000000000000000000000000000000000000000000000000000000000000000008000000000000000000000000000000000000",
      "type": "0x2",
      "transactionHash": "0xcef4a8772117a48aeeeb542ed83b3e44d775385bd292cf6daab47750a5415392",
      "transactionIndex": "0x10",
      "blockHash": "0xbed2acdf3b2d785e5c006a3ae55f6b00ca111ac5aa34590906a1af2b4824cf55",
      "blockNumber": "0x2b0ffd",
      "gasUsed": "0x7766",
      "effectiveGasPrice": "0x15d7a926200",
      "from": "0x95ed40013cb3990013af947a635d1a3e31057426",
      "to": "0xf34772793a37cab10e13b7fb686f93445e0f4339",
      "contractAddress": null
    },
    {
      "status": "0x1",
      "cumulativeGasUsed": "0x4344d8",
      "logs": [
        {
          "address": "0xf11b4128624461839165f46cc3ef30ea84fb4dbc",
          "topics": [
            "0x89baabef7dfd0683c0ac16fd2a8431c51b49fbe654c3f7b5ef19763e2ccd88f2",
            "0x000000000000000000000000c8e8e0f33d0cd24ee2cf2536fe2e34c6f0d83cd4",
            "0x000000000000000000000000d164fd1b456b067fc52c2c9445e7ab980d411563"
          ],
          "data": "0x",
          "blockHash": "0xbed2acdf3b2d785e5c006a3ae55f6b00ca111ac5aa34590906a1af2b4824cf55",
          "blockNumber": "0x2b0ffd",
          "transactionHash": "0xdc1e4e4e66970095994919776cee1af520cc7b7f0bea13aab7c8cf56a4be7f8b",
          "transactionIndex": "0x11",
          "logIndex": "0x10",
          "removed": false
        }
      ],
      "logsBloom": "0x00000000000000000000000000000000000000000000000004000000000000000000000000000000000800000000000000000000000000000000000000400000000000000000000000000000000000000000000004000000000020000000000000000000110000000000000000000000000000000400000000000000020000000000000040000000000000000000000000000000000000000000000000000000000000000000000000000000200000000000000000000000000000000000000000000000000000000000000000000000000000000000000000000000000000000000000000000000000000000000000000000000000080000000000000000000",
      "type": "0x2",
      "transactionHash": "0xdc1e4e4e66970095994919776cee1af520cc7b7f0bea13aab7c8cf56a4be7f8b",
      "transactionIndex": "0x11",
      "blockHash": "0xbed2acdf3b2d785e5c006a3ae55f6b00ca111ac5aa34590906a1af2b4824cf55",
      "blockNumber": "0x2b0ffd",
      "gasUsed": "0x7766",
      "effectiveGasPrice": "0x15d7a926200",
      "from": "0x95ed40013cb3990013af947a635d1a3e31057426",
      "to": "0xf11b4128624461839165f46cc3ef30ea84fb4dbc",
      "contractAddress": null
    },
    {
      "status": "0x1",
      "cumulativeGasUsed": "0x43bc3e",
      "logs": [
        {
          "address": "0x1e44cfa2c04f9bbe1c612673bc808c214ba04941",
          "topics": [
            "0x89baabef7dfd0683c0ac16fd2a8431c51b49fbe654c3f7b5ef19763e2ccd88f2",
            "0x000000000000000000000000c8e8e0f33d0cd24ee2cf2536fe2e34c6f0d83cd4",
            "0x000000000000000000000000d164fd1b456b067fc52c2c9445e7ab980d411563"
          ],
          "data": "0x",
          "blockHash": "0xbed2acdf3b2d785e5c006a3ae55f6b00ca111ac5aa34590906a1af2b4824cf55",
          "blockNumber": "0x2b0ffd",
          "transactionHash": "0xf18c03b4f84c607b22de5a21a4aa78e443bf14a8ccd4866f01123dea2356ae7c",
          "transactionIndex": "0x12",
          "logIndex": "0x11",
          "removed": false
        }
      ],
      "logsBloom": "0x00000000000000000000000000000000000000000000000000000000000000000000000000000000000800000000000000000000000000000000000000400000000000000000000000000000000000000000000004000000000000000000000000000000110000000000000000000000000000000400000000000000020000000000000040000000000000000000000000000000000000000000000000000010000000000010000000000000200000000000000000000000000000000000000000000000000000000000000000000000000000000080000000000000000000000000000000000000000000000000000000000000000000000000000000000000",
      "type": "0x2",
      "transactionHash": "0xf18c03b4f84c607b22de5a21a4aa78e443bf14a8ccd4866f01123dea2356ae7c",
      "transactionIndex": "0x12",
      "blockHash": "0xbed2acdf3b2d785e5c006a3ae55f6b00ca111ac5aa34590906a1af2b4824cf55",
      "blockNumber": "0x2b0ffd",
      "gasUsed": "0x7766",
      "effectiveGasPrice": "0x15d7a926200",
      "from": "0x95ed40013cb3990013af947a635d1a3e31057426",
      "to": "0x1e44cfa2c04f9bbe1c612673bc808c214ba04941",
      "contractAddress": null
    },
    {
      "status": "0x1",
      "cumulativeGasUsed": "0x4433a4",
      "logs": [
        {
          "address": "0xbb906be3676b1d6872cdca58e336aea089c698b0",
          "topics": [
            "0x89baabef7dfd0683c0ac16fd2a8431c51b49fbe654c3f7b5ef19763e2ccd88f2",
            "0x000000000000000000000000c8e8e0f33d0cd24ee2cf2536fe2e34c6f0d83cd4",
            "0x000000000000000000000000d164fd1b456b067fc52c2c9445e7ab980d411563"
          ],
          "data": "0x",
          "blockHash": "0xbed2acdf3b2d785e5c006a3ae55f6b00ca111ac5aa34590906a1af2b4824cf55",
          "blockNumber": "0x2b0ffd",
          "transactionHash": "0xa8a4e426324c0755d1c32fdd6728c5d061cf3b4734a3415b506c94f14f2e7ce2",
          "transactionIndex": "0x13",
          "logIndex": "0x12",
          "removed": false
        }
      ],
      "logsBloom": "0x00000000000000000000000000000000000000000000000000000000000000000000000000000000000800000000000000000000000000000000000000400000000000000000000000000000000000200000000004000000000000000000000000000000110000000000000000000000000000000400000000000000020000000000000040000000000000000000000000000000000000000000008000000000000000000000000000000000200000000000000000000000000000000000000000000000000000000000000000000000000000000000000000000000000080000000000000000000000000000000000000000000000000000000000000000000",
      "type": "0x2",
      "transactionHash": "0xa8a4e426324c0755d1c32fdd6728c5d061cf3b4734a3415b506c94f14f2e7ce2",
      "transactionIndex": "0x13",
      "blockHash": "0xbed2acdf3b2d785e5c006a3ae55f6b00ca111ac5aa34590906a1af2b4824cf55",
      "blockNumber": "0x2b0ffd",
      "gasUsed": "0x7766",
      "effectiveGasPrice": "0x15d7a926200",
      "from": "0x95ed40013cb3990013af947a635d1a3e31057426",
      "to": "0xbb906be3676b1d6872cdca58e336aea089c698b0",
      "contractAddress": null
    }
  ],
  "libraries": [],
  "pending": [],
  "returns": {},
  "timestamp": 1764996954356,
  "chain": 43522,
  "commit": "51976fb"
}